:100000000C942A000C9447000C9447000C94470071
:100010000C9447000C9447000C9447000C941B0D63
:100020000C9447000C9447000C9447000C94470034
:100030000C9447000C9447000C9447000C94470024
:100040000C9447000C9447000C9447000C94470014
:100050000C94470011241FBECFE5D8E0DEBFCDBF12
:1000600010E0A0E6B0E0E6EDF6E402C005900D92E7
:10007000A636B107D9F714E0A6E6B0E001C01D929C
:10008000A53CB107E1F70E94B7090C9469230C94D1
:100090000000DF93CF93CDB7DEB7EAE3F0E087E06F
:1000A0008083E7E3F0E01082E4E3F0E01082E1E334
:1000B000F0E01082EBE3F0E01082E8E3F0E0108281
:1000C000E5E3F0E01082E2E3F0E01082CF91DF910F
:1000D0000895DF93CF93CDB7DEB72E970FB6F89480
:1000E000DEBF0FBECDBF8A836B834C8381E08983E3
:1000F0008A81843008F00DC18B81883008F009C1F5
:100100008C81882321F08C81813009F002C18A81A1
:10011000282F30E03E872D878D859E858130910583
:1001200009F44FC02D853E85223031052CF48D8594
:100130009E85009771F0EEC02D853E8522303105F9
:1001400009F477C08D859E858330910509F4A9C097
:10015000E1C08B81282F30E03C872B878B859C85E5
:10016000009731F02B853C8521303105B1F0D2C0AC
:10017000AAE3B0E0EAE3F0E08081482F8B81282FEA
:1001800030E081E090E0022E02C0880F991F0A94AF
:10019000E2F7809584238C93BDC0AAE3B0E0EAE344
:1001A000F0E08081482F8B81282F30E081E090E0C3
:1001B000022E02C0880F991F0A94E2F7842B8C93B9
:1001C000A9C08B81282F30E03A87298789859A85B5
:1001D000009731F029853A8521303105B1F09AC078
:1001E000A7E3B0E0E7E3F0E08081482F8B81282F80
:1001F00030E081E090E0022E02C0880F991F0A943F
:10020000E2F7809584238C9385C0A7E3B0E0E7E311
:10021000F0E08081482F8B81282F30E081E090E052
:10022000022E02C0880F991F0A94E2F7842B8C9348
:1002300071C08B81282F30E038872F838F8198857C
:10024000009731F02F81388521303105B1F062C03F
:10025000A4E3B0E0E4E3F0E08081482F8B81282F15
:1002600030E081E090E0022E02C0880F991F0A94CE
:10027000E2F7809584238C934DC0A4E3B0E0E4E3DF
:10028000F0E08081482F8B81282F30E081E090E0E2
:10029000022E02C0880F991F0A94E2F7842B8C93D8
:1002A00039C08B81282F30E03E832D838D819E8144
:1002B000009731F02D813E8121303105B1F02AC007
:1002C000A1E3B0E0E1E3F0E08081482F8B81282FAB
:1002D00030E081E090E0022E02C0880F991F0A945E
:1002E000E2F7809584238C9315C0A1E3B0E0E1E3AD
:1002F000F0E08081482F8B81282F30E081E090E072
:10030000022E02C0880F991F0A94E2F7842B8C9367
:1003100001C0198289812E960FB6F894DEBF0FBEF8
:10032000CDBFCF91DF910895DF93CF93CDB7DEB7E7
:100330002E970FB6F894DEBF0FBECDBF8A836B83B6
:100340004C8381E089838B81883008F00CC18A81DD
:10035000282F30E03E872D878D859E858130910541
:1003600009F451C02D853E85223031052CF48D8550
:100370009E85009771F0F5C02D853E8522303105B0
:1003800009F47BC08D859E858330910509F4AFC04B
:10039000E8C08C81282F30E03C872B878B859C859B
:1003A000009731F02B853C8521303105B1F029C013
:1003B000ABE3B0E0EBE3F0E08081482F8B81282FA6
:1003C00030E081E090E0022E02C0880F991F0A946D
:1003D000E2F7809584238C93C7C0ABE3B0E0EBE3F6
:1003E000F0E08081482F8B81282F30E081E090E081
:1003F000022E02C0880F991F0A94E2F7842B8C9377
:10040000B3C01982B1C08C81282F30E03A87298788
:1004100089859A85009731F029853A852130310503
:10042000B1F029C0A8E3B0E0E8E3F0E08081482F14
:100430008B81282F30E081E090E0022E02C0880FEF
:10044000991F0A94E2F7809584238C938DC0A8E3CA
:10045000B0E0E8E3F0E08081482F8B81282F30E086
:1004600081E090E0022E02C0880F991F0A94E2F703
:10047000842B8C9379C0198277C08C81282F30E02F
:1004800038872F838F819885009731F02F813885A9
:1004900021303105B1F029C0A5E3B0E0E5E3F0E09B
:1004A0008081482F8B81282F30E081E090E0022E60
:1004B00002C0880F991F0A94E2F7809584238C93D9
:1004C00053C0A5E3B0E0E5E3F0E08081482F8B81E5
:1004D000282F30E081E090E0022E02C0880F991FA3
:1004E0000A94E2F7842B8C933FC019823DC08C8123
:1004F000282F30E03E832D838D819E81009731F03F
:100500002D813E8121303105B1F029C0A2E3B0E058
:10051000E2E3F0E08081482F8B81282F30E081E0FA
:1005200090E0022E02C0880F991F0A94E2F780958E
:1005300084238C9319C0A2E3B0E0E2E3F0E0808171
:10054000482F8B81282F30E081E090E0022E02C0FE
:10055000880F991F0A94E2F7842B8C9305C01982A7
:1005600003C0198201C0198289812E960FB6F894B2
:10057000DEBF0FBECDBFCF91DF910895DF93CF9344
:10058000CDB7DEB728970FB6F894DEBF0FBECDBF4C
:100590008B836C835E834D8381E08A838B8184307F
:1005A00008F0A1C08C81883008F09DC08D819E81AB
:1005B000009709F498C08B81282F30E038872F836B
:1005C0004F81588541305105A9F18F81988582303E
:1005D000910534F42F8138852115310571F081C0E2
:1005E0004F8158854230510509F441C08F8198856B
:1005F0008330910509F458C074C0E9E3F0E08081CC
:10060000282F30E08C81882F90E0A90102C05595F9
:1006100047958A95E2F7CA01817089838981882389
:1006200021F4ED81FE8110825FC0ED81FE8181E0C9
:1006300080835AC0E6E3F0E08081282F30E08C818F
:10064000882F90E0A90102C0559547958A95E2F759
:10065000CA01817089838981882321F4ED81FE811B
:10066000108242C0ED81FE8181E080833DC0E3E3E2
:10067000F0E08081282F30E08C81882F90E0A90164
:1006800002C0559547958A95E2F7CA018170898322
:100690008981882321F4ED81FE81108225C0ED81BE
:1006A000FE8181E0808320C0E0E3F0E08081282F9C
:1006B00030E08C81882F90E0A90102C055954795C4
:1006C0008A95E2F7CA01817089838981882321F4A0
:1006D000ED81FE81108208C0ED81FE8181E0808382
:1006E00003C01A8201C01A828A8128960FB6F89434
:1006F000DEBF0FBECDBFCF91DF910895DF93CF93C3
:10070000CDB7DEB72D970FB6F894DEBF0FBECDBFC5
:100710008A836B8381E089838B81882321F08B819D
:10072000813009F082C08A81282F30E03D872C87F4
:100730008C859D858130910571F12C853D85223018
:1007400031052CF48C859D85009769F06CC02C8553
:100750003D8522303105B9F18C859D858330910529
:1007600009F449C060C08B81282F30E03B872A877D
:100770008A859B85009731F02A853B85213031059C
:1007800029F054C0EAE3F0E0108250C0EAE3F0E060
:100790008FEF80834BC08B81282F30E039872887EB
:1007A00088859985009731F0288539852130310574
:1007B00029F03CC0E7E3F0E0108238C0E7E3F0E066
:1007C0008FEF808333C08B81282F30E03F832E83CF
:1007D0008E819F81009731F02E813F81213031053C
:1007E00029F024C0E4E3F0E0108220C0E4E3F0E06C
:1007F0008FEF80831BC08B81282F30E03D832C83BB
:100800008C819D81009731F02C813D812130310513
:1008100029F00CC0E1E3F0E0108208C0E1E3F0E071
:100820008FEF808303C0198201C0198289812D96C0
:100830000FB6F894DEBF0FBECDBFCF91DF91089504
:10084000DF93CF9300D000D00F92CDB7DEB78A836D
:100850006B8381E089838A81282F30E03D832C835C
:100860008C819D8181309105D1F02C813D81223098
:1008700031052CF48C819D81009761F01FC02C8183
:100880003D812230310581F08C819D81833091053D
:1008900081F014C0EBE3F0E08B81808310C0E8E3CB
:1008A000F0E08B8180830BC0E5E3F0E08B818083F7
:1008B00006C0E2E3F0E08B81808301C01982898168
:1008C0000F900F900F900F900F90CF91DF910895A0
:1008D000DF93CF9300D000D000D0CDB7DEB78A83AE
:1008E0007C836B8381E089838B819C810097E9F114
:1008F0008A81282F30E03E832D838D819E81813037
:100900009105E1F02D813E81223031052CF48D815D
:100910009E81009761F027C02D813E8122303105F4
:10092000A1F08D819E8183309105B1F01CC0E9E377
:10093000F0E08081EB81FC81808318C0E6E3F0E089
:100940008081EB81FC81808311C0E3E3F0E0808152
:10095000EB81FC8180830AC0E0E3F0E08081EB81E1
:10096000FC81808303C0198201C019828981269687
:100970000FB6F894DEBF0FBECDBFCF91DF910895C3
:10098000DF93CF9300D0CDB7DEB78BE090E00E942D
:1009900005089A83898389819A81009749F0E981C2
:1009A000FA811182108289819A8102960E948108BF
:1009B00089819A810F900F90CF91DF910895DF93F5
:1009C000CF93CDB7DEB760970FB6F894DEBF0FBEFA
:1009D000CDBF9A8789877C876B875E874D87388BE9
:1009E0002F8789859A859C838B8319820E94B919E8
:1009F000EB81FC818081918198878F8389859A859D
:100A00002B853C85B9010E94B6062F8138858B85E0
:100A10009C85282B392B8D859E85282339238D8510
:100A20009E8528173907C9F42F8138858B859C85C9
:100A3000822B932B9E838D83EB81FC8120813181DE
:100A40008D859E858095909582239323EB81FC81F3
:100A500091838083188A1F861EC08F85988900978E
:100A600091F08B819C81BC016E5F7F4F8D859E854F
:100A70009C0135604F855889CB01B9010E94591CF2
:100A80001E821D8208C0EB81FC81808191819E8342
:100A90008D8381E089830E94C5198A838F85988917
:100AA000009709F43AC08A81882311F40E94090C46
:100AB0000E94BA1E9E838D838D819E81807092706C
:100AC000009731F50FB6F8940F92EB81FC8180818D
:100AD00091819E838D832D813E818D859E852823E6
:100AE00039238D859E852817390771F4EB81FC81A8
:100AF000208131818D859E858095909582239323D9
:100B0000EB81FC81918380830F900FBE81E089830C
:100B10008D819E8190709E838D838D819E81609654
:100B20000FB6F894DEBF0FBECDBFCF91DF91089511
:100B30000F931F93DF93CF93CDB7DEB763970FB6B5
:100B4000F894DEBF0FBECDBF9D878C877F876E87F1
:100B5000488B298B1B8B0A8B8C859D859B878A876D
:100B60001F821E821B820E94B919EA85FB85808143
:100B700091819A83898389819A812E853F85B901E4
:100B800049890E94D3078D838D818823C1F0898193
:100B90009A81998788871B8A1A8A88898823E9F12C
:100BA000EA85FB85208131818E859F858095909592
:100BB00082239323EA85FB85918380832EC08A89D3
:100BC0009B89009739F489819A819987888781E088
:100BD0008B8323C08889882329F08E819F8191602F
:100BE0009F838E838989882329F08E819F819460D9
:100BF0009F838E838A859B85BC016E5F7F4F2E8588
:100C00003F858E819F81282B392B4A895B89CB01B7
:100C1000B9010E94591C198618860E94C5198C8337
:100C20008A899B89009709F43CC08C81882311F440
:100C30000E94090C0E94BA1E998788878885998529
:100C400080709270009741F50FB6F8940F92EA8584
:100C5000FB858081918199878887888599852E85F4
:100C60003F85B90149890E94D307882389F0888983
:100C7000882371F0EA85FB85208131818E859F85EF
:100C80008095909582239323EA85FB8591838083C9
:100C900081E08B830F900FBE88859985907099872E
:100CA00088878885998563960FB6F894DEBF0FBE56
:100CB000CDBFCF91DF911F910F910895DF93CF9317
:100CC000CDB7DEB728970FB6F894DEBF0FBECDBF05
:100CD0009E838D8378876F838D819E819C838B8398
:100CE0000FB6F8940F92EB81FC81808191819A83F9
:100CF0008983EB81FC81208131818F81988580956A
:100D0000909582239323EB81FC81918380830F90C4
:100D10000FBE89819A8128960FB6F894DEBF0FBE68
:100D2000CDBFCF91DF910895DF93CF93CDB7DEB7DD
:100D300027970FB6F894DEBF0FBECDBF9F838E837B
:100D40008E819F819C838B831D82EB81FC818081BE
:100D500091819A83898389819A8127960FB6F89425
:100D6000DEBF0FBECDBFCF91DF910895DF93CF934C
:100D7000CDB7DEB765970FB6F894DEBF0FBECDBF17
:100D80009B8B8A8B7D8B6C8B198618868A899B89B5
:100D90009B838A8319828A819B8102969B878A879B
:100DA0008A859B8503969D878C870E94B919EA8561
:100DB000FB8585819681998B888BEA81FB812081D7
:100DC00031818C899D89822B932BEA81FB819183D0
:100DD000808359C0E889F989828193819F878E87B2
:100DE000E889F989808191819F838E8319828E8120
:100DF0009F8180709D838C838E819F8190709F8363
:100E00008E838C819D8180709470009769F4EA8153
:100E1000FB81208131818E819F81822393230097E2
:100E200091F081E089830FC0EA81FB8120813181CB
:100E30008E819F81282339238E819F81281739072E
:100E400011F481E0898389818823C9F08C819D8197
:100E500080709170009741F0888599852E813F813F
:100E6000822B932B99878887EA81FB8180819181EE
:100E70009C01326088899989B9010E94F41C8E8591
:100E80009F85998B888B288939898C859D85281722
:100E9000390709F09FCFEA81FB8120813181888564
:100EA00099858095909582239323EA81FB81918394
:100EB00080830E94C519EA81FB81808191816596BA
:100EC0000FB6F894DEBF0FBECDBFCF91DF9108956E
:100ED000DF93CF9300D000D000D0CDB7DEB79E8394
:100EE0008D838D819E819C838B838B819C810296D7
:100EF0009A8389830E94B91908C0E981FA818581A2
:100F0000968160E072E00E94F41CE981FA818081A0
:100F1000882399F78B819C810E945B080E94C519E8
:100F200026960FB6F894DEBF0FBECDBFCF91DF91EE
:100F30000895DF93CF9300D000D000D0CDB7DEB7B7
:100F40009A8389834B835C836D837E8389819A81B5
:100F50002B813C81B9010E94B60626960FB6F89403
:100F6000DEBF0FBECDBFCF91DF910895DF93CF934A
:100F700000D000D000D0CDB7DEB79A8389834B83F1
:100F80005C836D837E8389819A812B813C81B90149
:100F90000E945E0626960FB6F894DEBF0FBECDBF48
:100FA000CF91DF910895DF93CF9300D000D000D090
:100FB000CDB7DEB79B838A837D836C834E83198292
:100FC0008E81882359F48A819B812C813D818223E3
:100FD0009323009781F081E089830DC02A813B81B2
:100FE0008C819D81282339238C819D812817390785
:100FF00011F481E08983898126960FB6F894DEBFCB
:101000000FBECDBFCF91DF910895DF93CF9300D076
:1010100000D0CDB7DEB79C838B831A8219820E94E1
:10102000B9198091680090916900009731F48BE6BE
:1010300090E09093690080936800809166009091A1
:1010400067002B813C81820F931F23E0873E92072C
:1010500038F520916600309167008B819C81280FC4
:10106000391F809166009091670082179307C0F442
:10107000209168003091690080916600909167002E
:10108000820F931F9A8389832091660030916700B5
:101090008B819C81820F931F9093670080936600E1
:1010A0000E94C51989819A810F900F900F900F901F
:1010B000CF91DF910895DF93CF9300D0CDB7DEB706
:1010C0009A8389830F900F90CF91DF910895DF93DA
:1010D000CF93CDB7DEB71092670010926600CF9124
:1010E000DF910895DF93CF93CDB7DEB720916600EF
:1010F0003091670087EE93E0821B930BCF91DF91D5
:101100000895DF93CF9300D0CDB7DEB79A8389835C
:1011100089819A810396E981FA8192838183E981A9
:10112000FA818FEF9FEF9483838389819A8103965D
:10113000E981FA819683858389819A810396E98181
:10114000FA8190878783E981FA8110820F900F904E
:10115000CF91DF910895DF93CF9300D0CDB7DEB765
:101160009A838983E981FA81118610860F900F9006
:10117000CF91DF910895DF93CF9300D000D000D0BE
:10118000CDB7DEB79C838B837E836D83EB81FC813F
:10119000818192819A838983ED81FE8189819A81FF
:1011A00093838283E981FA8184819581ED81FE8137
:1011B00095838483E981FA810480F581E02D8D8116
:1011C0009E8193838283E981FA818D819E819583BB
:1011D0008483ED81FE818B819C8191878087EB8167
:1011E000FC8180818F5FEB81FC81808326960FB626
:1011F000F894DEBF0FBECDBFCF91DF910895DF938E
:10120000CF93CDB7DEB728970FB6F894DEBF0FBEE9
:10121000CDBF9E838D8378876F83EF81F885808132
:1012200091819A83898389819A812FEF8F3F9207D9
:1012300039F4ED81FE81878190859C838B8318C072
:101240008D819E8103969C838B8306C0EB81FC81FC
:10125000828193819C838B83EB81FC810280F3816B
:10126000E02D2081318189819A818217930770F75F
:10127000EB81FC8182819381EF81F8859383828366
:10128000EF81F8850280F381E02D8F819885958329
:101290008483EF81F8858B819C8195838483EB81A6
:1012A000FC818F81988593838283EF81F8858D817E
:1012B0009E8191878087ED81FE8180818F5FED81A6
:1012C000FE81808328960FB6F894DEBF0FBECDBF97
:1012D000CF91DF910895DF93CF9300D000D0CDB7A9
:1012E000DEB79C838B83EB81FC81808591859A831B
:1012F0008983EB81FC81A281B381EB81FC818481B4
:10130000958115969C938E931497EB81FC81A48113
:10131000B581EB81FC818281938113969C938E939E
:101320001297E981FA81218132818B819C81281772
:10133000390741F4EB81FC8184819581E981FA814F
:1013400092838183EB81FC8111861086E981FA8189
:1013500080818150E981FA818083E981FA818081ED
:101360000F900F900F900F90CF91DF910895EF9213
:10137000FF920F93DF93CF93CDB7DEB70E94490062
:101380008AEE99E060E070E048EC50E020E030E068
:1013900004E0EE24FF240E943E148AE09AE060E01C
:1013A00070E048EC50E020E030E003E0EE24FF2461
:1013B0000E943E148AE29AE060E070E048EC50E05F
:1013C00020E030E001E0EE24FF240E943E140E9461
:1013D0007B19FFCFDF93CF9300D0CDB7DEB79A83D1
:1013E000898380915204882349F480E060E041E0E1
:1013F0000E94940181E08093520407C080E060E085
:1014000040E00E9494011092520488EE93E00E9402
:10141000CE16E7CFDF93CF9300D0CDB7DEB79A8358
:10142000898380915304882349F480E061E041E09E
:101430000E94940181E08093530407C080E061E042
:1014400040E00E9494011092530480ED97E00E94C6
:10145000CE16E7CFDF93CF9300D0CDB7DEB79A8318
:10146000898380915404882349F480E062E041E05C
:101470000E94940181E08093540407C080E062E000
:1014800040E00E9494011092540480EA9FE00E9480
:10149000CE16E7CFDF93CF93CDB7DEB728970FB641
:1014A000F894DEBF0FBECDBF9C838B837E836D839C
:1014B00058874F83EB81FC8181E180838B819C8104
:1014C00001979C838B83EB81FC8182E280838B81FB
:1014D0009C8101979C838B83EB81FC8183E38083D8
:1014E0008B819C8101979C838B838D819E819A83C4
:1014F00089838981EB81FC8180838B819C81019729
:101500009C838B8389819A81892F99279A838983E8
:101510008981EB81FC8180838B819C8101979C83F5
:101520008B83EB81FC8110828B819C8101979C8352
:101530008B83EB81FC8180E880838B819C81019788
:101540009C838B83EB81FC8110828B819C81019732
:101550009C838B83EB81FC8182E080838B819C81E7
:1015600001979C838B83EB81FC8183E080838B815B
:101570009C8101979C838B83EB81FC8184E0808339
:101580008B819C8101979C838B83EB81FC8185E01F
:1015900080838B819C8101979C838B83EB81FC8171
:1015A00086E080838B819C8101979C838B83EB8178
:1015B000FC8187E080838B819C8101979C838B8356
:1015C000EB81FC8188E080838B819C8101979C83E7
:1015D0008B83EB81FC8189E080838B819C810197E7
:1015E0009C838B83EB81FC8180E180838B819C8158
:1015F00001979C838B83EB81FC8181E180838B81CC
:101600009C8101979C838B83EB81FC8182E18083A9
:101610008B819C8101979C838B83EB81FC8183E18F
:1016200080838B819C8101979C838B83EB81FC81E0
:1016300084E180838B819C8101979C838B83EB81E8
:10164000FC8185E180838B819C8101979C838B83C6
:10165000EB81FC8186E180838B819C8101979C8357
:101660008B83EB81FC8187E180838B819C81019757
:101670009C838B83EB81FC8188E180838B819C81BF
:1016800001979C838B83EB81FC8189E180838B8133
:101690009C8101979C838B83EB81FC8180E280831A
:1016A0008B819C8101979C838B83EB81FC8181E200
:1016B00080838B819C8101979C838B83EB81FC8150
:1016C00082E280838B819C8101979C838B83EB8159
:1016D000FC8183E280838B819C8101979C838B8337
:1016E0008F8198859A8389838981EB81FC818083AE
:1016F0008B819C8101979C838B8389819A81892F1F
:1017000099279A8389838981EB81FC8180838B81EE
:101710009C8101979C838B83EB81FC8186E2808393
:101720008B819C8101979C838B83EB81FC8187E279
:1017300080838B819C8101979C838B83EB81FC81CF
:1017400088E280838B819C8101979C838B83EB81D2
:10175000FC8189E280838B819C8101979C838B83B0
:10176000EB81FC8180E380838B819C8101979C834A
:101770008B83EB81FC8181E380838B819C8101974A
:101780009C838B838B819C8128960FB6F894DEBF57
:101790000FBECDBFCF91DF910895DF93CF93CDB72B
:1017A000DEB70E94BF0CA0915504B0915604CD91B4
:1017B000CDBFDD91DEBFFF91EF91DF91CF91BF9162
:1017C000AF919F918F917F916F915F914F913F91D9
:1017D0002F911F910F91FF90EF90DF90CF90BF90CE
:1017E000AF909F908F907F906F905F904F903F90C1
:1017F0002F901F900F900FBE0F90089581E0CF9112
:10180000DF910895DF93CF93CDB7DEB7CF91DF910E
:1018100008950F920FB6F8940F921F9211242F92F1
:101820003F924F925F926F927F928F929F92AF9270
:10183000BF92CF92DF92EF92FF920F931F932F935D
:101840003F934F935F936F937F938F939F93AF9348
:10185000BF93CF93DF93EF93FF93A0915504B09183
:1018600056040DB60D920EB60D920E94CA1BA091A1
:101870005504B0915604CD91CDBFDD91DEBFFF91EF
:10188000EF91DF91CF91BF91AF919F918F917F9118
:101890006F915F914F913F912F911F910F91FF9009
:1018A000EF90DF90CF90BF90AF909F908F907F9000
:1018B0006F905F904F903F902F901F900F900FBEB2
:1018C0000F9008950F920FB6F8940F921F92112463
:1018D0002F923F924F925F926F927F928F929F9240
:1018E000AF92BF92CF92DF92EF92FF920F931F932E
:1018F0002F933F934F935F936F937F938F939F9318
:10190000AF93BF93CF93DF93EF93FF93A0915504D1
:10191000B09156040DB60D920EB60D920E94E11ACA
:10192000882311F00E94CA1BA0915504B09156045F
:10193000CD91CDBFDD91DEBFFF91EF91DF91CF91D2
:10194000BF91AF919F918F917F916F915F914F91D7
:101950003F912F911F910F91FF90EF90DF90CF90CB
:10196000BF90AF909F908F907F906F905F904F90BF
:101970003F902F901F900F900FBE0F900895DF9310
:10198000CF9300D000D000D0CDB7DEB780E49FE188
:10199000A0E0B0E08B839C83AD83BE838B819C8170
:1019A000AD81BE81689415F8B695A79597958795F2
:1019B0001694D1F78B839C83AD83BE838B819C81EE
:1019C000AD81BE810197A109B1098B839C83AD8351
:1019D000BE838B8189838B819C81AD81BE81892F60
:1019E0009A2FAB2FBB278B839C83AD83BE838B81C8
:1019F0008A83EBE4F0E08A818083EAE4F0E0898185
:101A000080838BE08983EEE4F0E089818083E9E5DF
:101A1000F0E080818983898180618983E9E5F0E054
:101A20008981808326960FB6F894DEBF0FBECDBFA6
:101A3000CF91DF9108950E94620C1895DF93CF93A8
:101A400000D000D00F92CDB7DEB79C838B836D831F
:101A50008B819C819A8389830FB6F8940F92E981D8
:101A6000FA8140815181E981FA81838D282F30E00C
:101A7000E981FA81848D882F90E0BC01269FC00106
:101A8000279F900D369F900D1124840F951FE9819B
:101A9000FA8195838483E981FA81128EE981FA8142
:101AA00080819181E981FA8193838283E981FA813E
:101AB00040815181E981FA81838D882F90E09C01DA
:101AC00021503040E981FA81848D882F90E0BC015B
:101AD000269FC001279F900D369F900D1124840FE3
:101AE000951FE981FA8197838683E981FA818FEFD7
:101AF000858FE981FA818FEF868F8D81882379F434
:101B0000E981FA8180858823A1F089819A810896EC
:101B10000E94891C882369F00E94090C0AC08981EF
:101B20009A8108960E94810889819A8141960E9433
:101B300081080F900FBE81E00F900F900F900F90D3
:101B40000F90CF91DF9108950F931F93DF93CF9361
:101B5000CDB7DEB729970FB6F894DEBF0FBECDBF65
:101B60008F83688749878F81282F30E08885882F69
:101B700090E0AC01249FC001259F900D349F900DF3
:101B800011249C838B838B819C814F960E94050836
:101B90009E838D838D819E810097A1F08D819E8192
:101BA0009A83898389819A814F969A83898329812F
:101BB0003A81ED81FE818F816885A90129858F0198
:101BC0000E94EF0D8D819E8129960FB6F894DEBF9D
:101BD0000FBECDBFCF91DF911F910F9108950F934D
:101BE0001F93DF93CF93CDB7DEB727970FB6F89447
:101BF000DEBF0FBECDBF89836A835C834B832D8399
:101C00001F830E838A81882339F48E819F81EE8120
:101C1000FF819183808306C08B819C81EE81FF814F
:101C200091838083EE81FF818981838FEE81FF81A3
:101C30008A81848F8E819F8161E00E941E0D27968C
:101C40000FB6F894DEBF0FBECDBFCF91DF911F91CD
:101C50000F910895DF93CF93CDB7DEB72F970FB6CF
:101C6000F894DEBF0FBECDBF998788877B876A87D0
:101C70005D874C872E871C82888599859A83898306
:101C80000FB6F8940F92E981FA81928DE981FA8179
:101C9000838D981718F08E85823011F589819A818D
:101CA0002A853B85B9014E850E9480128B83E9818C
:101CB000FA818189882351F089819A8141960E9415
:101CC000891C882341F00E94090C05C08B81882360
:101CD00011F00E94090C0F900FBE81E08F875CC04D
:101CE0008C859D85009721F40F900FBE1F8654C0F0
:101CF0008C81882331F4CE0105960E946F1D81E00E
:101D00008C830F900FBE0E94B9190FB6F8940F92F2
:101D1000E981FA81858D8F3F19F4E981FA81158E69
:101D2000E981FA81868D8F3F19F4E981FA81168E57
:101D30000F900FBECE0105969E01245F3F4FB90163
:101D40000E94881D882309F589819A810E94FC13CD
:101D50008823A1F089819A8108962C853D85B90157
:101D60000E94371C89819A810E946D130E94C519B7
:101D7000882309F085CF0E94090C82CF89819A813E
:101D80000E946D130E94C5197BCF89819A810E94A0
:101D90006D130E94C5191F868F852F960FB6F89474
:101DA000DEBF0FBECDBFCF91DF910895DF93CF93FC
:101DB000CDB7DEB72D970FB6F894DEBF0FBECDBFFF
:101DC00098878F837A8769875C874B872D878F8178
:101DD00098859C838B831D82EB81FC81928DEB81A6
:101DE000FC81838D981718F08D85823081F5EB8109
:101DF000FC81868D8A83EB81FC81828D89838B8136
:101E00009C8129853A85B9014D850E9480128A817D
:101E10008F3FA9F4EB81FC8181898823A9F08B8114
:101E20009C8141960E94891C882371F08B859C853A
:101E3000009751F0EB85FC8581E0808305C08A81A5
:101E40008F5FEB81FC81868F81E08E8301C01E82D3
:101E50008E812D960FB6F894DEBF0FBECDBFCF9109
:101E6000DF910895DF93CF93CDB7DEB72A970FB6F2
:101E7000F894DEBF0FBECDBF98878F837A876987BE
:101E80008F8198859C838B831D82EB81FC81828D61
:101E90008A83EB81FC81938D8A81891748F5EB81D8
:101EA000FC81868D89838A818F5FEB81FC81828FA3
:101EB00089818F3FA9F4EB81FC8181898823A9F076
:101EC0008B819C8141960E94891C882371F08985B1
:101ED0009A85009751F0E985FA8581E0808305C0F5
:101EE00089818F5FEB81FC81868F81E08E8301C0C9
:101EF0001E828E812A960FB6F894DEBF0FBECDBF2C
:101F0000CF91DF910895DF93CF93CDB7DEB72E97B2
:101F10000FB6F894DEBF0FBECDBF998788877B8749
:101F20006A875D874C871C82888599859B838A8315
:101F30000FB6F8940F92EA81FB81828D89838981A3
:101F40008823F9F08A819B812A853B85B9010E940B
:101F5000261389818150EA81FB81828FEA81FB818E
:101F60008085882349F08A819B8108960E94891C7C
:101F7000882311F00E94090C0F900FBE81E08E871C
:101F800063C08C859D85009721F40F900FBE1E863F
:101F90005BC08C81882331F4CE0105960E946F1DB1
:101FA00081E08C830F900FBE0E94B9190FB6F89490
:101FB0000F92EA81FB81858D8F3F19F4EA81FB81C5
:101FC000158EEA81FB81868D8F3F19F4EA81FB81B2
:101FD000168E0F900FBECE0105969E01245F3F4FD7
:101FE000B9010E94881D882309F58A819B810E947E
:101FF000C0138823A1F08A819B8141962C853D8561
:10200000B9010E94371C8A819B810E946D130E9436
:10201000C519882309F08CCF0E94090C89CF8A81C9
:102020009B810E946D130E94C51982CF8A819B817A
:102030000E946D130E94C5198A819B810E94C01362
:10204000882309F475CF1E868E852E960FB6F894D8
:10205000DEBF0FBECDBFCF91DF910895DF93CF9349
:10206000CDB7DEB72C970FB6F894DEBF0FBECDBF4D
:10207000998788877B876A871C82888599859B8357
:102080008A830FB6F8940F92EA81FB81828D89834F
:1020900089818823C1F089818150EA81FB81828F07
:1020A000EA81FB818085882349F08A819B8108969B
:1020B0000E94891C882311F00E94090C0F900FBE0A
:1020C00081E08C8763C08A859B85009721F40F90FF
:1020D0000FBE1C865BC08C81882331F4CE0105962F
:1020E0000E946F1D81E08C830F900FBE0E94B91972
:1020F0000FB6F8940F92EA81FB81858D8F3F19F41A
:10210000EA81FB81158EEA81FB81868D8F3F19F470
:10211000EA81FB81168E0F900FBECE0105969E01BF
:10212000265F3F4FB9010E94881D882309F58A81E7
:102130009B810E94C0138823A1F08A819B814196D4
:102140002A853B85B9010E94371C8A819B810E94A8
:102150006D130E94C519882309F093CF0E94090CC2
:1021600090CF8A819B810E946D130E94C51989CFEF
:102170008A819B810E946D130E94C5198A819B816F
:102180000E94C013882309F47CCF1C868C852C9672
:102190000FB6F894DEBF0FBECDBFCF91DF9108958B
:1021A000DF93CF93CDB7DEB760970FB6F894DEBF5D
:1021B0000FBECDBF9B878A877D876C875F874E87E1
:1021C0001E828A859B859B838A830FB6F8940F9223
:1021D000EA81FB81828D89838981882331F1EA81BB
:1021E000FB81868197819D838C838A819B812C854D
:1021F0003D85B9010E942613EA81FB818C819D8176
:1022000097838683EA81FB818189882349F08A81CB
:102210009B8141960E94891C882311F00E94090C21
:102220000F900FBE81E0888B63C08E859F850097DD
:1022300021F40F900FBE188A5BC08E81882331F481
:10224000CE0107960E946F1D81E08E830F900FBE16
:102250000E94B9190FB6F8940F92EA81FB81858D1F
:102260008F3F19F4EA81FB81158EEA81FB81868D0F
:102270008F3F19F4EA81FB81168E0F900FBECE01BD
:1022800007969E01225F3F4FB9010E94881D882357
:1022900009F58A819B810E94C0138823A1F08A815D
:1022A0009B8141962E853F85B9010E94371C8A810A
:1022B0009B810E946D130E94C519882309F085CF68
:1022C0000E94090C82CF8A819B810E946D130E941B
:1022D000C5197BCF8A819B810E946D130E94C5190D
:1022E0008A819B810E94C013882309F46ECF188ACB
:1022F000888960960FB6F894DEBF0FBECDBFCF9130
:10230000DF910895DF93CF93CDB7DEB72C970FB64B
:10231000F894DEBF0FBECDBF98878F837A87698719
:102320005C874B878F8198859C838B831D82EB8193
:10233000FC81828D8A838A81882381F1EB81FC81F3
:10234000858D89838B819C8129853A85B9010E947D
:1023500026138A818150EB81FC81828F89818F3F96
:10236000A9F4EB81FC8180858823A9F08B819C8175
:1023700008960E94891C882371F08B859C850097A4
:1023800051F0EB85FC8581E0808305C089818F5FFA
:10239000EB81FC81858F81E08E8301C01E828E815E
:1023A0002C960FB6F894DEBF0FBECDBFCF91DF9154
:1023B0000895DF93CF93CDB7DEB72A970FB6F89481
:1023C000DEBF0FBECDBF98878F837A8769878F81E5
:1023D00098859A8389831D82E981FA81828D882379
:1023E000B1F0E981FA81868197819C838B83898111
:1023F0009A8129853A85B9010E942613E981FA81DB
:102400008B819C819783868381E08E8301C01E82AD
:102410008E812A960FB6F894DEBF0FBECDBFCF9146
:10242000DF910895DF93CF9300D00F92CDB7DEB741
:102430009B838A830FB6F8940F92EA81FB81828D89
:1024400089830F900FBE89810F900F900F90CF91CD
:10245000DF910895DF93CF9300D000D00F92CDB7D6
:10246000DEB79D838C838C819D819A8389830FB68F
:10247000F8940F92E981FA81938DE981FA81828D36
:10248000292F281B822F8B830F900FBE8B810F90DB
:102490000F900F900F900F90CF91DF910895DF93E1
:1024A000CF9300D000D00F92CDB7DEB79D838C8341
:1024B0008C819D819A838983E981FA81828D8B83C6
:1024C0008B810F900F900F900F900F90CF91DF9115
:1024D0000895DF93CF9300D000D0CDB7DEB79C83B3
:1024E0008B838B819C819A83898389819A810E94C5
:1024F0005B080F900F900F900F90CF91DF91089590
:10250000DF93CF93CDB7DEB727970FB6F894DEBF32
:102510000FBECDBF9C838B837E836D834F831A82D6
:10252000EB81FC81828D8983EB81FC81848D882302
:1025300009F47DC08F81882399F5EB81FC8162814C
:102540007381EB81FC81848D482F50E02D813E8189
:10255000CB01B9010E946023EB81FC812281338190
:10256000EB81FC81848D882F90E0820F931FEB819B
:10257000FC8193838283EB81FC8122813381EB8117
:10258000FC81848195812817390708F450C0EB81BC
:10259000FC8180819181EB81FC819383828347C0A0
:1025A000EB81FC8166817781EB81FC81848D482FF2
:1025B00050E02D813E81CB01B9010E946023EB8167
:1025C000FC8126813781EB81FC81848D882F90E00E
:1025D000909581959F4F820F931FEB81FC8197838C
:1025E0008683EB81FC8126813781EB81FC818081B0
:1025F00091812817390790F4EB81FC812481358182
:10260000EB81FC81848D882F90E0909581959F4F80
:10261000820F931FEB81FC81978386838F818230A9
:1026200031F48981882319F08981815089838981D6
:102630008F5FEB81FC81828F8A8127960FB6F89499
:10264000DEBF0FBECDBFCF91DF910895DF93CF9353
:1026500000D000D0CDB7DEB79A8389837C836B83AB
:10266000E981FA81848D882389F1E981FA812681C3
:102670003781E981FA81848D882F90E0820F931F42
:10268000E981FA8197838683E981FA8126813781FE
:10269000E981FA81848195812817390740F0E98121
:1026A000FA8180819181E981FA8197838683E9812A
:1026B000FA8146815781E981FA81848D282F30E0A3
:1026C0008B819C81BA01A9010E9460230F900F9019
:1026D0000F900F90CF91DF910895DF93CF9300D0AB
:1026E00000D0CDB7DEB79C838B830FB6F8940F92E2
:1026F000EB81FC81868D8A8311C0EB81FC8181890D
:10270000882379F08B819C8141960E94891C8823C3
:1027100011F00E94F51D8A8181508A838A811816E2
:1027200064F3EB81FC818FEF868F0F900FBE0FB6A5
:10273000F8940F92EB81FC81858D898311C0EB8128
:10274000FC818085882379F08B819C8108960E948A
:10275000891C882311F00E94F51D8981815089838D
:102760008981181664F3EB81FC818FEF858F0F90C0
:102770000FBE0F900F900F900F90CF91DF910895A3
:10278000DF93CF9300D00F92CDB7DEB79B838A83C0
:102790000FB6F8940F92EA81FB81828D882319F499
:1027A00081E0898301C019820F900FBE89810F904B
:1027B0000F900F90CF91DF910895DF93CF9300D0CA
:1027C00000D00F92CDB7DEB79D838C838C819D8125
:1027D0009A838983E981FA81828D882319F481E0C3
:1027E0008B8301C01B828B810F900F900F900F90F5
:1027F0000F90CF91DF910895DF93CF9300D00F9288
:10280000CDB7DEB79B838A830FB6F8940F92EA8127
:10281000FB81928DEA81FB81838D981719F481E009
:10282000898301C019820F900FBE89810F900F908C
:102830000F90CF91DF910895DF93CF9300D000D018
:102840000F92CDB7DEB79D838C838C819D819A8357
:102850008983E981FA81928DE981FA81838D9817C4
:1028600019F481E08B8301C01B828B810F900F9044
:102870000F900F900F90CF91DF9108958F929F92BC
:10288000AF92BF92CF92DF92EF92FF920F931F937E
:10289000DF93CF93CDB7DEB760970FB6F894DEBF66
:1028A0000FBECDBF9F838E83798768875B874A87FA
:1028B0003D872C870E87F88AEF868A859B850E9444
:1028C00005089A83898389819A810097B1F086E20D
:1028D00090E00E9405089D838C838C819D810097E8
:1028E00039F0EC81FD8189819A81908F878B07C0B7
:1028F00089819A810E945B0802C01D821C828C81A2
:102900009D810097E9F08A859B859C0140E050E01D
:102910008E819F8168857985EC85FD85AF85B88935
:10292000AC80BD808F01EE846D01882499240E94C3
:10293000B6148C819D810E94721581E08B8302C048
:102940008FEF8B838B8160960FB6F894DEBF0FBE3E
:10295000CDBFCF91DF911F910F91FF90EF90DF904E
:10296000CF90BF90AF909F908F9008958F929F923D
:10297000AF92BF92CF92DF92EF920F931F93DF93AC
:10298000CF93CDB7DEB764970FB6F894DEBF0FBE16
:10299000CDBF9D838C837F836E83288739874A8749
:1029A0005B871D870C87EE86D88ACF86BA8AA98A6C
:1029B0009C8A8B8AE989FA892789308D888599854F
:1029C0000197820F931F9B838A838E819F8100973B
:1029D00051F1198221C08981482F50E08981282F27
:1029E00030E08E819F81FC01E20FF31F20818989F5
:1029F0009A89840F951FFC01799620838981282F5D
:102A000030E08E819F81FC01E20FF31F80818823DB
:102A100031F089818F5F898389818830E0F2E9898B
:102A2000FA8910A203C0E989FA89118E8E85853052
:102A300010F084E08E87E989FA898E85868B8989F2
:102A40009A8902960E94AB0889899A890C960E94FD
:102A5000AB08E989FA8989899A89918780878E8567
:102A6000282F30E085E090E0821B930BE989FA89FA
:102A700095878487E989FA8989899A89938B828BDA
:102A8000E989FA8911A212A213A214A2E989FA898A
:102A900015A28A819B812C813D814C855D85B90180
:102AA0000E944A0AE989FA89918380838F859889EF
:102AB000009731F0EF85F88989899A89918380831D
:102AC00064960FB6F894DEBF0FBECDBFCF91DF91F5
:102AD0001F910F91EF90DF90CF90BF90AF909F909C
:102AE0008F900895DF93CF9300D0CDB7DEB79A8350
:102AF00089830FB6F8940F92809158048F5F80936A
:102B000058048091550490915604009769F4898186
:102B10009A81909356048093550480915804813093
:102B2000B9F40E94091E14C080915C04882381F4CA
:102B3000E0915504F09156049689E981FA818689DD
:102B4000891730F089819A819093560480935504B7
:102B5000809161048F5F80936104E981FA81968995
:102B600080915B04891728F4E981FA818689809332
:102B70005B04E981FA818689282F30E0C901880F3A
:102B8000991F880F991F880F991F820F931FAC01FF
:102B900049595B4F89819A819C012E5F3F4FCA0141
:102BA000B9010E94BB080F900FBE80915C0488237E
:102BB00061F0E0915504F09156049689E981FA811B
:102BC0008689981710F40E94090C0F900F90CF91EE
:102BD000DF910895DF93CF9300D000D000D0CDB720
:102BE000DEB79C838B830FB6F8940F928B819C8108
:102BF000009739F480915504909156049E838D83FB
:102C000004C08B819C819E838D838D819E819A835C
:102C1000898389819A8102960E946B09E981FA81F0
:102C200084899589009729F089819A810C960E9460
:102C30006B09809161048F5F80936104209155043A
:102C40003091560489819A818217930781F4898192
:102C50009A819C012E5F3F4F83EB94E0B9010E9463
:102C6000BB08809157048F5F809357040BC08091FD
:102C7000580481508093580489819A810E94791E5A
:102C80000E948F1E0F900FBE80915C04882359F024
:102C9000209155043091560489819A8182179307B7
:102CA00011F40E94090C26960FB6F894DEBF0FBEF1
:102CB000CDBFCF91DF910895DF93CF93CDB7DEB72E
:102CC0002A970FB6F894DEBF0FBECDBF98878F83CB
:102CD0007A8769871B820E94B91980915904909163
:102CE0005A049A838983EF81F8852081318189850F
:102CF0009A85820F931F9E838D83EF81F8852081B3
:102D0000318189819A818217930798F4EF81F88540
:102D1000208131818D819E8182179307E0F42D817E
:102D20003E8189819A8182179307A8F481E08B8381
:102D300012C0EF81F885208131818D819E818217BB
:102D4000930738F02D813E8189819A8182179307FC
:102D500010F481E08B83EF81F8858D819E819183D2
:102D600080838B81882349F08D819E8129813A81DE
:102D7000821B930B60E00E94E4220E94C5198C83A1
:102D80008C81882311F40E94090C2A960FB6F894BE
:102D9000DEBF0FBECDBFCF91DF910895DF93CF93FC
:102DA00000D00F92CDB7DEB79B838A8319828A81C8
:102DB0009B81009751F00E94B9198A819B8160E044
:102DC0000E94E4220E94C51989838981882311F415
:102DD0000E94090C0F900F900F90CF91DF910895F2
:102DE000DF93CF93CDB7DEB727970FB6F894DEBF4A
:102DF0000FBECDBF9D838C830FB6F8940F928C814C
:102E00009D81009739F480915504909156049F83D9
:102E10008E8304C08C819D819F838E838E819F8150
:102E20009B838A83EA81FB81868989830F900FBE09
:102E3000898127960FB6F894DEBF0FBECDBFCF9124
:102E4000DF910895DF93CF93CDB7DEB728970FB604
:102E5000F894DEBF0FBECDBF9E838D8319828D8116
:102E60009E81009739F4809155049091560498877B
:102E70008F8304C08D819E8198878F838F819885F1
:102E80009C838B83EB81FC8186898A838A81289647
:102E90000FB6F894DEBF0FBECDBFCF91DF9108957E
:102EA000DF93CF93CDB7DEB72A970FB6F894DEBF86
:102EB0000FBECDBF9F838E8368871982888585303A
:102EC00010F084E088870FB6F8940F928E819F816E
:102ED000009739F480915504909156049A87898718
:102EE00004C08E819F819A87898789859A859D8371
:102EF0008C83EC81FD8186898B839B8188859817E3
:102F000009F481C098858B818917A0F4209155041C
:102F1000309156048C819D8182179307B1F0E09126
:102F20005504F091560496898885891770F081E0E0
:102F300089830BC020915504309156048C819D816A
:102F40008217930711F481E08983EC81FD818689E2
:102F50008A83EC81FD818885868BEC81FD81848567
:102F6000958599235CF08885282F30E085E090E0F6
:102F7000821B930BEC81FD8195878487EC81FD8119
:102F8000428553858A81282F30E0C901880F991F17
:102F9000880F991F880F991F820F931F89599B4F84
:102FA0004817590759F58C819D8102960E946B093B
:102FB000EC81FD81968980915B04891728F4EC816E
:102FC000FD81868980935B04EC81FD818689282FB1
:102FD00030E0C901880F991F880F991F880F991F2A
:102FE000820F931FAC0149595B4F8C819D819C01DD
:102FF0002E5F3F4FCA01B9010E94BB088981882317
:1030000011F00E94090C0F900FBE2A960FB6F8948B
:10301000DEBF0FBECDBFCF91DF910895DF93CF9379
:1030200000D000D000D0CDB7DEB79C838B830FB625
:10303000F8940F928B819C81009739F4809155040C
:10304000909156049E838D8304C08B819C819E83C6
:103050008D838D819E819A83898389819A8102964D
:103060000E946B09E981FA8184899589009729F08A
:1030700089819A810C960E946B0989819A819C01B1
:103080002E5F3F4F8CEB94E0B9010E94BB08E981B1
:10309000FA8185A1813019F4E981FA8115A20F9096
:1030A0000FBE80915C04882339F00FB6F8940F921C
:1030B0000E948F1E0F900FBE209155043091560430
:1030C00089819A8182179307A1F480915C048823F7
:1030D00019F00E94090C0DC09091BC048091580415
:1030E000981729F4109256041092550402C00E94B9
:1030F000CA1B26960FB6F894DEBF0FBECDBFCF9188
:10310000DF910895DF93CF9300D000D00F92CDB719
:10311000DEB79D838C831B828C819D819A838983FA
:10312000E981FA818285938524E08C3B920781F4C2
:10313000E981FA818489958924E08A3A920741F0ED
:10314000E981FA8184899589009711F481E08B8364
:103150008B810F900F900F900F900F90CF91DF9178
:103160000895DF93CF9300D000D0CDB7DEB79C8316
:103170008B838B819C819A83898320915504309124
:10318000560489819A818217930709F447C089817F
:103190009A81009709F442C00FB6F8940F92898182
:1031A0009A810E9482188823B9F189819A810296B6
:1031B0000E946B09E981FA81968980915B048917E5
:1031C00028F4E981FA81868980935B04E981FA8198
:1031D0008689282F30E0C901880F991F880F991F11
:1031E000880F991F820F931FAC0149595B4F89814A
:1031F0009A819C012E5F3F4FCA01B9010E94BB0812
:10320000E981FA819689E0915504F0915604868906
:10321000981710F00E94090C0F900FBE0F900F909E
:103220000F900F90CF91DF910895DF93CF9300D04F
:1032300000D000D0CDB7DEB79E838D831C828D81F8
:103240009E819B838A8319828A819B810E94821836
:10325000882309F446C0809166048823C1F5EA8179
:10326000FB819689E0915504F09156048689981760
:1032700010F081E08C838A819B8102960E946B0909
:10328000EA81FB81968980915B04891728F4EA81A1
:10329000FB81868980935B04EA81FB818689282FE4
:1032A00030E0C901880F991F880F991F880F991F57
:1032B000820F931FAC0149595B4F8A819B819C010E
:1032C0002E5F3F4FCA01B9010E94BB080AC08A8124
:1032D0009B819C01245F3F4F8AEA94E0B9010E94E0
:1032E000BB088C8126960FB6F894DEBF0FBECDBF0B
:1032F000CF91DF910895EF92FF920F93DF93CF93D9
:103300000F92CDB7DEB78FEF9DE120E630E0E4E627
:10331000F4E0B90145E550E020E030E000E07F0155
:103320000E943E1489838981813081F4F8948FEF63
:103330009FEF909363048093620481E080935C0428
:1033400010925A04109259040E94CD0B0F90CF9105
:10335000DF910F91FF90EF900895DF93CF93CDB75A
:10336000DEB7F89410925C040E94020CCF91DF91BA
:103370000895DF93CF93CDB7DEB7809166048F5F5A
:1033800080936604CF91DF910895DF93CF9300D0AF
:1033900000D00F92CDB7DEB71D821C821B820FB604
:1033A000F8940F9280916604815080936604809116
:1033B0006604882309F07CC080915804882309F4AE
:1033C00077C045C0E091AF04F091B0048681978149
:1033D0009D838C838C819D810C960E946B098C81CE
:1033E0009D8102960E946B09EC81FD8196898091F6
:1033F0005B04891728F4EC81FD81868980935B0446
:10340000EC81FD818689282F30E0C901880F991F42
:10341000880F991F880F991F820F931FAC0149597C
:103420005B4F8C819D819C012E5F3F4FCA01B9018A
:103430000E94BB08EC81FD819689E0915504F091D2
:1034400056048689981718F081E080935F04809174
:10345000AA04882309F0B6CF8C819D81009711F0D2
:103460000E948F1E80915D0490915E049A838983EF
:1034700089819A810097A1F00E94E11A882319F0AE
:1034800081E080935F0489819A8101979A8389837F
:1034900089819A81009781F710925E0410925D04F1
:1034A00080915F04882321F081E08B830E94090CC6
:1034B0000F900FBE8B810F900F900F900F900F9079
:1034C000CF91DF910895DF93CF9300D0CDB7DEB7D2
:1034D0000FB6F8940F928091590490915A049A83F0
:1034E00089830F900FBE89819A810F900F90CF91A1
:1034F000DF910895DF93CF9300D00F92CDB7DEB761
:1035000019828091590490915A049B838A838A81FD
:103510009B810F900F900F90CF91DF910895DF93D3
:10352000CF93CDB7DEB780915804CF91DF91089546
:10353000DF93CF9300D000D000D0CDB7DEB79C830F
:103540008B838B819C81009739F4809155049091F5
:1035500056049E838D8304C08B819C819E838D83C2
:103560008D819E819A83898389819A814996269645
:103570000FB6F894DEBF0FBECDBFCF91DF91089597
:10358000DF93CF9300D00F92CDB7DEB79B838A83B2
:1035900019820E94B91920915D0430915E048A81DC
:1035A0009B81820F931F90935E0480935D040E9421
:1035B000C519898389810F900F900F90CF91DF916A
:1035C0000895DF93CF93CDB7DEB729970FB6F89460
:1035D000DEBF0FBECDBF1D8280916604882309F037
:1035E000C6C08091590490915A0401969C838B83A4
:1035F0008B819C8190935A04809359048B819C8188
:103600000097D9F48091A6049091A7049A838983A6
:103610008091A8049091A9049093A7048093A60494
:1036200089819A819093A9048093A8048091600471
:103630008F5F809360040E948F1E209162043091FE
:1036400063048B819C818217930708F471C0E09119
:10365000A604F091A7048081882339F48FEF9FEFAF
:10366000909363048093620463C0E091A604F09198
:10367000A7040580F681E02D868197819987888748
:10368000E885F985828193819F838E832B813C819C
:103690008E819F812817390738F48E819F819093FE
:1036A00063048093620444C08885998502960E94D1
:1036B0006B09E885F98584899589009729F08885C3
:1036C00099850C960E946B09E885F9859689809109
:1036D0005B04891728F4E885F985868980935B0463
:1036E000E885F9858689282F30E0C901880F991F60
:1036F000880F991F880F991F820F931FAC0149599A
:103700005B4F888599859C012E5F3F4FCA01B901A7
:103710000E94BB08E885F9859689E0915504F091EF
:1037200056048689981708F492CF81E08D838FCF55
:10373000E0915504F09156048689282F30E0C901A4
:10374000880F991F880F991F880F991F820F931F49
:10375000FC01E959FB4F8081823010F081E08D83BC
:1037600080915F04882361F081E08D8309C080919E
:103770005D0490915E04019690935E0480935D04D5
:103780008D8129960FB6F894DEBF0FBECDBFCF91C5
:10379000DF910895DF93CF9300D00F92CDB7DEB7BE
:1037A00080916604882321F081E080935F0459C0F2
:1037B00010925F0480915B048B8303C08B818150E6
:1037C0008B838B81282F30E0C901880F991F880FC8
:1037D000991F880F991F820F931FFC01E959FB4F16
:1037E0008081882359F38B81282F30E0C901880F0D
:1037F000991F880F991F880F991F820F931F89594E
:103800009B4F9A838983E981FA810180F281E02DBF
:1038100082819381E981FA8192838183E981FA81AE
:103820002181328189819A8103962817390759F4B9
:10383000E981FA810180F281E02D82819381E98121
:10384000FA8192838183E981FA810180F281E02DFE
:103850008681978190935604809355048B81809341
:103860005B040F900F900F90CF91DF910895DF933D
:10387000CF9300D000D0CDB7DEB79A8389837C8305
:103880006B8380915504909156049C01245F3F4FB7
:1038900089819A81B9010E94FF088B819C8161E036
:1038A0000E94E4220F900F900F900F90CF91DF9124
:1038B0000895DF93CF9300D000D000D0CDB7DEB70E
:1038C0009A8389837C836B835E834D83E091550467
:1038D000F09156048B819C819068958784878091B4
:1038E0005504909156049C01245F3F4F89819A8131
:1038F000B9010E94BB088D819E8161E00E94E42293
:1039000026960FB6F894DEBF0FBECDBFCF91DF91E4
:103910000895DF93CF9300D000D00F92CDB7DEB7DC
:103920009D838C83EC81FD810580F681E02D86816D
:1039300097819B838A838A819B810C960E946B0965
:1039400080916604882361F58A819B8102960E949A
:103950006B09EA81FB81968980915B04891728F4C1
:10396000EA81FB81868980935B04EA81FB818689F9
:10397000282F30E0C901880F991F880F991F880FE1
:10398000991F820F931FAC0149595B4F8A819B811C
:103990009C012E5F3F4FCA01B9010E94BB080AC0BB
:1039A0008A819B819C01245F3F4F8AEA94E0B901A0
:1039B0000E94BB08EA81FB819689E0915504F09151
:1039C00056048689891730F481E0898381E08093E9
:1039D0005F0401C0198289810F900F900F900F90A2
:1039E0000F90CF91DF910895DF93CF9300D000D057
:1039F00000D0CDB7DEB79C838B837E836D838D81B2
:103A00009E819068EB81FC8191838083EB81FC81B6
:103A1000868197819A8389838B819C810E946B091F
:103A200089819A8102960E946B09E981FA819689BF
:103A300080915B04891728F4E981FA818689809353
:103A40005B04E981FA818689282F30E0C901880F5B
:103A5000991F880F991F880F991F820F931FAC0120
:103A600049595B4F89819A819C012E5F3F4FCA0162
:103A7000B9010E94BB08E981FA819689E091550459
:103A8000F09156048689891718F481E080935F04C9
:103A900026960FB6F894DEBF0FBECDBFCF91DF9153
:103AA0000895DF93CF9300D0CDB7DEB79A83898393
:103AB0000FB6F8940F9280916004E981FA818083B7
:103AC0008091590490915A04E981FA81928381830B
:103AD0000F900FBE0F900F90CF91DF910895DF935D
:103AE000CF9300D0CDB7DEB79A83898380916004ED
:103AF000E981FA8180838091590490915A04E98187
:103B0000FA81928381830F900F90CF91DF91089576
:103B1000DF93CF93CDB7DEB729970FB6F894DEBF0A
:103B20000FBECDBF9F838E83798768870FB6F894C9
:103B30000F928091590490915A049C838B83EE815B
:103B4000FF81218132818B819C81821B930B9A831F
:103B50008983E885F985808191812FEF8F3F9207D6
:103B600011F41D8236C0EE81FF8190818091600446
:103B7000981761F0EE81FF81218132818B819C81D8
:103B80008217930718F081E08D8323C0E885F985BB
:103B90002081318189819A8182179307A0F4E88579
:103BA000F9852081318189819A81A901481B590BAE
:103BB000CA01E885F985918380838E819F810E9467
:103BC0006F1D1D8206C0E885F9851182108281E093
:103BD0008D830F900FBE8D8129960FB6F894DEBFAE
:103BE0000FBECDBFCF91DF910895DF93CF93CDB7B7
:103BF000DEB781E080935F04CF91DF910895DF937A
:103C0000CF9300D0CDB7DEB79A8389830E944A1E36
:103C1000FDCFDF93CF930F92CDB7DEB7198213C0DC
:103C20008981282F30E0C901880F991F880F991FBB
:103C3000880F991F820F931F89599B4F0E948108FB
:103C400089818F5F89838981853050F384E994E08D
:103C50000E9481088DE994E00E9481088AEA94E03C
:103C60000E94810883EB94E00E9481088CEB94E031
:103C70000E94810884E994E09093A7048093A604AD
:103C80008DE994E09093A9048093A8040F90CF91BC
:103C9000DF910895DF93CF9300D0CDB7DEB720C07A
:103CA0000FB6F8940F92E091B804F091B9048681B0
:103CB00097819A83898389819A8102960E946B09F0
:103CC000809158048150809358048091570481500A
:103CD000809357040F900FBE89819A810E94791EAC
:103CE000809157048823E1F60F900F90CF91DF91D8
:103CF0000895DF93CF9300D0CDB7DEB79A83898341
:103D0000E981FA818789908D0E945B0889819A8177
:103D10000E945B080F900F90CF91DF910895DF9381
:103D2000CF9300D0CDB7DEB7E091A604F091A70401
:103D30008081882339F48FEF9FEF90936304809301
:103D4000620413C0E091A604F091A7040580F681F7
:103D5000E02D868197819A838983E981FA81828126
:103D6000938190936304809362040F900F90CF919E
:103D7000DF910895DF93CF9300D0CDB7DEB7E09108
:103D80005504F0915604848595859A838983A09182
:103D90005504B0915604E0915504F091560486897B
:103DA000282F30E085E090E0821B930B1D969C93BA
:103DB0008E931C9789819A810F900F90CF91DF91FC
:103DC0000895DF93CF93CDB7DEB727970FB6F8945A
:103DD000DEBF0FBECDBF8D837F836E830FB6F89499
:103DE0000F92E0915504F091560481A192A1A3A1F4
:103DF000B4A10097A105B10589F4E0915504F091B3
:103E0000560481E085A38E819F81009739F08E81D1
:103E10009F8161E00E94E4220E94090C0F900FBE76
:103E20000FB6F8940F92E0915504F091560481A1D9
:103E300092A1A3A1B4A189839A83AB83BC83898116
:103E40009A81AB81BC810097A105B105D9F08D8124
:103E5000882349F0E0915504F091560411A212A272
:103E600013A214A20FC0E0915504F0915604898169
:103E70009A81AB81BC810197A109B10981A392A369
:103E8000A3A3B4A3E0915504F091560415A20F909A
:103E90000FBE89819A81AB81BC81BC01CD0127967F
:103EA0000FB6F894DEBF0FBECDBFCF91DF9108955E
:103EB000EF92FF920F931F93DF93CF93CDB7DEB7AF
:103EC0002D970FB6F894DEBF0FBECDBF6A837B83FC
:103ED0008C839D832E833F83488759871B870A875E
:103EE000FD86EC860FB6F8940F92E0915504F091A0
:103EF000560485A1823049F1E0915504F0915604B1
:103F000021A132A143A154A18A819B81AC81BD81B1
:103F100080959095A095B09582239323A423B523F3
:103F200081A392A3A3A3B4A3E0915504F0915604F6
:103F300081E085A38C859D85009739F08C859D85D2
:103F400061E00E94E4220E94090C0F900FBE0FB6A0
:103F5000F8940F928A859B85009771F0E091550443
:103F6000F091560481A192A1A3A1B4A1EA85FB8599
:103F700080839183A283B383E0915504F09156042A
:103F800085A1823011F019821AC0E0915504F09198
:103F9000560421A132A143A154A18E819F81A885FD
:103FA000B98580959095A095B09582239323A423FD
:103FB000B52381A392A3A3A3B4A381E08983E09155
:103FC0005504F091560415A20F900FBE89812D96CD
:103FD0000FB6F894DEBF0FBECDBFCF91DF911F911A
:103FE0000F91FF90EF9008950F931F93DF93CF935E
:103FF000CDB7DEB72F970FB6F894DEBF0FBECDBF9B
:104000009E838D834F83588769877A872B871D8787
:104010000C8781E08A838D819E819C838B830FB680
:10402000F8940F928C859D85009761F0EB81FC815F
:1040300081A192A1A3A1B4A1EC85FD858083918388
:10404000A283B383EB81FC8185A18983EB81FC8111
:1040500082E085A38B85282F30E03F872E878E85D1
:104060009F858230910559F12E853F85233031059A
:1040700034F48E859F858130910561F04AC02E858C
:104080003F852330310559F18E859F858430910518
:1040900089F13FC0EB81FC8121A132A143A154A150
:1040A0008F819885A985BA85822B932BA42BB52B5C
:1040B000EB81FC8181A392A3A3A3B4A32AC0EB81CB
:1040C000FC8181A192A1A3A1B4A10196A11DB11D62
:1040D000EB81FC8181A392A3A3A3B4A31AC0EB81BB
:1040E000FC818F819885A985BA8581A392A3A3A31A
:1040F000B4A30FC08981823059F0EB81FC818F819C
:104100009885A985BA8581A392A3A3A3B4A301C06E
:104110001A8289818130B9F58B819C8102960E9437
:104120006B09EB81FC81968980915B04891728F4E7
:10413000EB81FC81868980935B04EB81FC8186891D
:10414000282F30E0C901880F991F880F991F880F09
:10415000991F820F931FAC0149595B4F8B819C8142
:104160009C012E5F3F4FCA01B9010E94BB08EB8141
:10417000FC819689E0915504F0915604868989174F
:1041800010F40E94090C0F900FBE8A812F960FB673
:10419000F894DEBF0FBECDBFCF91DF911F910F917D
:1041A0000895EF92FF920F931F93DF93CF93CDB7B4
:1041B000DEB762970FB6F894DEBF0FBECDBF9F8308
:1041C0008E83488759876A877B872C871E870D8750
:1041D000F88AEF8681E08A838E819F819D838C831C
:1041E00019828D859E85009761F0EC81FD8181A10A
:1041F00092A1A3A1B4A1ED85FE8580839183A283C2
:10420000B383EC81FD8185A18B83EC81FD8182E00C
:1042100085A38C85282F30E03A8B298B89899A8950
:104220008230910559F129893A892330310534F4D6
:1042300089899A898130910561F04AC029893A8932
:104240002330310559F189899A898430910589F1A2
:104250003FC0EC81FD8121A132A143A154A18885F9
:104260009985AA85BB85822B932BA42BB52BEC813A
:10427000FD8181A392A3A3A3B4A32AC0EC81FD81F5
:1042800081A192A1A3A1B4A10196A11DB11DEC81B0
:10429000FD8181A392A3A3A3B4A31AC0EC81FD81E5
:1042A00088859985AA85BB8581A392A3A3A3B4A37E
:1042B0000FC08B81823059F0EC81FD818885998512
:1042C000AA85BB8581A392A3A3A3B4A301C01A822C
:1042D0008B81813009F04FC080916604882361F59D
:1042E0008C819D8102960E946B09EC81FD819689EB
:1042F00080915B04891728F4EC81FD818689809385
:104300005B04EC81FD818689282F30E0C901880F8C
:10431000991F880F991F880F991F820F931FAC0157
:1043200049595B4F8C819D819C012E5F3F4FCA0193
:10433000B9010E94BB080AC08C819D819C01245F49
:104340003F4F8AEA94E0B9010E94BB08EC81FD81ED
:104350009689E0915504F09156048689891758F49E
:104360008F859889009721F0EF85F88981E0808317
:1043700081E080935F048A8162960FB6F894DEBF75
:104380000FBECDBFCF91DF911F910F91FF90EF90A6
:104390000895DF93CF93CDB7DEB728970FB6F89483
:1043A000DEBF0FBECDBF9E838D8378876F838D81E7
:1043B0009E819C838B831982EB81FC8185A18A83FA
:1043C000EB81FC8182E085A3EB81FC8181A192A13C
:1043D000A3A1B4A10196A11DB11DEB81FC8181A314
:1043E00092A3A3A3B4A38A81813009F04FC0809126
:1043F0006604882361F58B819C8102960E946B097B
:10440000EB81FC81968980915B04891728F4EB810C
:10441000FC81868980935B04EB81FC818689282F4F
:1044200030E0C901880F991F880F991F880F991FC5
:10443000820F931FAC0149595B4F8B819C819C017A
:104440002E5F3F4FCA01B9010E94BB080AC08B8191
:104450009C819C01245F3F4F8AEA94E0B9010E944D
:10446000BB08EB81FC819689E0915504F0915604DC
:104470008689891758F48F819885009721F0EF81FC
:10448000F88581E0808381E080935F0428960FB6F1
:10449000F894DEBF0FBECDBFCF91DF910895DF93BB
:1044A000CF93CDB7DEB727970FB6F894DEBF0FBE18
:1044B000CDBF9D838C838C819D81009739F4809141
:1044C0005504909156049F838E8304C08C819D81F6
:1044D0009F838E838E819F819B838A830FB6F894FE
:1044E0000F92EA81FB8185A1823031F4EA81FB8160
:1044F00015A281E0898301C019820F900FBE8981C6
:1045000027960FB6F894DEBF0FBECDBFCF91DF91D7
:104510000895DF93CF93CDB7DEB72E970FB6F894FB
:10452000DEBF0FBECDBF98878F8349875A876B87C1
:104530007C878F819885009739F4809155049091FC
:1045400056049E878D8704C08F8198859E878D87AE
:104550008D859E859E838D830FB6F8940F92E09192
:104560005504F091560481A192A1A3A1B4A189831D
:104570009A83AB83BC83ED81FE8121A132A143A14B
:1045800054A189859A85AB85BC8580959095A09529
:10459000B09582239323A423B523ED81FE8181A3CB
:1045A00092A3A3A3B4A30F900FBE89819A81AB817C
:1045B000BC81BC01CD012E960FB6F894DEBF0FBEB4
:1045C000CDBFCF91DF910895DF93CF93CDB7DEB705
:1045D00027970FB6F894DEBF0FBECDBF9E838D83A5
:1045E0006F838091590490915A049A8389838091B2
:1045F00055049091560402960E946B098D819E810C
:104600002FEF8F3F920781F48F81882369F080918B
:104610005504909156049C012E5F3F4F8CEB94E023
:10462000B9010E94BB0843C029813A818D819E81D6
:10463000820F931F9C838B83E0915504F091560465
:104640008B819C81938382832B813C8189819A8198
:104650002817390770F48091A8049091A90420913B
:104660005504309156042E5F3F4FB9010E94FF0858
:104670001EC04091A6045091A704809155049091CA
:1046800056049C012E5F3F4FCA01B9010E94FF08EA
:1046900020916204309163048B819C81821793077F
:1046A00030F48B819C8190936304809362042796FD
:1046B0000FB6F894DEBF0FBECDBFCF91DF91089546
:1046C000FB01DC0102C001900D9241505040D8F72F
:0646D0000895F894FFCFED
:0646D60049444C450000C0
:00000001FF
