:100000000C942A000C9447000C9447000C94470071
:100010000C9447000C9447000C9447000C94470044
:100020000C9447000C9447000C9447000C94470034
:100030000C9429180C94641B0C94BD1A0C94470062
:100040000C9447000C9447000C9447000C94470014
:100050000C94470011241FBECFE5D8E0DEBFCDBF12
:1000600010E0A0E6B0E0E4E9FCE302C005900D92E8
:10007000A838B107D9F710E0A8E8B0E001C01D9298
:10008000A33AB107E1F70E94CE1B0C94481E0C94D2
:100090000000EF92FF920F931F937B018C0120E0F1
:1000A00030E040E05FE40E94F50388238CF0C80153
:1000B000B70120E030E040E05FE40E94C1010E940F
:1000C00055049B01AC01205030404040504806C0D0
:1000D000C801B7010E9455049B01AC01B901CA01D6
:1000E0001F910F91FF90EF900895A0E0B0E0EBE733
:1000F000F0E00C94111EDC012B01FA019C9192306E
:1001000008F439C1EB018881823008F433C194309E
:1001100069F4843009F02FC111969C91119789815F
:10012000981709F428C1A0E8B0E025C1843009F48B
:1001300021C18230A9F4923009F01DC19A01AD01AC
:1001400088E0EA010990AE01E90109929E0181501F
:10015000C1F7E201898111969C918923818308C1AD
:10016000923009F407C112962D903C901397EB0141
:100170008A819B811496AD90BD90CD90DC901797AD
:10018000EC80FD800E811F819101281B390BB90184
:1001900037FF04C066277727621B730B6032710537
:1001A0000CF061C0121613066CF537014801062EDB
:1001B00004C096948794779467940A94D2F721E0C8
:1001C00030E040E050E004C0220F331F441F551FB1
:1001D0006A95D2F721503040404050402E213F21B7
:1001E00040235123211531054105510521F021E01E
:1001F00030E040E050E079018A01E628F72808293C
:1002000019293CC0232BD1F1260E371E350146019A
:10021000062E04C096948794779467940A94D2F734
:1002200021E030E040E050E004C0220F331F441FC3
:10023000551F6A95D2F721503040404050402A2146
:100240003B214C215D21211531054105510521F04E
:1002500021E030E040E050E059016A01A628B728CB
:10026000C828D9280BC0821593052CF01C01AA249C
:10027000BB24650103C0EE24FF24870111969C91E5
:10028000D20111968C91981709F445C0992339F041
:10029000A80197012A193B094C095D0906C0A6016E
:1002A00095012E193F09400B510B57FD08C01182D3
:1002B0003382228224833583468357831DC081E0A5
:1002C00081833382228288279927DC01821B930B4A
:1002D000A40BB50B84839583A683B7830DC0220F2F
:1002E000331F441F551F24833583468357838281E0
:1002F000938101979383828324813581468157813D
:10030000DA01C9010197A109B1098F5F9F4FAF4F72
:10031000BF4328F30BC0918333822282EA0CFB1C7B
:100320000C1D1D1DE482F5820683178383E0808304
:10033000248135814681578157FF1AC0C901AA27F8
:1003400097FDA095BA2F81709070A070B0705695EF
:10035000479537952795822B932BA42BB52B848318
:100360009583A683B7838281938101969383828349
:10037000DF0101C0D201CD01CDB7DEB7E2E10C94BF
:100380002D1EA0E2B0E0E7ECF1E00C941D1E6983A5
:100390007A838B839C832D833E834F835887E9E048
:1003A000EE2EF12CEC0EFD1ECE010196B7010E943F
:1003B0007E058E010F5E1F4FCE010596B8010E948B
:1003C0007E058A8991E089278A8BC701B801AE0131
:1003D000475E5F4F0E9475000E94A904A096E6E068
:1003E0000C94391EA0E2B0E0E8EFF1E00C941D1E81
:1003F00069837A838B839C832D833E834F835887C5
:10040000F9E0EF2EF12CEC0EFD1ECE010196B701A6
:100410000E947E058E010F5E1F4FCE010596B8012A
:100420000E947E05C701B801AE01475E5F4F0E9482
:1004300075000E94A904A096E6E00C94391EA0E283
:10044000B0E0E5E2F2E00C94111E69837A838B83BD
:100450009C832D833E834F835887CE010196BE0136
:10046000675F7F4F0E947E05CE010596BE016F5EDD
:100470007F4F0E947E059985923088F0898982306D
:10048000C8F0943019F4823051F404C0843029F457
:10049000923081F480E890E0C6C0923049F420E0C8
:1004A0009A858A89981321E02A87CE010996BBC0D4
:1004B000823049F420E09A858A89981321E02A8BBA
:1004C000CE014196B0C02D843E844F8458886D88FB
:1004D0007E888F88988CEE24FF248701AA24BB2471
:1004E000650140E050E060E070E0E0E0F0E0C10174
:1004F00081709070892BE9F0E60CF71C081D191D1E
:100500009A01AB012A0D3B1D4C1D5D1D80E090E062
:10051000A0E0B0E0E614F7040805190520F481E036
:1005200090E0A0E0B0E0BA01A901480F591F6A1F8E
:100530007B1FAA0CBB1CCC1CDD1C97FE08C081E0F5
:1005400090E0A0E0B0E0A82AB92ACA2ADB2A3196B6
:10055000E032F10549F0660C771C881C991C569412
:10056000479437942794C3CFFA85EA892B893C892D
:100570008B859C85280F391F2E5F3F4F17C0CA01FE
:1005800081709070892B61F016950795F794E79428
:1005900080E090E0A0E0B0E8E82AF92A0A2B1B2BC3
:1005A00076956795579547952F5F3F4F77FDE7CF36
:1005B0000CC0440F551F661F771F17FD4160EE0CDE
:1005C000FF1C001F111F21503040403090E05907A0
:1005D00090E0690790E4790760F32B8F3C8FDB0193
:1005E000CA018F779070A070B07080349105A1051A
:1005F000B10561F447FD0AC0E114F10401051105DC
:1006000029F0405C5F4F6F4F7F4F40781A8EFE1786
:1006100011F081E08A8F4D8F5E8F6F8F78A383E01A
:10062000898FCE0149960E94A904A096E2E10C941C
:100630002D1EA8E1B0E0EFE1F3E00C94191E6983F0
:100640007A838B839C832D833E834F835887B9E0C5
:10065000EB2EF12CEC0EFD1ECE010196B7010E948F
:100660007E058E010F5E1F4FCE010596B8010E94D8
:100670007E052985223008F47EC03989323010F495
:10068000B8017CC08A859A8989278A87243011F02D
:10069000223031F4231709F06EC060E870E06EC0BC
:1006A000343039F41D861E861F86188A1C861B86E8
:1006B00004C0323021F484E08987B7015FC02B8504
:1006C0003C858B899C89281B390B3C872B87ED84C3
:1006D000FE840F851889AD88BE88CF88D88CEA142F
:1006E000FB040C051D0540F4EE0CFF1C001F111F40
:1006F000215030403C872B8720E030E040E050E044
:1007000080E090E0A0E0B0E460E070E0EA14FB0478
:100710000C051D0540F0282B392B4A2B5B2BEA18C2
:10072000FB080C091D09B695A79597958795EE0CC2
:10073000FF1C001F111F6F5F7F4F6F31710531F775
:10074000DA01C9018F779070A070B0708034910584
:10075000A105B10561F427FD0AC0E114F10401050A
:10076000110529F0205C3F4F4F4F5F4F20782D87B8
:100770003E874F87588BBE01675F7F4FCB010E943A
:10078000A9046896EAE00C94351EA8E1B0E0EBEC11
:10079000F3E00C941D1E69837A838B839C832D83E5
:1007A0003E834F83588789E0E82EF12CEC0EFD1E26
:1007B000CE010196B7010E947E058E010F5E1F4F8C
:1007C000CE010596B8010E947E058985823040F0F1
:1007D0008989823028F0C701B8010E94F60501C05E
:1007E0008FEF6896E6E00C94391EA8E1B0E0EBEFDD
:1007F000F3E00C941D1E69837A838B839C832D8385
:100800003E834F83588789E0E82EF12CEC0EFD1EC5
:10081000CE010196B7010E947E058E010F5E1F4F2B
:10082000CE010596B8010E947E058985823040F090
:100830008989823028F0C701B8010E94F60501C0FD
:100840008FEF6896E6E00C94391EA8E1B0E0EBE289
:10085000F4E00C941D1E69837A838B839C832D8323
:100860003E834F83588789E0E82EF12CEC0EFD1E65
:10087000CE010196B7010E947E058E010F5E1F4FCB
:10088000CE010596B8010E947E058985823040F030
:100890008989823028F0C701B8010E94F60501C09D
:1008A00081E06896E6E00C94391EACE0B0E0EBE540
:1008B000F4E00C94211E69837A838B839C83CE01A0
:1008C0000196BE016B5F7F4F0E947E058D81823055
:1008D00061F1823050F1843021F48E81882351F10E
:1008E0002EC02F81388537FD20C06E812F31310514
:1008F0001CF06623F9F023C08EE190E0821B930B7D
:1009000029853A854B855C8504C056954795379572
:1009100027958A95D2F76623B1F05095409530958A
:1009200021953F4F4F4F5F4F0EC020E030E040E039
:1009300050E009C02FEF3FEF4FEF5FE704C020E02A
:1009400030E040E050E8B901CA012C96E2E00C9496
:100950003D1EDF92EF92FF920F931F93FC01E48004
:10096000F58006811781D1808081823048F480E053
:1009700090E0A0E1B0E0E82AF92A0A2B1B2BA5C0E1
:10098000843009F49FC0823021F4EE24FF248701D3
:1009900005C0E114F1040105110519F4E0E0F0E0EF
:1009A00096C0628173819FEF623879070CF05BC05B
:1009B00022E83FEF261B370B2A3131052CF020E0CF
:1009C00030E040E050E02AC0B801A701022E04C088
:1009D00076956795579547950A94D2F781E090E010
:1009E000A0E0B0E004C0880F991FAA1FBB1F2A9582
:1009F000D2F70197A109B1098E219F21A023B1232C
:100A00000097A105B10521F081E090E0A0E0B0E001
:100A10009A01AB01282B392B4A2B5B2BDA01C90138
:100A20008F779070A070B07080349105A105B105EA
:100A300039F427FF09C0205C3F4F4F4F5F4F04C080
:100A4000215C3F4F4F4F5F4FE0E0F0E02030A0E0EF
:100A50003A07A0E04A07A0E45A0710F0E1E0F0E00E
:100A600079018A0127C06038710564F5FB01E158FE
:100A7000FF4FD801C7018F779070A070B07080349D
:100A80009105A105B10539F4E7FE0DC080E490E0C1
:100A9000A0E0B0E004C08FE390E0A0E0B0E0E80E9A
:100AA000F91E0A1F1B1F17FF05C016950795F7941F
:100AB000E794319687E016950795F794E7948A9521
:100AC000D1F705C0EE24FF248701EFEFF0E06E2F91
:100AD000679566276795902F9F77D794DD24D794E5
:100AE0008E2F8695492F462B582F5D29B701CA01B5
:100AF0001F910F91FF90EF90DF900895FC01DB01B3
:100B0000408151812281622F6F7770E0221F22275E
:100B1000221F9381892F880F822B282F30E0991F65
:100B20009927991F11969C93119721153105A9F5C5
:100B3000411551056105710511F482E037C082E865
:100B40009FEF13969C938E9312979A01AB0167E0E7
:100B5000220F331F441F551F6A95D1F783E08C93F2
:100B60000DC0220F331F441F551F12968D919C916B
:100B70001397019713969C938E931297203080E0E1
:100B8000380780E0480780E4580758F314962D93FF
:100B90003D934D935C93179708952F3F310579F45A
:100BA000411551056105710519F484E08C93089590
:100BB00064FF03C081E08C9312C01C9210C02F57B9
:100BC000304013963C932E93129783E08C9387E0EA
:100BD000440F551F661F771F8A95D1F770641496CE
:100BE0004D935D936D937C93179708951F93DC014C
:100BF000FB019C91923008F447C08081823008F458
:100C000043C0943051F411961C91843099F5818140
:100C1000682F70E0611B71093FC0843021F0923071
:100C200031F48230B9F18181882389F12DC0119688
:100C30001C9111978230F1F081811817D9F4129626
:100C40002D913C911397828193818217930794F0A1
:100C500028173907BCF014968D919D910D90BC9189
:100C6000A02D2481358146815781281739074A07ED
:100C70005B0718F4112341F00AC082179307A407F9
:100C8000B50740F4112319F061E070E005C06FEF83
:100C90007FEF02C060E070E0CB011F910895DF9309
:100CA000CF93CDB7DEB7EAE3F0E08FE08083E7E3F0
:100CB000F0E080E48083E4E3F0E08FEF8083E1E321
:100CC000F0E082E08083EBE3F0E01082E8E3F0E024
:100CD00080E18083E5E3F0E01082E2E3F0E010825F
:100CE000CF91DF910895DF93CF93CDB7DEB72E97E5
:100CF0000FB6F894DEBF0FBECDBF8A836B834C83E3
:100D000081E089838A81843008F00DC18B8188302D
:100D100008F009C18C81882321F08C81813009F091
:100D200002C18A81282F30E03E872D878D859E85E0
:100D30008130910509F44FC02D853E852230310563
:100D40002CF48D859E85009771F0EEC02D853E8533
:100D50002230310509F477C08D859E858330910559
:100D600009F4A9C0E1C08B81282F30E03C872B8794
:100D70008B859C85009731F02B853C852130310592
:100D8000B1F0D2C0AAE3B0E0EAE3F0E08081482FFE
:100D90008B81282F30E081E090E0022E02C0880F86
:100DA000991F0A94E2F7809584238C93BDC0AAE32F
:100DB000B0E0EAE3F0E08081482F8B81282F30E01B
:100DC00081E090E0022E02C0880F991F0A94E2F79A
:100DD000842B8C93A9C08B81282F30E03A872987F8
:100DE00089859A85009731F029853A85213031052A
:100DF000B1F09AC0A7E3B0E0E7E3F0E08081482FCC
:100E00008B81282F30E081E090E0022E02C0880F15
:100E1000991F0A94E2F7809584238C9385C0A7E3F9
:100E2000B0E0E7E3F0E08081482F8B81282F30E0AD
:100E300081E090E0022E02C0880F991F0A94E2F729
:100E4000842B8C9371C08B81282F30E038872F83BF
:100E50008F819885009731F02F81388521303105B9
:100E6000B1F062C0A4E3B0E0E4E3F0E08081482F99
:100E70008B81282F30E081E090E0022E02C0880FA5
:100E8000991F0A94E2F7809584238C934DC0A4E3C4
:100E9000B0E0E4E3F0E08081482F8B81282F30E040
:100EA00081E090E0022E02C0880F991F0A94E2F7B9
:100EB000842B8C9339C08B81282F30E03E832D8387
:100EC0008D819E81009731F02D813E812130310549
:100ED000B1F02AC0A1E3B0E0E1E3F0E08081482F67
:100EE0008B81282F30E081E090E0022E02C0880F35
:100EF000991F0A94E2F7809584238C9315C0A1E38F
:100F0000B0E0E1E3F0E08081482F8B81282F30E0D2
:100F100081E090E0022E02C0880F991F0A94E2F748
:100F2000842B8C9301C0198289812E960FB6F89478
:100F3000DEBF0FBECDBFCF91DF910895DF93CF937A
:100F4000CDB7DEB72E970FB6F894DEBF0FBECDBF7C
:100F50008A836B834C8381E089838B81883008F09E
:100F60000CC18A81282F30E03E872D878D859E8594
:100F70008130910509F451C02D853E85223031051F
:100F80002CF48D859E85009771F0F5C02D853E85EA
:100F90002230310509F47BC08D859E858330910513
:100FA00009F4AFC0E8C08C81282F30E03C872B8744
:100FB0008B859C85009731F02B853C852130310550
:100FC000B1F029C0ABE3B0E0EBE3F0E08081482F63
:100FD0008B81282F30E081E090E0022E02C0880F44
:100FE000991F0A94E2F7809584238C93C7C0ABE3E2
:100FF000B0E0EBE3F0E08081482F8B81282F30E0D8
:1010000081E090E0022E02C0880F991F0A94E2F757
:10101000842B8C93B3C01982B1C08C81282F30E00F
:101020003A87298789859A85009731F029853A85FD
:1010300021303105B1F029C0A8E3B0E0E8E3F0E0E9
:101040008081482F8B81282F30E081E090E0022EB4
:1010500002C0880F991F0A94E2F7809584238C932D
:101060008DC0A8E3B0E0E8E3F0E08081482F8B81F9
:10107000282F30E081E090E0022E02C0880F991FF7
:101080000A94E2F7842B8C9379C0198277C08C8103
:10109000282F30E038872F838F819885009731F093
:1010A0002F81388521303105B1F029C0A5E3B0E0AA
:1010B000E5E3F0E08081482F8B81282F30E081E04C
:1010C00090E0022E02C0880F991F0A94E2F78095E3
:1010D00084238C9353C0A5E3B0E0E5E3F0E0808186
:1010E000482F8B81282F30E081E090E0022E02C053
:1010F000880F991F0A94E2F7842B8C933FC01982C2
:101100003DC08C81282F30E03E832D838D819E81D0
:10111000009731F02D813E8121303105B1F029C099
:10112000A2E3B0E0E2E3F0E08081482F8B81282F3A
:1011300030E081E090E0022E02C0880F991F0A94EF
:10114000E2F7809584238C9319C0A2E3B0E0E2E338
:10115000F0E08081482F8B81282F30E081E090E003
:10116000022E02C0880F991F0A94E2F7842B8C93F9
:1011700005C0198203C0198201C0198289812E9687
:101180000FB6F894DEBF0FBECDBFCF91DF910895AB
:10119000DF93CF93CDB7DEB728970FB6F894DEBFB5
:1011A0000FBECDBF8B836C835E834D8381E08A83CA
:1011B0008B81843008F0A1C08C81883008F09DC0FC
:1011C0008D819E81009709F498C08B81282F30E093
:1011D00038872F834F81588541305105A9F18F8180
:1011E00098858230910534F42F8138852115310599
:1011F00071F081C04F8158854230510509F441C0DA
:101200008F8198858330910509F458C074C0E9E353
:10121000F0E08081282F30E08C81882F90E0A901B8
:1012200002C0559547958A95E2F7CA018170898376
:101230008981882321F4ED81FE8110825FC0ED81D8
:10124000FE8181E080835AC0E6E3F0E08081282FB0
:1012500030E08C81882F90E0A90102C05595479518
:101260008A95E2F7CA01817089838981882321F4F4
:10127000ED81FE81108242C0ED81FE8181E080839C
:101280003DC0E3E3F0E08081282F30E08C81882F9F
:1012900090E0A90102C0559547958A95E2F7CA01E9
:1012A000817089838981882321F4ED81FE811082F8
:1012B00025C0ED81FE8181E0808320C0E0E3F0E085
:1012C0008081282F30E08C81882F90E0A90102C016
:1012D000559547958A95E2F7CA018170898389817E
:1012E000882321F4ED81FE81108208C0ED81FE810A
:1012F00081E0808303C01A8201C01A828A81289605
:101300000FB6F894DEBF0FBECDBFCF91DF91089529
:10131000DF93CF93CDB7DEB72D970FB6F894DEBF2E
:101320000FBECDBF8A836B8381E089838B81882345
:1013300021F08B81813009F082C08A81282F30E032
:101340003D872C878C859D858130910571F12C8599
:101350003D85223031052CF48C859D85009769F000
:101360006CC02C853D8522303105B9F18C859D8579
:101370008330910509F449C060C08B81282F30E08B
:101380003B872A878A859B85009731F02A853B8594
:101390002130310529F054C0EAE3F0E0108250C05A
:1013A000EAE3F0E08FEF80834BC08B81282F30E0A1
:1013B0003987288788859985009731F02885398570
:1013C0002130310529F03CC0E7E3F0E0108238C05D
:1013D000E7E3F0E08FEF808333C08B81282F30E08C
:1013E0003F832E838E819F81009731F02E813F8134
:1013F0002130310529F024C0E4E3F0E0108220C060
:10140000E4E3F0E08FEF80831BC08B81282F30E076
:101410003D832C838C819D81009731F02C813D810F
:101420002130310529F00CC0E1E3F0E0108208C062
:10143000E1E3F0E08FEF808303C0198201C01982DD
:1014400089812D960FB6F894DEBF0FBECDBFCF9128
:10145000DF910895DF93CF9300D000D00F92CDB7E6
:10146000DEB78A836B8381E089838A81282F30E00D
:101470003D832C838C819D8181309105D1F02C811D
:101480003D81223031052CF48C819D81009761F0E3
:101490001FC02C813D812230310581F08C819D81DE
:1014A0008330910581F014C0EBE3F0E08B81808301
:1014B00010C0E8E3F0E08B8180830BC0E5E3F0E04F
:1014C0008B81808306C0E2E3F0E08B81808301C0E2
:1014D000198289810F900F900F900F900F90CF91EC
:1014E000DF910895DF93CF9300D000D000D0CDB727
:1014F000DEB78A837C836B8381E089838B819C81C7
:101500000097E9F18A81282F30E03E832D838D8179
:101510009E8181309105E1F02D813E81223031059F
:101520002CF48D819E81009761F027C02D813E8132
:1015300022303105A1F08D819E8183309105B1F07B
:101540001CC0E9E3F0E08081EB81FC81808318C05E
:10155000E6E3F0E08081EB81FC81808311C0E3E36E
:10156000F0E08081EB81FC8180830AC0E0E3F0E061
:101570008081EB81FC81808303C0198201C01982C4
:10158000898126960FB6F894DEBF0FBECDBFCF91EE
:10159000DF910895DF93CF93CDB7DEB7AFE5B0E02D
:1015A000EFE5F0E0808180688C93CF91DF91089522
:1015B000DF93CF93CDB7DEB7AFE5B0E0EFE5F0E076
:1015C00080818F778C93CF91DF9108950F931F9334
:1015D000DF93CF93CDB7DEB7CC54D0400FB6F8949D
:1015E000DEBF0FBECDBFFE01E75BFF4F80E090E0A6
:1015F000ACE0B2E480839183A283B3838E010B5B62
:101600001F4FFE01E75BFF4F6081718182819381F3
:1016100020E030E04AEF54E40E941F02DC01CB01DD
:10162000F80180839183A283B383FE01EB5BFF4FBC
:10163000608171818281938120E030E040E85FE346
:101640000E942504882344F4FE01ED5BFF4F81E0F6
:1016500090E09183808364C0FE01EB5BFF4F60816B
:1016600071818281938120E03FEF4FE757E40E9430
:10167000C50318160CF043C0FE01E75BFF4F608105
:1016800071818281938120E030E040E251E40E9448
:101690001F02DC01CB018E010D5B1F4FBC01CD0190
:1016A0000E944900DC01CB01F801918380831FC0B7
:1016B000FE01EF5BFF4F88EC90E091838083FE0199
:1016C000EF5BFF4F808191810197F1F7FE01EF5BA6
:1016D000FF4F91838083DE01AD5BBF4FFE01ED5B69
:1016E000FF4F80819181019711969C938E93FE010B
:1016F000ED5BFF4F808191810097D1F624C08E0170
:101700000D5B1F4FFE01EB5BFF4F6081718182819A
:1017100093810E944900DC01CB01F8019183808311
:10172000FE01ED5BFF4F80819181FE01FF96918369
:101730008083FE01FF96808191810197F1F7FE0180
:10174000FF969183808388E30E94A90D80E090E05A
:10175000A0E2B2E48BAF9CAFADAFBEAF6BAD7CADE2
:101760008DAD9EAD2BEA3AEA4AE250E40E941F0298
:10177000DC01CB018FAB98AFA9AFBAAF6FA978AD41
:1017800089AD9AAD20E030E040E85FE30E94250497
:1017900088231CF481E08EAB91C06FA978AD89AD30
:1017A0009AAD20E030E04FE753E40E94C5031816DD
:1017B0000CF07BC06BAD7CAD8DAD9EAD20E030E01C
:1017C0004AE754E40E941903DC01CB018AAB9BABCE
:1017D000ACABBDAB6AA97BA98CA99DA920E030E088
:1017E0004AEF54E40E941F02DC01CB018EA79FA7A1
:1017F000A8ABB9AB6EA57FA588A999A920E030E078
:1018000040E85FE30E94250488232CF481E090E007
:101810009DA78CA73FC06EA57FA588A999A920E0A8
:101820003FEF4FE757E40E94C50318164CF56AA92D
:101830007BA98CA99DA920E030E040E251E40E9400
:101840001F02DC01CB01BC01CD010E944900DC017B
:10185000CB019DA78CA70FC088EC90E09BA78AA71F
:101860008AA59BA50197F1F79BA78AA78CA59DA5A3
:1018700001979DA78CA78CA59DA5009769F724C00B
:101880006EA57FA588A999A90E944900DC01CB011A
:101890009DA78CA78CA59DA599A788A788A599A584
:1018A0000197F1F799A788A70FC06FA978AD89AD07
:1018B0009AAD0E944900DC01CB018EAB8EA98FA3AB
:1018C0008FA18A95F1F78FA38FE00E94A90D80E088
:1018D00090E0A0E2B2E48BA39CA3ADA3BEA36BA156
:1018E0007CA18DA19EA12BEA3AEA4AE250E40E9433
:1018F0001F02DC01CB018F8F98A3A9A3BAA36F8D20
:1019000078A189A19AA120E030E040E85FE30E943D
:10191000250488231CF481E08E8F91C06F8D78A1FF
:1019200089A19AA120E030E04FE753E40E94C5036B
:1019300018160CF07BC06BA17CA18DA19EA120E0AC
:1019400030E04AE754E40E941903DC01CB018A8F9E
:101950009B8FAC8FBD8F6A8D7B8D8C8D9D8D20E094
:1019600030E04AEF54E40E941F02DC01CB018E8B71
:101970009F8BA88FB98F6E897F89888D998D20E084
:1019800030E040E85FE30E94250488232CF481E0E6
:1019900090E09D8B8C8B3FC06E897F89888D998D5F
:1019A00020E03FEF4FE757E40E94C50318164CF5BF
:1019B0006A8D7B8D8C8D9D8D20E030E040E251E47E
:1019C0000E941F02DC01CB01BC01CD010E94490035
:1019D000DC01CB019D8B8C8B0FC088EC90E09B8B46
:1019E0008A8B8A899B890197F1F79B8B8A8B8C89DB
:1019F0009D8901979D8B8C8B8C899D89009769F7B8
:101A000024C06E897F89888D998D0E944900DC01F0
:101A1000CB019D8B8C8B8C899D89998B888B888938
:101A200099890197F1F7998B888B0FC06F8D78A1F9
:101A300089A19AA10E944900DC01CB018E8F8E8D75
:101A40008F878F858A95F1F78F8781E00E94A90D96
:101A500080E090E0A0E0B0E48B879C87AD87BE87F4
:101A60006B857C858D859E8520E030E04AEF54E4CF
:101A70000E941F02DC01CB018F839887A987BA8758
:101A80006F81788589859A8520E030E040E85FE3C2
:101A90000E94250488232CF481E090E09E838D83AE
:101AA0003FC06F81788589859A8520E03FEF4FE7B9
:101AB00057E40E94C50318164CF56B857C858D850F
:101AC0009E8520E030E040E251E40E941F02DC01EC
:101AD000CB01BC01CD010E944900DC01CB019E83FA
:101AE0008D830FC088EC90E09C838B838B819C81DD
:101AF0000197F1F79C838B838D819E8101979E8353
:101B00008D838D819E81009769F714C06F817885E0
:101B100089859A850E944900DC01CB019E838D83D3
:101B20008D819E819A83898389819A810197F1F7BA
:101B30009A83898386E00E94A90DC45BDF4F0FB6AC
:101B4000F894DEBF0FBECDBFCF91DF911F910F91F3
:101B50000895DF93CF93CDB7DEB7E1970FB6F89432
:101B6000DEBF0FBECDBF89AB80E060E040E00E94E9
:101B70009E0780E061E040E00E949E0782E069A944
:101B80000E942A0A80E062E041E00E949E0780E015
:101B900090E0A0E8BFE38DA79EA7AFA7B8AB6DA567
:101BA0007EA58FA598A92BEA3AEA4AE250E40E9462
:101BB0001F02DC01CB0189A79AA7ABA7BCA769A527
:101BC0007AA58BA59CA520E030E040E85FE30E9469
:101BD000250488231CF481E088A791C069A57AA513
:101BE0008BA59CA520E030E04FE753E40E94C5039D
:101BF00018160CF07BC06DA57EA58FA598A920E0D6
:101C000030E04AE754E40E941903DC01CB018CA3C5
:101C10009DA3AEA3BFA36CA17DA18EA19FA120E037
:101C200030E04AEF54E40E941F02DC01CB0188A39C
:101C300099A3AAA3BBA368A179A18AA19BA120E033
:101C400030E040E85FE30E94250488232CF481E023
:101C500090E09F8F8E8F3FC068A179A18AA19BA140
:101C600020E03FEF4FE757E40E94C50318164CF5FC
:101C70006CA17DA18EA19FA120E030E040E251E463
:101C80000E941F02DC01CB01BC01CD010E94490072
:101C9000DC01CB019F8F8E8F0FC088EC90E09D8F71
:101CA0008C8F8C8D9D8D0197F1F79D8F8C8F8E8DF4
:101CB0009F8D01979F8F8E8F8E8D9F8D009769F7D7
:101CC00024C068A179A18AA19BA10E944900DC01DE
:101CD000CB019F8F8E8F8E8D9F8D9B8F8A8F8A8D4C
:101CE0009B8D0197F1F79B8F8A8F0FC069A57AA50D
:101CF0008BA59CA50E944900DC01CB0188A788A583
:101D0000898F898D8A95F1F7898F80E062E040E0C4
:101D10000E949E0780E090E0A0E8BFE38D8B9E8B41
:101D2000AF8BB88F6D897E898F89988D2BEA3AEABF
:101D30004AE250E40E941F02DC01CB01898B9A8B9E
:101D4000AB8BBC8B69897A898B899C8920E030E0D8
:101D500040E85FE30E94250488231CF481E0888B1F
:101D600091C069897A898B899C8920E030E04FE7AE
:101D700053E40E94C50318160CF07BC06D897E8960
:101D80008F89988D20E030E04AE754E40E941903DF
:101D9000DC01CB018C879D87AE87BF876C857D85F5
:101DA0008E859F8520E030E04AEF54E40E941F02B8
:101DB000DC01CB0188879987AA87BB8768857985ED
:101DC0008A859B8520E030E040E85FE30E9425049F
:101DD00088232CF481E090E09F838E833FC0688548
:101DE00079858A859B8520E03FEF4FE757E40E9485
:101DF000C50318164CF56C857D858E859F8520E082
:101E000030E040E251E40E941F02DC01CB01BC0142
:101E1000CD010E944900DC01CB019F838E830FC05E
:101E200088EC90E09D838C838C819D810197F1F7F4
:101E30009D838C838E819F8101979F838E838E816A
:101E40009F81009769F724C0688579858A859B857D
:101E50000E944900DC01CB019F838E838E819F818C
:101E60009B838A838A819B810197F1F79B838A8375
:101E70000FC069897A898B899C890E944900DC019D
:101E8000CB01888B8889898389818A95F1F7898339
:101E9000E1960FB6F894DEBF0FBECDBFCF91DF91B4
:101EA0000895DF93CF93CDB7DEB7E1970FB6F894DF
:101EB000DEBF0FBECDBF89AB80E060E041E00E9495
:101EC0009E0780E061E040E00E949E0782E069A9F1
:101ED0000E942A0A80E062E041E00E949E0780E0C2
:101EE00090E0A0E8BFE38DA79EA7AFA7B8AB6DA514
:101EF0007EA58FA598A92BEA3AEA4AE250E40E940F
:101F00001F02DC01CB0189A79AA7ABA7BCA769A5D3
:101F10007AA58BA59CA520E030E040E85FE30E9415
:101F2000250488231CF481E088A791C069A57AA5BF
:101F30008BA59CA520E030E04FE753E40E94C50349
:101F400018160CF07BC06DA57EA58FA598A920E082
:101F500030E04AE754E40E941903DC01CB018CA372
:101F60009DA3AEA3BFA36CA17DA18EA19FA120E0E4
:101F700030E04AEF54E40E941F02DC01CB0188A349
:101F800099A3AAA3BBA368A179A18AA19BA120E0E0
:101F900030E040E85FE30E94250488232CF481E0D0
:101FA00090E09F8F8E8F3FC068A179A18AA19BA1ED
:101FB00020E03FEF4FE757E40E94C50318164CF5A9
:101FC0006CA17DA18EA19FA120E030E040E251E410
:101FD0000E941F02DC01CB01BC01CD010E9449001F
:101FE000DC01CB019F8F8E8F0FC088EC90E09D8F1E
:101FF0008C8F8C8D9D8D0197F1F79D8F8C8F8E8DA1
:102000009F8D01979F8F8E8F8E8D9F8D009769F783
:1020100024C068A179A18AA19BA10E944900DC018A
:10202000CB019F8F8E8F8E8D9F8D9B8F8A8F8A8DF8
:102030009B8D0197F1F79B8F8A8F0FC069A57AA5B9
:102040008BA59CA50E944900DC01CB0188A788A52F
:10205000898F898D8A95F1F7898F80E062E040E071
:102060000E949E0780E090E0A0E8BFE38D8B9E8BEE
:10207000AF8BB88F6D897E898F89988D2BEA3AEA6C
:102080004AE250E40E941F02DC01CB01898B9A8B4B
:10209000AB8BBC8B69897A898B899C8920E030E085
:1020A00040E85FE30E94250488231CF481E0888BCC
:1020B00091C069897A898B899C8920E030E04FE75B
:1020C00053E40E94C50318160CF07BC06D897E890D
:1020D0008F89988D20E030E04AE754E40E9419038C
:1020E000DC01CB018C879D87AE87BF876C857D85A2
:1020F0008E859F8520E030E04AEF54E40E941F0265
:10210000DC01CB0188879987AA87BB876885798599
:102110008A859B8520E030E040E85FE30E9425044B
:1021200088232CF481E090E09F838E833FC06885F4
:1021300079858A859B8520E03FEF4FE757E40E9431
:10214000C50318164CF56C857D858E859F8520E02E
:1021500030E040E251E40E941F02DC01CB01BC01EF
:10216000CD010E944900DC01CB019F838E830FC00B
:1021700088EC90E09D838C838C819D810197F1F7A1
:102180009D838C838E819F8101979F838E838E8117
:102190009F81009769F724C0688579858A859B852A
:1021A0000E944900DC01CB019F838E838E819F8139
:1021B0009B838A838A819B810197F1F79B838A8322
:1021C0000FC069897A898B899C890E944900DC014A
:1021D000CB01888B8889898389818A95F1F78983E6
:1021E000E1960FB6F894DEBF0FBECDBFCF91DF9161
:1021F0000895DF93CF9300D0CDB7DEB79A8389835C
:102200000AC0E981FA8180810E94510F89819A81F7
:1022100001969A838983E981FA818081882389F7ED
:102220000F900F90CF91DF9108950F931F93DF933D
:10223000CF93CDB7DEB765970FB6F894DEBF0FBE6C
:10224000CDBF6A8B7B8B8C8B9D8B8FEF8A838A892A
:102250009B89AC89BD890097A105B10599F580E3FB
:102260000E94510F4EC08A818F5F8A838A81082F16
:10227000112707FD10958A899B89AC89BD892AE0C1
:1022800030E040E050E0BC01CD010E94EF1DDC01D8
:10229000CB01282FCE010396FC01E00FF11F208314
:1022A0008A899B89AC89BD892AE030E040E050E012
:1022B000BC01CD010E94EF1DDA01C9018A8B9B8B05
:1022C000AC8BBD8B8A899B89AC89BD890097A105A0
:1022D000B10549F68A81898311C08981282F332766
:1022E00027FD3095CE010396FC01E20FF31F80819C
:1022F000805D0E94510F8981815089838981882363
:1023000064F765960FB6F894DEBF0FBECDBFCF91D0
:10231000DF911F910F910895DF93CF9300D000D0EC
:102320000F92CDB7DEB78A836B8381E089838B817F
:102330008832D8F48A81282F30E03D832C838C8129
:102340009D818130910531F02C813D812230310514
:1023500031F00AC08B8180580E94A90D06C08B8184
:1023600080540E94A90D01C0198289810F900F909D
:102370000F900F900F90CF91DF910895DF93CF933F
:10238000CDB7DEB72E970FB6F894DEBF0FBECDBF28
:1023900081E00E94A90D80E090E0A0EAB1E48B8783
:1023A0009C87AD87BE876B857C858D859E8520E06B
:1023B00030E04AEF54E40E941F02DC01CB018F831E
:1023C0009887A987BA876F81788589859A8520E063
:1023D00030E040E85FE30E94250488232CF481E08C
:1023E00090E09E838D833FC06F81788589859A8533
:1023F00020E03FEF4FE757E40E94C50318164CF565
:102400006B857C858D859E8520E030E040E251E43F
:102410000E941F02DC01CB01BC01CD010E944900DA
:10242000DC01CB019E838D830FC088EC90E09C8300
:102430008B838B819C810197F1F79C838B838D81AA
:102440009E8101979E838D838D819E81009769F780
:1024500014C06F81788589859A850E944900DC01C6
:10246000CB019E838D838D819E819A83898389810F
:102470009A810197F1F79A8389832E960FB6F89483
:10248000DEBF0FBECDBFCF91DF910895DF93CF9315
:10249000CDB7DEB72A970FB6F894DEBF0FBECDBF1B
:1024A0008C837E836D834F83288781E08B8388E0D4
:1024B0008A838C81282F30E03A87298789859A85FD
:1024C0008330910509F48CC029853A852430310583
:1024D0008CF489859A858130910509F443C029855A
:1024E0003A85223031050CF05CC089859A850097C9
:1024F000D1F011C129853A852530310509F4AEC0E6
:1025000089859A85853091050CF489C029853A859D
:102510002630310509F4C1C089859A858730910537
:1025200009F4DAC0F8C080E40E94A90D19820EC037
:102530008981282F30E08D819E81FC01E20FF31FFD
:1025400080810E94510F89818F5F898399818A815F
:10255000981770F38F8168850E948C118C810E947E
:10256000510FDAC088E40E94A90D19820EC089813A
:10257000282F30E08D819E81FC01E20FF31F8081C6
:102580000E94510F89818F5F898399818A81981771
:1025900070F38F8168850E948C118C810E94510F8D
:1025A000BBC080E50E94A90D19820EC08981282F29
:1025B00030E08D819E81FC01E20FF31F80810E943B
:1025C000510F89818F5F898399818A81981770F370
:1025D0008F8168850E948C118C810E94510F9CC054
:1025E00088E50E94A90D19820EC08981282F30E04C
:1025F0008D819E81FC01E20FF31F80810E94510FAB
:1026000089818F5F898399818A81981770F38F817F
:1026100068850E948C118C810E94510F7DC080E6DC
:102620000E94A90D19820EC08981282F30E08D816A
:102630009E81FC01E20FF31F80810E94510F89816E
:102640008F5F898399818A81981770F38F8168855C
:102650000E948C118C810E94510F5EC088E60E94FE
:10266000A90D19820EC08981282F30E08D819E81AD
:10267000FC01E20FF31F80810E94510F89818F5F5F
:10268000898399818A81981770F38F8168850E9468
:102690008C118C810E94510F3FC080E70E94A90DD0
:1026A00019820EC08981282F30E08D819E81FC0126
:1026B000E20FF31F80810E94510F89818F5F898310
:1026C00099818A81981770F38F8168850E948C1197
:1026D0008C810E94510F20C088E70E94A90D1982A9
:1026E0000EC08981282F30E08D819E81FC01E20F90
:1026F000F31F80810E94510F89818F5F89839981A7
:102700008A81981770F38F8168850E948C118C8163
:102710000E94510F01C01B828B812A960FB6F8943C
:10272000DEBF0FBECDBFCF91DF910895DF93CF9372
:10273000CDB7DEB7E1970FB6F894DEBF0FBECDBFC1
:1027400089AB80E060E040E00E949E0780E061E0AD
:1027500040E00E949E0789A9982F9295907F82E081
:10276000692F0E942A0A80E062E041E00E949E07F1
:1027700080E090E0A0E8BFE38DA79EA7AFA7B8AB2D
:102780006DA57EA58FA598A92BEA3AEA4AE250E406
:102790000E941F02DC01CB0189A79AA7ABA7BCA7A7
:1027A00069A57AA58BA59CA520E030E040E85FE311
:1027B0000E94250488231CF481E088A791C069A5A4
:1027C0007AA58BA59CA520E030E04FE753E40E945A
:1027D000C50318160CF07BC06DA57EA58FA598A922
:1027E00020E030E04AE754E40E941903DC01CB0109
:1027F0008CA39DA3AEA3BFA36CA17DA18EA19FA11D
:1028000020E030E04AEF54E40E941F02DC01CB01DB
:1028100088A399A3AAA3BBA368A179A18AA19BA11C
:1028200020E030E040E85FE30E94250488232CF498
:1028300081E090E09F8F8E8F3FC068A179A18AA12F
:102840009BA120E03FEF4FE757E40E94C503181615
:102850004CF56CA17DA18EA19FA120E030E040E26B
:1028600051E40E941F02DC01CB01BC01CD010E949A
:102870004900DC01CB019F8F8E8F0FC088EC90E068
:102880009D8F8C8F8C8D9D8D0197F1F79D8F8C8FF7
:102890008E8D9F8D01979F8F8E8F8E8D9F8D009730
:1028A00069F724C068A179A18AA19BA10E9449006F
:1028B000DC01CB019F8F8E8F8E8D9F8D9B8F8A8F9A
:1028C0008A8D9B8D0197F1F79B8F8A8F0FC069A529
:1028D0007AA58BA59CA50E944900DC01CB0188A7A5
:1028E00088A5898F898D8A95F1F7898F80E062E0CC
:1028F00040E00E949E0780E090E0A0E8BFE38D8B5F
:102900009E8BAF8BB88F6D897E898F89988D2BEACE
:102910003AEA4AE250E40E941F02DC01CB01898BB3
:102920009A8BAB8BBC8B69897A898B899C8920E0D7
:1029300030E040E85FE30E94250488231CF481E036
:10294000888B91C069897A898B899C8920E030E0E5
:102950004FE753E40E94C50318160CF07BC06D8945
:102960007E898F89988D20E030E04AE754E40E9408
:102970001903DC01CB018C879D87AE87BF876C85EF
:102980007D858E859F8520E030E04AEF54E40E94EB
:102990001F02DC01CB0188879987AA87BB876885DE
:1029A00079858A859B8520E030E040E85FE30E94DE
:1029B000250488232CF481E090E09F838E833FC020
:1029C000688579858A859B8520E03FEF4FE757E44E
:1029D0000E94C50318164CF56C857D858E859F85F4
:1029E00020E030E040E251E40E941F02DC01CB0114
:1029F000BC01CD010E944900DC01CB019F838E8385
:102A00000FC088EC90E09D838C838C819D81019721
:102A1000F1F79D838C838E819F8101979F838E83A5
:102A20008E819F81009769F724C0688579858A85A2
:102A30009B850E944900DC01CB019F838E838E81A0
:102A40009F819B838A838A819B810197F1F79B8376
:102A50008A830FC069897A898B899C890E94490081
:102A6000DC01CB01888B8889898389818A95F1F77C
:102A70008983E1960FB6F894DEBF0FBECDBFCF912C
:102A8000DF910895DF93CF93CDB7DEB7ADE2B0E02D
:102A9000EDE2F0E080818F7D8C93ADE2B0E0EDE27D
:102AA000F0E080818F7E8C93ADE2B0E0EDE2F0E06B
:102AB000808188608C93ADE2B0E0EDE2F0E080814F
:102AC00084608C93ADE2B0E0EDE2F0E08081806460
:102AD0008C93CF91DF910895DF93CF9300D000D0F6
:102AE000CDB7DEB78A837C836B8319828B819C810F
:102AF000009789F0EFE2F0E08A818083EEE2F0E077
:102B000080818823DCF7EFE2F0E08081EB81FC81BB
:102B1000808381E0898389810F900F900F900F90BF
:102B2000CF91DF910895DF93CF930F92CDB7DEB7AA
:102B30008983EFE2F0E0898180830F90CF91DF916C
:102B40000895DF93CF9300D00F92CDB7DEB79B836C
:102B50008A8319828A819B81009769F0EEE2F0E016
:102B600080818823DCF7EFE2F0E08081EA81FB815D
:102B7000808381E0898389810F900F900F90CF919E
:102B8000DF910895DF93CF93CDB7DEB727970FB6C8
:102B9000F894DEBF0FBECDBF9F838E8381E08D830F
:102BA00019821A821B821C828E819F81009709F4F0
:102BB00041C03AC0EFE2F0E0AE81BF818C918083EA
:102BC00019821A821B821C820BC089819A81AB8177
:102BD000BC810196A11DB11D89839A83AB83BC83FF
:102BE000EEE2F0E08081882364F089819A81AB81F4
:102BF000BC81803422E492072FE0A20720E0B207D4
:102C000020F389819A81AB81BC81803422E49207D0
:102C10002FE0A20720E0B20710F01D820CC08E81C9
:102C20009F8101969F838E83EE81FF81808188231F
:102C300009F601C01D828D8127960FB6F894DEBF7C
:102C40000FBECDBFCF91DF910895DF93CF93CDB766
:102C5000DEB72C970FB6F894DEBF0FBECDBF9C87B2
:102C60008B8781E08A871E821F82188619861D82C3
:102C70008B859C85009709F44AC019821A821B82B1
:102C80001C820BC089819A81AB81BC810196A11DF8
:102C9000B11D89839A83AB83BC83EEE2F0E080812F
:102CA000882364F089819A81AB81BC81803422E4DD
:102CB00092072FE0A20720E0B20720F389819A81D2
:102CC000AB81BC81803422E492072FE0A20720E090
:102CD000B20710F01A861CC08D81282F30E08B853A
:102CE0009C85DC01A20FB31FEFE2F0E080818C93A2
:102CF0008D81282F30E08B859C85FC01E20FF31F2E
:102D00008081882329F08D818F5F8D83B6CF1A86CD
:102D10008A852C960FB6F894DEBF0FBECDBFCF913B
:102D2000DF910895DF93CF9300D000D00F92CDB7FD
:102D3000DEB79B838A837D836C8381E089838A816C
:102D40009B81009791F18C819D81009771F1809119
:102D50009200882341F581E0809392008A819B81D3
:102D600090938900809388008C819D8190938D0041
:102D700080938C0010929000AFE2B0E02091880028
:102D80003091890080919000882F90E0F901E80F40
:102D9000F91F80818C93ADE2B0E0EDE2F0E080813C
:102DA00080688C9303C0198201C0198289810F90B9
:102DB0000F900F900F900F90CF91DF910895DF93B8
:102DC000CF9300D000D00F92CDB7DEB79B838A831C
:102DD0007D836C8381E089838A819B81009731F1B7
:102DE0008C819D81009711F1809193008823E1F4FB
:102DF00081E0809393008A819B8190938B008093E4
:102E00008A008C819D8190938F0080938E00109218
:102E1000910082E080939400ADE2B0E0EDE2F0E05A
:102E2000808180688C9303C0198201C019828981D6
:102E30000F900F900F900F900F90CF91DF9108950A
:102E4000DF93CF93CDB7DEB72A970FB6F894DEBFE6
:102E50000FBECDBF98878F837A87698781E08E8385
:102E60001A821B821C821D8219828F81988500978D
:102E700009F466C089859A85009709F461C04AC043
:102E8000AFE2B0E08981282F30E08F819885FC0186
:102E9000E20FF31F80818C931A821B821C821D8299
:102EA0000BC08A819B81AC81BD810196A11DB11DA2
:102EB0008A839B83AC83BD83EEE2F0E0808188232C
:102EC00064F08A819B81AC81BD81803422E49207C9
:102ED0002FE0A20720E0B20720F38A819B81AC811A
:102EE000BD81803422E492072FE0A20720E0B207E0
:102EF00010F01E821BC08981282F30E089859A85B9
:102F0000DC01A20FB31FEFE2F0E080818C93898196
:102F10008F5F89838981282F30E08F819885FC011C
:102F2000E20FF31F8081882309F0AACF8981282F1F
:102F300030E089859A85FC01E20FF31F108201C001
:102F40001E828E812A960FB6F894DEBF0FBECDBFCB
:102F5000CF91DF910895DF93CF93CDB7DEB7289758
:102F60000FB6F894DEBF0FBECDBF9C838B837E83EC
:102F70006D8358874F8381E08A838B819C81009782
:102F800009F45CC08D819E81009709F457C08F8140
:102F90009885009709F452C080919200882309F027
:102FA0004BC080919300882309F046C081E0809354
:102FB000920081E0809393008B819C8190938900A3
:102FC000809388008D819E8190938B0080938A00EE
:102FD0008F81988590938F0080938E00109290003F
:102FE000EEE2F0E080818295869586958370882F49
:102FF00090E081709070882341F0EEE2F0E08081F3
:103000008983EFE2F0E080818983AFE2B0E0209134
:1030100088003091890080919000882F90E0F9011C
:10302000E80FF91F80818C93ADE2B0E0EDE2F0E0B3
:10303000808180688C9303C01A8201C01A828A81C1
:1030400028960FB6F894DEBF0FBECDBFCF91DF91AB
:1030500008951F920F920FB60F9211242F933F9352
:103060004F935F936F937F938F939F93AF93BF9390
:10307000EF93FF93DF93CF930F92CDB7DEB780919D
:10308000880090918900009709F479C080918A00A6
:1030900090918B00009709F472C080918E009091FE
:1030A0008F00009709F46BC0EEE2F0E0808182951A
:1030B000869586958370882F90E081709070882324
:1030C00041F0EEE2F0E080818983EFE2F0E0808180
:1030D000898320918A0030918B0080919000882F05
:1030E00090E0D901A80FB91FEFE2F0E080818C9346
:1030F000809190008F5F80939000209188003091A4
:10310000890080919000882F90E0F901E80FF91F65
:103110008081882381F0AFE2B0E020918800309177
:10312000890080919000882F90E0F901E80FF91F45
:1031300080818C9324C020918A0030918B008091F3
:103140009000882F90E0F901E80FF91F1082ADE29E
:10315000B0E0EDE2F0E080818F778C9380918E007B
:1031600090918F00009729F0E0918E00F0918F00F0
:1031700009951092920010929300109290000F9077
:10318000CF91DF91FF91EF91BF91AF919F918F917F
:103190007F916F915F914F913F912F910F900FBE53
:1031A0000F901F901895DF93CF9300D00F92CDB75B
:1031B000DEB783E390E09B838A8380E88983E9E23A
:1031C000F0E08A818083E0E4F0E08A819B81892FAE
:1031D00099278083ABE2B0E0EBE2F0E080818D7F65
:1031E0008C93ABE2B0E0EBE2F0E080818E7F8C93D9
:1031F000AAE2B0E0EAE2F0E0808180618C93AAE28A
:10320000B0E0EAE2F0E0808188608C93AAE2B0E06E
:10321000EAE2F0E080818B7F8C93898184608983EE
:1032200089818260898389818F7B898389818F7D70
:10323000898389818F7E89838981877F8983E0E47F
:10324000F0E0898180830F900F900F90CF91DF91F4
:103250000895DF93CF930F92CDB7DEB78983EBE26A
:10326000F0E08081829586958770882F90E081704C
:1032700090700097A1F3ECE2F0E0898180830F90D9
:10328000CF91DF910895DF93CF9300D00F92CDB708
:10329000DEB79B838A8319828A819B81009769F0BC
:1032A000EBE2F0E080818823DCF7ECE2F0E0808163
:1032B000EA81FB81808381E0898389810F900F906F
:1032C0000F90CF91DF910895DF93CF93CDB7DEB705
:1032D00027970FB6F894DEBF0FBECDBF9F838E83B6
:1032E00081E08D8319821A821B821C828E819F81CC
:1032F000009709F487C07FC019821A821B821C8242
:103300000BC089819A81AB81BC810196A11DB11D41
:1033100089839A83AB83BC83EBE2F0E08081829562
:1033200086958770882F90E081709070009761F487
:1033300089819A81AB81BC81803221EA920727E0A2
:10334000A20720E0B207E8F289819A81AB81BC81B3
:10335000803221EA920727E0A20720E0B20710F0AE
:103360001D8251C0ECE2F0E0AE81BF818C91808380
:1033700019821A821B821C820BC089819A81AB81BF
:10338000BC810196A11DB11D89839A83AB83BC8347
:10339000EBE2F0E080818295869586958370882F98
:1033A00090E081709070009761F489819A81AB817F
:1033B000BC81803221EA920727E0A20720E0B20711
:1033C000E0F289819A81AB81BC81803221EA920747
:1033D00027E0A20720E0B20710F01D8214C0ABE284
:1033E000B0E0EBE2F0E0808180648C938E819F817D
:1033F00001969F838E83EE81FF818081882309F06F
:103400007BCF01C01D828D8127960FB6F894DEBF59
:103410000FBECDBFCF91DF910895DF93CF93CDB78E
:10342000DEB729970FB6F894DEBF0FBECDBF9887E1
:103430008F83698781E08E831A821B821C821D82A2
:1034400019828F819885009709F44EC03EC01A8278
:103450001B821C821D820BC08A819B81AC81BD8135
:103460000196A11DB11D8A839B83AC83BD83EBE2D2
:10347000F0E08081882364F08A819B81AC81BD81EA
:10348000803221EA920727E0A20720E0B20720F36A
:103490008A819B81AC81BD81803221EA920727E03D
:1034A000A20720E0B20710F01E8214C08981282FE5
:1034B00030E08F819885DC01A20FB31FECE2F0E0D1
:1034C00080818C9389818F5F898399818985981701
:1034D00008F4BDCF8981282F30E08F819885FC01C9
:1034E000E20FF31F108201C01E828E8129960FB653
:1034F000F894DEBF0FBECDBFCF91DF910895DF936B
:10350000CF9300D000D00F92CDB7DEB79B838A83D4
:103510007D836C8381E089838A819B81009719F187
:103520008C819D810097F9F080919A008823C9F4DD
:1035300081E080939A008A819B8190939800809388
:1035400097008C819D8190939600809395001092B6
:103550009900AAE2B0E0EAE2F0E0808180628C9318
:1035600003C0198201C0198289810F900F900F90BA
:103570000F900F90CF91DF9108951F920F920FB689
:103580000F9211242F933F934F935F936F937F93E9
:103590008F939F93AF93BF93EF93FF93DF93CF935B
:1035A000CDB7DEB7209197003091980080919900B7
:1035B000882F90E0F901E80FF91F80818823A9F096
:1035C000ACE2B0E020919700309198008091990092
:1035D000882F90E0F901E80FF91F80818C9380918A
:1035E00099008F5F8093990016C0AAE2B0E0EAE2EA
:1035F000F0E080818F7D8C93809195009091960072
:10360000009729F0E0919500F091960009951092AD
:103610009A0010929900CF91DF91FF91EF91BF91A5
:10362000AF919F918F917F916F915F914F913F915A
:103630002F910F900FBE0F901F901895DF93CF938F
:1036400000D000D000D0CDB7DEB79B838A837D83C6
:103650006C834E8381E089838A819B81009749F145
:103660008C819D81009729F18E81882311F18091B1
:10367000A0008823E1F481E08093A0008A819B81EF
:1036800090939C0080939B008C819D8190939E00E1
:1036900080939D0010929F008E818093A100AAE2EA
:1036A000B0E0EAE2F0E0808180688C9303C0198288
:1036B00001C01982898126960FB6F894DEBF0FBE2D
:1036C000CDBFCF91DF9108951F920F920FB60F9249
:1036D00011242F933F934F935F936F937F938F9317
:1036E0009F93AF93BF93EF93FF93DF93CF93CDB7A8
:1036F000DEB790919F008091A1009817E0F520918E
:103700009B0030919C0080919F00882F90E0D90110
:10371000A80FB91FECE2F0E080818C9380919F00AC
:103720008F5F80939F0090919F008091A1009817D8
:1037300010F1AAE2B0E0EAE2F0E080818F778C93AA
:1037400020919B0030919C0080919F00882F90E0F9
:10375000F901E80FF91F108280919D0090919E0061
:10376000009729F0E0919D00F0919E00099510923C
:10377000A00010929F00CF91DF91FF91EF91BF9138
:10378000AF919F918F917F916F915F914F913F91F9
:103790002F910F900FBE0F901F901895DF93CF932E
:1037A000CDB7DEB7EA970FB6F894DEBF0FBECDBF38
:1037B0000E944F060E94CA0A0E9442150E94E60A11
:1037C0000E94D31880E690E00E94F91080E090E01B
:1037D000AAE7B4E48FA398A7A9A7BAA76FA178A571
:1037E00089A59AA520E030E04AEF54E40E941F0228
:1037F000DC01CB018BA39CA3ADA3BEA36BA17CA1D9
:103800008DA19EA120E030E040E85FE30E94250406
:1038100088232CF481E090E09AA389A33FC06BA198
:103820007CA18DA19EA120E03FEF4FE757E40E94CD
:10383000C50318164CF56FA178A589A59AA520E0B7
:1038400030E040E251E40E941F02DC01CB01BC01E8
:10385000CD010E944900DC01CB019AA389A30FC0CE
:1038600088EC90E098A38F8F8F8D98A10197F1F746
:1038700098A38F8F89A19AA101979AA389A389A15F
:103880009AA1009769F714C06BA17CA18DA19EA19C
:103890000E944900DC01CB019AA389A389A19AA1C6
:1038A0009E8F8D8F8D8D9E8D0197F1F79E8F8D8FC1
:1038B00088E690E09E01255D3F4F4DE55DE1B90151
:1038C0000E94AB178091A2008823E1F31092A2001E
:1038D0000E94BE1185E790E00E94F91080E090E020
:1038E000A8ECB2E4898F9A8FAB8FBC8F698D7A8DEB
:1038F0008B8D9C8D20E030E04AEF54E40E941F0243
:10390000DC01CB018D8B9E8BAF8BB88F6D897E894F
:103910008F89988D20E030E040E85FE30E94250425
:1039200088232CF481E090E09C8B8B8B3FC06D89C9
:103930007E898F89988D20E03FEF4FE757E40E9402
:10394000C50318164CF5698D7A8D8B8D9C8D20E002
:1039500030E040E251E40E941F02DC01CB01BC01D7
:10396000CD010E944900DC01CB019C8B8B8B0FC0E9
:1039700088EC90E09A8B898B89899A890197F1F775
:103980009A8B898B8B899C8901979C8B8B8B8B89DC
:103990009C89009769F714C06D897E898F89988DFD
:1039A0000E944900DC01CB019C8B8B8B8B899C890D
:1039B000988B8F878F8598890197F1F7988B8F87E0
:1039C0000E94BE11CE018B960E946419CE018B9687
:1039D0000E94F91080E090E0AAE7B4E48B879C870E
:1039E000AD87BE876B857C858D859E8520E030E028
:1039F0004AEF54E40E941F02DC01CB018F839887B9
:103A0000A987BA876F81788589859A8520E030E01B
:103A100040E85FE30E94250488232CF481E090E0D5
:103A20009E838D833FC06F81788589859A8520E04C
:103A30003FEF4FE757E40E94C50318164CF56B851E
:103A40007C858D859E8520E030E040E251E40E9437
:103A50001F02DC01CB01BC01CD010E944900DC0149
:103A6000CB019E838D830FC088EC90E09C838B8379
:103A70008B819C810197F1F79C838B838D819E8143
:103A800001979E838D838D819E81009769F710CF6A
:103A90006F81788589859A850E944900DC01CB0178
:103AA0009E838D838D819E819A83898389819A816A
:103AB0000197F1F79A838983FBCEDF93CF93CDB73C
:103AC000DEB72E970FB6F894DEBF0FBECDBF80E0F5
:103AD00063E041E00E949E0780E090E0AAEFB3E43B
:103AE0008B879C87AD87BE876B857C858D859E8502
:103AF00020E030E04AEF54E40E941F02DC01CB01D9
:103B00008F839887A987BA876F81788589859A85F9
:103B100020E030E040E85FE30E94250488232CF495
:103B200081E090E09E838D833FC06F817885898599
:103B30009A8520E03FEF4FE757E40E94C50318162F
:103B40004CF56B857C858D859E8520E030E040E2DC
:103B500051E40E941F02DC01CB01BC01CD010E9497
:103B60004900DC01CB019E838D830FC088EC90E07F
:103B70009C838B838B819C810197F1F79C838B8342
:103B80008D819E8101979E838D838D819E8100977B
:103B900069F714C06F81788589859A850E944900EC
:103BA000DC01CB019E838D838D819E819A838983E5
:103BB00089819A810197F1F79A83898380E063E094
:103BC00040E00E949E0781E08093A2002E960FB6EF
:103BD000F894DEBF0FBECDBFCF91DF910895A1E273
:103BE0001A2EAA1BBB1BFD010DC0AA1FBB1FEE1F77
:103BF000FF1FA217B307E407F50720F0A21BB30BC2
:103C0000E40BF50B661F771F881F991F1A9469F73D
:103C100060957095809590959B01AC01BD01CF0199
:103C200008952F923F924F925F926F927F928F9260
:103C30009F92AF92BF92CF92DF92EF92FF920F933B
:103C40001F93CF93DF93CDB7DEB7CA1BDB0B0FB645
:103C5000F894DEBF0FBECDBF09942A883988488802
:103C60005F846E847D848C849B84AA84B984C88498
:103C7000DF80EE80FD800C811B81AA81B981CE0F8F
:103C8000D11D0FB6F894DEBF0FBECDBFED01089574
:043C9000F894FFCFD6
:103C9400496E69742E2E2E0048656C6C6F204D6140
:103CA400737465720052656365697665643A2000D1
:083CB400000000000000000008
:00000001FF
