:100000000C942A000C9447000C9447000C94470071
:100010000C9447000C9447000C9447000C94470044
:100020000C9447000C9447000C9447000C94470034
:100030000C9447000C94430D0C949C0C0C944700BA
:100040000C9447000C9447000C9447000C94470014
:100050000C94470011241FBECFE5D8E0DEBFCDBF12
:1000600010E0A8E6B0E001C01D92A537B107E1F7A6
:1000700010E0A0E6B0E0E6EFFCE102C005900D92D2
:10008000A836B107D9F70E94AD0D0C94790E0C94E7
:100090000000EF92FF920F931F937B018C0120E0F1
:1000A00030E040E05FE40E94490388238CF0C801FF
:1000B000B70120E030E040E05FE40E94C1010E940F
:1000C000A9039B01AC01205030404040504806C07D
:1000D000C801B7010E94A9039B01AC01B901CA0183
:1000E0001F910F91FF90EF900895A0E0B0E0EBE733
:1000F000F0E00C94420EDC012B01FA019C9192304D
:1001000008F439C1EB018881823008F433C194309E
:1001100069F4843009F02FC111969C91119789815F
:10012000981709F428C1A0E6B0E025C1843009F48D
:1001300021C18230A9F4923009F01DC19A01AD01AC
:1001400088E0EA010990AE01E90109929E0181501F
:10015000C1F7E201898111969C918923818308C1AD
:10016000923009F407C112962D903C901397EB0141
:100170008A819B811496AD90BD90CD90DC901797AD
:10018000EC80FD800E811F819101281B390BB90184
:1001900037FF04C066277727621B730B6032710537
:1001A0000CF061C0121613066CF537014801062EDB
:1001B00004C096948794779467940A94D2F721E0C8
:1001C00030E040E050E004C0220F331F441F551FB1
:1001D0006A95D2F721503040404050402E213F21B7
:1001E00040235123211531054105510521F021E01E
:1001F00030E040E050E079018A01E628F72808293C
:1002000019293CC0232BD1F1260E371E350146019A
:10021000062E04C096948794779467940A94D2F734
:1002200021E030E040E050E004C0220F331F441FC3
:10023000551F6A95D2F721503040404050402A2146
:100240003B214C215D21211531054105510521F04E
:1002500021E030E040E050E059016A01A628B728CB
:10026000C828D9280BC0821593052CF01C01AA249C
:10027000BB24650103C0EE24FF24870111969C91E5
:10028000D20111968C91981709F445C0992339F041
:10029000A80197012A193B094C095D0906C0A6016E
:1002A00095012E193F09400B510B57FD08C01182D3
:1002B0003382228224833583468357831DC081E0A5
:1002C00081833382228288279927DC01821B930B4A
:1002D000A40BB50B84839583A683B7830DC0220F2F
:1002E000331F441F551F24833583468357838281E0
:1002F000938101979383828324813581468157813D
:10030000DA01C9010197A109B1098F5F9F4FAF4F72
:10031000BF4328F30BC0918333822282EA0CFB1C7B
:100320000C1D1D1DE482F5820683178383E0808304
:10033000248135814681578157FF1AC0C901AA27F8
:1003400097FDA095BA2F81709070A070B0705695EF
:10035000479537952795822B932BA42BB52B848318
:100360009583A683B7838281938101969383828349
:10037000DF0101C0D201CD01CDB7DEB7E2E10C94BF
:100380005E0EA0E2B0E0E7ECF1E00C944E0E698363
:100390007A838B839C832D833E834F835887E9E048
:1003A000EE2EF12CEC0EFD1ECE010196B7010E943F
:1003B000D2048E010F5E1F4FCE010596B8010E9438
:1003C000D2048A8991E089278A8BC701B801AE01DE
:1003D000475E5F4F0E9475000E94FD03A096E6E015
:1003E0000C946A0EA0E2B0E0E8EFF1E00C944E0E3F
:1003F00069837A838B839C832D833E834F835887C5
:10040000F9E0EF2EF12CEC0EFD1ECE010196B701A6
:100410000E94D2048E010F5E1F4FCE010596B801D7
:100420000E94D204C701B801AE01475E5F4F0E942F
:1004300075000E94FD03A096E6E00C946A0EA0E20F
:10044000B0E0E5E2F2E00C94420E69837A838B839C
:100450009C832D833E834F835887CE010196BE0136
:10046000675F7F4F0E94D204CE010596BE016F5E8A
:100470007F4F0E94D2049985923088F0898982301A
:10048000C8F0943019F4823051F404C0843029F457
:10049000923081F480E690E0C6C0923049F420E0CA
:1004A0009A858A89981321E02A87CE010996BBC0D4
:1004B000823049F420E09A858A89981321E02A8BBA
:1004C000CE014196B0C02D843E844F8458886D88FB
:1004D0007E888F88988CEE24FF248701AA24BB2471
:1004E000650140E050E060E070E0E0E0F0E0C10174
:1004F00081709070892BE9F0E60CF71C081D191D1E
:100500009A01AB012A0D3B1D4C1D5D1D80E090E062
:10051000A0E0B0E0E614F7040805190520F481E036
:1005200090E0A0E0B0E0BA01A901480F591F6A1F8E
:100530007B1FAA0CBB1CCC1CDD1C97FE08C081E0F5
:1005400090E0A0E0B0E0A82AB92ACA2ADB2A3196B6
:10055000E032F10549F0660C771C881C991C569412
:10056000479437942794C3CFFA85EA892B893C892D
:100570008B859C85280F391F2E5F3F4F17C0CA01FE
:1005800081709070892B61F016950795F794E79428
:1005900080E090E0A0E0B0E8E82AF92A0A2B1B2BC3
:1005A00076956795579547952F5F3F4F77FDE7CF36
:1005B0000CC0440F551F661F771F17FD4160EE0CDE
:1005C000FF1C001F111F21503040403090E05907A0
:1005D00090E0690790E4790760F32B8F3C8FDB0193
:1005E000CA018F779070A070B07080349105A1051A
:1005F000B10561F447FD0AC0E114F10401051105DC
:1006000029F0405C5F4F6F4F7F4F40781A8EFE1786
:1006100011F081E08A8F4D8F5E8F6F8F78A383E01A
:10062000898FCE0149960E94FD03A096E2E10C94C9
:100630005E0EA8E1B0E0EFE1F3E00C944E0E6983AA
:100640007A838B839C832D833E834F83588789E0F5
:10065000E82EF12CEC0EFD1ECE010196B7010E9492
:10066000D2048E010F5E1F4FCE010596B8010E9485
:10067000D2048985823040F08989823028F0C70110
:10068000B8010E944A0501C08FEF6896E6E00C941D
:100690006A0EA8E1B0E0EFE4F3E00C944E0E69833B
:1006A0007A838B839C832D833E834F83588789E095
:1006B000E82EF12CEC0EFD1ECE010196B7010E9432
:1006C000D2048E010F5E1F4FCE010596B8010E9425
:1006D000D2048985823040F08989823028F0C701B0
:1006E000B8010E944A0501C08FEF6896E6E00C94BD
:1006F0006A0EA8E1B0E0EFE7F3E00C944E0E6983D8
:100700007A838B839C832D833E834F83588789E034
:10071000E82EF12CEC0EFD1ECE010196B7010E94D1
:10072000D2048E010F5E1F4FCE010596B8010E94C4
:10073000D2048985823040F08989823028F0C7014F
:10074000B8010E944A0501C081E06896E6E00C9479
:100750006A0EACE0B0E0EFEAF3E00C94520E69836D
:100760007A838B839C83CE010196BE016B5F7F4FA2
:100770000E94D2048D81823061F1823050F1843048
:1007800021F48E81882351F12EC02F81388537FDC9
:1007900020C06E812F3131051CF06623F9F023C093
:1007A0008EE190E0821B930B29853A854B855C8511
:1007B00004C056954795379527958A95D2F76623B5
:1007C000B1F050954095309521953F4F4F4F5F4F79
:1007D0000EC020E030E040E050E009C02FEF3FEFD6
:1007E0004FEF5FE704C020E030E040E050E8B9019F
:1007F000CA012C96E2E00C946E0EDF92EF92FF920B
:100800000F931F93FC01E480F58006811781D1804E
:100810008081823048F480E090E0A0E1B0E0E82AF6
:10082000F92A0A2B1B2BA5C0843009F49FC0823003
:1008300021F4EE24FF24870105C0E114F104010531
:10084000110519F4E0E0F0E096C0628173819FEF3A
:10085000623879070CF05BC022E83FEF261B370BAC
:100860002A3131052CF020E030E040E050E02AC091
:10087000B801A701022E04C0769567955795479554
:100880000A94D2F781E090E0A0E0B0E004C0880FC5
:10089000991FAA1FBB1F2A95D2F70197A109B10979
:1008A0008E219F21A023B1230097A105B10521F03E
:1008B00081E090E0A0E0B0E09A01AB01282B392B59
:1008C0004A2B5B2BDA01C9018F779070A070B07052
:1008D00080349105A105B10539F427FF09C0205CDA
:1008E0003F4F4F4F5F4F04C0215C3F4F4F4F5F4F13
:1008F000E0E0F0E02030A0E03A07A0E04A07A0E402
:100900005A0710F0E1E0F0E079018A0127C0603871
:10091000710564F5FB01E158FF4FD801C7018F77DE
:100920009070A070B07080349105A105B10539F4C4
:10093000E7FE0DC080E490E0A0E0B0E004C08FE3EB
:1009400090E0A0E0B0E0E80EF91E0A1F1B1F17FFA1
:1009500005C016950795F794E794319687E01695AC
:100960000795F794E7948A95D1F705C0EE24FF2404
:100970008701EFEFF0E06E2F679566276795902F60
:100980009F77D794DD24D7948E2F8695492F462BB9
:10099000582F5D29B701CA011F910F91FF90EF9069
:1009A000DF900895FC01DB01408151812281622F9B
:1009B0006F7770E0221F2227221F9381892F880FD3
:1009C000822B282F30E0991F9927991F11969C930D
:1009D000119721153105A9F54115510561057105DD
:1009E00011F482E037C082E89FEF13969C938E93B8
:1009F00012979A01AB0167E0220F331F441F551F66
:100A00006A95D1F783E08C930DC0220F331F441FEA
:100A1000551F12968D919C911397019713969C9355
:100A20008E931297203080E0380780E0480780E4FA
:100A3000580758F314962D933D934D935C93179755
:100A400008952F3F310579F4411551056105710570
:100A500019F484E08C93089564FF03C081E08C93C3
:100A600012C01C9210C02F57304013963C932E9307
:100A7000129783E08C9387E0440F551F661F771F02
:100A80008A95D1F7706414964D935D936D937C9322
:100A9000179708951F93DC01FB019C91923008F495
:100AA00047C08081823008F443C0943051F41196DD
:100AB0001C91843099F58181682F70E0611B710968
:100AC0003FC0843021F0923031F48230B9F181811D
:100AD000882389F12DC011961C9111978230F1F075
:100AE00081811817D9F412962D913C911397828128
:100AF00093818217930794F028173907BCF0149656
:100B00008D919D910D90BC91A02D248135814681C0
:100B10005781281739074A075B0718F4112341F05A
:100B20000AC082179307A407B50740F4112319F0F0
:100B300061E070E005C06FEF7FEF02C060E070E041
:100B4000CB011F910895DF93CF93CDB7DEB7EAE3D2
:100B5000F0E081E08083E7E3F0E080EA8083E4E393
:100B6000F0E01082E1E3F0E082E08083EBE3F0E08C
:100B70001082E8E3F0E080E18083E5E3F0E01082BA
:100B8000E2E3F0E01082CF91DF910895DF93CF93FD
:100B9000CDB7DEB72E970FB6F894DEBF0FBECDBF30
:100BA0008A836B834C8381E089838A81843008F057
:100BB0000DC18B81883008F009C18C81882321F018
:100BC0008C81813009F002C18A81282F30E03E8774
:100BD0002D878D859E858130910509F44FC02D8527
:100BE0003E85223031052CF48D859E85009771F06D
:100BF000EEC02D853E852230310509F477C08D8504
:100C00009E858330910509F4A9C0E1C08B81282F0E
:100C100030E03C872B878B859C85009731F02B85B6
:100C20003C8521303105B1F0D2C0AAE3B0E0EAE35F
:100C3000F0E08081482F8B81282F30E081E090E028
:100C4000022E02C0880F991F0A94E2F78095842330
:100C50008C93BDC0AAE3B0E0EAE3F0E08081482FC6
:100C60008B81282F30E081E090E0022E02C0880FB7
:100C7000991F0A94E2F7842B8C93A9C08B81282FAB
:100C800030E03A87298789859A85009731F0298550
:100C90003A8521303105B1F09AC0A7E3B0E0E7E32F
:100CA000F0E08081482F8B81282F30E081E090E0B8
:100CB000022E02C0880F991F0A94E2F780958423C0
:100CC0008C9385C0A7E3B0E0E7E3F0E08081482F94
:100CD0008B81282F30E081E090E0022E02C0880F47
:100CE000991F0A94E2F7842B8C9371C08B81282F73
:100CF00030E038872F838F819885009731F02F81DE
:100D0000388521303105B1F062C0A4E3B0E0E4E3FE
:100D1000F0E08081482F8B81282F30E081E090E047
:100D2000022E02C0880F991F0A94E2F7809584234F
:100D30008C934DC0A4E3B0E0E4E3F0E08081482F61
:100D40008B81282F30E081E090E0022E02C0880FD6
:100D5000991F0A94E2F7842B8C9339C08B81282F3A
:100D600030E03E832D838D819E81009731F02D816F
:100D70003E8121303105B1F02AC0A1E3B0E0E1E3CA
:100D8000F0E08081482F8B81282F30E081E090E0D7
:100D9000022E02C0880F991F0A94E2F780958423DF
:100DA0008C9315C0A1E3B0E0E1E3F0E08081482F2F
:100DB0008B81282F30E081E090E0022E02C0880F66
:100DC000991F0A94E2F7842B8C9301C019828981C0
:100DD0002E960FB6F894DEBF0FBECDBFCF91DF9138
:100DE0000895DF93CF93CDB7DEB72E970FB6F89463
:100DF000DEBF0FBECDBF8A836B834C8381E08983C6
:100E00008B81883008F00CC18A81282F30E03E8722
:100E10002D878D859E858130910509F451C02D85E2
:100E20003E85223031052CF48D859E85009771F02A
:100E3000F5C02D853E852230310509F47BC08D85B6
:100E40009E858330910509F4AFC0E8C08C81282FBE
:100E500030E03C872B878B859C85009731F02B8574
:100E60003C8521303105B1F029C0ABE3B0E0EBE3C4
:100E7000F0E08081482F8B81282F30E081E090E0E6
:100E8000022E02C0880F991F0A94E2F780958423EE
:100E90008C93C7C0ABE3B0E0EBE3F0E08081482F78
:100EA0008B81282F30E081E090E0022E02C0880F75
:100EB000991F0A94E2F7842B8C93B3C01982B1C0B6
:100EC0008C81282F30E03A87298789859A85009779
:100ED00031F029853A8521303105B1F029C0A8E3E8
:100EE000B0E0E8E3F0E08081482F8B81282F30E0EC
:100EF00081E090E0022E02C0880F991F0A94E2F769
:100F0000809584238C938DC0A8E3B0E0E8E3F0E003
:100F10008081482F8B81282F30E081E090E0022EE5
:100F200002C0880F991F0A94E2F7842B8C9379C032
:100F3000198277C08C81282F30E038872F838F81EA
:100F40009885009731F02F81388521303105B1F037
:100F500029C0A5E3B0E0E5E3F0E08081482F8B8174
:100F6000282F30E081E090E0022E02C0880F991F08
:100F70000A94E2F7809584238C9353C0A5E3B0E0F4
:100F8000E5E3F0E08081482F8B81282F30E081E07D
:100F900090E0022E02C0880F991F0A94E2F7842B7A
:100FA0008C933FC019823DC08C81282F30E03E8356
:100FB0002D838D819E81009731F02D813E812130DE
:100FC0003105B1F029C0A2E3B0E0E2E3F0E08081B6
:100FD000482F8B81282F30E081E090E0022E02C064
:100FE000880F991F0A94E2F7809584238C9319C087
:100FF000A2E3B0E0E2E3F0E08081482F8B81282F6C
:1010000030E081E090E0022E02C0880F991F0A9420
:10101000E2F7842B8C9305C0198203C0198201C0AA
:10102000198289812E960FB6F894DEBF0FBECDBF10
:10103000CF91DF910895DF93CF93CDB7DEB7289797
:101040000FB6F894DEBF0FBECDBF8B836C835E837B
:101050004D8381E08A838B81843008F0A1C08C812C
:10106000883008F09DC08D819E81009709F498C05A
:101070008B81282F30E038872F834F81588541306E
:101080005105A9F18F8198858230910534F42F8123
:1010900038852115310571F081C04F815885423066
:1010A000510509F441C08F8198858330910509F479
:1010B00058C074C0E9E3F0E08081282F30E08C81D3
:1010C000882F90E0A90102C0559547958A95E2F7CF
:1010D000CA01817089838981882321F4ED81FE8191
:1010E00010825FC0ED81FE8181E080835AC0E6E31B
:1010F000F0E08081282F30E08C81882F90E0A901DA
:1011000002C0559547958A95E2F7CA018170898397
:101110008981882321F4ED81FE81108242C0ED8116
:10112000FE8181E080833DC0E3E3F0E08081282FF1
:1011300030E08C81882F90E0A90102C05595479539
:101140008A95E2F7CA01817089838981882321F415
:10115000ED81FE81108225C0ED81FE8181E08083DA
:1011600020C0E0E3F0E08081282F30E08C81882FE0
:1011700090E0A90102C0559547958A95E2F7CA010A
:10118000817089838981882321F4ED81FE81108219
:1011900008C0ED81FE8181E0808303C01A8201C016
:1011A0001A828A8128960FB6F894DEBF0FBECDBF93
:1011B000CF91DF910895DF93CF93CDB7DEB72D9711
:1011C0000FB6F894DEBF0FBECDBF8A836B8381E07C
:1011D00089838B81882321F08B81813009F082C043
:1011E0008A81282F30E03D872C878C859D85813032
:1011F000910571F12C853D85223031052CF48C85CB
:101200009D85009769F06CC02C853D8522303105A5
:10121000B9F18C859D858330910509F449C060C082
:101220008B81282F30E03B872A878A859B85009712
:1012300031F02A853B852130310529F054C0EAE39D
:10124000F0E0108250C0EAE3F0E08FEF80834BC003
:101250008B81282F30E039872887888599850097EA
:1012600031F0288539852130310529F03CC0E7E38C
:10127000F0E0108238C0E7E3F0E08FEF808333C006
:101280008B81282F30E03F832E838E819F810097B2
:1012900031F02E813F812130310529F024C0E4E373
:1012A000F0E0108220C0E4E3F0E08FEF80831BC009
:1012B0008B81282F30E03D832C838C819D8100978A
:1012C00031F02C813D812130310529F00CC0E1E362
:1012D000F0E0108208C0E1E3F0E08FEF808303C00C
:1012E000198201C0198289812D960FB6F894DEBF4C
:1012F0000FBECDBFCF91DF910895DF93CF9300D084
:1013000000D00F92CDB7DEB78A836B8381E08983EB
:101310008A81282F30E03D832C838C819D81813010
:101320009105D1F02C813D81223031052CF48C8146
:101330009D81009761F01FC02C813D8122303105D5
:1013400081F08C819D818330910581F014C0EBE3A5
:10135000F0E08B81808310C0E8E3F0E08B81808334
:101360000BC0E5E3F0E08B81808306C0E2E3F0E0B0
:101370008B81808301C0198289810F900F900F901B
:101380000F900F90CF91DF910895DF93CF9300D00E
:1013900000D000D0CDB7DEB78A837C836B8381E039
:1013A00089838B819C810097E9F18A81282F30E025
:1013B0003E832D838D819E8181309105E1F02D81C9
:1013C0003E81223031052CF48D819E81009761F0A1
:1013D00027C02D813E8122303105A1F08D819E8173
:1013E00083309105B1F01CC0E9E3F0E08081EB812E
:1013F000FC81808318C0E6E3F0E08081EB81FC8112
:10140000808311C0E3E3F0E08081EB81FC81808385
:101410000AC0E0E3F0E08081EB81FC81808303C0BF
:10142000198201C01982898126960FB6F894DEBF11
:101430000FBECDBFCF91DF910895DF93CF93CDB78E
:10144000DEB7ADE2B0E0EDE2F0E080818F7D8C931D
:10145000ADE2B0E0EDE2F0E0808180618C93ADE23E
:10146000B0E0EDE2F0E0808188608C93ADE2B0E026
:10147000EDE2F0E0808184608C93AEE2B0E0EEE2D9
:10148000F0E0808181608C93ADE2B0E0EDE2F0E0CD
:10149000808182608C93ADE2B0E0EDE2F0E080818B
:1014A0008E7F8C93ADE2B0E0EDE2F0E0808180646D
:1014B0008C93CF91DF910895DF93CF9300D000D02C
:1014C000CDB7DEB78A837C836B8319828B819C8145
:1014D000009789F0EFE2F0E08A818083EEE2F0E0AD
:1014E00080818823DCF7EFE2F0E08081EB81FC81F2
:1014F000808381E0898389810F900F900F900F90F6
:10150000CF91DF910895DF93CF930F92CDB7DEB7E0
:101510008983EFE2F0E0898180830F90CF91DF91A2
:101520000895DF93CF9300D00F92CDB7DEB79B83A2
:101530008A8319828A819B81009769F0EEE2F0E04C
:1015400080818823DCF7EFE2F0E08081EA81FB8193
:10155000808381E0898389810F900F900F90CF91D4
:10156000DF910895DF93CF9300D00F92CDB7DEB710
:1015700083E390E09B838A8380E88983E9E2F0E05B
:101580008A818083E0E4F0E08A819B81892F99271A
:101590008083ABE2B0E0EBE2F0E080818D7F8C9362
:1015A000ABE2B0E0EBE2F0E080818E7F8C93AAE2C8
:1015B000B0E0EAE2F0E0808180618C93AAE2B0E0E2
:1015C000EAE2F0E0808188608C93AAE2B0E0EAE28F
:1015D000F0E080818B7F8C9389818460898389810D
:1015E0008260898389818F7B898389818F7D8983CB
:1015F00089818F7E89838981877F8983E0E4F0E018
:10160000898180830F900F900F90CF91DF91089583
:10161000DF93CF930F92CDB7DEB78983EBE2F0E093
:101620008081829586958770882F90E08170907078
:101630000097A1F3ECE2F0E0898180830F90CF91D5
:10164000DF910895DF93CF9300D00F92CDB7DEB72F
:101650009B838A8319828A819B81009769F0EBE2E0
:10166000F0E080818823DCF7ECE2F0E08081EA8121
:10167000FB81808381E0898389810F900F900F9097
:10168000CF91DF910895DF93CF93CDB7DEB7279742
:101690000FB6F894DEBF0FBECDBF9F838E8381E06F
:1016A0008D8319821A821B821C828E819F810097F2
:1016B00009F487C07FC019821A821B821C820BC06A
:1016C00089819A81AB81BC810196A11DB11D89835D
:1016D0009A83AB83BC83EBE2F0E0808182958695B0
:1016E0008770882F90E081709070009761F48981F5
:1016F0009A81AB81BC81803221EA920727E0A20760
:1017000020E0B207E8F289819A81AB81BC81803206
:1017100021EA920727E0A20720E0B20710F01D821D
:1017200051C0ECE2F0E0AE81BF818C9180831982E0
:101730001A821B821C820BC089819A81AB81BC8179
:101740000196A11DB11D89839A83AB83BC83EBE213
:10175000F0E080818295869586958370882F90E051
:1017600081709070009761F489819A81AB81BC810E
:10177000803221EA920727E0A20720E0B207E0F2D8
:1017800089819A81AB81BC81803221EA920727E06E
:10179000A20720E0B20710F01D8214C0ABE2B0E057
:1017A000EBE2F0E0808180648C938E819F810196D2
:1017B0009F838E83EE81FF818081882309F07BCF18
:1017C00001C01D828D8127960FB6F894DEBF0FBE33
:1017D000CDBFCF91DF910895DF93CF93CDB7DEB723
:1017E00029970FB6F894DEBF0FBECDBF98878F83C1
:1017F000698781E08E831A821B821C821D82198276
:101800008F819885009709F44EC03EC01A821B82D2
:101810001C821D820BC08A819B81AC81BD81019697
:10182000A11DB11D8A839B83AC83BD83EBE2F0E0F5
:101830008081882364F08A819B81AC81BD81803264
:1018400021EA920727E0A20720E0B20720F38A816D
:101850009B81AC81BD81803221EA920727E0A207FB
:1018600020E0B20710F01E8214C08981282F30E0DA
:101870008F819885DC01A20FB31FECE2F0E080813C
:101880008C9389818F5F898399818985981708F462
:10189000BDCF8981282F30E08F819885FC01E20F30
:1018A000F31F108201C01E828E8129960FB6F89414
:1018B000DEBF0FBECDBFCF91DF910895DF93CF93F1
:1018C00000D000D00F92CDB7DEB79B838A837D8393
:1018D0006C8381E089838A819B81009719F18C81D7
:1018E0009D810097F9F080916D008823C9F481E013
:1018F00080936D008A819B8190936B0080936A0036
:101900008C819D81909369008093680010926C0097
:10191000AAE2B0E0EAE2F0E0808180628C9303C04A
:10192000198201C0198289810F900F900F900F903A
:101930000F90CF91DF9108951F920F920FB60F92E3
:1019400011242F933F934F935F936F937F938F93C4
:101950009F93AF93BF93EF93FF93DF93CF93CDB755
:10196000DEB720916A0030916B0080916C00882F67
:1019700090E0F901E80FF91F80818823A9F0ACE21B
:10198000B0E020916A0030916B0080916C00882F4C
:1019900090E0F901E80FF91F80818C9380916C0031
:1019A0008F5F80936C0016C0AAE2B0E0EAE2F0E03C
:1019B00080818F7D8C938091680090916900009761
:1019C00029F0E0916800F0916900099510926D008E
:1019D00010926C00CF91DF91FF91EF91BF91AF9189
:1019E0009F918F917F916F915F914F913F912F9137
:1019F0000F900FBE0F901F901895DF93CF9300D0DC
:101A000000D000D0CDB7DEB79B838A837D836C8303
:101A10004E8381E089838A819B81009749F18C8183
:101A20009D81009729F18E81882311F180917300A7
:101A30008823E1F481E0809373008A819B819093F5
:101A40006F0080936E008C819D81909371008093D4
:101A50007000109272008E8180937400AAE2B0E050
:101A6000EAE2F0E0808180688C9303C0198201C0B3
:101A70001982898126960FB6F894DEBF0FBECDBFBE
:101A8000CF91DF9108951F920F920FB60F921124FC
:101A90002F933F934F935F936F937F938F939F9376
:101AA000AF93BF93EF93FF93DF93CF93CDB7DEB7A1
:101AB00090917200809174009817E0F520916E006B
:101AC00030916F0080917200882F90E0D901A80FAB
:101AD000B91FECE2F0E080818C93809172008F5FFF
:101AE000809372009091720080917400981710F1A9
:101AF000AAE2B0E0EAE2F0E080818F778C93209157
:101B00006E0030916F0080917200882F90E0F90193
:101B1000E80FF91F1082809170009091710000977A
:101B200029F0E0917000F091710009951092730016
:101B300010927200CF91DF91FF91EF91BF91AF9121
:101B40009F918F917F916F915F914F913F912F91D5
:101B50000F900FBE0F901F901895DF93CF93CDB7C6
:101B6000DEB72F970FB6F894DEBF0FBECDBF0E9431
:101B7000A3050E941D0A0E94B20A9E01215F3F4FE9
:101B80008DE4B9010E945C0A8F850E94080B8F8545
:101B9000833529F480E060E041E00E94F10680E0B6
:101BA00090E0AAEFB4E48B879C87AD87BE876B85F6
:101BB0007C858D859E8520E030E04AEF54E40E94CC
:101BC0001F02DC01CB018F839887A987BA876F81B9
:101BD000788589859A8520E030E040E85FE30E94BF
:101BE000790388232CF481E090E09E838D833FC0AD
:101BF0006F81788589859A8520E03FEF4FE757E42C
:101C00000E94190318164CF56B857C858D859E8581
:101C100020E030E040E251E40E941F02DC01CB01F1
:101C2000BC01CD010E944900DC01CB019E838D8364
:101C30000FC088EC90E09C838B838B819C81019703
:101C4000F1F79C838B838D819E8101979E838D8389
:101C50008D819E81009769F790CF6F817885898506
:101C60009A850E944900DC01CB019E838D838D8182
:101C70009E819A83898389819A810197F1F79A835A
:101C800089837BCF2F923F924F925F926F927F9288
:101C90008F929F92AF92BF92CF92DF92EF92FF927C
:101CA0000F931F93CF93DF93CDB7DEB7CA1BDB0B28
:101CB0000FB6F894DEBF0FBECDBF09942A883988CD
:101CC00048885F846E847D848C849B84AA84B984D4
:101CD000C884DF80EE80FD800C811B81AA81B981E0
:101CE000CE0FD11D0FB6F894DEBF0FBECDBFED01F4
:061CF0000895F894FFCFF7
:081CF6000000000000000000E6
:00000001FF
