:100000000C942A000C943C000C943C000C943C0092
:100010000C943C000C943C000C943C000C943C0070
:100020000C943C000C943C000C943C000C94230574
:100030000C943C000C943C000C943C000C943C0050
:100040000C943C000C943C000C943C000C943C0040
:100050000C943C0011241FBECFE5D8E0DEBFCDBF1D
:1000600010E0A0E6B0E001C01D92A536B107E1F7AF
:100070000E946F050C9499050C940000DF93CF93B8
:10008000CDB7DEB7EAE3F0E081E08083E7E3F0E0BC
:100090001082E4E3F0E01082E1E3F0E01082EBE3B1
:1000A000F0E01082E8E3F0E01082E5E3F0E0108297
:1000B000E2E3F0E01082CF91DF910895DF93CF93D8
:1000C000CDB7DEB72E970FB6F894DEBF0FBECDBF0B
:1000D0008A836B834C8381E089838A81843008F032
:1000E0000DC18B81883008F009C18C81882321F0F3
:1000F0008C81813009F002C18A81282F30E03E874F
:100100002D878D859E858130910509F44FC02D8501
:100110003E85223031052CF48D859E85009771F047
:10012000EEC02D853E852230310509F477C08D85DE
:100130009E858330910509F4A9C0E1C08B81282FE9
:1001400030E03C872B878B859C85009731F02B8591
:100150003C8521303105B1F0D2C0AAE3B0E0EAE33A
:10016000F0E08081482F8B81282F30E081E090E003
:10017000022E02C0880F991F0A94E2F7809584230B
:100180008C93BDC0AAE3B0E0EAE3F0E08081482FA1
:100190008B81282F30E081E090E0022E02C0880F92
:1001A000991F0A94E2F7842B8C93A9C08B81282F86
:1001B00030E03A87298789859A85009731F029852B
:1001C0003A8521303105B1F09AC0A7E3B0E0E7E30A
:1001D000F0E08081482F8B81282F30E081E090E093
:1001E000022E02C0880F991F0A94E2F7809584239B
:1001F0008C9385C0A7E3B0E0E7E3F0E08081482F6F
:100200008B81282F30E081E090E0022E02C0880F21
:10021000991F0A94E2F7842B8C9371C08B81282F4D
:1002200030E038872F838F819885009731F02F81B8
:10023000388521303105B1F062C0A4E3B0E0E4E3D9
:10024000F0E08081482F8B81282F30E081E090E022
:10025000022E02C0880F991F0A94E2F7809584232A
:100260008C934DC0A4E3B0E0E4E3F0E08081482F3C
:100270008B81282F30E081E090E0022E02C0880FB1
:10028000991F0A94E2F7842B8C9339C08B81282F15
:1002900030E03E832D838D819E81009731F02D814A
:1002A0003E8121303105B1F02AC0A1E3B0E0E1E3A5
:1002B000F0E08081482F8B81282F30E081E090E0B2
:1002C000022E02C0880F991F0A94E2F780958423BA
:1002D0008C9315C0A1E3B0E0E1E3F0E08081482F0A
:1002E0008B81282F30E081E090E0022E02C0880F41
:1002F000991F0A94E2F7842B8C9301C0198289819B
:100300002E960FB6F894DEBF0FBECDBFCF91DF9112
:100310000895DF93CF93CDB7DEB72E970FB6F8943D
:10032000DEBF0FBECDBF8A836B834C8381E08983A0
:100330008B81883008F00CC18A81282F30E03E87FD
:100340002D878D859E858130910509F451C02D85BD
:100350003E85223031052CF48D859E85009771F005
:10036000F5C02D853E852230310509F47BC08D8591
:100370009E858330910509F4AFC0E8C08C81282F99
:1003800030E03C872B878B859C85009731F02B854F
:100390003C8521303105B1F029C0ABE3B0E0EBE39F
:1003A000F0E08081482F8B81282F30E081E090E0C1
:1003B000022E02C0880F991F0A94E2F780958423C9
:1003C0008C93C7C0ABE3B0E0EBE3F0E08081482F53
:1003D0008B81282F30E081E090E0022E02C0880F50
:1003E000991F0A94E2F7842B8C93B3C01982B1C091
:1003F0008C81282F30E03A87298789859A85009754
:1004000031F029853A8521303105B1F029C0A8E3C2
:10041000B0E0E8E3F0E08081482F8B81282F30E0C6
:1004200081E090E0022E02C0880F991F0A94E2F743
:10043000809584238C938DC0A8E3B0E0E8E3F0E0DE
:100440008081482F8B81282F30E081E090E0022EC0
:1004500002C0880F991F0A94E2F7842B8C9379C00D
:10046000198277C08C81282F30E038872F838F81C5
:100470009885009731F02F81388521303105B1F012
:1004800029C0A5E3B0E0E5E3F0E08081482F8B814F
:10049000282F30E081E090E0022E02C0880F991FE3
:1004A0000A94E2F7809584238C9353C0A5E3B0E0CF
:1004B000E5E3F0E08081482F8B81282F30E081E058
:1004C00090E0022E02C0880F991F0A94E2F7842B55
:1004D0008C933FC019823DC08C81282F30E03E8331
:1004E0002D838D819E81009731F02D813E812130B9
:1004F0003105B1F029C0A2E3B0E0E2E3F0E0808191
:10050000482F8B81282F30E081E090E0022E02C03E
:10051000880F991F0A94E2F7809584238C9319C061
:10052000A2E3B0E0E2E3F0E08081482F8B81282F46
:1005300030E081E090E0022E02C0880F991F0A94FB
:10054000E2F7842B8C9305C0198203C0198201C085
:10055000198289812E960FB6F894DEBF0FBECDBFEB
:10056000CF91DF910895DF93CF93CDB7DEB7289772
:100570000FB6F894DEBF0FBECDBF8B836C835E8356
:100580004D8381E08A838B81843008F0A1C08C8107
:10059000883008F09DC08D819E81009709F498C035
:1005A0008B81282F30E038872F834F815885413049
:1005B0005105A9F18F8198858230910534F42F81FE
:1005C00038852115310571F081C04F815885423041
:1005D000510509F441C08F8198858330910509F454
:1005E00058C074C0E9E3F0E08081282F30E08C81AE
:1005F000882F90E0A90102C0559547958A95E2F7AA
:10060000CA01817089838981882321F4ED81FE816B
:1006100010825FC0ED81FE8181E080835AC0E6E3F5
:10062000F0E08081282F30E08C81882F90E0A901B4
:1006300002C0559547958A95E2F7CA018170898372
:100640008981882321F4ED81FE81108242C0ED81F1
:10065000FE8181E080833DC0E3E3F0E08081282FCC
:1006600030E08C81882F90E0A90102C05595479514
:100670008A95E2F7CA01817089838981882321F4F0
:10068000ED81FE81108225C0ED81FE8181E08083B5
:1006900020C0E0E3F0E08081282F30E08C81882FBB
:1006A00090E0A90102C0559547958A95E2F7CA01E5
:1006B000817089838981882321F4ED81FE811082F4
:1006C00008C0ED81FE8181E0808303C01A8201C0F1
:1006D0001A828A8128960FB6F894DEBF0FBECDBF6E
:1006E000CF91DF910895DF93CF93CDB7DEB72D97EC
:1006F0000FB6F894DEBF0FBECDBF8A836B8381E057
:1007000089838B81882321F08B81813009F082C01D
:100710008A81282F30E03D872C878C859D8581300C
:10072000910571F12C853D85223031052CF48C85A5
:100730009D85009769F06CC02C853D852230310580
:10074000B9F18C859D858330910509F449C060C05D
:100750008B81282F30E03B872A878A859B850097ED
:1007600031F02A853B852130310529F054C0EAE378
:10077000F0E0108250C0EAE3F0E08FEF80834BC0DE
:100780008B81282F30E039872887888599850097C5
:1007900031F0288539852130310529F03CC0E7E367
:1007A000F0E0108238C0E7E3F0E08FEF808333C0E1
:1007B0008B81282F30E03F832E838E819F8100978D
:1007C00031F02E813F812130310529F024C0E4E34E
:1007D000F0E0108220C0E4E3F0E08FEF80831BC0E4
:1007E0008B81282F30E03D832C838C819D81009765
:1007F00031F02C813D812130310529F00CC0E1E33D
:10080000F0E0108208C0E1E3F0E08FEF808303C0E6
:10081000198201C0198289812D960FB6F894DEBF26
:100820000FBECDBFCF91DF910895DF93CF9300D05E
:1008300000D00F92CDB7DEB78A836B8381E08983C6
:100840008A81282F30E03D832C838C819D818130EB
:100850009105D1F02C813D81223031052CF48C8121
:100860009D81009761F01FC02C813D8122303105B0
:1008700081F08C819D818330910581F014C0EBE380
:10088000F0E08B81808310C0E8E3F0E08B8180830F
:100890000BC0E5E3F0E08B81808306C0E2E3F0E08B
:1008A0008B81808301C0198289810F900F900F90F6
:1008B0000F900F90CF91DF910895DF93CF9300D0E9
:1008C00000D000D0CDB7DEB78A837C836B8381E014
:1008D00089838B819C810097E9F18A81282F30E000
:1008E0003E832D838D819E8181309105E1F02D81A4
:1008F0003E81223031052CF48D819E81009761F07C
:1009000027C02D813E8122303105A1F08D819E814D
:1009100083309105B1F01CC0E9E3F0E08081EB8108
:10092000FC81808318C0E6E3F0E08081EB81FC81EC
:10093000808311C0E3E3F0E08081EB81FC81808360
:100940000AC0E0E3F0E08081EB81FC81808303C09A
:10095000198201C01982898126960FB6F894DEBFEC
:100960000FBECDBFCF91DF910895DF93CF93CDB769
:10097000DEB7AFE5B0E0EFE5F0E0808180688C9312
:10098000CF91DF910895DF93CF93CDB7DEB7AFE579
:10099000B0E0EFE5F0E080818F778C93CF91DF912D
:1009A0000895DF93CF93CDB7DEB7A3E5B0E0E3E5DD
:1009B000F0E080818F7B8C93A3E5B0E0E3E5F0E08D
:1009C0008081877F8C93A9E5B0E0E9E5F0E0808144
:1009D00081608C93E2E5F0E080EC8083A3E5B0E0F9
:1009E000E3E5F0E080818B7F8C93A3E5B0E0E3E565
:1009F000F0E0808182608C93A3E5B0E0E3E5F0E075
:100A000080818E7F8C93CF91DF910895DF93CF9378
:100A100000D00F92CDB7DEB79B838A8381E08983B4
:100A20008A819B81009739F08A819B819093610034
:100A30008093600001C0198289810F900F900F9000
:100A4000CF91DF9108951F920F920FB60F9211244C
:100A50002F933F934F935F936F937F938F939F93C6
:100A6000AF93BF93EF93FF93DF93CF93CDB7DEB7F1
:100A7000809162009091630001969093630080934F
:100A8000620080916200909163002FE083349207AE
:100A900099F4E2E5F0E080EC80831092630010921C
:100AA00062008091600090916100009729F0E091D0
:100AB0006000F09161000995CF91DF91FF91EF9176
:100AC000BF91AF919F918F917F916F915F914F9166
:100AD0003F912F910F900FBE0F901F901895DF93AD
:100AE000CF93CDB7DEB70E943E000E94B5048EE7DB
:100AF00095E00E9406050E94D104FFCFDF93CF93BB
:100B0000CDB7DEB780916400882349F480E060E0CF
:100B100041E00E94890181E08093640007C080E089
:100B200060E040E00E94890110926400CF91DF9163
:060B30000895F894FFCFC8
:00000001FF
