:100000000C942A000C943C000C943C000C943C0092
:100010000C943C000C943C000C94CE080C94860884
:100020000C943E080C94F0070C9462090C94160989
:100030000C943C000C943C000C943C000C943C0050
:100040000C9469010C943C000C943C000C943C0012
:100050000C943C0011241FBECFE5D8E0DEBFCDBF1D
:1000600010E0A0E6B0E001C01D92AB37B107E1F7A8
:100070000E94AA090C94310A0C940000DF93CF93DC
:10008000CDB7DEB7A7E2B0E0E7E2F0E080818F779E
:100090008C93A7E2B0E0E7E2F0E0808180648C938B
:1000A000A7E2B0E0E7E2F0E080818F7D8C93A6E2EA
:1000B000B0E0E6E2F0E080818F7D8C93A6E2B0E0D4
:1000C000E6E2F0E0808184608C93A6E2B0E0E6E2B4
:1000D000F0E0808182608C93A6E2B0E0E6E2F0E09E
:1000E00080818E7F8C93A6E2B0E0E6E2F0E0808132
:1000F00080688C93CF91DF910895DF93CF93CDB734
:10010000DEB728970FB6F894DEBF0FBECDBF8E8343
:1001100078876F8381E08D8319821A821B821C820B
:100120008E81803208F065C08F819885009709F430
:1001300060C080916200882309F05BC081E08093F9
:100140006200A7E2B0E0E7E2F0E08081807E8C937D
:10015000A7E2B0E0E7E2F0E090818E81892B8C93FA
:10016000A6E2B0E0E6E2F0E0808180648C930BC010
:1001700089819A81AB81BC810196A11DB11D8983C2
:100180009A83AB83BC83E6E2F0E0808182958F7036
:10019000882F90E081709070009761F489819A8136
:1001A000AB81BC81803523EC920720E0A20720E0E0
:1001B000B207F0F2E6E2F0E0808182958F70882F3E
:1001C00090E081709070882391F010926200A6E216
:1001D000B0E0E6E2F0E0808180618C93E4E2F0E060
:1001E00080819181EF81F8859183808303C01D8296
:1001F00001C01D828D8128960FB6F894DEBF0FBE18
:10020000CDBFCF91DF910895DF93CF9300D000D081
:10021000CDB7DEB78A837C836B8381E089838A8153
:10022000803278F58B819C81009759F18091620032
:10023000882339F581E0809362008B819C819093C3
:10024000610080936000A6E2B0E0E6E2F0E0808129
:1002500088608C93A7E2B0E0E7E2F0E08081807EE6
:100260008C93A7E2B0E0E7E2F0E090818A81892BED
:100270008C93A6E2B0E0E6E2F0E0808180648C93AB
:1002800001C0198289810F900F900F900F90CF912C
:10029000DF910895DF93CF9300D00F92CDB7DEB7F3
:1002A0009B838A8381E089838A819B81009749F0BF
:1002B000E4E2F0E080819181EA81FB819183808397
:1002C00001C0198289810F900F900F90CF91DF911B
:1002D00008951F920F920FB60F9211242F933F9300
:1002E0004F935F936F937F938F939F93AF93BF933E
:1002F000EF93FF93DF93CF93CDB7DEB7809160008C
:1003000090916100009799F010926200A6E2B0E02F
:10031000E6E2F0E08081877F8C932091600030914D
:100320006100E4E2F0E080819181F9010995CF91CB
:10033000DF91FF91EF91BF91AF919F918F917F914D
:100340006F915F914F913F912F910F900FBE0F9042
:100350001F901895DF93CF93CDB7DEB7EAE3F0E0B7
:100360001082E7E3F0E081E08083E4E3F0E01082D4
:10037000E1E3F0E080E28083EBE3F0E01082E8E389
:10038000F0E01082E5E3F0E01082E2E3F0E01082BA
:10039000CF91DF910895DF93CF93CDB7DEB72E973E
:1003A0000FB6F894DEBF0FBECDBF8A836B834C833C
:1003B00081E089838A81843008F00DC18B81883087
:1003C00008F009C18C81882321F08C81813009F0EB
:1003D00002C18A81282F30E03E872D878D859E853A
:1003E0008130910509F44FC02D853E8522303105BD
:1003F0002CF48D859E85009771F0EEC02D853E858D
:100400002230310509F477C08D859E8583309105B2
:1004100009F4A9C0E1C08B81282F30E03C872B87ED
:100420008B859C85009731F02B853C8521303105EB
:10043000B1F0D2C0AAE3B0E0EAE3F0E08081482F57
:100440008B81282F30E081E090E0022E02C0880FDF
:10045000991F0A94E2F7809584238C93BDC0AAE388
:10046000B0E0EAE3F0E08081482F8B81282F30E074
:1004700081E090E0022E02C0880F991F0A94E2F7F3
:10048000842B8C93A9C08B81282F30E03A87298751
:1004900089859A85009731F029853A852130310583
:1004A000B1F09AC0A7E3B0E0E7E3F0E08081482F25
:1004B0008B81282F30E081E090E0022E02C0880F6F
:1004C000991F0A94E2F7809584238C9385C0A7E353
:1004D000B0E0E7E3F0E08081482F8B81282F30E007
:1004E00081E090E0022E02C0880F991F0A94E2F783
:1004F000842B8C9371C08B81282F30E038872F8319
:100500008F819885009731F02F8138852130310512
:10051000B1F062C0A4E3B0E0E4E3F0E08081482FF2
:100520008B81282F30E081E090E0022E02C0880FFE
:10053000991F0A94E2F7809584238C934DC0A4E31D
:10054000B0E0E4E3F0E08081482F8B81282F30E099
:1005500081E090E0022E02C0880F991F0A94E2F712
:10056000842B8C9339C08B81282F30E03E832D83E0
:100570008D819E81009731F02D813E8121303105A2
:10058000B1F02AC0A1E3B0E0E1E3F0E08081482FC0
:100590008B81282F30E081E090E0022E02C0880F8E
:1005A000991F0A94E2F7809584238C9315C0A1E3E8
:1005B000B0E0E1E3F0E08081482F8B81282F30E02C
:1005C00081E090E0022E02C0880F991F0A94E2F7A2
:1005D000842B8C9301C0198289812E960FB6F894D2
:1005E000DEBF0FBECDBFCF91DF910895DF93CF93D4
:1005F000CDB7DEB72E970FB6F894DEBF0FBECDBFD6
:100600008A836B834C8381E089838B81883008F0F7
:100610000CC18A81282F30E03E872D878D859E85ED
:100620008130910509F451C02D853E852230310578
:100630002CF48D859E85009771F0F5C02D853E8543
:100640002230310509F47BC08D859E85833091056C
:1006500009F4AFC0E8C08C81282F30E03C872B879D
:100660008B859C85009731F02B853C8521303105A9
:10067000B1F029C0ABE3B0E0EBE3F0E08081482FBC
:100680008B81282F30E081E090E0022E02C0880F9D
:10069000991F0A94E2F7809584238C93C7C0ABE33B
:1006A000B0E0EBE3F0E08081482F8B81282F30E031
:1006B00081E090E0022E02C0880F991F0A94E2F7B1
:1006C000842B8C93B3C01982B1C08C81282F30E069
:1006D0003A87298789859A85009731F029853A8557
:1006E00021303105B1F029C0A8E3B0E0E8E3F0E043
:1006F0008081482F8B81282F30E081E090E0022E0E
:1007000002C0880F991F0A94E2F7809584238C9386
:100710008DC0A8E3B0E0E8E3F0E08081482F8B8152
:10072000282F30E081E090E0022E02C0880F991F50
:100730000A94E2F7842B8C9379C0198277C08C815C
:10074000282F30E038872F838F819885009731F0EC
:100750002F81388521303105B1F029C0A5E3B0E003
:10076000E5E3F0E08081482F8B81282F30E081E0A5
:1007700090E0022E02C0880F991F0A94E2F780953C
:1007800084238C9353C0A5E3B0E0E5E3F0E08081DF
:10079000482F8B81282F30E081E090E0022E02C0AC
:1007A000880F991F0A94E2F7842B8C933FC019821B
:1007B0003DC08C81282F30E03E832D838D819E812A
:1007C000009731F02D813E8121303105B1F029C0F3
:1007D000A2E3B0E0E2E3F0E08081482F8B81282F94
:1007E00030E081E090E0022E02C0880F991F0A9449
:1007F000E2F7809584238C9319C0A2E3B0E0E2E392
:10080000F0E08081482F8B81282F30E081E090E05C
:10081000022E02C0880F991F0A94E2F7842B8C9352
:1008200005C0198203C0198201C0198289812E96E0
:100830000FB6F894DEBF0FBECDBFCF91DF91089504
:10084000DF93CF93CDB7DEB728970FB6F894DEBF0E
:100850000FBECDBF8B836C835E834D8381E08A8323
:100860008B81843008F0A1C08C81883008F09DC055
:100870008D819E81009709F498C08B81282F30E0EC
:1008800038872F834F81588541305105A9F18F81D9
:1008900098858230910534F42F81388521153105F2
:1008A00071F081C04F8158854230510509F441C033
:1008B0008F8198858330910509F458C074C0E9E3AD
:1008C000F0E08081282F30E08C81882F90E0A90112
:1008D00002C0559547958A95E2F7CA0181708983D0
:1008E0008981882321F4ED81FE8110825FC0ED8132
:1008F000FE8181E080835AC0E6E3F0E08081282F0A
:1009000030E08C81882F90E0A90102C05595479571
:100910008A95E2F7CA01817089838981882321F44D
:10092000ED81FE81108242C0ED81FE8181E08083F5
:100930003DC0E3E3F0E08081282F30E08C81882FF8
:1009400090E0A90102C0559547958A95E2F7CA0142
:10095000817089838981882321F4ED81FE81108251
:1009600025C0ED81FE8181E0808320C0E0E3F0E0DE
:100970008081282F30E08C81882F90E0A90102C06F
:10098000559547958A95E2F7CA01817089838981D7
:10099000882321F4ED81FE81108208C0ED81FE8163
:1009A00081E0808303C01A8201C01A828A8128965E
:1009B0000FB6F894DEBF0FBECDBFCF91DF91089583
:1009C000DF93CF93CDB7DEB72D970FB6F894DEBF88
:1009D0000FBECDBF8A836B8381E089838B8188239F
:1009E00021F08B81813009F082C08A81282F30E08C
:1009F0003D872C878C859D858130910571F12C85F3
:100A00003D85223031052CF48C859D85009769F059
:100A10006CC02C853D8522303105B9F18C859D85D2
:100A20008330910509F449C060C08B81282F30E0E4
:100A30003B872A878A859B85009731F02A853B85ED
:100A40002130310529F054C0EAE3F0E0108250C0B3
:100A5000EAE3F0E08FEF80834BC08B81282F30E0FA
:100A60003987288788859985009731F028853985C9
:100A70002130310529F03CC0E7E3F0E0108238C0B6
:100A8000E7E3F0E08FEF808333C08B81282F30E0E5
:100A90003F832E838E819F81009731F02E813F818D
:100AA0002130310529F024C0E4E3F0E0108220C0B9
:100AB000E4E3F0E08FEF80831BC08B81282F30E0D0
:100AC0003D832C838C819D81009731F02C813D8169
:100AD0002130310529F00CC0E1E3F0E0108208C0BC
:100AE000E1E3F0E08FEF808303C0198201C0198237
:100AF00089812D960FB6F894DEBF0FBECDBFCF9182
:100B0000DF910895DF93CF9300D000D00F92CDB73F
:100B1000DEB78A836B8381E089838A81282F30E066
:100B20003D832C838C819D8181309105D1F02C8176
:100B30003D81223031052CF48C819D81009761F03C
:100B40001FC02C813D812230310581F08C819D8137
:100B50008330910581F014C0EBE3F0E08B8180835A
:100B600010C0E8E3F0E08B8180830BC0E5E3F0E0A8
:100B70008B81808306C0E2E3F0E08B81808301C03B
:100B8000198289810F900F900F900F900F90CF9145
:100B9000DF910895DF93CF9300D000D000D0CDB780
:100BA000DEB78A837C836B8381E089838B819C8120
:100BB0000097E9F18A81282F30E03E832D838D81D3
:100BC0009E8181309105E1F02D813E8122303105F9
:100BD0002CF48D819E81009761F027C02D813E818C
:100BE00022303105A1F08D819E8183309105B1F0D5
:100BF0001CC0E9E3F0E08081EB81FC81808318C0B8
:100C0000E6E3F0E08081EB81FC81808311C0E3E3C7
:100C1000F0E08081EB81FC8180830AC0E0E3F0E0BA
:100C20008081EB81FC81808303C0198201C019821D
:100C3000898126960FB6F894DEBF0FBECDBFCF9147
:100C4000DF910895DF93CF93CDB7DEB7AFE5B0E086
:100C5000EFE5F0E0808180688C93CF91DF9108957B
:100C6000DF93CF93CDB7DEB7AFE5B0E0EFE5F0E0CF
:100C700080818F778C93CF91DF910895DF93CF930D
:100C8000CDB7DEB7A3E5B0E0E3E5F0E080818F7B90
:100C90008C93A3E5B0E0E3E5F0E0808188608C937D
:100CA000A9E5B0E0E9E5F0E0808182608C93ECE5B5
:100CB000F0E083E68083A3E5B0E0E3E5F0E0808147
:100CC0008F7D8C93A3E5B0E0E3E5F0E080818F7E3B
:100CD0008C93A3E5B0E0E3E5F0E080818B7F8C931B
:100CE000A3E5B0E0E3E5F0E0808182608C93A3E5CA
:100CF000B0E0E3E5F0E080818E7F8C93CF91DF91CF
:100D00000895DF93CF93CDB7DEB7AFE4B0E0EFE463
:100D1000F0E080818E7F8C93AFE4B0E0EFE4F0E010
:100D2000808182608C93AEE4B0E0EEE4F0E08081FC
:100D300088608C93AEE4B0E0EEE4F0E08081806106
:100D40008C93E6E4F0E08FE19EE491838083EAE413
:100D5000F0E087EE93E091838083AFE4B0E0EFE4CE
:100D6000F0E080818F7B8C93AFE4B0E0EFE4F0E0C3
:100D7000808180688C93AFE4B0E0EFE4F0E08081A4
:100D80008F7E8C93AFE4B0E0EFE4F0E080818F7D64
:100D90008C93AEE4B0E0EEE4F0E080818B7F8C9346
:100DA000AEE4B0E0EEE4F0E0808182608C93AEE4EB
:100DB000B0E0EEE4F0E080818E7F8C93CF91DF9104
:100DC0000895DF93CF9300D0CDB7DEB79A838983A0
:100DD000EAE4F0E089819A81918380830F900F90FB
:100DE000CF91DF910895DF93CF9300D0CDB7DEB7D9
:100DF0009A838983E8E4F0E089819A8191838083F2
:100E00000F900F90CF91DF910895DF93CF9300D093
:100E10000F92CDB7DEB79B838A8381E089838A8175
:100E20009B81009739F0E2E5F0E08081EA81FB8167
:100E3000808301C0198289810F900F900F90CF910C
:100E4000DF910895DF93CF930F92CDB7DEB78983FB
:100E5000ECE5F0E0898180830F90CF91DF910895D8
:100E6000DF93CF9300D0CDB7DEB79A838983E6E4D2
:100E7000F0E089819A81918380830F900F90CF91C8
:100E8000DF910895DF93CF9300D00F92CDB7DEB7F7
:100E90009B838A8381E089838A819B81009739F0D3
:100EA0008A819B81909364008093630001C01982C2
:100EB00089810F900F900F90CF91DF910895DF936C
:100EC000CF9300D00F92CDB7DEB79B838A8381E0AA
:100ED00089838A819B81009739F08A819B819093D5
:100EE00066008093650001C0198289810F900F9080
:100EF0000F90CF91DF910895DF93CF9300D00F92A1
:100F0000CDB7DEB79B838A8381E089838A819B8109
:100F1000009739F08A819B819093680080936700E5
:100F200001C0198289810F900F900F90CF91DF91AE
:100F30000895DF93CF9300D00F92CDB7DEB79B8398
:100F40008A8381E089838A819B81009739F08A8135
:100F50009B8190936A008093690001C01982898106
:100F60000F900F900F90CF91DF910895DF93CF9363
:100F700000D00F92CDB7DEB79B838A8381E089834F
:100F80008A819B81009739F08A819B8190936E00C2
:100F900080936D0001C0198289810F900F900F908E
:100FA000CF91DF910895DF93CF9300D00F92CDB70B
:100FB000DEB79B838A8381E089838A819B81009746
:100FC00039F08A819B8190936C0080936B0001C003
:100FD000198289810F900F900F90CF91DF91089522
:100FE0001F920F920FB60F9211242F933F934F939E
:100FF0005F936F937F938F939F93AF93BF93EF9381
:10100000FF93DF93CF93CDB7DEB780916F009091C0
:10101000700001969093700080936F0080916F0034
:10102000909170002FE083349207A9F4ECE4F0E093
:1010300080EC90E0918380831092700010926F009A
:101040008091670090916800009729F0E091670017
:10105000F09168000995CF91DF91FF91EF91BF91D9
:10106000AF919F918F917F916F915F914F913F9140
:101070002F910F900FBE0F901F9018951F920F92F7
:101080000FB60F9211242F933F934F935F936F935B
:101090007F938F939F93AF93BF93EF93FF93DF93D0
:1010A000CF93CDB7DEB78091710090917200019619
:1010B0009093720080937100809171009091720002
:1010C00027E28031920779F4109272001092710039
:1010D00080916D0090916E00009729F0E0916D0075
:1010E000F0916E000995CF91DF91FF91EF91BF9143
:1010F000AF919F918F917F916F915F914F913F91B0
:101100002F910F900FBE0F901F9018951F920F9266
:101110000FB60F9211242F933F934F935F936F93CA
:101120007F938F939F93AF93BF93EF93FF93DF933F
:10113000CF93CDB7DEB78091730090917400019684
:101140009093740080937300809173009091740069
:1011500027E28031920779F41092740010927300A4
:101160008091690090916A00009729F0E0916900F0
:10117000F0916A000995CF91DF91FF91EF91BF91B6
:10118000AF919F918F917F916F915F914F913F911F
:101190002F910F900FBE0F901F9018951F920F92D6
:1011A0000FB60F9211242F933F934F935F936F933A
:1011B0007F938F939F93AF93BF93EF93FF93DF93AF
:1011C000CF93CDB7DEB780917500909176000196F0
:1011D00090937600809375008091750090917600D1
:1011E00027E28031920779F4109276001092750010
:1011F00080916B0090916C00009729F0E0916B005A
:10120000F0916C000995CF91DF91FF91EF91BF9123
:10121000AF919F918F917F916F915F914F913F918E
:101220002F910F900FBE0F901F9018951F920F9245
:101230000FB60F9211242F933F934F935F936F93A9
:101240007F938F939F93AF93BF93EF93FF93DF931E
:10125000CF93CDB7DEB7809177009091780001965B
:101260009093780080937700809177009091780038
:101270002FE08334920799F4E2E5F0E080EC80837C
:101280001092780010927700809163009091640032
:10129000009729F0E0916300F09164000995CF91E7
:1012A000DF91FF91EF91BF91AF919F918F917F91CE
:1012B0006F915F914F913F912F910F900FBE0F90C3
:1012C0001F9018951F920F920FB60F9211242F9313
:1012D0003F934F935F936F937F938F939F93AF93BE
:1012E000BF93EF93FF93DF93CF93CDB7DEB780919A
:1012F000790090917A00019690937A00809379001A
:101300008091790090917A0027E28031920779F4F8
:1013100010927A0010927900809165009091660099
:10132000009729F0E0916500F09166000995CF9152
:10133000DF91FF91EF91BF91AF919F918F917F913D
:101340006F915F914F913F912F910F900FBE0F9032
:101350001F901895DF93CF9300D000D0CDB7DEB7A4
:101360000E94AA010E9481060E943E009E012D5FFC
:101370003F4F80E0B9010E947D008B819C81CC01B0
:10138000A0E0B0E028EE33E040E050E0BC01CD0149
:101390000E94F009DC01CB012FEF33E040E050E088
:1013A000BC01CD010E940F0ADA01C90189519C4F8D
:1013B0009A8389838B819C8122E08130920730F06F
:1013C00081E060E041E00E94F60205C081E060E05B
:1013D00040E00E94F60289819A810E94E106C6CF10
:1013E000629FD001739FF001829FE00DF11D649F09
:1013F000E00DF11D929FF00D839FF00D749FF00D95
:10140000659FF00D9927729FB00DE11DF91F639F35
:10141000B00DE11DF91FBD01CF0111240895A1E216
:101420001A2EAA1BBB1BFD010DC0AA1FBB1FEE1F5E
:10143000FF1FA217B307E407F50720F0A21BB30BA9
:10144000E40BF50B661F771F881F991F1A9469F725
:1014500060957095809590959B01AC01BD01CF0181
:061460000895F894FFCF8F
:00000001FF
