:100000000C942A000C943C000C943C000C943C0092
:100010000C943C000C943C000C943C000C943C0070
:100020000C943C000C943C000C943C000C943C0060
:100030000C943C000C94C9070C9422070C943C00CF
:100040000C943C000C943C000C943C000C943C0040
:100050000C943C0011241FBECFE5D8E0DEBFCDBF1D
:1000600010E0A0E6B0E001C01D92AE36B107E1F7A6
:100070000E9433080C9460080C940000DF93CF9327
:10008000CDB7DEB7EAE3F0E081E08083E7E3F0E0BC
:1000900080E48083E4E3F0E01082E1E3F0E082E0DA
:1000A0008083EBE3F0E01082E8E3F0E080E180831E
:1000B000E5E3F0E01082E2E3F0E01082CF91DF911F
:1000C0000895DF93CF93CDB7DEB72E970FB6F89490
:1000D000DEBF0FBECDBF8A836B834C8381E08983F3
:1000E0008A81843008F00DC18B81883008F009C105
:1000F0008C81882321F08C81813009F002C18A81B2
:10010000282F30E03E872D878D859E858130910593
:1001100009F44FC02D853E85223031052CF48D85A4
:100120009E85009771F0EEC02D853E852230310509
:1001300009F477C08D859E858330910509F4A9C0A7
:10014000E1C08B81282F30E03C872B878B859C85F5
:10015000009731F02B853C8521303105B1F0D2C0BC
:10016000AAE3B0E0EAE3F0E08081482F8B81282FFA
:1001700030E081E090E0022E02C0880F991F0A94BF
:10018000E2F7809584238C93BDC0AAE3B0E0EAE354
:10019000F0E08081482F8B81282F30E081E090E0D3
:1001A000022E02C0880F991F0A94E2F7842B8C93C9
:1001B000A9C08B81282F30E03A87298789859A85C5
:1001C000009731F029853A8521303105B1F09AC088
:1001D000A7E3B0E0E7E3F0E08081482F8B81282F90
:1001E00030E081E090E0022E02C0880F991F0A944F
:1001F000E2F7809584238C9385C0A7E3B0E0E7E322
:10020000F0E08081482F8B81282F30E081E090E062
:10021000022E02C0880F991F0A94E2F7842B8C9358
:1002200071C08B81282F30E038872F838F8198858C
:10023000009731F02F81388521303105B1F062C04F
:10024000A4E3B0E0E4E3F0E08081482F8B81282F25
:1002500030E081E090E0022E02C0880F991F0A94DE
:10026000E2F7809584238C934DC0A4E3B0E0E4E3EF
:10027000F0E08081482F8B81282F30E081E090E0F2
:10028000022E02C0880F991F0A94E2F7842B8C93E8
:1002900039C08B81282F30E03E832D838D819E8154
:1002A000009731F02D813E8121303105B1F02AC017
:1002B000A1E3B0E0E1E3F0E08081482F8B81282FBB
:1002C00030E081E090E0022E02C0880F991F0A946E
:1002D000E2F7809584238C9315C0A1E3B0E0E1E3BD
:1002E000F0E08081482F8B81282F30E081E090E082
:1002F000022E02C0880F991F0A94E2F7842B8C9378
:1003000001C0198289812E960FB6F894DEBF0FBE08
:10031000CDBFCF91DF910895DF93CF93CDB7DEB7F7
:100320002E970FB6F894DEBF0FBECDBF8A836B83C6
:100330004C8381E089838B81883008F00CC18A81ED
:10034000282F30E03E872D878D859E858130910551
:1003500009F451C02D853E85223031052CF48D8560
:100360009E85009771F0F5C02D853E8522303105C0
:1003700009F47BC08D859E858330910509F4AFC05B
:10038000E8C08C81282F30E03C872B878B859C85AB
:10039000009731F02B853C8521303105B1F029C023
:1003A000ABE3B0E0EBE3F0E08081482F8B81282FB6
:1003B00030E081E090E0022E02C0880F991F0A947D
:1003C000E2F7809584238C93C7C0ABE3B0E0EBE306
:1003D000F0E08081482F8B81282F30E081E090E091
:1003E000022E02C0880F991F0A94E2F7842B8C9387
:1003F000B3C01982B1C08C81282F30E03A87298799
:1004000089859A85009731F029853A852130310513
:10041000B1F029C0A8E3B0E0E8E3F0E08081482F24
:100420008B81282F30E081E090E0022E02C0880FFF
:10043000991F0A94E2F7809584238C938DC0A8E3DA
:10044000B0E0E8E3F0E08081482F8B81282F30E096
:1004500081E090E0022E02C0880F991F0A94E2F713
:10046000842B8C9379C0198277C08C81282F30E03F
:1004700038872F838F819885009731F02F813885B9
:1004800021303105B1F029C0A5E3B0E0E5E3F0E0AB
:100490008081482F8B81282F30E081E090E0022E70
:1004A00002C0880F991F0A94E2F7809584238C93E9
:1004B00053C0A5E3B0E0E5E3F0E08081482F8B81F5
:1004C000282F30E081E090E0022E02C0880F991FB3
:1004D0000A94E2F7842B8C933FC019823DC08C8133
:1004E000282F30E03E832D838D819E81009731F04F
:1004F0002D813E8121303105B1F029C0A2E3B0E069
:10050000E2E3F0E08081482F8B81282F30E081E00A
:1005100090E0022E02C0880F991F0A94E2F780959E
:1005200084238C9319C0A2E3B0E0E2E3F0E0808181
:10053000482F8B81282F30E081E090E0022E02C00E
:10054000880F991F0A94E2F7842B8C9305C01982B7
:1005500003C0198201C0198289812E960FB6F894C2
:10056000DEBF0FBECDBFCF91DF910895DF93CF9354
:10057000CDB7DEB728970FB6F894DEBF0FBECDBF5C
:100580008B836C835E834D8381E08A838B8184308F
:1005900008F0A1C08C81883008F09DC08D819E81BB
:1005A000009709F498C08B81282F30E038872F837B
:1005B0004F81588541305105A9F18F81988582304E
:1005C000910534F42F8138852115310571F081C0F2
:1005D0004F8158854230510509F441C08F8198857B
:1005E0008330910509F458C074C0E9E3F0E08081DC
:1005F000282F30E08C81882F90E0A90102C055950A
:1006000047958A95E2F7CA01817089838981882399
:1006100021F4ED81FE8110825FC0ED81FE8181E0D9
:1006200080835AC0E6E3F0E08081282F30E08C819F
:10063000882F90E0A90102C0559547958A95E2F769
:10064000CA01817089838981882321F4ED81FE812B
:10065000108242C0ED81FE8181E080833DC0E3E3F2
:10066000F0E08081282F30E08C81882F90E0A90174
:1006700002C0559547958A95E2F7CA018170898332
:100680008981882321F4ED81FE81108225C0ED81CE
:10069000FE8181E0808320C0E0E3F0E08081282FAC
:1006A00030E08C81882F90E0A90102C055954795D4
:1006B0008A95E2F7CA01817089838981882321F4B0
:1006C000ED81FE81108208C0ED81FE8181E0808392
:1006D00003C01A8201C01A828A8128960FB6F89444
:1006E000DEBF0FBECDBFCF91DF910895DF93CF93D3
:1006F000CDB7DEB72D970FB6F894DEBF0FBECDBFD6
:100700008A836B8381E089838B81882321F08B81AD
:10071000813009F082C08A81282F30E03D872C8704
:100720008C859D858130910571F12C853D85223028
:1007300031052CF48C859D85009769F06CC02C8563
:100740003D8522303105B9F18C859D858330910539
:1007500009F449C060C08B81282F30E03B872A878D
:100760008A859B85009731F02A853B8521303105AC
:1007700029F054C0EAE3F0E0108250C0EAE3F0E070
:100780008FEF80834BC08B81282F30E039872887FB
:1007900088859985009731F0288539852130310584
:1007A00029F03CC0E7E3F0E0108238C0E7E3F0E076
:1007B0008FEF808333C08B81282F30E03F832E83DF
:1007C0008E819F81009731F02E813F81213031054C
:1007D00029F024C0E4E3F0E0108220C0E4E3F0E07C
:1007E0008FEF80831BC08B81282F30E03D832C83CB
:1007F0008C819D81009731F02C813D812130310524
:1008000029F00CC0E1E3F0E0108208C0E1E3F0E081
:100810008FEF808303C0198201C0198289812D96D0
:100820000FB6F894DEBF0FBECDBFCF91DF91089514
:10083000DF93CF9300D000D00F92CDB7DEB78A837D
:100840006B8381E089838A81282F30E03D832C836C
:100850008C819D8181309105D1F02C813D812230A8
:1008600031052CF48C819D81009761F01FC02C8193
:100870003D812230310581F08C819D81833091054D
:1008800081F014C0EBE3F0E08B81808310C0E8E3DB
:10089000F0E08B8180830BC0E5E3F0E08B81808307
:1008A00006C0E2E3F0E08B81808301C01982898178
:1008B0000F900F900F900F900F90CF91DF910895B0
:1008C000DF93CF9300D000D000D0CDB7DEB78A83BE
:1008D0007C836B8381E089838B819C810097E9F124
:1008E0008A81282F30E03E832D838D819E81813047
:1008F0009105E1F02D813E81223031052CF48D816E
:100900009E81009761F027C02D813E812230310504
:10091000A1F08D819E8183309105B1F01CC0E9E387
:10092000F0E08081EB81FC81808318C0E6E3F0E099
:100930008081EB81FC81808311C0E3E3F0E0808162
:10094000EB81FC8180830AC0E0E3F0E08081EB81F1
:10095000FC81808303C0198201C019828981269697
:100960000FB6F894DEBF0FBECDBFCF91DF910895D3
:10097000DF93CF93CDB7DEB7ADE2B0E0EDE2F0E0CC
:1009800080818F7D8C93ADE2B0E0EDE2F0E080817C
:100990008F7E8C93ADE2B0E0EDE2F0E08081886084
:1009A0008C93ADE2B0E0EDE2F0E0808184608C9366
:1009B000ADE2B0E0EDE2F0E0808180648C93CF9115
:1009C000DF910895DF93CF9300D000D0CDB7DEB78D
:1009D0008A837C836B8319828B819C81009789F049
:1009E000EFE2F0E08A818083EEE2F0E0808188230C
:1009F000DCF7EFE2F0E08081EB81FC81808381E035
:100A0000898389810F900F900F900F90CF91DF9184
:100A10000895DF93CF930F92CDB7DEB78983EFE2CE
:100A2000F0E0898180830F90CF91DF910895DF936B
:100A3000CF9300D00F92CDB7DEB79B838A83198204
:100A40008A819B81009769F0EEE2F0E08081882343
:100A5000DCF7EFE2F0E08081EA81FB81808381E0D6
:100A6000898389810F900F900F90CF91DF91089526
:100A7000DF93CF9300D00F92CDB7DEB783E390E042
:100A80009B838A8380E88983E9E2F0E08A8180831E
:100A9000E0E4F0E08A819B81892F99278083ABE293
:100AA000B0E0EBE2F0E080818D7F8C93ABE2B0E0D0
:100AB000EBE2F0E080818E7F8C93AAE2B0E0EAE284
:100AC000F0E0808180618C93AAE2B0E0EAE2F0E09D
:100AD000808188608C93AAE2B0E0EAE2F0E0808155
:100AE0008B7F8C93898184608983898182608983EB
:100AF00089818F7B898389818F7D898389818F7E9D
:100B000089838981877F8983E0E4F0E0898180831C
:100B10000F900F900F90CF91DF910895DF93CF93B7
:100B20000F92CDB7DEB78983EBE2F0E0808182954A
:100B300086958770882F90E0817090700097A1F360
:100B4000ECE2F0E0898180830F90CF91DF910895EE
:100B5000DF93CF9300D00F92CDB7DEB79B838A830C
:100B600019828A819B81009769F0EBE2F0E0808135
:100B70008823DCF7ECE2F0E08081EA81FB8180836E
:100B800081E0898389810F900F900F90CF91DF9141
:100B90000895DF93CF93CDB7DEB727970FB6F894BC
:100BA000DEBF0FBECDBF9F838E8381E08D83198210
:100BB0001A821B821C828E819F81009709F487C054
:100BC0007FC019821A821B821C820BC089819A8184
:100BD000AB81BC810196A11DB11D89839A83AB8332
:100BE000BC83EBE2F0E08081829586958770882F48
:100BF00090E081709070009761F489819A81AB8157
:100C0000BC81803221EA920727E0A20720E0B207E8
:100C1000E8F289819A81AB81BC81803221EA920716
:100C200027E0A20720E0B20710F01D8251C0ECE2DD
:100C3000F0E0AE81BF818C91808319821A821B8281
:100C40001C820BC089819A81AB81BC810196A11D58
:100C5000B11D89839A83AB83BC83EBE2F0E0808192
:100C60008295869586958370882F90E0817090702C
:100C7000009761F489819A81AB81BC81803221EA3D
:100C8000920727E0A20720E0B207E0F289819A816B
:100C9000AB81BC81803221EA920727E0A20720E0E5
:100CA000B20710F01D8214C0ABE2B0E0EBE2F0E05E
:100CB000808180648C938E819F8101969F838E8337
:100CC000EE81FF818081882309F07BCF01C01D82E6
:100CD0008D8127960FB6F894DEBF0FBECDBFCF91A2
:100CE000DF910895DF93CF93CDB7DEB729970FB685
:100CF000F894DEBF0FBECDBF98878F83698781E0F0
:100D00008E831A821B821C821D8219828F81988594
:100D1000009709F44EC03EC01A821B821C821D82BD
:100D20000BC08A819B81AC81BD810196A11DB11D43
:100D30008A839B83AC83BD83EBE2F0E080818823D0
:100D400064F08A819B81AC81BD81803221EA920767
:100D500027E0A20720E0B20720F38A819B81AC81C3
:100D6000BD81803221EA920727E0A20720E0B20786
:100D700010F01E8214C08981282F30E08F81988561
:100D8000DC01A20FB31FECE2F0E080818C9389813B
:100D90008F5F898399818985981708F4BDCF8981F0
:100DA000282F30E08F819885FC01E20FF31F10821D
:100DB00001C01E828E8129960FB6F894DEBF0FBE49
:100DC000CDBFCF91DF910895DF93CF9300D000D0B6
:100DD0000F92CDB7DEB79B838A837D836C8381E0DE
:100DE00089838A819B81009719F18C819D8100976D
:100DF000F9F0809165008823C9F481E08093650053
:100E00008A819B8190936300809362008C819D8195
:100E1000909361008093600010926400AAE2B0E0B9
:100E2000EAE2F0E0808180628C9303C0198201C005
:100E3000198289810F900F900F900F900F90CF9192
:100E4000DF9108951F920F920FB60F9211242F93E6
:100E50003F934F935F936F937F938F939F93AF9342
:100E6000BF93EF93FF93DF93CF93CDB7DEB720917E
:100E700062003091630080916400882F90E0F90156
:100E8000E80FF91F80818823A9F0ACE2B0E020913F
:100E900062003091630080916400882F90E0F90136
:100EA000E80FF91F80818C93809164008F5F80939D
:100EB000640016C0AAE2B0E0EAE2F0E080818F7D33
:100EC0008C938091600090916100009729F0E091EF
:100ED0006000F09161000995109265001092640025
:100EE000CF91DF91FF91EF91BF91AF919F918F9142
:100EF0007F916F915F914F913F912F910F900FBE16
:100F00000F901F901895DF93CF9300D000D000D0A2
:100F1000CDB7DEB79B838A837D836C834E8381E06C
:100F200089838A819B81009749F18C819D810097FB
:100F300029F18E81882311F180916B008823E1F4DF
:100F400081E080936B008A819B81909367008093FE
:100F500066008C819D819093690080936800109257
:100F60006A008E8180936C00AAE2B0E0EAE2F0E0D1
:100F7000808180688C9303C0198201C019828981A5
:100F800026960FB6F894DEBF0FBECDBFCF91DF918E
:100F900008951F920F920FB60F9211242F933F9333
:100FA0004F935F936F937F938F939F93AF93BF9371
:100FB000EF93FF93DF93CF93CDB7DEB790916A00A5
:100FC00080916C009817E0F52091660030916700E1
:100FD00080916A00882F90E0D901A80FB91FECE238
:100FE000F0E080818C9380916A008F5F80936A002B
:100FF00090916A0080916C00981710F1AAE2B0E01D
:10100000EAE2F0E080818F778C9320916600309146
:10101000670080916A00882F90E0F901E80FF91FBE
:1010200010828091680090916900009729F0E0910A
:101030006800F0916900099510926B0010926A00A7
:10104000CF91DF91FF91EF91BF91AF919F918F91E0
:101050007F916F915F914F913F912F910F900FBEB4
:101060000F901F901895DF93CF930F92CDB7DEB7F7
:101070000E943E000E94B8040E94380583E59E014C
:101080002F5F3F4FB9010E94E20489810E948E05C3
:1010900089818D3499F780916D00882349F480E02F
:1010A00060E041E00E948C0181E080936D00E6CF1A
:1010B00080E060E040E00E948C0110926D00DECF85
:0410C000F894FFCFD2
:00000001FF
