:100000000C942A000C9447000C9447000C94470071
:100010000C9447000C9447000C9447000C94470044
:100020000C9447000C9447000C9447000C94470034
:100030000C9447000C9447000C9447000C94470024
:100040000C947A070C9447000C9447000C944700DA
:100050000C94470011241FBECFE5D8E0DEBFCDBF12
:1000600010E0A0E6B0E0E0EAFFE202C005900D92E9
:10007000A83AB107D9F710E0A8EAB0E001C01D9294
:10008000AB3AB107E1F70E948F160C94CE170C948F
:100090000000EF92FF920F931F937B018C0120E0F1
:1000A00030E040E05FE40E94F50388238CF0C80153
:1000B000B70120E030E040E05FE40E94C1010E940F
:1000C00055049B01AC01205030404040504806C0D0
:1000D000C801B7010E9455049B01AC01B901CA01D6
:1000E0001F910F91FF90EF900895A0E0B0E0EBE733
:1000F000F0E00C949717DC012B01FA019C919230EF
:1001000008F439C1EB018881823008F433C194309E
:1001100069F4843009F02FC111969C91119789815F
:10012000981709F428C1AFE8B0E025C1843009F47C
:1001300021C18230A9F4923009F01DC19A01AD01AC
:1001400088E0EA010990AE01E90109929E0181501F
:10015000C1F7E201898111969C918923818308C1AD
:10016000923009F407C112962D903C901397EB0141
:100170008A819B811496AD90BD90CD90DC901797AD
:10018000EC80FD800E811F819101281B390BB90184
:1001900037FF04C066277727621B730B6032710537
:1001A0000CF061C0121613066CF537014801062EDB
:1001B00004C096948794779467940A94D2F721E0C8
:1001C00030E040E050E004C0220F331F441F551FB1
:1001D0006A95D2F721503040404050402E213F21B7
:1001E00040235123211531054105510521F021E01E
:1001F00030E040E050E079018A01E628F72808293C
:1002000019293CC0232BD1F1260E371E350146019A
:10021000062E04C096948794779467940A94D2F734
:1002200021E030E040E050E004C0220F331F441FC3
:10023000551F6A95D2F721503040404050402A2146
:100240003B214C215D21211531054105510521F04E
:1002500021E030E040E050E059016A01A628B728CB
:10026000C828D9280BC0821593052CF01C01AA249C
:10027000BB24650103C0EE24FF24870111969C91E5
:10028000D20111968C91981709F445C0992339F041
:10029000A80197012A193B094C095D0906C0A6016E
:1002A00095012E193F09400B510B57FD08C01182D3
:1002B0003382228224833583468357831DC081E0A5
:1002C00081833382228288279927DC01821B930B4A
:1002D000A40BB50B84839583A683B7830DC0220F2F
:1002E000331F441F551F24833583468357838281E0
:1002F000938101979383828324813581468157813D
:10030000DA01C9010197A109B1098F5F9F4FAF4F72
:10031000BF4328F30BC0918333822282EA0CFB1C7B
:100320000C1D1D1DE482F5820683178383E0808304
:10033000248135814681578157FF1AC0C901AA27F8
:1003400097FDA095BA2F81709070A070B0705695EF
:10035000479537952795822B932BA42BB52B848318
:100360009583A683B7838281938101969383828349
:10037000DF0101C0D201CD01CDB7DEB7E2E10C94BF
:10038000B317A0E2B0E0E7ECF1E00C94A3176983A7
:100390007A838B839C832D833E834F835887E9E048
:1003A000EE2EF12CEC0EFD1ECE010196B7010E943F
:1003B0007E058E010F5E1F4FCE010596B8010E948B
:1003C0007E058A8991E089278A8BC701B801AE0131
:1003D000475E5F4F0E9475000E94A904A096E6E068
:1003E0000C94BF17A0E2B0E0E8EFF1E00C94A31783
:1003F00069837A838B839C832D833E834F835887C5
:10040000F9E0EF2EF12CEC0EFD1ECE010196B701A6
:100410000E947E058E010F5E1F4FCE010596B8012A
:100420000E947E05C701B801AE01475E5F4F0E9482
:1004300075000E94A904A096E6E00C94BF17A0E204
:10044000B0E0E5E2F2E00C94971769837A838B833E
:100450009C832D833E834F835887CE010196BE0136
:10046000675F7F4F0E947E05CE010596BE016F5EDD
:100470007F4F0E947E059985923088F0898982306D
:10048000C8F0943019F4823051F404C0843029F457
:10049000923081F48FE890E0C6C0923049F420E0B9
:1004A0009A858A89981321E02A87CE010996BBC0D4
:1004B000823049F420E09A858A89981321E02A8BBA
:1004C000CE014196B0C02D843E844F8458886D88FB
:1004D0007E888F88988CEE24FF248701AA24BB2471
:1004E000650140E050E060E070E0E0E0F0E0C10174
:1004F00081709070892BE9F0E60CF71C081D191D1E
:100500009A01AB012A0D3B1D4C1D5D1D80E090E062
:10051000A0E0B0E0E614F7040805190520F481E036
:1005200090E0A0E0B0E0BA01A901480F591F6A1F8E
:100530007B1FAA0CBB1CCC1CDD1C97FE08C081E0F5
:1005400090E0A0E0B0E0A82AB92ACA2ADB2A3196B6
:10055000E032F10549F0660C771C881C991C569412
:10056000479437942794C3CFFA85EA892B893C892D
:100570008B859C85280F391F2E5F3F4F17C0CA01FE
:1005800081709070892B61F016950795F794E79428
:1005900080E090E0A0E0B0E8E82AF92A0A2B1B2BC3
:1005A00076956795579547952F5F3F4F77FDE7CF36
:1005B0000CC0440F551F661F771F17FD4160EE0CDE
:1005C000FF1C001F111F21503040403090E05907A0
:1005D00090E0690790E4790760F32B8F3C8FDB0193
:1005E000CA018F779070A070B07080349105A1051A
:1005F000B10561F447FD0AC0E114F10401051105DC
:1006000029F0405C5F4F6F4F7F4F40781A8EFE1786
:1006100011F081E08A8F4D8F5E8F6F8F78A383E01A
:10062000898FCE0149960E94A904A096E2E10C941C
:10063000B317A8E1B0E0EFE1F3E00C949F176983F2
:100640007A838B839C832D833E834F835887B9E0C5
:10065000EB2EF12CEC0EFD1ECE010196B7010E948F
:100660007E058E010F5E1F4FCE010596B8010E94D8
:100670007E052985223008F47EC03989323010F495
:10068000B8017CC08A859A8989278A87243011F02D
:10069000223031F4231709F06EC06FE870E06EC0AD
:1006A000343039F41D861E861F86188A1C861B86E8
:1006B00004C0323021F484E08987B7015FC02B8504
:1006C0003C858B899C89281B390B3C872B87ED84C3
:1006D000FE840F851889AD88BE88CF88D88CEA142F
:1006E000FB040C051D0540F4EE0CFF1C001F111F40
:1006F000215030403C872B8720E030E040E050E044
:1007000080E090E0A0E0B0E460E070E0EA14FB0478
:100710000C051D0540F0282B392B4A2B5B2BEA18C2
:10072000FB080C091D09B695A79597958795EE0CC2
:10073000FF1C001F111F6F5F7F4F6F31710531F775
:10074000DA01C9018F779070A070B0708034910584
:10075000A105B10561F427FD0AC0E114F10401050A
:10076000110529F0205C3F4F4F4F5F4F20782D87B8
:100770003E874F87588BBE01675F7F4FCB010E943A
:10078000A9046896EAE00C94BB17A8E1B0E0EBEC92
:10079000F3E00C94A31769837A838B839C832D8366
:1007A0003E834F83588789E0E82EF12CEC0EFD1E26
:1007B000CE010196B7010E947E058E010F5E1F4F8C
:1007C000CE010596B8010E947E058985823040F0F1
:1007D0008989823028F0C701B8010E94F60501C05E
:1007E0008FEF6896E6E00C94BF17A8E1B0E0EBEF5E
:1007F000F3E00C94A31769837A838B839C832D8306
:100800003E834F83588789E0E82EF12CEC0EFD1EC5
:10081000CE010196B7010E947E058E010F5E1F4F2B
:10082000CE010596B8010E947E058985823040F090
:100830008989823028F0C701B8010E94F60501C0FD
:100840008FEF6896E6E00C94BF17A8E1B0E0EBE20A
:10085000F4E00C94A31769837A838B839C832D83A4
:100860003E834F83588789E0E82EF12CEC0EFD1E65
:10087000CE010196B7010E947E058E010F5E1F4FCB
:10088000CE010596B8010E947E058985823040F030
:100890008989823028F0C701B8010E94F60501C09D
:1008A00081E06896E6E00C94BF17ACE0B0E0EBE5C1
:1008B000F4E00C94A71769837A838B839C83CE0121
:1008C0000196BE016B5F7F4F0E947E058D81823055
:1008D00061F1823050F1843021F48E81882351F10E
:1008E0002EC02F81388537FD20C06E812F31310514
:1008F0001CF06623F9F023C08EE190E0821B930B7D
:1009000029853A854B855C8504C056954795379572
:1009100027958A95D2F76623B1F05095409530958A
:1009200021953F4F4F4F5F4F0EC020E030E040E039
:1009300050E009C02FEF3FEF4FEF5FE704C020E02A
:1009400030E040E050E8B901CA012C96E2E00C9496
:10095000C317DF92EF92FF920F931F93FC01E48085
:10096000F58006811781D1808081823048F480E053
:1009700090E0A0E1B0E0E82AF92A0A2B1B2BA5C0E1
:10098000843009F49FC0823021F4EE24FF248701D3
:1009900005C0E114F1040105110519F4E0E0F0E0EF
:1009A00096C0628173819FEF623879070CF05BC05B
:1009B00022E83FEF261B370B2A3131052CF020E0CF
:1009C00030E040E050E02AC0B801A701022E04C088
:1009D00076956795579547950A94D2F781E090E010
:1009E000A0E0B0E004C0880F991FAA1FBB1F2A9582
:1009F000D2F70197A109B1098E219F21A023B1232C
:100A00000097A105B10521F081E090E0A0E0B0E001
:100A10009A01AB01282B392B4A2B5B2BDA01C90138
:100A20008F779070A070B07080349105A105B105EA
:100A300039F427FF09C0205C3F4F4F4F5F4F04C080
:100A4000215C3F4F4F4F5F4FE0E0F0E02030A0E0EF
:100A50003A07A0E04A07A0E45A0710F0E1E0F0E00E
:100A600079018A0127C06038710564F5FB01E158FE
:100A7000FF4FD801C7018F779070A070B07080349D
:100A80009105A105B10539F4E7FE0DC080E490E0C1
:100A9000A0E0B0E004C08FE390E0A0E0B0E0E80E9A
:100AA000F91E0A1F1B1F17FF05C016950795F7941F
:100AB000E794319687E016950795F794E7948A9521
:100AC000D1F705C0EE24FF248701EFEFF0E06E2F91
:100AD000679566276795902F9F77D794DD24D794E5
:100AE0008E2F8695492F462B582F5D29B701CA01B5
:100AF0001F910F91FF90EF90DF900895FC01DB01B3
:100B0000408151812281622F6F7770E0221F22275E
:100B1000221F9381892F880F822B282F30E0991F65
:100B20009927991F11969C93119721153105A9F5C5
:100B3000411551056105710511F482E037C082E865
:100B40009FEF13969C938E9312979A01AB0167E0E7
:100B5000220F331F441F551F6A95D1F783E08C93F2
:100B60000DC0220F331F441F551F12968D919C916B
:100B70001397019713969C938E931297203080E0E1
:100B8000380780E0480780E4580758F314962D93FF
:100B90003D934D935C93179708952F3F310579F45A
:100BA000411551056105710519F484E08C93089590
:100BB00064FF03C081E08C9312C01C9210C02F57B9
:100BC000304013963C932E93129783E08C9387E0EA
:100BD000440F551F661F771F8A95D1F770641496CE
:100BE0004D935D936D937C93179708951F93DC014C
:100BF000FB019C91923008F447C08081823008F458
:100C000043C0943051F411961C91843099F5818140
:100C1000682F70E0611B71093FC0843021F0923071
:100C200031F48230B9F18181882389F12DC0119688
:100C30001C9111978230F1F081811817D9F4129626
:100C40002D913C911397828193818217930794F0A1
:100C500028173907BCF014968D919D910D90BC9189
:100C6000A02D2481358146815781281739074A07ED
:100C70005B0718F4112341F00AC082179307A407F9
:100C8000B50740F4112319F061E070E005C06FEF83
:100C90007FEF02C060E070E0CB011F910895DF9309
:100CA000CF93CDB7DEB7A7E2B0E0E7E2F0E0808116
:100CB0008F778C93A7E2B0E0E7E2F0E08081806478
:100CC0008C93A7E2B0E0E7E2F0E080818F7D8C9327
:100CD000A6E2B0E0E6E2F0E080818F7D8C93A6E2B0
:100CE000B0E0E6E2F0E0808184608C93A6E2B0E0C0
:100CF000E6E2F0E0808182608C93A6E2B0E0E6E27A
:100D0000F0E080818E7F8C93A6E2B0E0E6E2F0E036
:100D1000808180688C93CF91DF910895DF93CF938A
:100D2000CDB7DEB728970FB6F894DEBF0FBECDBFA4
:100D30008E8378876F8381E08D8319821A821B826C
:100D40001C828E81803208F065C08F819885009763
:100D500009F460C08091AA00882309F05BC081E09B
:100D60008093AA00A7E2B0E0E7E2F0E08081807E15
:100D70008C93A7E2B0E0E7E2F0E090818E81892BCE
:100D80008C93A6E2B0E0E6E2F0E0808180648C9390
:100D90000BC089819A81AB81BC810196A11DB11DD7
:100DA00089839A83AB83BC83E6E2F0E080818295FD
:100DB0008F70882F90E081709070009761F4898126
:100DC0009A81AB81BC81803523EC920720E0A20799
:100DD00020E0B207F0F2E6E2F0E0808182958F70C9
:100DE000882F90E081709070882391F01092AA0073
:100DF000A6E2B0E0E6E2F0E0808180618C93E4E27C
:100E0000F0E080819181EF81F8859183808303C038
:100E10001D8201C01D828D8128960FB6F894DEBF19
:100E20000FBECDBFCF91DF910895DF93CF9300D058
:100E300000D0CDB7DEB78A837C836B8381E0898362
:100E40008A81803278F58B819C81009759F180915D
:100E5000AA00882339F581E08093AA008B819C81C8
:100E60009093A9008093A800A6E2B0E0E6E2F0E04B
:100E7000808188608C93A7E2B0E0E7E2F0E08081B7
:100E8000807E8C93A7E2B0E0E7E2F0E090818A8177
:100E9000892B8C93A6E2B0E0E6E2F0E080818064EA
:100EA0008C9301C0198289810F900F900F900F9041
:100EB000CF91DF910895DF93CF9300D00F92CDB7FC
:100EC000DEB79B838A8381E089838A819B81009737
:100ED00049F0E4E2F0E080819181EA81FB81918335
:100EE000808301C0198289810F900F900F90CF915C
:100EF000DF9108951F920F920FB60F9211242F9336
:100F00003F934F935F936F937F938F939F93AF9391
:100F1000BF93EF93FF93DF93CF93CDB7DEB780916D
:100F2000A8009091A900009799F01092AA00A6E25B
:100F3000B0E0E6E2F0E08081877F8C932091A8000A
:100F40003091A900E4E2F0E080819181F9010995F6
:100F5000CF91DF91FF91EF91BF91AF919F918F91D1
:100F60007F916F915F914F913F912F910F900FBEA5
:100F70000F901F901895DF93CF93CDB7DEB7EAE3BC
:100F8000F0E01082E7E3F0E087E08083E4E3F0E064
:100F90001082E1E3F0E08FEF8083EBE3F0E010827A
:100FA000E8E3F0E01082E5E3F0E01082E2E3F0E055
:100FB0001082CF91DF910895DF93CF93CDB7DEB745
:100FC0002E970FB6F894DEBF0FBECDBF8A836B831A
:100FD0004C8381E089838A81843008F00DC18B8144
:100FE000883008F009C18C81882321F08C81813000
:100FF00009F002C18A81282F30E03E872D878D8538
:101000009E858130910509F44FC02D853E852230A3
:1010100031052CF48D859E85009771F0EEC02D85ED
:101020003E852230310509F477C08D859E85833059
:10103000910509F4A9C0E1C08B81282F30E03C87DD
:101040002B878B859C85009731F02B853C85213043
:101050003105B1F0D2C0AAE3B0E0EAE3F0E080816C
:10106000482F8B81282F30E081E090E0022E02C0D3
:10107000880F991F0A94E2F7809584238C93BDC052
:10108000AAE3B0E0EAE3F0E08081482F8B81282FCB
:1010900030E081E090E0022E02C0880F991F0A9490
:1010A000E2F7842B8C93A9C08B81282F30E03A87FC
:1010B000298789859A85009731F029853A852130DD
:1010C0003105B1F09AC0A7E3B0E0E7E3F0E080813A
:1010D000482F8B81282F30E081E090E0022E02C063
:1010E000880F991F0A94E2F7809584238C9385C01A
:1010F000A7E3B0E0E7E3F0E08081482F8B81282F61
:1011000030E081E090E0022E02C0880F991F0A941F
:10111000E2F7842B8C9371C08B81282F30E03887C5
:101120002F838F819885009731F02F81388521306A
:101130003105B1F062C0A4E3B0E0E4E3F0E0808107
:10114000482F8B81282F30E081E090E0022E02C0F2
:10115000880F991F0A94E2F7809584238C934DC0E1
:10116000A4E3B0E0E4E3F0E08081482F8B81282FF6
:1011700030E081E090E0022E02C0880F991F0A94AF
:10118000E2F7842B8C9339C08B81282F30E03E838B
:101190002D838D819E81009731F02D813E812130FC
:1011A0003105B1F02AC0A1E3B0E0E1E3F0E08081D5
:1011B000482F8B81282F30E081E090E0022E02C082
:1011C000880F991F0A94E2F7809584238C9315C0A9
:1011D000A1E3B0E0E1E3F0E08081482F8B81282F8C
:1011E00030E081E090E0022E02C0880F991F0A943F
:1011F000E2F7842B8C9301C0198289812E960FB659
:10120000F894DEBF0FBECDBFCF91DF910895DF937D
:10121000CF93CDB7DEB72E970FB6F894DEBF0FBED3
:10122000CDBF8A836B834C8381E089838B81883037
:1012300008F00CC18A81282F30E03E872D878D85EC
:101240009E858130910509F451C02D853E8522305F
:1012500031052CF48D859E85009771F0F5C02D85A4
:101260003E852230310509F47BC08D859E85833013
:10127000910509F4AFC0E8C08C81282F30E03C878D
:101280002B878B859C85009731F02B853C85213001
:101290003105B1F029C0ABE3B0E0EBE3F0E08081D1
:1012A000482F8B81282F30E081E090E0022E02C091
:1012B000880F991F0A94E2F7809584238C93C7C006
:1012C000ABE3B0E0EBE3F0E08081482F8B81282F87
:1012D00030E081E090E0022E02C0880F991F0A944E
:1012E000E2F7842B8C93B3C01982B1C08C81282F74
:1012F00030E03A87298789859A85009731F02985DA
:101300003A8521303105B1F029C0A8E3B0E0E8E327
:10131000F0E08081482F8B81282F30E081E090E041
:10132000022E02C0880F991F0A94E2F78095842349
:101330008C938DC0A8E3B0E0E8E3F0E08081482F13
:101340008B81282F30E081E090E0022E02C0880FD0
:10135000991F0A94E2F7842B8C9379C0198277C085
:101360008C81282F30E038872F838F8198850097D4
:1013700031F02F81388521303105B1F029C0A5E346
:10138000B0E0E5E3F0E08081482F8B81282F30E04A
:1013900081E090E0022E02C0880F991F0A94E2F7C4
:1013A000809584238C9353C0A5E3B0E0E5E3F0E09F
:1013B0008081482F8B81282F30E081E090E0022E41
:1013C00002C0880F991F0A94E2F7842B8C933FC0C8
:1013D00019823DC08C81282F30E03E832D838D8182
:1013E0009E81009731F02D813E8121303105B1F091
:1013F00029C0A2E3B0E0E2E3F0E08081482F8B81D6
:10140000282F30E081E090E0022E02C0880F991F63
:101410000A94E2F7809584238C9319C0A2E3B0E08C
:10142000E2E3F0E08081482F8B81282F30E081E0DB
:1014300090E0022E02C0880F991F0A94E2F7842BD5
:101440008C9305C0198203C0198201C01982898159
:101450002E960FB6F894DEBF0FBECDBFCF91DF91B1
:101460000895DF93CF93CDB7DEB728970FB6F894E2
:10147000DEBF0FBECDBF8B836C835E834D8381E067
:101480008A838B81843008F0A1C08C81883008F079
:101490009DC08D819E81009709F498C08B81282F73
:1014A00030E038872F834F81588541305105A9F1AD
:1014B0008F8198858230910534F42F8138852115EC
:1014C000310571F081C04F8158854230510509F4D2
:1014D00041C08F8198858330910509F458C074C04C
:1014E000E9E3F0E08081282F30E08C81882F90E0C4
:1014F000A90102C0559547958A95E2F7CA01817006
:1015000089838981882321F4ED81FE8110825FC067
:10151000ED81FE8181E080835AC0E6E3F0E08081C6
:10152000282F30E08C81882F90E0A90102C05595CA
:1015300047958A95E2F7CA0181708983898188235A
:1015400021F4ED81FE81108242C0ED81FE8181E0B7
:1015500080833DC0E3E3F0E08081282F30E08C8180
:10156000882F90E0A90102C0559547958A95E2F72A
:10157000CA01817089838981882321F4ED81FE81EC
:10158000108225C0ED81FE8181E0808320C0E0E3F0
:10159000F0E08081282F30E08C81882F90E0A90135
:1015A00002C0559547958A95E2F7CA0181708983F3
:1015B0008981882321F4ED81FE81108208C0ED81AC
:1015C000FE8181E0808303C01A8201C01A828A8171
:1015D00028960FB6F894DEBF0FBECDBFCF91DF9136
:1015E0000895DF93CF93CDB7DEB72D970FB6F8945C
:1015F000DEBF0FBECDBF8A836B8381E089838B8181
:10160000882321F08B81813009F082C08A81282FC4
:1016100030E03D872C878C859D858130910571F167
:101620002C853D85223031052CF48C859D850097D5
:1016300069F06CC02C853D8522303105B9F18C856F
:101640009D858330910509F449C060C08B81282FA6
:1016500030E03B872A878A859B85009731F02A8571
:101660003B852130310529F054C0EAE3F0E01082D7
:1016700050C0EAE3F0E08FEF80834BC08B81282FCE
:1016800030E03987288788859985009731F028854B
:1016900039852130310529F03CC0E7E3F0E01082C4
:1016A00038C0E7E3F0E08FEF808333C08B81282FD1
:1016B00030E03F832E838E819F81009731F02E8111
:1016C0003F812130310529F024C0E4E3F0E01082AD
:1016D00020C0E4E3F0E08FEF80831BC08B81282FD4
:1016E00030E03D832C838C819D81009731F02C81EB
:1016F0003D812130310529F00CC0E1E3F0E010829A
:1017000008C0E1E3F0E08FEF808303C0198201C0DD
:10171000198289812D960FB6F894DEBF0FBECDBF1A
:10172000CF91DF910895DF93CF9300D000D00F9237
:10173000CDB7DEB78A836B8381E089838A81282FC6
:1017400030E03D832C838C819D8181309105D1F0E7
:101750002C813D81223031052CF48C819D810097B4
:1017600061F01FC02C813D812230310581F08C81D8
:101770009D818330910581F014C0EBE3F0E08B8113
:10178000808310C0E8E3F0E08B8180830BC0E5E349
:10179000F0E08B81808306C0E2E3F0E08B81808300
:1017A00001C0198289810F900F900F900F900F90B8
:1017B000CF91DF910895DF93CF9300D000D000D078
:1017C000CDB7DEB78A837C836B8381E089838B818D
:1017D0009C810097E9F18A81282F30E03E832D8398
:1017E0008D819E8181309105E1F02D813E812230F5
:1017F00031052CF48D819E81009761F027C02D81E9
:101800003E8122303105A1F08D819E81833091058A
:10181000B1F01CC0E9E3F0E08081EB81FC818083C2
:1018200018C0E6E3F0E08081EB81FC81808311C089
:10183000E3E3F0E08081EB81FC8180830AC0E0E398
:10184000F0E08081EB81FC81808303C0198201C0BC
:101850001982898126960FB6F894DEBF0FBECDBFE0
:10186000CF91DF9108950F931F93DF93CF93CDB75F
:10187000DEB7CC54D0400FB6F894DEBF0FBECDBF5C
:10188000FE01E75BFF4F80E090E0ACE0B2E48083D4
:101890009183A283B3838E010B5B1F4FFE01E75B35
:1018A000FF4F608171818281938120E030E04AEFB7
:1018B00054E40E941F02DC01CB01F8018083918374
:1018C000A283B383FE01EB5BFF4F60817181828154
:1018D000938120E030E040E85FE30E942504882304
:1018E00044F4FE01ED5BFF4F81E090E09183808343
:1018F00064C0FE01EB5BFF4F608171818281938147
:1019000020E03FEF4FE757E40E94C50318160CF0A4
:1019100043C0FE01E75BFF4F60817181828193814B
:1019200020E030E040E251E40E941F02DC01CB01E4
:101930008E010D5B1F4FBC01CD010E944900DC01EF
:10194000CB01F801918380831FC0FE01EF5BFF4F45
:1019500088EC90E091838083FE01EF5BFF4F8081F4
:1019600091810197F1F7FE01EF5BFF4F9183808337
:10197000DE01AD5BBF4FFE01ED5BFF4F80819181CA
:10198000019711969C938E93FE01ED5BFF4F808132
:1019900091810097D1F624C08E010D5B1F4FFE018F
:1019A000EB5BFF4F60817181828193810E944900CE
:1019B000DC01CB01F80191838083FE01ED5BFF4FD9
:1019C00080819181FE01FF9691838083FE01FF96C5
:1019D000808191810197F1F7FE01FF9691838083C9
:1019E00088E30E94F60E80E090E0A0E2B2E48BAFC4
:1019F0009CAFADAFBEAF6BAD7CAD8DAD9EAD2BEAF8
:101A00003AEA4AE250E40E941F02DC01CB018FABAC
:101A100098AFA9AFBAAF6FA978AD89AD9AAD20E004
:101A200030E040E85FE30E94250488231CF481E055
:101A30008EAB91C06FA978AD89AD9AAD20E030E052
:101A40004FE753E40E94C50318160CF07BC06BAD42
:101A50007CAD8DAD9EAD20E030E04AE754E40E94BD
:101A60001903DC01CB018AAB9BABACABBDAB6AA964
:101A70007BA98CA99DA920E030E04AEF54E40E94A4
:101A80001F02DC01CB018EA79FA7A8ABB9AB6EA547
:101A90007FA588A999A920E030E040E85FE30E9493
:101AA000250488232CF481E090E09DA78CA73FC0FB
:101AB0006EA57FA588A999A920E03FEF4FE757E4DD
:101AC0000E94C50318164CF56AA97BA98CA99DA98B
:101AD00020E030E040E251E40E941F02DC01CB0133
:101AE000BC01CD010E944900DC01CB019DA78CA760
:101AF0000FC088EC90E09BA78AA78AA59BA50197B9
:101B0000F1F79BA78AA78CA59DA501979DA78CA7F8
:101B10008CA59DA5009769F724C06EA57FA588A90F
:101B200099A90E944900DC01CB019DA78CA78CA537
:101B30009DA599A788A788A599A50197F1F799A7C9
:101B400088A70FC06FA978AD89AD9AAD0E944900F2
:101B5000DC01CB018EAB8EA98FA38FA18A95F1F703
:101B60008FA38FE00E94F60E80E090E0A0E2B2E446
:101B70008BA39CA3ADA3BEA36BA17CA18DA19EA1B1
:101B80002BEA3AEA4AE250E40E941F02DC01CB0150
:101B90008F8F98A3A9A3BAA36F8D78A189A19AA1C9
:101BA00020E030E040E85FE30E94250488231CF435
:101BB00081E08E8F91C06F8D78A189A19AA120E0DC
:101BC00030E04FE753E40E94C50318160CF07BC0C9
:101BD0006BA17CA18DA19EA120E030E04AE754E4F6
:101BE0000E941903DC01CB018A8F9B8FAC8FBD8FC4
:101BF0006A8D7B8D8C8D9D8D20E030E04AEF54E422
:101C00000E941F02DC01CB018E8B9F8BA88FB98FA6
:101C10006E897F89888D998D20E030E040E85FE310
:101C20000E94250488232CF481E090E09D8B8C8B0E
:101C30003FC06E897F89888D998D20E03FEF4FE707
:101C400057E40E94C50318164CF56A8D7B8D8C8D68
:101C50009D8D20E030E040E251E40E941F02DC0153
:101C6000CB01BC01CD010E944900DC01CB019D8B61
:101C70008C8B0FC088EC90E09B8B8A8B8A899B8928
:101C80000197F1F79B8B8A8B8C899D8901979D8B9E
:101C90008C8B8C899D89009769F724C06E897F8918
:101CA000888D998D0E944900DC01CB019D8B8C8B26
:101CB0008C899D89998B888B888999890197F1F7FF
:101CC000998B888B0FC06F8D78A189A19AA10E94F2
:101CD0004900DC01CB018E8F8E8D8F878F858A9591
:101CE000F1F78F8781E00E94F60E80E090E0A0E09F
:101CF000B0E48B879C87AD87BE876B857C858D859F
:101D00009E8520E030E04AEF54E40E941F02DC018F
:101D1000CB018F839887A987BA876F81788589855A
:101D20009A8520E030E040E85FE30E9425048823A4
:101D30002CF481E090E09E838D833FC06F81788595
:101D400089859A8520E03FEF4FE757E40E94C5035D
:101D500018164CF56B857C858D859E8520E030E0DE
:101D600040E251E40E941F02DC01CB01BC01CD0125
:101D70000E944900DC01CB019E838D830FC088EC5B
:101D800090E09C838B838B819C810197F1F79C83EE
:101D90008B838D819E8101979E838D838D819E8112
:101DA000009769F714C06F81788589859A850E94AC
:101DB0004900DC01CB019E838D838D819E819A83B6
:101DC000898389819A810197F1F79A83898386E0D3
:101DD0000E94F60EC45BDF4F0FB6F894DEBF0FBE55
:101DE000CDBFCF91DF911F910F910895DF93CF93D6
:101DF000CDB7DEB7E1970FB6F894DEBF0FBECDBF0B
:101E000089AB81E060E040E00E94070981E061E089
:101E100040E00E94070983E069A90E94930B81E0DA
:101E200062E041E00E94070980E090E0A0E8BFE3A3
:101E30008DA79EA7AFA7B8AB6DA57EA58FA598A9C6
:101E40002BEA3AEA4AE250E40E941F02DC01CB018D
:101E500089A79AA7ABA7BCA769A57AA58BA59CA5BE
:101E600020E030E040E85FE30E94250488231CF472
:101E700081E088A791C069A57AA58BA59CA520E0E3
:101E800030E04FE753E40E94C50318160CF07BC006
:101E90006DA57EA58FA598A920E030E04AE754E41F
:101EA0000E941903DC01CB018CA39DA3AEA3BFA3A9
:101EB0006CA17DA18EA19FA120E030E04AEF54E407
:101EC0000E941F02DC01CB0188A399A3AAA3BBA394
:101ED00068A179A18AA19BA120E030E040E85FE3FE
:101EE0000E94250488232CF481E090E09F8F8E8F40
:101EF0003FC068A179A18AA19BA120E03FEF4FE7F5
:101F000057E40E94C50318164CF56CA17DA18EA163
:101F10009FA120E030E040E251E40E941F02DC017A
:101F2000CB01BC01CD010E944900DC01CB019F8F98
:101F30008E8F0FC088EC90E09D8F8C8F8C8D9D8D47
:101F40000197F1F79D8F8C8F8E8D9F8D01979F8FBD
:101F50008E8F8E8D9F8D009769F724C068A179A11F
:101F60008AA19BA10E944900DC01CB019F8F8E8F2B
:101F70008E8D9F8D9B8F8A8F8A8D9B8D0197F1F718
:101F80009B8F8A8F0FC069A57AA58BA59CA50E94FF
:101F90004900DC01CB0188A788A5898F898D8A95A6
:101FA000F1F7898F81E062E040E00E94070980E05C
:101FB00090E0A0E8BFE38D8B9E8BAF8BB88F6D89CF
:101FC0007E898F89988D2BEA3AEA4AE250E40E9492
:101FD0001F02DC01CB01898B9A8BAB8BBC8B69898F
:101FE0007A898B899C8920E030E040E85FE30E9499
:101FF000250488231CF481E0888B91C069897A8943
:102000008B899C8920E030E04FE753E40E94C503B0
:1020100018160CF07BC06D897E898F89988D20E021
:1020200030E04AE754E40E941903DC01CB018C87BD
:102030009D87AE87BF876C857D858E859F8520E0D7
:1020400030E04AEF54E40E941F02DC01CB01888794
:102050009987AA87BB87688579858A859B8520E0D3
:1020600030E040E85FE30E94250488232CF481E0FF
:1020700090E09F838E833FC0688579858A859B85A4
:1020800020E03FEF4FE757E40E94C50318164CF5D8
:102090006C857D858E859F8520E030E040E251E4AF
:1020A0000E941F02DC01CB01BC01CD010E9449004E
:1020B000DC01CB019F838E830FC088EC90E09D8371
:1020C0008C838C819D810197F1F79D838C838E8118
:1020D0009F8101979F838E838E819F81009769F7EF
:1020E00024C0688579858A859B850E944900DC012A
:1020F000CB019F838E838E819F819B838A838A817C
:102100009B810197F1F79B838A830FC069897A8944
:102110008B899C890E944900DC01CB01888B8889CE
:10212000898389818A95F1F78983E1960FB6F894BE
:10213000DEBF0FBECDBFCF91DF910895DF93CF9368
:10214000CDB7DEB7E1970FB6F894DEBF0FBECDBFB7
:1021500089AB81E060E041E00E94070981E061E035
:1021600040E00E94070983E069A90E94930B81E087
:1021700062E041E00E94070980E090E0A0E8BFE350
:102180008DA79EA7AFA7B8AB6DA57EA58FA598A973
:102190002BEA3AEA4AE250E40E941F02DC01CB013A
:1021A00089A79AA7ABA7BCA769A57AA58BA59CA56B
:1021B00020E030E040E85FE30E94250488231CF41F
:1021C00081E088A791C069A57AA58BA59CA520E090
:1021D00030E04FE753E40E94C50318160CF07BC0B3
:1021E0006DA57EA58FA598A920E030E04AE754E4CC
:1021F0000E941903DC01CB018CA39DA3AEA3BFA356
:102200006CA17DA18EA19FA120E030E04AEF54E4B3
:102210000E941F02DC01CB0188A399A3AAA3BBA340
:1022200068A179A18AA19BA120E030E040E85FE3AA
:102230000E94250488232CF481E090E09F8F8E8FEC
:102240003FC068A179A18AA19BA120E03FEF4FE7A1
:1022500057E40E94C50318164CF56CA17DA18EA110
:102260009FA120E030E040E251E40E941F02DC0127
:10227000CB01BC01CD010E944900DC01CB019F8F45
:102280008E8F0FC088EC90E09D8F8C8F8C8D9D8DF4
:102290000197F1F79D8F8C8F8E8D9F8D01979F8F6A
:1022A0008E8F8E8D9F8D009769F724C068A179A1CC
:1022B0008AA19BA10E944900DC01CB019F8F8E8FD8
:1022C0008E8D9F8D9B8F8A8F8A8D9B8D0197F1F7C5
:1022D0009B8F8A8F0FC069A57AA58BA59CA50E94AC
:1022E0004900DC01CB0188A788A5898F898D8A9553
:1022F000F1F7898F81E062E040E00E94070980E009
:1023000090E0A0E8BFE38D8B9E8BAF8BB88F6D897B
:102310007E898F89988D2BEA3AEA4AE250E40E943E
:102320001F02DC01CB01898B9A8BAB8BBC8B69893B
:102330007A898B899C8920E030E040E85FE30E9445
:10234000250488231CF481E0888B91C069897A89EF
:102350008B899C8920E030E04FE753E40E94C5035D
:1023600018160CF07BC06D897E898F89988D20E0CE
:1023700030E04AE754E40E941903DC01CB018C876A
:102380009D87AE87BF876C857D858E859F8520E084
:1023900030E04AEF54E40E941F02DC01CB01888741
:1023A0009987AA87BB87688579858A859B8520E080
:1023B00030E040E85FE30E94250488232CF481E0AC
:1023C00090E09F838E833FC0688579858A859B8551
:1023D00020E03FEF4FE757E40E94C50318164CF585
:1023E0006C857D858E859F8520E030E040E251E45C
:1023F0000E941F02DC01CB01BC01CD010E944900FB
:10240000DC01CB019F838E830FC088EC90E09D831D
:102410008C838C819D810197F1F79D838C838E81C4
:102420009F8101979F838E838E819F81009769F79B
:1024300024C0688579858A859B850E944900DC01D6
:10244000CB019F838E838E819F819B838A838A8128
:102450009B810197F1F79B838A830FC069897A89F1
:102460008B899C890E944900DC01CB01888B88897B
:10247000898389818A95F1F78983E1960FB6F8946B
:10248000DEBF0FBECDBFCF91DF910895DF93CF9315
:1024900000D0CDB7DEB79A8389830AC0E981FA817B
:1024A00080810E949E1089819A8101969A838983F6
:1024B000E981FA818081882389F70F900F90CF916D
:1024C000DF9108950F931F93DF93CF93CDB7DEB7BE
:1024D00065970FB6F894DEBF0FBECDBF6A8B7B8BBE
:1024E0008C8B9D8B8FEF8A838A899B89AC89BD8970
:1024F0000097A105B10599F580E30E949E104EC09A
:102500008A818F5F8A838A81082F112707FD1095A2
:102510008A899B89AC89BD892AE030E040E050E09F
:10252000BC01CD010E947517DC01CB01282FCE0123
:102530000396FC01E00FF11F20838A899B89AC89F7
:10254000BD892AE030E040E050E0BC01CD010E94AE
:102550007517DA01C9018A8B9B8BAC8BBD8B8A897D
:102560009B89AC89BD890097A105B10549F68A818F
:10257000898311C08981282F332727FD3095CE010B
:102580000396FC01E20FF31F8081805D0E949E1084
:102590008981815089838981882364F765960FB684
:1025A000F894DEBF0FBECDBFCF91DF911F910F9189
:1025B0000895DF93CF9300D000D00F92CDB7DEB750
:1025C0008A836B8381E089838B818832D8F48A8106
:1025D000282F30E03D832C838C819D8181309105B3
:1025E00031F02C813D812230310531F00AC08B81E0
:1025F00080580E94F60E06C08B8180540E94F60E11
:1026000001C0198289810F900F900F900F900F9049
:10261000CF91DF910895DF93CF93CDB7DEB72E979B
:102620000FB6F894DEBF0FBECDBF81E00E94F60E5C
:1026300080E090E0A0EAB1E48B879C87AD87BE87FD
:102640006B857C858D859E8520E030E04AEF54E4E3
:102650000E941F02DC01CB018F839887A987BA876C
:102660006F81788589859A8520E030E040E85FE3D6
:102670000E94250488232CF481E090E09E838D83C2
:102680003FC06F81788589859A8520E03FEF4FE7CD
:1026900057E40E94C50318164CF56B857C858D8523
:1026A0009E8520E030E040E251E40E941F02DC0100
:1026B000CB01BC01CD010E944900DC01CB019E830E
:1026C0008D830FC088EC90E09C838B838B819C81F1
:1026D0000197F1F79C838B838D819E8101979E8367
:1026E0008D838D819E81009769F714C06F817885F5
:1026F00089859A850E944900DC01CB019E838D83E8
:102700008D819E819A83898389819A810197F1F7CE
:102710009A8389832E960FB6F894DEBF0FBECDBF85
:10272000CF91DF910895DF93CF93CDB7DEB72A978E
:102730000FB6F894DEBF0FBECDBF8C837E836D8352
:102740004F83288781E08B8388E08A838C81282FC0
:1027500030E03A87298789859A858330910509F485
:102760008CC029853A85243031058CF489859A8579
:102770008130910509F443C029853A85223031051D
:102780000CF05CC089859A850097D1F011C129852C
:102790003A852530310509F4AEC089859A858530A2
:1027A00091050CF489C029853A852630310509F454
:1027B000C1C089859A858730910509F4DAC0F8C0CF
:1027C00080E40E94F60E19820EC08981282F30E025
:1027D0008D819E81FC01E20FF31F80810E949E107B
:1027E00089818F5F898399818A81981770F38F819E
:1027F00068850E94D9128C810E949E10DAC088E4FC
:102800000E94F60E19820EC08981282F30E08D813A
:102810009E81FC01E20FF31F80810E949E1089813E
:102820008F5F898399818A81981770F38F8168857A
:102830000E94D9128C810E949E10BBC080E50E942C
:10284000F60E19820EC08981282F30E08D819E817D
:10285000FC01E20FF31F80810E949E1089818F5F2F
:10286000898399818A81981770F38F8168850E9486
:10287000D9128C810E949E109CC088E50E94F60EA1
:1028800019820EC08981282F30E08D819E81FC0144
:10289000E20FF31F80810E949E1089818F5F8983E0
:1028A00099818A81981770F38F8168850E94D91267
:1028B0008C810E949E107DC080E60E94F60E1982D7
:1028C0000EC08981282F30E08D819E81FC01E20FAE
:1028D000F31F80810E949E1089818F5F8983998177
:1028E0008A81981770F38F8168850E94D9128C8134
:1028F0000E949E105EC088E60E94F60E19820EC0ED
:102900008981282F30E08D819E81FC01E20FF31F29
:1029100080810E949E1089818F5F898399818A813D
:10292000981770F38F8168850E94D9128C810E945C
:102930009E103FC080E70E94F60E19820EC089816A
:10294000282F30E08D819E81FC01E20FF31F8081F2
:102950000E949E1089818F5F898399818A8198174F
:1029600070F38F8168850E94D9128C810E949E101D
:1029700020C088E70E94F60E19820EC08981282F98
:1029800030E08D819E81FC01E20FF31F80810E9467
:102990009E1089818F5F898399818A81981770F34E
:1029A0008F8168850E94D9128C810E949E1001C07F
:1029B0001B828B812A960FB6F894DEBF0FBECDBF67
:1029C000CF91DF910895DF93CF93CDB7DEB7E19735
:1029D0000FB6F894DEBF0FBECDBF89AB81E060E0DB
:1029E00040E00E94070981E061E040E00E940709A1
:1029F00089A9982F9295907F83E0692F0E94930B6D
:102A000081E062E041E00E94070980E090E0A0E8F8
:102A1000BFE38DA79EA7AFA7B8AB6DA57EA58FA579
:102A200098A92BEA3AEA4AE250E40E941F02DC012C
:102A3000CB0189A79AA7ABA7BCA769A57AA58BA547
:102A40009CA520E030E040E85FE30E942504882355
:102A50001CF481E088A791C069A57AA58BA59CA5E7
:102A600020E030E04FE753E40E94C50318160CF055
:102A70007BC06DA57EA58FA598A920E030E04AE730
:102A800054E40E941903DC01CB018CA39DA3AEA3E7
:102A9000BFA36CA17DA18EA19FA120E030E04AEFF1
:102AA00054E40E941F02DC01CB0188A399A3AAA3CE
:102AB000BBA368A179A18AA19BA120E030E040E8F6
:102AC0005FE30E94250488232CF481E090E09F8F2F
:102AD0008E8F3FC068A179A18AA19BA120E03FEF22
:102AE0004FE757E40E94C50318164CF56CA17DA171
:102AF0008EA19FA120E030E040E251E40E941F023D
:102B0000DC01CB01BC01CD010E944900DC01CB01FD
:102B10009F8F8E8F0FC088EC90E09D8F8C8F8C8D57
:102B20009D8D0197F1F79D8F8C8F8E8D9F8D0197D5
:102B30009F8F8E8F8E8D9F8D009769F724C068A11F
:102B400079A18AA19BA10E944900DC01CB019F8F42
:102B50008E8F8E8D9F8D9B8F8A8F8A8D9B8D0197F7
:102B6000F1F79B8F8A8F0FC069A57AA58BA59CA5CD
:102B70000E944900DC01CB0188A788A5898F898D37
:102B80008A95F1F7898F81E062E040E00E940709B1
:102B900080E090E0A0E8BFE38D8B9E8BAF8BB88F79
:102BA0006D897E898F89988D2BEA3AEA4AE250E452
:102BB0000E941F02DC01CB01898B9A8BAB8BBC8BF3
:102BC00069897A898B899C8920E030E040E85FE35D
:102BD0000E94250488231CF481E0888B91C06989B8
:102BE0007A898B899C8920E030E04FE753E40E948A
:102BF000C50318160CF07BC06D897E898F89988D6E
:102C000020E030E04AE754E40E941903DC01CB01E4
:102C10008C879D87AE87BF876C857D858E859F85D8
:102C200020E030E04AEF54E40E941F02DC01CB01B7
:102C300088879987AA87BB87688579858A859B85D8
:102C400020E030E040E85FE30E94250488232CF474
:102C500081E090E09F838E833FC0688579858A8577
:102C60009B8520E03FEF4FE757E40E94C50318160D
:102C70004CF56C857D858E859F8520E030E040E2B7
:102C800051E40E941F02DC01CB01BC01CD010E9476
:102C90004900DC01CB019F838E830FC088EC90E05C
:102CA0009D838C838C819D810197F1F79D838C831B
:102CB0008E819F8101979F838E838E819F81009754
:102CC00069F724C0688579858A859B850E944900BB
:102CD000DC01CB019F838E838E819F819B838A83BE
:102CE0008A819B810197F1F79B838A830FC0698951
:102CF0007A898B899C890E944900DC01CB01888BF1
:102D00008889898389818A95F1F78983E1960FB64D
:102D1000F894DEBF0FBECDBFCF91DF910895DF9352
:102D2000CF93CDB7DEB7A0970FB6F894DEBF0FBE36
:102D3000CDBF0E94BB070E94330C0E944F068FEF4D
:102D40009FEF9A838983AE01495F5F4F588F4F8B06
:102D50008FE990E09A8F898F98E09B8FE98DFA8DAB
:102D60000080498D5A8D4F5F5F4F5A8F498FEF8991
:102D7000F88D00824F89588D4F5F5F4F588F4F8B72
:102D80005B8D51505B8F8B8D882341F7FE013F9601
:102D9000FD8FEC8F47E950E05F8F4E8F58E058A3CE
:102DA000EE8DFF8D00804E8D5F8D4F5F5F4F5F8F8B
:102DB0004E8FEC8DFD8D00824C8D5D8D4F5F5F4F92
:102DC0005D8F4C8F58A1515058A388A1882341F79B
:102DD0009E012B5F3F4F80E0B9010E948E068D81DE
:102DE0009E81CC01A0E0B0E028E833E140E050E073
:102DF000BC01CD010E945617DC01CB01072E7AE001
:102E0000B695A795979587957A95D1F7702D9C8360
:102E10008B832B813C8189819A81F901E81BF90B15
:102E2000CF011816190654F02B813C8189819A81B3
:102E3000A901481B590BCA01992354F60E940B1390
:102E40008B819C8159E0853C9507B0F080E690E04D
:102E50000E9446129E01295F3F4F80E0B90141E088
:102E60002DE00E94931382E060E00E94D9128DE66B
:102E700090E00E94461215C087E790E00E9446123B
:102E80009E01215F3F4F81E0B90141E02DE00E94AA
:102E9000931382E060E00E94D91284E890E00E94DF
:102EA00046128B819C819A83898392CF629FD00145
:102EB000739FF001829FE00DF11D649FE00DF11DF5
:102EC000929FF00D839FF00D749FF00D659FF00DA4
:102ED0009927729FB00DE11DF91F639FB00DE11D91
:102EE000F91FBD01CF0111240895A1E21A2EAA1BDA
:102EF000BB1BFD010DC0AA1FBB1FEE1FFF1FA217AA
:102F0000B307E407F50720F0A21BB30BE40BF50BA6
:102F1000661F771F881F991F1A9469F7609570952F
:102F2000809590959B01AC01BD01CF0108952F9232
:102F30003F924F925F926F927F928F929F92AF9249
:102F4000BF92CF92DF92EF92FF920F931F93CF9396
:102F5000DF93CDB7DEB7CA1BDB0B0FB6F894DEBF2D
:102F60000FBECDBF09942A88398848885F846E8453
:102F70007D848C849B84AA84B984C884DF80EE809D
:102F8000FD800C811B81AA81B981CE0FD11D0FB6A6
:102F9000F894DEBF0FBECDBFED010895F894FFCFCA
:102FA000476F6F64204D6F726E696E67004C696782
:102FB0006874204F4E2100476F6F64204576656E20
:102FC000696E67004C69676874204F4646210000AF
:102FD00000000000000000000000120D12000004BC
:082FE0000A110A04040A1100A1
:00000001FF
