:100000000C942A000C9447000C9447000C94470071
:100010000C9447000C9447000C9447000C94BB1EB2
:100020000C9447000C9447000C9447000C94470034
:100030000C9447000C9447000C9447000C94470024
:100040000C9447000C9447000C9447000C94470014
:100050000C94470011241FBECFE5D8E0DEBFCDBF12
:1000600010E0A0E6B0E0E8ECFAE602C005900D92E0
:10007000A638B107D9F714E0A6E8B0E001C01D9298
:10008000A73EB107E1F70E941B1A0C9462350C944D
:100090000000EF92FF920F931F937B018C0120E0F1
:1000A00030E040E05FE40E94F50388238CF0C80153
:1000B000B70120E030E040E05FE40E94C1010E940F
:1000C00055049B01AC01205030404040504806C0D0
:1000D000C801B7010E9455049B01AC01B901CA01D6
:1000E0001F910F91FF90EF900895A0E0B0E0EBE733
:1000F000F0E00C942235DC012B01FA019C91923046
:1001000008F439C1EB018881823008F433C194309E
:1001100069F4843009F02FC111969C91119789815F
:10012000981709F428C1ADE7B0E025C1843009F47F
:1001300021C18230A9F4923009F01DC19A01AD01AC
:1001400088E0EA010990AE01E90109929E0181501F
:10015000C1F7E201898111969C918923818308C1AD
:10016000923009F407C112962D903C901397EB0141
:100170008A819B811496AD90BD90CD90DC901797AD
:10018000EC80FD800E811F819101281B390BB90184
:1001900037FF04C066277727621B730B6032710537
:1001A0000CF061C0121613066CF537014801062EDB
:1001B00004C096948794779467940A94D2F721E0C8
:1001C00030E040E050E004C0220F331F441F551FB1
:1001D0006A95D2F721503040404050402E213F21B7
:1001E00040235123211531054105510521F021E01E
:1001F00030E040E050E079018A01E628F72808293C
:1002000019293CC0232BD1F1260E371E350146019A
:10021000062E04C096948794779467940A94D2F734
:1002200021E030E040E050E004C0220F331F441FC3
:10023000551F6A95D2F721503040404050402A2146
:100240003B214C215D21211531054105510521F04E
:1002500021E030E040E050E059016A01A628B728CB
:10026000C828D9280BC0821593052CF01C01AA249C
:10027000BB24650103C0EE24FF24870111969C91E5
:10028000D20111968C91981709F445C0992339F041
:10029000A80197012A193B094C095D0906C0A6016E
:1002A00095012E193F09400B510B57FD08C01182D3
:1002B0003382228224833583468357831DC081E0A5
:1002C00081833382228288279927DC01821B930B4A
:1002D000A40BB50B84839583A683B7830DC0220F2F
:1002E000331F441F551F24833583468357838281E0
:1002F000938101979383828324813581468157813D
:10030000DA01C9010197A109B1098F5F9F4FAF4F72
:10031000BF4328F30BC0918333822282EA0CFB1C7B
:100320000C1D1D1DE482F5820683178383E0808304
:10033000248135814681578157FF1AC0C901AA27F8
:1003400097FDA095BA2F81709070A070B0705695EF
:10035000479537952795822B932BA42BB52B848318
:100360009583A683B7838281938101969383828349
:10037000DF0101C0D201CD01CDB7DEB7E2E10C94BF
:100380003E35A0E2B0E0E7ECF1E00C942E35698355
:100390007A838B839C832D833E834F835887E9E048
:1003A000EE2EF12CEC0EFD1ECE010196B7010E943F
:1003B0007E058E010F5E1F4FCE010596B8010E948B
:1003C0007E058A8991E089278A8BC701B801AE0131
:1003D000475E5F4F0E9475000E94A904A096E6E068
:1003E0000C944A35A0E2B0E0E8EFF1E00C942E3531
:1003F00069837A838B839C832D833E834F835887C5
:10040000F9E0EF2EF12CEC0EFD1ECE010196B701A6
:100410000E947E058E010F5E1F4FCE010596B8012A
:100420000E947E05C701B801AE01475E5F4F0E9482
:1004300075000E94A904A096E6E00C944A35A0E25B
:10044000B0E0E5E2F2E00C94223569837A838B8395
:100450009C832D833E834F835887CE010196BE0136
:10046000675F7F4F0E947E05CE010596BE016F5EDD
:100470007F4F0E947E059985923088F0898982306D
:10048000C8F0943019F4823051F404C0843029F457
:10049000923081F48DE790E0C6C0923049F420E0BC
:1004A0009A858A89981321E02A87CE010996BBC0D4
:1004B000823049F420E09A858A89981321E02A8BBA
:1004C000CE014196B0C02D843E844F8458886D88FB
:1004D0007E888F88988CEE24FF248701AA24BB2471
:1004E000650140E050E060E070E0E0E0F0E0C10174
:1004F00081709070892BE9F0E60CF71C081D191D1E
:100500009A01AB012A0D3B1D4C1D5D1D80E090E062
:10051000A0E0B0E0E614F7040805190520F481E036
:1005200090E0A0E0B0E0BA01A901480F591F6A1F8E
:100530007B1FAA0CBB1CCC1CDD1C97FE08C081E0F5
:1005400090E0A0E0B0E0A82AB92ACA2ADB2A3196B6
:10055000E032F10549F0660C771C881C991C569412
:10056000479437942794C3CFFA85EA892B893C892D
:100570008B859C85280F391F2E5F3F4F17C0CA01FE
:1005800081709070892B61F016950795F794E79428
:1005900080E090E0A0E0B0E8E82AF92A0A2B1B2BC3
:1005A00076956795579547952F5F3F4F77FDE7CF36
:1005B0000CC0440F551F661F771F17FD4160EE0CDE
:1005C000FF1C001F111F21503040403090E05907A0
:1005D00090E0690790E4790760F32B8F3C8FDB0193
:1005E000CA018F779070A070B07080349105A1051A
:1005F000B10561F447FD0AC0E114F10401051105DC
:1006000029F0405C5F4F6F4F7F4F40781A8EFE1786
:1006100011F081E08A8F4D8F5E8F6F8F78A383E01A
:10062000898FCE0149960E94A904A096E2E10C941C
:100630003E35A8E1B0E0EFE1F3E00C942A356983A0
:100640007A838B839C832D833E834F835887B9E0C5
:10065000EB2EF12CEC0EFD1ECE010196B7010E948F
:100660007E058E010F5E1F4FCE010596B8010E94D8
:100670007E052985223008F47EC03989323010F495
:10068000B8017CC08A859A8989278A87243011F02D
:10069000223031F4231709F06EC06DE770E06EC0B0
:1006A000343039F41D861E861F86188A1C861B86E8
:1006B00004C0323021F484E08987B7015FC02B8504
:1006C0003C858B899C89281B390B3C872B87ED84C3
:1006D000FE840F851889AD88BE88CF88D88CEA142F
:1006E000FB040C051D0540F4EE0CFF1C001F111F40
:1006F000215030403C872B8720E030E040E050E044
:1007000080E090E0A0E0B0E460E070E0EA14FB0478
:100710000C051D0540F0282B392B4A2B5B2BEA18C2
:10072000FB080C091D09B695A79597958795EE0CC2
:10073000FF1C001F111F6F5F7F4F6F31710531F775
:10074000DA01C9018F779070A070B0708034910584
:10075000A105B10561F427FD0AC0E114F10401050A
:10076000110529F0205C3F4F4F4F5F4F20782D87B8
:100770003E874F87588BBE01675F7F4FCB010E943A
:10078000A9046896EAE00C944635A8E1B0E0EBECE9
:10079000F3E00C942E3569837A838B839C832D83BD
:1007A0003E834F83588789E0E82EF12CEC0EFD1E26
:1007B000CE010196B7010E947E058E010F5E1F4F8C
:1007C000CE010596B8010E947E058985823040F0F1
:1007D0008989823028F0C701B8010E94F60501C05E
:1007E0008FEF6896E6E00C944A35A8E1B0E0EBEFB5
:1007F000F3E00C942E3569837A838B839C832D835D
:100800003E834F83588789E0E82EF12CEC0EFD1EC5
:10081000CE010196B7010E947E058E010F5E1F4F2B
:10082000CE010596B8010E947E058985823040F090
:100830008989823028F0C701B8010E94F60501C0FD
:100840008FEF6896E6E00C944A35A8E1B0E0EBE261
:10085000F4E00C942E3569837A838B839C832D83FB
:100860003E834F83588789E0E82EF12CEC0EFD1E65
:10087000CE010196B7010E947E058E010F5E1F4FCB
:10088000CE010596B8010E947E058985823040F030
:100890008989823028F0C701B8010E94F60501C09D
:1008A00081E06896E6E00C944A35ACE0B0E0EBE518
:1008B000F4E00C94323569837A838B839C83CE0178
:1008C0000196BE016B5F7F4F0E947E058D81823055
:1008D00061F1823050F1843021F48E81882351F10E
:1008E0002EC02F81388537FD20C06E812F31310514
:1008F0001CF06623F9F023C08EE190E0821B930B7D
:1009000029853A854B855C8504C056954795379572
:1009100027958A95D2F76623B1F05095409530958A
:1009200021953F4F4F4F5F4F0EC020E030E040E039
:1009300050E009C02FEF3FEF4FEF5FE704C020E02A
:1009400030E040E050E8B901CA012C96E2E00C9496
:100950004E35DF92EF92FF920F931F93FC01E480DC
:10096000F58006811781D1808081823048F480E053
:1009700090E0A0E1B0E0E82AF92A0A2B1B2BA5C0E1
:10098000843009F49FC0823021F4EE24FF248701D3
:1009900005C0E114F1040105110519F4E0E0F0E0EF
:1009A00096C0628173819FEF623879070CF05BC05B
:1009B00022E83FEF261B370B2A3131052CF020E0CF
:1009C00030E040E050E02AC0B801A701022E04C088
:1009D00076956795579547950A94D2F781E090E010
:1009E000A0E0B0E004C0880F991FAA1FBB1F2A9582
:1009F000D2F70197A109B1098E219F21A023B1232C
:100A00000097A105B10521F081E090E0A0E0B0E001
:100A10009A01AB01282B392B4A2B5B2BDA01C90138
:100A20008F779070A070B07080349105A105B105EA
:100A300039F427FF09C0205C3F4F4F4F5F4F04C080
:100A4000215C3F4F4F4F5F4FE0E0F0E02030A0E0EF
:100A50003A07A0E04A07A0E45A0710F0E1E0F0E00E
:100A600079018A0127C06038710564F5FB01E158FE
:100A7000FF4FD801C7018F779070A070B07080349D
:100A80009105A105B10539F4E7FE0DC080E490E0C1
:100A9000A0E0B0E004C08FE390E0A0E0B0E0E80E9A
:100AA000F91E0A1F1B1F17FF05C016950795F7941F
:100AB000E794319687E016950795F794E7948A9521
:100AC000D1F705C0EE24FF248701EFEFF0E06E2F91
:100AD000679566276795902F9F77D794DD24D794E5
:100AE0008E2F8695492F462B582F5D29B701CA01B5
:100AF0001F910F91FF90EF90DF900895FC01DB01B3
:100B0000408151812281622F6F7770E0221F22275E
:100B1000221F9381892F880F822B282F30E0991F65
:100B20009927991F11969C93119721153105A9F5C5
:100B3000411551056105710511F482E037C082E865
:100B40009FEF13969C938E9312979A01AB0167E0E7
:100B5000220F331F441F551F6A95D1F783E08C93F2
:100B60000DC0220F331F441F551F12968D919C916B
:100B70001397019713969C938E931297203080E0E1
:100B8000380780E0480780E4580758F314962D93FF
:100B90003D934D935C93179708952F3F310579F45A
:100BA000411551056105710519F484E08C93089590
:100BB00064FF03C081E08C9312C01C9210C02F57B9
:100BC000304013963C932E93129783E08C9387E0EA
:100BD000440F551F661F771F8A95D1F770641496CE
:100BE0004D935D936D937C93179708951F93DC014C
:100BF000FB019C91923008F447C08081823008F458
:100C000043C0943051F411961C91843099F5818140
:100C1000682F70E0611B71093FC0843021F0923071
:100C200031F48230B9F18181882389F12DC0119688
:100C30001C9111978230F1F081811817D9F4129626
:100C40002D913C911397828193818217930794F0A1
:100C500028173907BCF014968D919D910D90BC9189
:100C6000A02D2481358146815781281739074A07ED
:100C70005B0718F4112341F00AC082179307A407F9
:100C8000B50740F4112319F061E070E005C06FEF83
:100C90007FEF02C060E070E0CB011F910895DF9309
:100CA000CF93CDB7DEB7EAE3F0E087E08083E7E3F8
:100CB000F0E01082E4E3F0E08FEF8083E1E3F0E026
:100CC0001082EBE3F0E01082E8E3F0E081E0808363
:100CD000E5E3F0E01082E2E3F0E01082CF91DF91F3
:100CE0000895DF93CF93CDB7DEB72E970FB6F89464
:100CF000DEBF0FBECDBF8A836B834C8381E08983C7
:100D00008A81843008F00DC18B81883008F009C1D8
:100D10008C81882321F08C81813009F002C18A8185
:100D2000282F30E03E872D878D859E858130910567
:100D300009F44FC02D853E85223031052CF48D8578
:100D40009E85009771F0EEC02D853E8522303105DD
:100D500009F477C08D859E858330910509F4A9C07B
:100D6000E1C08B81282F30E03C872B878B859C85C9
:100D7000009731F02B853C8521303105B1F0D2C090
:100D8000AAE3B0E0EAE3F0E08081482F8B81282FCE
:100D900030E081E090E0022E02C0880F991F0A9493
:100DA000E2F7809584238C93BDC0AAE3B0E0EAE328
:100DB000F0E08081482F8B81282F30E081E090E0A7
:100DC000022E02C0880F991F0A94E2F7842B8C939D
:100DD000A9C08B81282F30E03A87298789859A8599
:100DE000009731F029853A8521303105B1F09AC05C
:100DF000A7E3B0E0E7E3F0E08081482F8B81282F64
:100E000030E081E090E0022E02C0880F991F0A9422
:100E1000E2F7809584238C9385C0A7E3B0E0E7E3F5
:100E2000F0E08081482F8B81282F30E081E090E036
:100E3000022E02C0880F991F0A94E2F7842B8C932C
:100E400071C08B81282F30E038872F838F81988560
:100E5000009731F02F81388521303105B1F062C023
:100E6000A4E3B0E0E4E3F0E08081482F8B81282FF9
:100E700030E081E090E0022E02C0880F991F0A94B2
:100E8000E2F7809584238C934DC0A4E3B0E0E4E3C3
:100E9000F0E08081482F8B81282F30E081E090E0C6
:100EA000022E02C0880F991F0A94E2F7842B8C93BC
:100EB00039C08B81282F30E03E832D838D819E8128
:100EC000009731F02D813E8121303105B1F02AC0EB
:100ED000A1E3B0E0E1E3F0E08081482F8B81282F8F
:100EE00030E081E090E0022E02C0880F991F0A9442
:100EF000E2F7809584238C9315C0A1E3B0E0E1E391
:100F0000F0E08081482F8B81282F30E081E090E055
:100F1000022E02C0880F991F0A94E2F7842B8C934B
:100F200001C0198289812E960FB6F894DEBF0FBEDC
:100F3000CDBFCF91DF910895DF93CF93CDB7DEB7CB
:100F40002E970FB6F894DEBF0FBECDBF8A836B839A
:100F50004C8381E089838B81883008F00CC18A81C1
:100F6000282F30E03E872D878D859E858130910525
:100F700009F451C02D853E85223031052CF48D8534
:100F80009E85009771F0F5C02D853E852230310594
:100F900009F47BC08D859E858330910509F4AFC02F
:100FA000E8C08C81282F30E03C872B878B859C857F
:100FB000009731F02B853C8521303105B1F029C0F7
:100FC000ABE3B0E0EBE3F0E08081482F8B81282F8A
:100FD00030E081E090E0022E02C0880F991F0A9451
:100FE000E2F7809584238C93C7C0ABE3B0E0EBE3DA
:100FF000F0E08081482F8B81282F30E081E090E065
:10100000022E02C0880F991F0A94E2F7842B8C935A
:10101000B3C01982B1C08C81282F30E03A8729876C
:1010200089859A85009731F029853A8521303105E7
:10103000B1F029C0A8E3B0E0E8E3F0E08081482FF8
:101040008B81282F30E081E090E0022E02C0880FD3
:10105000991F0A94E2F7809584238C938DC0A8E3AE
:10106000B0E0E8E3F0E08081482F8B81282F30E06A
:1010700081E090E0022E02C0880F991F0A94E2F7E7
:10108000842B8C9379C0198277C08C81282F30E013
:1010900038872F838F819885009731F02F8138858D
:1010A00021303105B1F029C0A5E3B0E0E5E3F0E07F
:1010B0008081482F8B81282F30E081E090E0022E44
:1010C00002C0880F991F0A94E2F7809584238C93BD
:1010D00053C0A5E3B0E0E5E3F0E08081482F8B81C9
:1010E000282F30E081E090E0022E02C0880F991F87
:1010F0000A94E2F7842B8C933FC019823DC08C8107
:10110000282F30E03E832D838D819E81009731F022
:101110002D813E8121303105B1F029C0A2E3B0E03C
:10112000E2E3F0E08081482F8B81282F30E081E0DE
:1011300090E0022E02C0880F991F0A94E2F7809572
:1011400084238C9319C0A2E3B0E0E2E3F0E0808155
:10115000482F8B81282F30E081E090E0022E02C0E2
:10116000880F991F0A94E2F7842B8C9305C019828B
:1011700003C0198201C0198289812E960FB6F89496
:10118000DEBF0FBECDBFCF91DF910895DF93CF9328
:10119000CDB7DEB728970FB6F894DEBF0FBECDBF30
:1011A0008B836C835E834D8381E08A838B81843063
:1011B00008F0A1C08C81883008F09DC08D819E818F
:1011C000009709F498C08B81282F30E038872F834F
:1011D0004F81588541305105A9F18F819885823022
:1011E000910534F42F8138852115310571F081C0C6
:1011F0004F8158854230510509F441C08F8198854F
:101200008330910509F458C074C0E9E3F0E08081AF
:10121000282F30E08C81882F90E0A90102C05595DD
:1012200047958A95E2F7CA0181708983898188236D
:1012300021F4ED81FE8110825FC0ED81FE8181E0AD
:1012400080835AC0E6E3F0E08081282F30E08C8173
:10125000882F90E0A90102C0559547958A95E2F73D
:10126000CA01817089838981882321F4ED81FE81FF
:10127000108242C0ED81FE8181E080833DC0E3E3C6
:10128000F0E08081282F30E08C81882F90E0A90148
:1012900002C0559547958A95E2F7CA018170898306
:1012A0008981882321F4ED81FE81108225C0ED81A2
:1012B000FE8181E0808320C0E0E3F0E08081282F80
:1012C00030E08C81882F90E0A90102C055954795A8
:1012D0008A95E2F7CA01817089838981882321F484
:1012E000ED81FE81108208C0ED81FE8181E0808366
:1012F00003C01A8201C01A828A8128960FB6F89418
:10130000DEBF0FBECDBFCF91DF910895DF93CF93A6
:10131000CDB7DEB72D970FB6F894DEBF0FBECDBFA9
:101320008A836B8381E089838B81882321F08B8181
:10133000813009F082C08A81282F30E03D872C87D8
:101340008C859D858130910571F12C853D852230FC
:1013500031052CF48C859D85009769F06CC02C8537
:101360003D8522303105B9F18C859D85833091050D
:1013700009F449C060C08B81282F30E03B872A8761
:101380008A859B85009731F02A853B852130310580
:1013900029F054C0EAE3F0E0108250C0EAE3F0E044
:1013A0008FEF80834BC08B81282F30E039872887CF
:1013B00088859985009731F0288539852130310558
:1013C00029F03CC0E7E3F0E0108238C0E7E3F0E04A
:1013D0008FEF808333C08B81282F30E03F832E83B3
:1013E0008E819F81009731F02E813F812130310520
:1013F00029F024C0E4E3F0E0108220C0E4E3F0E050
:101400008FEF80831BC08B81282F30E03D832C839E
:101410008C819D81009731F02C813D8121303105F7
:1014200029F00CC0E1E3F0E0108208C0E1E3F0E055
:101430008FEF808303C0198201C0198289812D96A4
:101440000FB6F894DEBF0FBECDBFCF91DF910895E8
:10145000DF93CF9300D000D00F92CDB7DEB78A8351
:101460006B8381E089838A81282F30E03D832C8340
:101470008C819D8181309105D1F02C813D8122307C
:1014800031052CF48C819D81009761F01FC02C8167
:101490003D812230310581F08C819D818330910521
:1014A00081F014C0EBE3F0E08B81808310C0E8E3AF
:1014B000F0E08B8180830BC0E5E3F0E08B818083DB
:1014C00006C0E2E3F0E08B81808301C0198289814C
:1014D0000F900F900F900F900F90CF91DF91089584
:1014E000DF93CF9300D000D000D0CDB7DEB78A8392
:1014F0007C836B8381E089838B819C810097E9F1F8
:101500008A81282F30E03E832D838D819E8181301A
:101510009105E1F02D813E81223031052CF48D8141
:101520009E81009761F027C02D813E8122303105D8
:10153000A1F08D819E8183309105B1F01CC0E9E35B
:10154000F0E08081EB81FC81808318C0E6E3F0E06D
:101550008081EB81FC81808311C0E3E3F0E0808136
:10156000EB81FC8180830AC0E0E3F0E08081EB81C5
:10157000FC81808303C0198201C01982898126966B
:101580000FB6F894DEBF0FBECDBFCF91DF910895A7
:101590000F931F93DF93CF93CDB7DEB7CC54D040DA
:1015A0000FB6F894DEBF0FBECDBFFE01E75BFF4F65
:1015B00080E090E0ACE0B2E480839183A283B383C7
:1015C0008E010B5B1F4FFE01E75BFF4F6081718156
:1015D0008281938120E030E04AEF54E40E941F02B0
:1015E000DC01CB01F80180839183A283B383FE01E8
:1015F000EB5BFF4F608171818281938120E030E05D
:1016000040E85FE30E942504882344F4FE01ED5B7B
:10161000FF4F81E090E09183808364C0FE01EB5B2B
:10162000FF4F608171818281938120E03FEF4FE71E
:1016300057E40E94C50318160CF043C0FE01E75B97
:10164000FF4F608171818281938120E030E040E230
:1016500051E40E941F02DC01CB018E010D5B1F4F84
:10166000BC01CD010E944900DC01CB01F80191834E
:1016700080831FC0FE01EF5BFF4F88EC90E09183F9
:101680008083FE01EF5BFF4F808191810197F1F72D
:10169000FE01EF5BFF4F91838083DE01AD5BBF4FA7
:1016A000FE01ED5BFF4F80819181019711969C9324
:1016B0008E93FE01ED5BFF4F808191810097D1F603
:1016C00024C08E010D5B1F4FFE01EB5BFF4F60815D
:1016D0007181828193810E944900DC01CB01F80174
:1016E00091838083FE01ED5BFF4F80819181FE013C
:1016F000FF9691838083FE01FF96808191810197FF
:10170000F1F7FE01FF969183808388E30E948B0DA1
:1017100080E090E0A0E2B2E48BAF9CAFADAFBEAF93
:101720006BAD7CAD8DAD9EAD2BEA3AEA4AE250E45A
:101730000E941F02DC01CB018FAB98AFA9AFBAAFFB
:101740006FA978AD89AD9AAD20E030E040E85FE365
:101750000E94250488231CF481E08EAB91C06FA900
:1017600078AD89AD9AAD20E030E04FE753E40E94B8
:10177000C50318160CF07BC06BAD7CAD8DAD9EAD76
:1017800020E030E04AE754E40E941903DC01CB0179
:101790008AAB9BABACABBDAB6AA97BA98CA99DA95D
:1017A00020E030E04AEF54E40E941F02DC01CB014C
:1017B0008EA79FA7A8ABB9AB6EA57FA588A999A94D
:1017C00020E030E040E85FE30E94250488232CF409
:1017D00081E090E09DA78CA73FC06EA57FA588A95A
:1017E00099A920E03FEF4FE757E40E94C503181680
:1017F0004CF56AA97BA98CA99DA920E030E040E2C4
:1018000051E40E941F02DC01CB01BC01CD010E940A
:101810004900DC01CB019DA78CA70FC088EC90E0AC
:101820009BA78AA78AA59BA50197F1F79BA78AA7E3
:101830008CA59DA501979DA78CA78CA59DA500971C
:1018400069F724C06EA57FA588A999A90E944900BF
:10185000DC01CB019DA78CA78CA59DA599A788A786
:1018600088A599A50197F1F799A788A70FC06FA937
:1018700078AD89AD9AAD0E944900DC01CB018EABF9
:101880008EA98FA38FA18A95F1F78FA38FE00E9475
:101890008B0D80E090E0A0E2B2E48BA39CA3ADA30B
:1018A000BEA36BA17CA18DA19EA12BEA3AEA4AE2DC
:1018B00050E40E941F02DC01CB018F8F98A3A9A3E3
:1018C000BAA36F8D78A189A19AA120E030E040E809
:1018D0005FE30E94250488231CF481E08E8F91C071
:1018E0006F8D78A189A19AA120E030E04FE753E401
:1018F0000E94C50318160CF07BC06BA17CA18DA1C2
:101900009EA120E030E04AE754E40E941903DC0184
:10191000CB018A8F9B8FAC8FBD8F6A8D7B8D8C8D19
:101920009D8D20E030E04AEF54E40E941F02DC016C
:10193000CB018E8B9F8BA88FB98F6E897F89888D05
:10194000998D20E030E040E85FE30E942504882381
:101950002CF481E090E09D8B8C8B3FC06E897F8959
:10196000888D998D20E03FEF4FE757E40E94C50333
:1019700018164CF56A8D7B8D8C8D9D8D20E030E0A6
:1019800040E251E40E941F02DC01CB01BC01CD0109
:101990000E944900DC01CB019D8B8C8B0FC088EC31
:1019A00090E09B8B8A8B8A899B890197F1F79B8BAF
:1019B0008A8B8C899D8901979D8B8C8B8C899D89C5
:1019C000009769F724C06E897F89888D998D0E9460
:1019D0004900DC01CB019D8B8C8B8C899D89998B77
:1019E000888B888999890197F1F7998B888B0FC02B
:1019F0006F8D78A189A19AA10E944900DC01CB01D9
:101A00008E8F8E8D8F878F858A95F1F78F8781E0F6
:101A10000E948B0D80E090E0A0E0B0E48B879C8773
:101A2000AD87BE876B857C858D859E8520E030E007
:101A30004AEF54E40E941F02DC01CB018F83988798
:101A4000A987BA876F81788589859A8520E030E0FB
:101A500040E85FE30E94250488232CF481E090E0B5
:101A60009E838D833FC06F81788589859A8520E02C
:101A70003FEF4FE757E40E94C50318164CF56B85FE
:101A80007C858D859E8520E030E040E251E40E9417
:101A90001F02DC01CB01BC01CD010E944900DC0129
:101AA000CB019E838D830FC088EC90E09C838B8359
:101AB0008B819C810197F1F79C838B838D819E8123
:101AC00001979E838D838D819E81009769F714C055
:101AD0006F81788589859A850E944900DC01CB0158
:101AE0009E838D838D819E819A83898389819A814A
:101AF0000197F1F79A83898386E00E948B0DC45B7E
:101B0000DF4F0FB6F894DEBF0FBECDBFCF91DF9190
:101B10001F910F910895DF93CF93CDB7DEB7E19773
:101B20000FB6F894DEBF0FBECDBF89AB80E060E09A
:101B300040E00E949C0780E061E040E00E949C073A
:101B400082E069A90E94280A80E062E041E00E94E8
:101B50009C0780E090E0A0E8BFE38DA79EA7AFA719
:101B6000B8AB6DA57EA58FA598A92BEA3AEA4AE203
:101B700050E40E941F02DC01CB0189A79AA7ABA702
:101B8000BCA769A57AA58BA59CA520E030E040E81C
:101B90005FE30E94250488231CF481E088A791C09C
:101BA00069A57AA58BA59CA520E030E04FE753E41A
:101BB0000E94C50318160CF07BC06DA57EA58FA5ED
:101BC00098A920E030E04AE754E40E941903DC01C0
:101BD000CB018CA39DA3AEA3BFA36CA17DA18EA1BD
:101BE0009FA120E030E04AEF54E40E941F02DC0194
:101BF000CB0188A399A3AAA3BBA368A179A18AA1B9
:101C00009BA120E030E040E85FE30E9425048823A8
:101C10002CF481E090E09F8F8E8F3FC068A179A166
:101C20008AA19BA120E03FEF4FE757E40E94C50344
:101C300018164CF56CA17DA18EA19FA120E030E08B
:101C400040E251E40E941F02DC01CB01BC01CD0146
:101C50000E944900DC01CB019F8F8E8F0FC088EC62
:101C600090E09D8F8C8F8C8D9D8D0197F1F79D8FCE
:101C70008C8F8E8D9F8D01979F8F8E8F8E8D9F8DD8
:101C8000009769F724C068A179A18AA19BA10E944D
:101C90004900DC01CB019F8F8E8F8E8D9F8D9B8F96
:101CA0008A8F8A8D9B8D0197F1F79B8F8A8F0FC04A
:101CB00069A57AA58BA59CA50E944900DC01CB01F2
:101CC00088A788A5898F898D8A95F1F7898F80E00B
:101CD00062E040E00E949C0780E090E0A0E8BFE363
:101CE0008D8B9E8BAF8BB88F6D897E898F89988DF8
:101CF0002BEA3AEA4AE250E40E941F02DC01CB01DF
:101D0000898B9A8BAB8BBC8B69897A898B899C89EF
:101D100020E030E040E85FE30E94250488231CF4C3
:101D200081E0888B91C069897A898B899C8920E0C0
:101D300030E04FE753E40E94C50318160CF07BC057
:101D40006D897E898F89988D20E030E04AE754E4E0
:101D50000E941903DC01CB018C879D87AE87BF876A
:101D60006C857D858E859F8520E030E04AEF54E4C8
:101D70000E941F02DC01CB0188879987AA87BB8755
:101D8000688579858A859B8520E030E040E85FE3BF
:101D90000E94250488232CF481E090E09F838E83A9
:101DA0003FC0688579858A859B8520E03FEF4FE7B6
:101DB00057E40E94C50318164CF56C857D858E8509
:101DC0009F8520E030E040E251E40E941F02DC01E8
:101DD000CB01BC01CD010E944900DC01CB019F83F6
:101DE0008E830FC088EC90E09D838C838C819D81D5
:101DF0000197F1F79D838C838E819F8101979F834B
:101E00008E838E819F81009769F724C068857985CC
:101E10008A859B850E944900DC01CB019F838E83CC
:101E20008E819F819B838A838A819B810197F1F7B1
:101E30009B838A830FC069897A898B899C890E94D8
:101E40004900DC01CB01888B8889898389818A9547
:101E5000F1F78983E1960FB6F894DEBF0FBECDBFD0
:101E6000CF91DF910895DF93CF93CDB7DEB7E197A0
:101E70000FB6F894DEBF0FBECDBF89AB80E060E047
:101E800041E00E949C0780E061E040E00E949C07E6
:101E900082E069A90E94280A80E062E041E00E9495
:101EA0009C0780E090E0A0E8BFE38DA79EA7AFA7C6
:101EB000B8AB6DA57EA58FA598A92BEA3AEA4AE2B0
:101EC00050E40E941F02DC01CB0189A79AA7ABA7AF
:101ED000BCA769A57AA58BA59CA520E030E040E8C9
:101EE0005FE30E94250488231CF481E088A791C049
:101EF00069A57AA58BA59CA520E030E04FE753E4C7
:101F00000E94C50318160CF07BC06DA57EA58FA599
:101F100098A920E030E04AE754E40E941903DC016C
:101F2000CB018CA39DA3AEA3BFA36CA17DA18EA169
:101F30009FA120E030E04AEF54E40E941F02DC0140
:101F4000CB0188A399A3AAA3BBA368A179A18AA165
:101F50009BA120E030E040E85FE30E942504882355
:101F60002CF481E090E09F8F8E8F3FC068A179A113
:101F70008AA19BA120E03FEF4FE757E40E94C503F1
:101F800018164CF56CA17DA18EA19FA120E030E038
:101F900040E251E40E941F02DC01CB01BC01CD01F3
:101FA0000E944900DC01CB019F8F8E8F0FC088EC0F
:101FB00090E09D8F8C8F8C8D9D8D0197F1F79D8F7B
:101FC0008C8F8E8D9F8D01979F8F8E8F8E8D9F8D85
:101FD000009769F724C068A179A18AA19BA10E94FA
:101FE0004900DC01CB019F8F8E8F8E8D9F8D9B8F43
:101FF0008A8F8A8D9B8D0197F1F79B8F8A8F0FC0F7
:1020000069A57AA58BA59CA50E944900DC01CB019E
:1020100088A788A5898F898D8A95F1F7898F80E0B7
:1020200062E040E00E949C0780E090E0A0E8BFE30F
:102030008D8B9E8BAF8BB88F6D897E898F89988DA4
:102040002BEA3AEA4AE250E40E941F02DC01CB018B
:10205000898B9A8BAB8BBC8B69897A898B899C899C
:1020600020E030E040E85FE30E94250488231CF470
:1020700081E0888B91C069897A898B899C8920E06D
:1020800030E04FE753E40E94C50318160CF07BC004
:102090006D897E898F89988D20E030E04AE754E48D
:1020A0000E941903DC01CB018C879D87AE87BF8717
:1020B0006C857D858E859F8520E030E04AEF54E475
:1020C0000E941F02DC01CB0188879987AA87BB8702
:1020D000688579858A859B8520E030E040E85FE36C
:1020E0000E94250488232CF481E090E09F838E8356
:1020F0003FC0688579858A859B8520E03FEF4FE763
:1021000057E40E94C50318164CF56C857D858E85B5
:102110009F8520E030E040E251E40E941F02DC0194
:10212000CB01BC01CD010E944900DC01CB019F83A2
:102130008E830FC088EC90E09D838C838C819D8181
:102140000197F1F79D838C838E819F8101979F83F7
:102150008E838E819F81009769F724C06885798579
:102160008A859B850E944900DC01CB019F838E8379
:102170008E819F819B838A838A819B810197F1F75E
:102180009B838A830FC069897A898B899C890E9485
:102190004900DC01CB01888B8889898389818A95F4
:1021A000F1F78983E1960FB6F894DEBF0FBECDBF7D
:1021B000CF91DF910895DF93CF9300D0CDB7DEB7F5
:1021C0009A8389830AC0E981FA8180810E94330F52
:1021D00089819A8101969A838983E981FA81808134
:1021E000882389F70F900F90CF91DF9108950F9377
:1021F0001F93DF93CF93CDB7DEB765970FB6F894F3
:10220000DEBF0FBECDBF6A8B7B8B8C8B9D8B8FEF20
:102210008A838A899B89AC89BD890097A105B1050C
:1022200099F580E30E94330F4EC08A818F5F8A83C5
:102230008A81082F112707FD10958A899B89AC890F
:10224000BD892AE030E040E050E0BC01CD010E94B1
:102250000035DC01CB01282FCE010396FC01E00FF5
:10226000F11F20838A899B89AC89BD892AE030E0EF
:1022700040E050E0BC01CD010E940035DA01C90107
:102280008A8B9B8BAC8BBD8B8A899B89AC89BD89E2
:102290000097A105B10549F68A81898311C089811A
:1022A000282F332727FD3095CE010396FC01E20F3E
:1022B000F31F8081805D0E94330F89818150898363
:1022C0008981882364F765960FB6F894DEBF0FBE48
:1022D000CDBFCF91DF911F910F910895DF93CF93E1
:1022E00000D000D00F92CDB7DEB78A836B8381E038
:1022F00089838B818832D8F48A81282F30E03D830E
:102300002C838C819D818130910531F02C813D8120
:102310002230310531F00AC08B8180580E948B0D2C
:1023200006C08B8180540E948B0D01C01982898167
:102330000F900F900F900F900F90CF91DF91089515
:10234000DF93CF93CDB7DEB72E970FB6F894DEBFED
:102350000FBECDBF81E00E948B0D80E090E0A0EA2F
:10236000B1E48B879C87AD87BE876B857C858D8527
:102370009E8520E030E04AEF54E40E941F02DC0119
:10238000CB018F839887A987BA876F8178858985E4
:102390009A8520E030E040E85FE30E94250488232E
:1023A0002CF481E090E09E838D833FC06F8178851F
:1023B00089859A8520E03FEF4FE757E40E94C503E7
:1023C00018164CF56B857C858D859E8520E030E068
:1023D00040E251E40E941F02DC01CB01BC01CD01AF
:1023E0000E944900DC01CB019E838D830FC088ECE5
:1023F00090E09C838B838B819C810197F1F79C8378
:102400008B838D819E8101979E838D838D819E819B
:10241000009769F714C06F81788589859A850E9435
:102420004900DC01CB019E838D838D819E819A833F
:10243000898389819A810197F1F79A8389832E96FE
:102440000FB6F894DEBF0FBECDBFCF91DF910895D8
:10245000DF93CF93CDB7DEB72A970FB6F894DEBFE0
:102460000FBECDBF8C837E836D834F83288781E031
:102470008B8388E08A838C81282F30E03A872987F4
:1024800089859A858330910509F48CC029853A8520
:10249000243031058CF489859A858130910509F4C1
:1024A00043C029853A85223031050CF05CC089850E
:1024B0009A850097D1F011C129853A8525303105DB
:1024C00009F4AEC089859A85853091050CF489C0E0
:1024D00029853A852630310509F4C1C089859A8558
:1024E0008730910509F4DAC0F8C080E40E948B0DB2
:1024F00019820EC08981282F30E08D819E81FC01D8
:10250000E20FF31F80810E94330F89818F5F8983DF
:1025100099818A81981770F38F8168850E946E1166
:102520008C810E94330FDAC088E40E948B0D1982DF
:102530000EC08981282F30E08D819E81FC01E20F41
:10254000F31F80810E94330F89818F5F8983998176
:102550008A81981770F38F8168850E946E118C8133
:102560000E94330FBBC080E50E948B0D19820EC004
:102570008981282F30E08D819E81FC01E20FF31FBD
:1025800080810E94330F89818F5F898399818A813D
:10259000981770F38F8168850E946E118C810E945C
:1025A000330F9CC088E50E948B0D19820EC0898173
:1025B000282F30E08D819E81FC01E20FF31F808186
:1025C0000E94330F89818F5F898399818A8198174F
:1025D00070F38F8168850E946E118C810E94330F89
:1025E0007DC080E60E948B0D19820EC08981282F44
:1025F00030E08D819E81FC01E20FF31F80810E94FB
:10260000330F89818F5F898399818A81981770F34D
:102610008F8168850E946E118C810E94330F5EC08D
:1026200088E60E948B0D19820EC08981282F30E028
:102630008D819E81FC01E20FF31F80810E94330F88
:1026400089818F5F898399818A81981770F38F813F
:1026500068850E946E118C810E94330F3FC080E715
:102660000E948B0D19820EC08981282F30E08D8148
:102670009E81FC01E20FF31F80810E94330F89814C
:102680008F5F898399818A81981770F38F8168851C
:102690000E946E118C810E94330F20C088E70E9437
:1026A0008B0D19820EC08981282F30E08D819E818B
:1026B000FC01E20FF31F80810E94330F89818F5F3D
:1026C000898399818A81981770F38F8168850E9428
:1026D0006E118C810E94330F01C01B828B812A9660
:1026E0000FB6F894DEBF0FBECDBFCF91DF91089536
:1026F000DF93CF93CDB7DEB7E1970FB6F894DEBF87
:102700000FBECDBF89AB80E060E040E00E949C0737
:1027100080E061E040E00E949C0789A9982F929593
:10272000907F82E0692F0E94280A80E062E041E009
:102730000E949C0780E090E0A0E8BFE38DA79EA7E1
:10274000AFA7B8AB6DA57EA58FA598A92BEA3AEAED
:102750004AE250E40E941F02DC01CB0189A79AA73C
:10276000ABA7BCA769A57AA58BA59CA520E030E006
:1027700040E85FE30E94250488231CF481E088A7D9
:1027800091C069A57AA58BA59CA520E030E04FE714
:1027900053E40E94C50318160CF07BC06DA57EA5FE
:1027A0008FA598A920E030E04AE754E40E9419037D
:1027B000DC01CB018CA39DA3AEA3BFA36CA17DA123
:1027C0008EA19FA120E030E04AEF54E40E941F0256
:1027D000DC01CB0188A399A3AAA3BBA368A179A11B
:1027E0008AA19BA120E030E040E85FE30E9425043D
:1027F00088232CF481E090E09F8F8E8F3FC068A1EA
:1028000079A18AA19BA120E03FEF4FE757E40E9406
:10281000C50318164CF56CA17DA18EA19FA120E0E7
:1028200030E040E251E40E941F02DC01CB01BC0118
:10283000CD010E944900DC01CB019F8F8E8F0FC01C
:1028400088EC90E09D8F8C8F8C8D9D8D0197F1F79A
:102850009D8F8C8F8E8D9F8D01979F8F8E8F8E8DEC
:102860009F8D009769F724C068A179A18AA19BA1D7
:102870000E944900DC01CB019F8F8E8F8E8D9F8D32
:102880009B8F8A8F8A8D9B8D0197F1F79B8F8A8F03
:102890000FC069A57AA58BA59CA50E944900DC0103
:1028A000CB0188A788A5898F898D8A95F1F7898FB3
:1028B00080E062E040E00E949C0780E090E0A0E8B9
:1028C000BFE38D8B9E8BAF8BB88F6D897E898F898F
:1028D000988D2BEA3AEA4AE250E40E941F02DC019A
:1028E000CB01898B9A8BAB8BBC8B69897A898B895D
:1028F0009C8920E030E040E85FE30E9425048823C3
:102900001CF481E0888B91C069897A898B899C89C4
:1029100020E030E04FE753E40E94C50318160CF0A6
:102920007BC06D897E898F89988D20E030E04AE7F1
:1029300054E40E941903DC01CB018C879D87AE878C
:10294000BF876C857D858E859F8520E030E04AEFCE
:1029500054E40E941F02DC01CB0188879987AA8773
:10296000BB87688579858A859B8520E030E040E8D3
:102970005FE30E94250488232CF481E090E09F838C
:102980008E833FC0688579858A859B8520E03FEFEF
:102990004FE757E40E94C50318164CF56C857D85FA
:1029A0008E859F8520E030E040E251E40E941F02C6
:1029B000DC01CB01BC01CD010E944900DC01CB014F
:1029C0009F838E830FC088EC90E09D838C838C81E5
:1029D0009D810197F1F79D838C838E819F81019763
:1029E0009F838E838E819F81009769F724C06885BD
:1029F00079858A859B850E944900DC01CB019F83F4
:102A00008E838E819F819B838A838A819B8101979C
:102A1000F1F79B838A830FC069897A898B899C89A6
:102A20000E944900DC01CB01888B888989838981D8
:102A30008A95F1F78983E1960FB6F894DEBF0FBE51
:102A4000CDBFCF91DF910895DF93CF9300D0CDB765
:102A5000DEB78BE090E00E9469189A8389838981B0
:102A60009A81009749F0E981FA8111821082898167
:102A70009A8102960E94E51889819A810F900F90A1
:102A8000CF91DF910895DF93CF93CDB7DEB76097F5
:102A90000FB6F894DEBF0FBECDBF9A8789877C87BB
:102AA0006B875E874D87388B2F8789859A859C83B6
:102AB0008B8319820E94592BEB81FC81808191814B
:102AC00098878F8389859A852B853C85B9010E94DB
:102AD0001A172F8138858B859C85282B392B8D855E
:102AE0009E85282339238D859E8528173907C9F4AB
:102AF0002F8138858B859C85822B932B9E838D839C
:102B0000EB81FC81208131818D859E85809590951A
:102B100082239323EB81FC8191838083188A1F8613
:102B20001EC08F859889009791F08B819C81BC0194
:102B30006E5F7F4F8D859E859C0135604F855889DE
:102B4000CB01B9010E94F92D1E821D8208C0EB81C4
:102B5000FC81808191819E838D8381E089830E94A5
:102B6000652B8A838F859889009709F43AC08A81FA
:102B7000882311F40E94A91D0E945A309E838D83E0
:102B80008D819E8180709270009731F50FB6F89418
:102B90000F92EB81FC81808191819E838D832D81B9
:102BA0003E818D859E85282339238D859E85281716
:102BB000390771F4EB81FC81208131818D859E85FF
:102BC0008095909582239323EB81FC819183808370
:102BD0000F900FBE81E089838D819E8190709E83CE
:102BE0008D838D819E8160960FB6F894DEBF0FBEF7
:102BF000CDBFCF91DF9108950F931F93DF93CF93B4
:102C0000CDB7DEB763970FB6F894DEBF0FBECDBF6A
:102C10009D878C877F876E87488B298B1B8B0A8BC0
:102C20008C859D859B878A871F821E821B820E94BE
:102C3000592BEA85FB85808191819A8389838981DB
:102C40009A812E853F85B90149890E9437188D8365
:102C50008D818823C1F089819A81998788871B8A11
:102C60001A8A88898823E9F1EA85FB8520813181E8
:102C70008E859F858095909582239323EA85FB8599
:102C8000918380832EC08A899B89009739F489813A
:102C90009A819987888781E08B8323C088898823DC
:102CA00029F08E819F8191609F838E8389898823FB
:102CB00029F08E819F8194609F838E838A859B8576
:102CC000BC016E5F7F4F2E853F858E819F81282BB3
:102CD000392B4A895B89CB01B9010E94F92D1986EC
:102CE00018860E94652B8C838A899B89009709F43A
:102CF0003CC08C81882311F40E94A91D0E945A3087
:102D0000998788878885998580709270009741F5AA
:102D10000FB6F8940F92EA85FB858081918199879F
:102D20008887888599852E853F85B90149890E94C4
:102D30003718882389F08889882371F0EA85FB8514
:102D4000208131818E859F85809590958223932364
:102D5000EA85FB859183808381E08B830F900FBE92
:102D600088859985907099878887888599856396E5
:102D70000FB6F894DEBF0FBECDBFCF91DF911F918C
:102D80000F910895DF93CF93CDB7DEB728970FB695
:102D9000F894DEBF0FBECDBF9E838D8378876F838F
:102DA0008D819E819C838B830FB6F8940F92EB816B
:102DB000FC81808191819A838983EB81FC812081D0
:102DC00031818F8198858095909582239323EB8123
:102DD000FC81918380830F900FBE89819A81289610
:102DE0000FB6F894DEBF0FBECDBFCF91DF9108952F
:102DF000DF93CF93CDB7DEB727970FB6F894DEBF3A
:102E00000FBECDBF9F838E838E819F819C838B83DA
:102E10001D82EB81FC81808191819A8389838981E4
:102E20009A8127960FB6F894DEBF0FBECDBFCF9123
:102E3000DF910895DF93CF93CDB7DEB765970FB6D7
:102E4000F894DEBF0FBECDBF9B8B8A8B7D8B6C8BC6
:102E5000198618868A899B899B838A8319828A812D
:102E60009B8102969B878A878A859B8503969D878F
:102E70008C870E94592BEA85FB8585819681998BE9
:102E8000888BEA81FB81208131818C899D89822B0D
:102E9000932BEA81FB819183808359C0E889F9896A
:102EA000828193819F878E87E889F98980819181CA
:102EB0009F838E8319828E819F8180709D838C83F6
:102EC0008E819F8190709F838E838C819D81807085
:102ED0009470009769F4EA81FB81208131818E81B1
:102EE0009F8182239323009791F081E089830FC013
:102EF000EA81FB81208131818E819F8128233923C2
:102F00008E819F812817390711F481E08983898197
:102F10008823C9F08C819D8180709170009741F069
:102F2000888599852E813F81822B932B998788876D
:102F3000EA81FB81808191819C0132608889998935
:102F4000B9010E94942E8E859F85998B888B288944
:102F500039898C859D852817390709F09FCFEA812B
:102F6000FB81208131818885998580959095822388
:102F70009323EA81FB81918380830E94652BEA8100
:102F8000FB818081918165960FB6F894DEBF0FBEFC
:102F9000CDBFCF91DF910895DF93CF9300D000D0C4
:102FA00000D0CDB7DEB79E838D838D819E819C83BB
:102FB0008B838B819C8102969A8389830E94592BF3
:102FC00008C0E981FA818581968160E072E00E9403
:102FD000942EE981FA818081882399F78B819C81E5
:102FE0000E94BF180E94652B26960FB6F894DEBF8C
:102FF0000FBECDBFCF91DF910895DF93CF9300D067
:1030000000D000D0CDB7DEB79A8389834B835C8331
:103010006D837E8389819A812B813C81B9010E94D5
:103020001A1726960FB6F894DEBF0FBECDBFCF910C
:10303000DF910895DF93CF9300D000D000D0CDB7BB
:10304000DEB79A8389834B835C836D837E8389811A
:103050009A812B813C81B9010E94C21626960FB637
:10306000F894DEBF0FBECDBFCF91DF910895DF93FF
:10307000CF9300D000D000D0CDB7DEB79B838A833A
:103080007D836C834E8319828E81882359F48A81D3
:103090009B812C813D8182239323009781F081E0E5
:1030A00089830DC02A813B818C819D81282339230E
:1030B0008C819D812817390711F481E089838981EA
:1030C00026960FB6F894DEBF0FBECDBFCF91DF912D
:1030D0000895DF93CF9300D000D0CDB7DEB79C83A7
:1030E0008B831A8219820E94592B809188009091BB
:1030F0008900009731F48BE890E0909389008093E9
:10310000880080918600909187002B813C81820FFE
:10311000931F23E0873E920738F520918600309177
:1031200087008B819C81280F391F809186009091A8
:10313000870082179307C0F420918800309189009E
:103140008091860090918700820F931F9A838983D4
:1031500020918600309187008B819C81820F931F84
:1031600090938700809386000E94652B89819A81C5
:103170000F900F900F900F90CF91DF910895DF93F4
:10318000CF9300D0CDB7DEB79A8389830F900F908D
:10319000CF91DF910895DF93CF93CDB7DEB7109233
:1031A000870010928600CF91DF910895DF93CF932F
:1031B000CDB7DEB7209186003091870087EE93E08F
:1031C000821B930BCF91DF910895DF93CF9300D0B3
:1031D000CDB7DEB79A83898389819A810396E98185
:1031E000FA8192838183E981FA818FEF9FEF948343
:1031F000838389819A810396E981FA819683858305
:1032000089819A810396E981FA8190878783E98190
:10321000FA8110820F900F90CF91DF910895DF9384
:10322000CF9300D0CDB7DEB79A838983E981FA8145
:10323000118610860F900F90CF91DF910895DF9344
:10324000CF9300D000D000D0CDB7DEB79C838B8366
:103250007E836D83EB81FC81818192819A83898356
:10326000ED81FE8189819A8193838283E981FA814C
:1032700084819581ED81FE8195838483E981FA8142
:103280000480F581E02D8D819E8193838283E98185
:10329000FA818D819E8195838483ED81FE818B816E
:1032A0009C8191878087EB81FC8180818F5FEB819E
:1032B000FC81808326960FB6F894DEBF0FBECDBF8B
:1032C000CF91DF910895DF93CF93CDB7DEB72897E5
:1032D0000FB6F894DEBF0FBECDBF9E838D83788777
:1032E0006F83EF81F885808191819A8389838981B9
:1032F0009A812FEF8F3F920739F4ED81FE8187810C
:1033000090859C838B8318C08D819E8103969C83BE
:103310008B8306C0EB81FC81828193819C838B83AC
:10332000EB81FC810280F381E02D20813181898154
:103330009A818217930770F7EB81FC8182819381D8
:10334000EF81F88593838283EF81F8850280F38192
:10335000E02D8F81988595838483EF81F8858B811B
:103360009C8195838483EB81FC818F8198859383F5
:103370008283EF81F8858D819E8191878087ED81A1
:10338000FE8180818F5FED81FE81808328960FB65C
:10339000F894DEBF0FBECDBFCF91DF910895DF93CC
:1033A000CF9300D000D0CDB7DEB79C838B83EB8169
:1033B000FC81808591859A838983EB81FC81A28140
:1033C000B381EB81FC818481958115969C938E93CA
:1033D0001497EB81FC81A481B581EB81FC81828112
:1033E000938113969C938E931297E981FA812181A0
:1033F00032818B819C812817390741F4EB81FC8154
:1034000084819581E981FA8192838183EB81FC81BA
:1034100011861086E981FA8180818150E981FA81E3
:103420008083E981FA8180810F900F900F900F9037
:10343000CF91DF910895EF92FF920F93DF93CF9397
:10344000CDB7DEB70E944F060E94C80A81EA9BE111
:1034500060E070E048EC50E020E030E002E0EE2474
:10346000FF240E94DE2584EC9BE160E070E048ECE4
:1034700050E020E030E001E0EE24FF240E94DE2551
:1034800081E060E043E00E94441F9093E604809353
:10349000E5048091E5049091E604009759F080914D
:1034A000E5049091E60460E070E040E050E020E048
:1034B0000E94CA1F8091E5049091E6046FEF7FEFB0
:1034C0000E94CE210E941B2BFFCFDF93CF93CDB75D
:1034D000DEB760970FB6F894DEBF0FBECDBF988BF6
:1034E0008F878091E3049091E4046FEF7FEF0E9457
:1034F000CE218130B1F780E690E00E94DB1080E0C1
:1035000090E0A8E4B4E48B879C87AD87BE876B8589
:103510007C858D859E8520E030E04AEF54E40E9452
:103520001F02DC01CB018F839887A987BA876F813F
:10353000788589859A8520E030E040E85FE30E9445
:10354000250488232CF481E090E09E838D833FC086
:103550006F81788589859A8520E03FEF4FE757E4B2
:103560000E94C50318164CF56B857C858D859E855C
:1035700020E030E040E251E40E941F02DC01CB0178
:10358000BC01CD010E944900DC01CB019E838D83EB
:103590000FC088EC90E09C838B838B819C8101978A
:1035A000F1F79C838B838D819E8101979E838D8310
:1035B0008D819E81009769F714C06F817885898518
:1035C0009A850E944900DC01CB019E838D838D8109
:1035D0009E819A83898389819A810197F1F79A83E1
:1035E00089830E94A0118091E3049091E40460E03B
:1035F00070E040E050E020E00E94CA1F88EE93E0B7
:103600000E946E286ECFDF93CF93CDB7DEB7609761
:103610000FB6F894DEBF0FBECDBF988B8F87809119
:10362000E3049091E4046FEF7FEF0E94CE2181309C
:10363000B1F78CE690E00E94DB1080E090E0A8E417
:10364000B4E48B879C87AD87BE876B857C858D8531
:103650009E8520E030E04AEF54E40E941F02DC0126
:10366000CB018F839887A987BA876F8178858985F1
:103670009A8520E030E040E85FE30E94250488233B
:103680002CF481E090E09E838D833FC06F8178852C
:1036900089859A8520E03FEF4FE757E40E94C503F4
:1036A00018164CF56B857C858D859E8520E030E075
:1036B00040E251E40E941F02DC01CB01BC01CD01BC
:1036C0000E944900DC01CB019E838D830FC088ECF2
:1036D00090E09C838B838B819C810197F1F79C8385
:1036E0008B838D819E8101979E838D838D819E81A9
:1036F000009769F714C06F81788589859A850E9443
:103700004900DC01CB019E838D838D819E819A834C
:10371000898389819A810197F1F79A8389830E942D
:10372000A0118091E3049091E40460E070E040E037
:1037300050E020E00E94CA1F88EE93E00E946E28AD
:103740006ECFDF93CF9300D00F92CDB7DEB79B83C0
:103750008A8381E060E09E012F5F3F4FA9010E94B4
:10376000C6088981882359F48091E5049091E60484
:1037700060E070E040E050E020E00E94CA1F88EC6A
:1037800090E00E946E28E5CFDF93CF9300D0CDB7B5
:10379000DEB79A8389838091E5049091E6046FEF08
:1037A0007FEF0E94CE218130B1F78091720488238F
:1037B00049F480E060E041E00E949C0781E0809352
:1037C0007204E9CF80E060E040E00E949C07109224
:1037D0007204E1CFDF93CF93CDB7DEB728970FB652
:1037E000F894DEBF0FBECDBF9C838B837E836D8339
:1037F00058874F83EB81FC8181E180838B819C81A1
:1038000001979C838B83EB81FC8182E280838B8197
:103810009C8101979C838B83EB81FC8183E3808374
:103820008B819C8101979C838B838D819E819A8360
:1038300089838981EB81FC8180838B819C810197C5
:103840009C838B8389819A81892F99279A83898385
:103850008981EB81FC8180838B819C8101979C8392
:103860008B83EB81FC8110828B819C8101979C83EF
:103870008B83EB81FC8180E880838B819C81019725
:103880009C838B83EB81FC8110828B819C810197CF
:103890009C838B83EB81FC8182E080838B819C8184
:1038A00001979C838B83EB81FC8183E080838B81F8
:1038B0009C8101979C838B83EB81FC8184E08083D6
:1038C0008B819C8101979C838B83EB81FC8185E0BC
:1038D00080838B819C8101979C838B83EB81FC810E
:1038E00086E080838B819C8101979C838B83EB8115
:1038F000FC8187E080838B819C8101979C838B83F3
:10390000EB81FC8188E080838B819C8101979C8383
:103910008B83EB81FC8189E080838B819C81019783
:103920009C838B83EB81FC8180E180838B819C81F4
:1039300001979C838B83EB81FC8181E180838B8168
:103940009C8101979C838B83EB81FC8182E1808346
:103950008B819C8101979C838B83EB81FC8183E12C
:1039600080838B819C8101979C838B83EB81FC817D
:1039700084E180838B819C8101979C838B83EB8185
:10398000FC8185E180838B819C8101979C838B8363
:10399000EB81FC8186E180838B819C8101979C83F4
:1039A0008B83EB81FC8187E180838B819C810197F4
:1039B0009C838B83EB81FC8188E180838B819C815C
:1039C00001979C838B83EB81FC8189E180838B81D0
:1039D0009C8101979C838B83EB81FC8180E28083B7
:1039E0008B819C8101979C838B83EB81FC8181E29D
:1039F00080838B819C8101979C838B83EB81FC81ED
:103A000082E280838B819C8101979C838B83EB81F5
:103A1000FC8183E280838B819C8101979C838B83D3
:103A20008F8198859A8389838981EB81FC8180834A
:103A30008B819C8101979C838B8389819A81892FBB
:103A400099279A8389838981EB81FC8180838B818B
:103A50009C8101979C838B83EB81FC8186E2808330
:103A60008B819C8101979C838B83EB81FC8187E216
:103A700080838B819C8101979C838B83EB81FC816C
:103A800088E280838B819C8101979C838B83EB816F
:103A9000FC8189E280838B819C8101979C838B834D
:103AA000EB81FC8180E380838B819C8101979C83E7
:103AB0008B83EB81FC8181E380838B819C810197E7
:103AC0009C838B838B819C8128960FB6F894DEBFF4
:103AD0000FBECDBFCF91DF910895DF93CF93CDB7C8
:103AE000DEB70E945F1EA0917304B0917404CD9163
:103AF000CDBFDD91DEBFFF91EF91DF91CF91BF91FF
:103B0000AF919F918F917F916F915F914F913F9175
:103B10002F911F910F91FF90EF90DF90CF90BF906A
:103B2000AF909F908F907F906F905F904F903F905D
:103B30002F901F900F900FBE0F90089581E0CF91AE
:103B4000DF910895DF93CF93CDB7DEB7CF91DF91AB
:103B500008950F920FB6F8940F921F9211242F928E
:103B60003F924F925F926F927F928F929F92AF920D
:103B7000BF92CF92DF92EF92FF920F931F932F93FA
:103B80003F934F935F936F937F938F939F93AF93E5
:103B9000BF93CF93DF93EF93FF93A0917304B09102
:103BA00074040DB60D920EB60D920E946A2DA0916E
:103BB0007304B0917404CD91CDBFDD91DEBFFF9150
:103BC000EF91DF91CF91BF91AF919F918F917F91B5
:103BD0006F915F914F913F912F911F910F91FF90A6
:103BE000EF90DF90CF90BF90AF909F908F907F909D
:103BF0006F905F904F903F902F901F900F900FBE4F
:103C00000F9008950F920FB6F8940F921F921124FF
:103C10002F923F924F925F926F927F928F929F92DC
:103C2000AF92BF92CF92DF92EF92FF920F931F93CA
:103C30002F933F934F935F936F937F938F939F93B4
:103C4000AF93BF93CF93DF93EF93FF93A091730450
:103C5000B09174040DB60D920EB60D920E94812C97
:103C6000882311F00E946A2DA0917304B09174040E
:103C7000CD91CDBFDD91DEBFFF91EF91DF91CF916F
:103C8000BF91AF919F918F917F916F915F914F9174
:103C90003F912F911F910F91FF90EF90DF90CF9068
:103CA000BF90AF909F908F907F906F905F904F905C
:103CB0003F902F901F900F900FBE0F900895DF93AD
:103CC000CF9300D000D000D0CDB7DEB780E49FE125
:103CD000A0E0B0E08B839C83AD83BE838B819C810D
:103CE000AD81BE81689415F8B695A795979587958F
:103CF0001694D1F78B839C83AD83BE838B819C818B
:103D0000AD81BE810197A109B1098B839C83AD83ED
:103D1000BE838B8189838B819C81AD81BE81892FFC
:103D20009A2FAB2FBB278B839C83AD83BE838B8164
:103D30008A83EBE4F0E08A818083EAE4F0E0898121
:103D400080838BE08983EEE4F0E089818083E9E57C
:103D5000F0E080818983898180618983E9E5F0E0F1
:103D60008981808326960FB6F894DEBF0FBECDBF43
:103D7000CF91DF9108950E94021E1895DF93CF9393
:103D800000D000D00F92CDB7DEB79C838B836D83BC
:103D90008B819C819A8389830FB6F8940F92E98175
:103DA000FA8140815181E981FA81838D282F30E0A9
:103DB000E981FA81848D882F90E0BC01269FC001A3
:103DC000279F900D369F900D1124840F951FE98138
:103DD000FA8195838483E981FA81128EE981FA81DF
:103DE00080819181E981FA8193838283E981FA81DB
:103DF00040815181E981FA81838D882F90E09C0177
:103E000021503040E981FA81848D882F90E0BC01F7
:103E1000269FC001279F900D369F900D1124840F7F
:103E2000951FE981FA8197838683E981FA818FEF73
:103E3000858FE981FA818FEF868F8D81882379F4D0
:103E4000E981FA8180858823A1F089819A81089689
:103E50000E94292E882369F00E94A91D0AC0898129
:103E60009A8108960E94E51889819A8141960E945C
:103E7000E5180F900FBE81E00F900F900F900F90FC
:103E80000F90CF91DF9108950F931F93DF93CF93FE
:103E9000CDB7DEB729970FB6F894DEBF0FBECDBF02
:103EA0008F83688749878F81282F30E08885882F06
:103EB00090E0AC01249FC001259F900D349F900D90
:103EC00011249C838B838B819C814F960E9469185F
:103ED0009E838D838D819E810097A1F08D819E812F
:103EE0009A83898389819A814F969A8389832981CC
:103EF0003A81ED81FE818F816885A90129858F0135
:103F00000E948F1F8D819E8129960FB6F894DEBF87
:103F10000FBECDBFCF91DF911F910F9108950F93E9
:103F20001F93DF93CF93CDB7DEB727970FB6F894E3
:103F3000DEBF0FBECDBF89836A835C834B832D8335
:103F40001F830E838A81882339F48E819F81EE81BD
:103F5000FF819183808306C08B819C81EE81FF81EC
:103F600091838083EE81FF818981838FEE81FF8140
:103F70008A81848F8E819F8161E00E94BE1E279678
:103F80000FB6F894DEBF0FBECDBFCF91DF911F916A
:103F90000F910895DF93CF93CDB7DEB72F970FB66C
:103FA000F894DEBF0FBECDBF998788877B876A876D
:103FB0005D874C872E871C82888599859A838983A3
:103FC0000FB6F8940F92E981FA81928DE981FA8116
:103FD000838D981718F08E85823011F589819A812A
:103FE0002A853B85B9014E850E9420248B83E98177
:103FF000FA818189882351F089819A8141960E94B2
:10400000292E882341F00E94A91D05C08B81882399
:1040100011F00E94A91D0F900FBE81E08F875CC038
:104020008C859D85009721F40F900FBE1F8654C08C
:104030008C81882331F4CE0105960E940F2F81E0F8
:104040008C830F900FBE0E94592B0FB6F8940F92DD
:10405000E981FA81858D8F3F19F4E981FA81158E06
:10406000E981FA81868D8F3F19F4E981FA81168EF4
:104070000F900FBECE0105969E01245F3F4FB90100
:104080000E94282F882309F589819A810E949C2506
:104090008823A1F089819A8108962C853D85B901F4
:1040A0000E94D72D89819A810E940D250E94652B3F
:1040B000882309F085CF0E94A91D82CF89819A812A
:1040C0000E940D250E94652B7BCF89819A810E94D9
:1040D0000D250E94652B1F868F852F960FB6F894AD
:1040E000DEBF0FBECDBFCF91DF910895DF93CF9399
:1040F000CDB7DEB72D970FB6F894DEBF0FBECDBF9C
:1041000098878F837A8769875C874B872D878F8114
:1041100098859C838B831D82EB81FC81928DEB8142
:10412000FC81838D981718F08D85823081F5EB81A5
:10413000FC81868D8A83EB81FC81828D89838B81D2
:104140009C8129853A85B9014D850E9420248A8168
:104150008F3FA9F4EB81FC8181898823A9F08B81B1
:104160009C8141960E94292E882371F08B859C8525
:10417000009751F0EB85FC8581E0808305C08A8142
:104180008F5FEB81FC81868F81E08E8301C01E8270
:104190008E812D960FB6F894DEBF0FBECDBFCF91A6
:1041A000DF910895DF93CF93CDB7DEB72A970FB68F
:1041B000F894DEBF0FBECDBF98878F837A8769875B
:1041C0008F8198859C838B831D82EB81FC81828DFE
:1041D0008A83EB81FC81938D8A81891748F5EB8175
:1041E000FC81868D89838A818F5FEB81FC81828F40
:1041F00089818F3FA9F4EB81FC8181898823A9F013
:104200008B819C8141960E94292E882371F089859B
:104210009A85009751F0E985FA8581E0808305C091
:1042200089818F5FEB81FC81868F81E08E8301C065
:104230001E828E812A960FB6F894DEBF0FBECDBFC8
:10424000CF91DF910895DF93CF93CDB7DEB72E974F
:104250000FB6F894DEBF0FBECDBF998788877B87E6
:104260006A875D874C871C82888599859B838A83B2
:104270000FB6F8940F92EA81FB81828D8983898140
:104280008823F9F08A819B812A853B85B9010E94A8
:10429000C62489818150EA81FB81828FEA81FB817A
:1042A0008085882349F08A819B8108960E94292E67
:1042B000882311F00E94A91D0F900FBE81E08E8708
:1042C00063C08C859D85009721F40F900FBE1E86DC
:1042D0005BC08C81882331F4CE0105960E940F2F9C
:1042E00081E08C830F900FBE0E94592B0FB6F8947B
:1042F0000F92EA81FB81858D8F3F19F4EA81FB8162
:10430000158EEA81FB81868D8F3F19F4EA81FB814E
:10431000168E0F900FBECE0105969E01245F3F4F73
:10432000B9010E94282F882309F58A819B810E9468
:1043300060258823A1F08A819B8141962C853D854B
:10434000B9010E94D72D8A819B810E940D250E9470
:10435000652B882309F08CCF0E94A91D89CF8A8103
:104360009B810E940D250E94652B82CF8A819B81B3
:104370000E940D250E94652B8A819B810E946025E9
:10438000882309F475CF1E868E852E960FB6F89475
:10439000DEBF0FBECDBFCF91DF910895DF93CF93E6
:1043A000CDB7DEB72C970FB6F894DEBF0FBECDBFEA
:1043B000998788877B876A871C82888599859B83F4
:1043C0008A830FB6F8940F92EA81FB81828D8983EC
:1043D00089818823C1F089818150EA81FB81828FA4
:1043E000EA81FB818085882349F08A819B81089638
:1043F0000E94292E882311F00E94A91D0F900FBE44
:1044000081E08C8763C08A859B85009721F40F909B
:104410000FBE1C865BC08C81882331F4CE010596CB
:104420000E940F2F81E08C830F900FBE0E94592BAA
:104430000FB6F8940F92EA81FB81858D8F3F19F4B6
:10444000EA81FB81158EEA81FB81868D8F3F19F40D
:10445000EA81FB81168E0F900FBECE0105969E015C
:10446000265F3F4FB9010E94282F882309F58A81D2
:104470009B810E9460258823A1F08A819B814196BF
:104480002A853B85B9010E94D72D8A819B810E9494
:104490000D250E94652B882309F093CF0E94A91D4A
:1044A00090CF8A819B810E940D250E94652B89CF28
:1044B0008A819B810E940D250E94652B8A819B81A8
:1044C0000E946025882309F47CCF1C868C852C965D
:1044D0000FB6F894DEBF0FBECDBFCF91DF91089528
:1044E000DF93CF93CDB7DEB760970FB6F894DEBFFA
:1044F0000FBECDBF9B878A877D876C875F874E877E
:104500001E828A859B859B838A830FB6F8940F92BF
:10451000EA81FB81828D89838981882331F1EA8157
:10452000FB81868197819D838C838A819B812C85E9
:104530003D85B9010E94C624EA81FB818C819D8161
:1045400097838683EA81FB818189882349F08A8168
:104550009B8141960E94292E882311F00E94A91D5B
:104560000F900FBE81E0888B63C08E859F8500977A
:1045700021F40F900FBE188A5BC08E81882331F41E
:10458000CE0107960E940F2F81E08E830F900FBE01
:104590000E94592B0FB6F8940F92EA81FB81858D0A
:1045A0008F3F19F4EA81FB81158EEA81FB81868DAC
:1045B0008F3F19F4EA81FB81168E0F900FBECE015A
:1045C00007969E01225F3F4FB9010E94282F882342
:1045D00009F58A819B810E9460258823A1F08A8148
:1045E0009B8141962E853F85B9010E94D72D8A81F6
:1045F0009B810E940D250E94652B882309F085CFA1
:104600000E94A91D82CF8A819B810E940D250E9454
:10461000652B7BCF8A819B810E940D250E94652B93
:104620008A819B810E946025882309F46ECF188AB5
:10463000888960960FB6F894DEBF0FBECDBFCF91CC
:10464000DF910895DF93CF93CDB7DEB72C970FB6E8
:10465000F894DEBF0FBECDBF98878F837A876987B6
:104660005C874B878F8198859C838B831D82EB8130
:10467000FC81828D8A838A81882381F1EB81FC8190
:10468000858D89838B819C8129853A85B9010E941A
:10469000C6248A818150EB81FC81828F89818F3F82
:1046A000A9F4EB81FC8180858823A9F08B819C8112
:1046B00008960E94292E882371F08B859C8500978F
:1046C00051F0EB85FC8581E0808305C089818F5F97
:1046D000EB81FC81858F81E08E8301C01E828E81FB
:1046E0002C960FB6F894DEBF0FBECDBFCF91DF91F1
:1046F0000895DF93CF93CDB7DEB72A970FB6F8941E
:10470000DEBF0FBECDBF98878F837A8769878F8181
:1047100098859A8389831D82E981FA81828D882315
:10472000B1F0E981FA81868197819C838B838981AD
:104730009A8129853A85B9010E94C624E981FA81C6
:104740008B819C819783868381E08E8301C01E824A
:104750008E812A960FB6F894DEBF0FBECDBFCF91E3
:10476000DF910895DF93CF9300D00F92CDB7DEB7DE
:104770009B838A830FB6F8940F92EA81FB81828D26
:1047800089830F900FBE89810F900F900F90CF916A
:10479000DF910895DF93CF9300D000D00F92CDB773
:1047A000DEB79D838C838C819D819A8389830FB62C
:1047B000F8940F92E981FA81938DE981FA81828DD3
:1047C000292F281B822F8B830F900FBE8B810F9078
:1047D0000F900F900F900F90CF91DF910895DF937E
:1047E000CF9300D000D00F92CDB7DEB79D838C83DE
:1047F0008C819D819A838983E981FA81828D8B8363
:104800008B810F900F900F900F900F90CF91DF91B1
:104810000895DF93CF9300D000D0CDB7DEB79C834F
:104820008B838B819C819A83898389819A810E9461
:10483000BF180F900F900F900F90CF91DF910895B8
:10484000DF93CF93CDB7DEB727970FB6F894DEBFCF
:104850000FBECDBF9C838B837E836D834F831A8273
:10486000EB81FC81828D8983EB81FC81848D88239F
:1048700009F47DC08F81882399F5EB81FC816281E9
:104880007381EB81FC81848D482F50E02D813E8126
:10489000CB01B9010E945935EB81FC812281338122
:1048A000EB81FC81848D882F90E0820F931FEB8138
:1048B000FC8193838283EB81FC8122813381EB81B4
:1048C000FC81848195812817390708F450C0EB8159
:1048D000FC8180819181EB81FC819383828347C03D
:1048E000EB81FC8166817781EB81FC81848D482F8F
:1048F00050E02D813E81CB01B9010E945935EB81F9
:10490000FC8126813781EB81FC81848D882F90E0AA
:10491000909581959F4F820F931FEB81FC81978328
:104920008683EB81FC8126813781EB81FC8180814C
:1049300091812817390790F4EB81FC81248135811E
:10494000EB81FC81848D882F90E0909581959F4F1D
:10495000820F931FEB81FC81978386838F81823046
:1049600031F48981882319F0898181508983898173
:104970008F5FEB81FC81828F8A8127960FB6F89436
:10498000DEBF0FBECDBFCF91DF910895DF93CF93F0
:1049900000D000D0CDB7DEB79A8389837C836B8348
:1049A000E981FA81848D882389F1E981FA81268160
:1049B0003781E981FA81848D882F90E0820F931FDF
:1049C000E981FA8197838683E981FA81268137819B
:1049D000E981FA81848195812817390740F0E981BE
:1049E000FA8180819181E981FA8197838683E981C7
:1049F000FA8146815781E981FA81848D282F30E040
:104A00008B819C81BA01A9010E9459350F900F90AA
:104A10000F900F90CF91DF910895DF93CF9300D047
:104A200000D0CDB7DEB79C838B830FB6F8940F927E
:104A3000EB81FC81868D8A8311C0EB81FC818189A9
:104A4000882379F08B819C8141960E94292E8823AE
:104A500011F00E94952F8A8181508A838A811816CD
:104A600064F3EB81FC818FEF868F0F900FBE0FB642
:104A7000F8940F92EB81FC81858D898311C0EB81C5
:104A8000FC818085882379F08B819C8108960E9427
:104A9000292E882311F00E94952F898181508983C6
:104AA0008981181664F3EB81FC818FEF858F0F905D
:104AB0000FBE0F900F900F900F90CF91DF91089540
:104AC000DF93CF9300D00F92CDB7DEB79B838A835D
:104AD0000FB6F8940F92EA81FB81828D882319F436
:104AE00081E0898301C019820F900FBE89810F90E8
:104AF0000F900F90CF91DF910895DF93CF9300D067
:104B000000D00F92CDB7DEB79D838C838C819D81C1
:104B10009A838983E981FA81828D882319F481E05F
:104B20008B8301C01B828B810F900F900F900F9091
:104B30000F90CF91DF910895DF93CF9300D00F9224
:104B4000CDB7DEB79B838A830FB6F8940F92EA81C4
:104B5000FB81928DEA81FB81838D981719F481E0A6
:104B6000898301C019820F900FBE89810F900F9029
:104B70000F90CF91DF910895DF93CF9300D000D0B5
:104B80000F92CDB7DEB79D838C838C819D819A83F4
:104B90008983E981FA81928DE981FA81838D981761
:104BA00019F481E08B8301C01B828B810F900F90E1
:104BB0000F900F900F90CF91DF9108958F929F9259
:104BC000AF92BF92CF92DF92EF92FF920F931F931B
:104BD000DF93CF93CDB7DEB760970FB6F894DEBF03
:104BE0000FBECDBF9F838E83798768875B874A8797
:104BF0003D872C870E87F88AEF868A859B850E94E1
:104C000069189A83898389819A810097B1F086E235
:104C100090E00E9469189D838C838C819D81009710
:104C200039F0EC81FD8189819A81908F878B07C053
:104C300089819A810E94BF1802C01D821C828C81CA
:104C40009D810097E9F08A859B859C0140E050E0BA
:104C50008E819F8168857985EC85FD85AF85B889D2
:104C6000AC80BD808F01EE846D01882499240E9460
:104C700056268C819D810E94122781E08B8302C081
:104C80008FEF8B838B8160960FB6F894DEBF0FBEDB
:104C9000CDBFCF91DF911F910F91FF90EF90DF90EB
:104CA000CF90BF90AF909F908F9008958F929F92DA
:104CB000AF92BF92CF92DF92EF920F931F93DF9349
:104CC000CF93CDB7DEB764970FB6F894DEBF0FBEB3
:104CD000CDBF9D838C837F836E83288739874A87E6
:104CE0005B871D870C87EE86D88ACF86BA8AA98A09
:104CF0009C8A8B8AE989FA892789308D88859985EC
:104D00000197820F931F9B838A838E819F810097D7
:104D100051F1198221C08981482F50E08981282FC3
:104D200030E08E819F81FC01E20FF31F2081898991
:104D30009A89840F951FFC01799620838981282FF9
:104D400030E08E819F81FC01E20FF31F8081882378
:104D500031F089818F5F898389818830E0F2E98928
:104D6000FA8910A203C0E989FA89118E8E858530EF
:104D700010F084E08E87E989FA898E85868B89898F
:104D80009A8902960E940F1989899A890C960E9425
:104D90000F19E989FA8989899A89918780878E858F
:104DA000282F30E085E090E0821B930BE989FA8997
:104DB00095878487E989FA8989899A89938B828B77
:104DC000E989FA8911A212A213A214A2E989FA8927
:104DD00015A28A819B812C813D814C855D85B9011D
:104DE0000E94EA1BE989FA89918380838F859889DB
:104DF000009731F0EF85F88989899A8991838083BA
:104E000064960FB6F894DEBF0FBECDBFCF91DF9191
:104E10001F910F91EF90DF90CF90BF90AF909F9038
:104E20008F900895DF93CF9300D0CDB7DEB79A83EC
:104E300089830FB6F8940F92809176048F5F8093E8
:104E400076048091730490917404009769F48981C9
:104E50009A819093740480937304809176048130D6
:104E6000B9F40E94A92F14C080917A04882381F498
:104E7000E0917304F09174049689E981FA8186893E
:104E8000891730F089819A81909374048093730418
:104E900080917F048F5F80937F04E981FA819689F6
:104EA00080917904891728F4E981FA8186898093B1
:104EB0007904E981FA818689282F30E0C901880FB9
:104EC000991F880F991F880F991F820F931FAC019C
:104ED0004B575B4F89819A819C012E5F3F4FCA01DE
:104EE000B9010E941F190F900FBE80917A04882388
:104EF00061F0E0917304F09174049689E981FA817C
:104F00008689981710F40E94A91D0F900F90CF91D9
:104F1000DF910895DF93CF9300D000D000D0CDB7BC
:104F2000DEB79C838B830FB6F8940F928B819C81A4
:104F3000009739F480917304909174049E838D835B
:104F400004C08B819C819E838D838D819E819A83F9
:104F5000898389819A8102960E94CF19E981FA8119
:104F600084899589009729F089819A810C960E94FD
:104F7000CF1980917F048F5F80937F042091730409
:104F80003091740489819A818217930781F4898111
:104F90009A819C012E5F3F4F81ED94E0B9010E9400
:104FA0001F19809175048F5F809375040BC08091E9
:104FB000760481508093760489819A810E94193009
:104FC0000E942F300F900FBE80917A04882359F0F1
:104FD000209173043091740489819A818217930718
:104FE00011F40E94A91D26960FB6F894DEBF0FBEDD
:104FF000CDBFCF91DF910895DF93CF93CDB7DEB7CB
:105000002A970FB6F894DEBF0FBECDBF98878F8367
:105010007A8769871B820E94592B8091770490912F
:1050200078049A838983EF81F8852081318189858D
:105030009A85820F931F9E838D83EF81F88520814F
:10504000318189819A818217930798F4EF81F885DD
:10505000208131818D819E8182179307E0F42D811B
:105060003E8189819A8182179307A8F481E08B831E
:1050700012C0EF81F885208131818D819E81821758
:10508000930738F02D813E8189819A818217930799
:1050900010F481E08B83EF81F8858D819E8191836F
:1050A00080838B81882349F08D819E8129813A817B
:1050B000821B930B60E00E9484340E94652B8C83DA
:1050C0008C81882311F40E94A91D2A960FB6F894AA
:1050D000DEBF0FBECDBFCF91DF910895DF93CF9399
:1050E00000D00F92CDB7DEB79B838A8319828A8165
:1050F0009B81009751F00E94592B8A819B8160E02F
:105100000E9484340E94652B89838981882311F44D
:105110000E94A91D0F900F900F90CF91DF910895DD
:10512000DF93CF93CDB7DEB727970FB6F894DEBFE6
:105130000FBECDBF9D838C830FB6F8940F928C81E8
:105140009D81009739F480917304909174049F833A
:105150008E8304C08C819D819F838E838E819F81ED
:105160009B838A83EA81FB81868989830F900FBEA6
:10517000898127960FB6F894DEBF0FBECDBFCF91C1
:10518000DF910895DF93CF93CDB7DEB728970FB6A1
:10519000F894DEBF0FBECDBF9E838D8319828D81B3
:1051A0009E81009739F480917304909174049887DC
:1051B0008F8304C08D819E8198878F838F8198858E
:1051C0009C838B83EB81FC8186898A838A812896E4
:1051D0000FB6F894DEBF0FBECDBFCF91DF9108951B
:1051E000DF93CF93CDB7DEB72A970FB6F894DEBF23
:1051F0000FBECDBF9F838E836887198288858530D7
:1052000010F084E088870FB6F8940F928E819F810A
:10521000009739F480917304909174049A87898778
:1052200004C08E819F819A87898789859A859D830D
:105230008C83EC81FD8186898B839B81888598177F
:1052400009F481C098858B818917A0F4209173049B
:10525000309174048C819D8182179307B1F0E091A5
:105260007304F091740496898885891770F081E041
:1052700089830BC020917304309174048C819D81CB
:105280008217930711F481E08983EC81FD8186897F
:105290008A83EC81FD818885868BEC81FD81848504
:1052A000958599235CF08885282F30E085E090E093
:1052B000821B930BEC81FD8195878487EC81FD81B6
:1052C000428553858A81282F30E0C901880F991FB4
:1052D000880F991F880F991F820F931F8B579B4F21
:1052E0004817590759F58C819D8102960E94CF1964
:1052F000EC81FD81968980917904891728F4EC81ED
:10530000FD81868980937904EC81FD818689282F2F
:1053100030E0C901880F991F880F991F880F991FC6
:10532000820F931FAC014B575B4F8C819D819C0179
:105330002E5F3F4FCA01B9010E941F19898188233E
:1053400011F00E94A91D0F900FBE2A960FB6F89477
:10535000DEBF0FBECDBFCF91DF910895DF93CF9316
:1053600000D000D000D0CDB7DEB79C838B830FB6C2
:10537000F8940F928B819C81009739F4809173048B
:10538000909174049E838D8304C08B819C819E8345
:105390008D838D819E819A83898389819A810296EA
:1053A0000E94CF19E981FA8184899589009729F0B3
:1053B00089819A810C960E94CF1989819A819C01DA
:1053C0002E5F3F4F8AED94E0B9010E941F19E981D9
:1053D000FA8185A1813019F4E981FA8115A20F9033
:1053E0000FBE80917A04882339F00FB6F8940F929B
:1053F0000E942F300F900FBE2091730430917404DF
:1054000089819A8182179307A1F480917A04882375
:1054100019F00E94A91D0DC09091DA0480917604C4
:10542000981729F4109274041092730402C00E9419
:105430006A2D26960FB6F894DEBF0FBECDBFCF9172
:10544000DF910895DF93CF9300D000D00F92CDB7B6
:10545000DEB79D838C831B828C819D819A83898397
:10546000E981FA818285938524E08A3D920781F45F
:10547000E981FA818489958924E0883C920741F08A
:10548000E981FA8184899589009711F481E08B8301
:105490008B810F900F900F900F900F90CF91DF9115
:1054A0000895DF93CF9300D000D0CDB7DEB79C83B3
:1054B0008B838B819C819A838983209173043091A3
:1054C000740489819A818217930709F447C08981FE
:1054D0009A81009709F442C00FB6F8940F9289811F
:1054E0009A810E94222A8823B9F189819A810296A1
:1054F0000E94CF19E981FA819689809179048917F0
:1055000028F4E981FA81868980937904E981FA8116
:105510008689282F30E0C901880F991F880F991FAD
:10552000880F991F820F931FAC014B575B4F8981E6
:105530009A819C012E5F3F4FCA01B9010E941F1939
:10554000E981FA819689E0917304F0917404868967
:10555000981710F00E94A91D0F900FBE0F900F908A
:105560000F900F90CF91DF910895DF93CF9300D0EC
:1055700000D000D0CDB7DEB79E838D831C828D8195
:105580009E819B838A8319828A819B810E94222A21
:10559000882309F446C0809184048823C1F5EA81F8
:1055A000FB819689E0917304F091740486899817C1
:1055B00010F081E08C838A819B8102960E94CF1932
:1055C000EA81FB81968980917904891728F4EA8120
:1055D000FB81868980937904EA81FB818689282F63
:1055E00030E0C901880F991F880F991F880F991FF4
:1055F000820F931FAC014B575B4F8A819B819C01AB
:105600002E5F3F4FCA01B9010E941F190AC08A814B
:105610009B819C01245F3F4F88EC94E0B9010E947C
:105620001F198C8126960FB6F894DEBF0FBECDBF32
:10563000CF91DF910895EF92FF920F93DF93CF9375
:105640000F92CDB7DEB78FE99FE228E730E0E2E8BE
:10565000F4E0B90145E550E020E030E000E07F01F2
:105660000E94DE2589838981813081F4F8948FEF4F
:105670009FEF909381048093800481E080937A046B
:1056800010927804109277040E946D1D0F90CF91B4
:10569000DF910F91FF90EF900895DF93CF93CDB7F7
:1056A000DEB7F89410927A040E94A21DCF91DF9188
:1056B0000895DF93CF93CDB7DEB7809184048F5FD9
:1056C00080938404CF91DF910895DF93CF9300D02E
:1056D00000D00F92CDB7DEB71D821C821B820FB6A1
:1056E000F8940F9280918404815080938404809177
:1056F0008404882309F07CC080917604882309F40F
:1057000077C045C0E091CD04F091CE0486819781A9
:105710009D838C838C819D810C960E94CF198C81F6
:105720009D8102960E94CF19EC81FD81968980911E
:105730007904891728F4EC81FD81868980937904A6
:10574000EC81FD818689282F30E0C901880F991FDF
:10575000880F991F880F991F820F931FAC014B5719
:105760005B4F8C819D819C012E5F3F4FCA01B90127
:105770000E941F19EC81FD819689E0917304F091DC
:1057800074048689981718F081E080937D048091D5
:10579000C804882309F0B6CF8C819D81009711F051
:1057A0000E942F3080917B0490917C049A8389839E
:1057B00089819A810097A1F00E94812C882319F099
:1057C00081E080937D0489819A8101979A838983FE
:1057D00089819A81009781F710927C0410927B0452
:1057E00080917D04882321F081E08B830E94A91D94
:1057F0000F900FBE8B810F900F900F900F900F9016
:10580000CF91DF910895DF93CF9300D0CDB7DEB76E
:105810000FB6F8940F9280917704909178049A8350
:1058200089830F900FBE89819A810F900F90CF913D
:10583000DF910895DF93CF9300D00F92CDB7DEB7FD
:10584000198280917704909178049B838A838A815E
:105850009B810F900F900F90CF91DF910895DF9370
:10586000CF93CDB7DEB780917604CF91DF910895C5
:10587000DF93CF9300D000D000D0CDB7DEB79C83AC
:105880008B838B819C81009739F480917304909174
:1058900074049E838D8304C08B819C819E838D8341
:1058A0008D819E819A83898389819A8149962696E2
:1058B0000FB6F894DEBF0FBECDBFCF91DF91089534
:1058C000DF93CF9300D00F92CDB7DEB79B838A834F
:1058D00019820E94592B20917B0430917C048A818B
:1058E0009B81820F931F90937C0480937B040E9482
:1058F000652B898389810F900F900F90CF91DF9155
:105900000895DF93CF93CDB7DEB729970FB6F894FC
:10591000DEBF0FBECDBF1D8280918404882309F0B5
:10592000C6C0809177049091780401969C838B8304
:105930008B819C8190937804809377048B819C81E8
:105940000097D9F48091C4049091C5049A83898307
:105950008091C6049091C7049093C5048093C404B9
:1059600089819A819093C7048093C60480917E04B4
:105970008F5F80937E040E942F30209180043091AD
:1059800081048B819C818217930708F471C0E09198
:10599000C404F091C5048081882339F48FEF9FEF10
:1059A000909381048093800463C0E091C404F091DB
:1059B000C5040580F681E02D8681978199878887C7
:1059C000E885F985828193819F838E832B813C8139
:1059D0008E819F812817390738F48E819F8190939B
:1059E00081048093800444C08885998502960E9432
:1059F000CF19E885F98584899589009729F08885EC
:105A000099850C960E94CF19E885F9859689809131
:105A10007904891728F4E885F985868980937904C3
:105A2000E885F9858689282F30E0C901880F991FFC
:105A3000880F991F880F991F820F931FAC014B5736
:105A40005B4F888599859C012E5F3F4FCA01B90144
:105A50000E941F19E885F9859689E0917304F091F9
:105A600074048689981708F492CF81E08D838FCFD4
:105A7000E0917304F09174048689282F30E0C90105
:105A8000880F991F880F991F880F991F820F931FE6
:105A9000FC01EB57FB4F8081823010F081E08D8359
:105AA00080917D04882361F081E08D8309C080911D
:105AB0007B0490917C04019690937C0480937B04FA
:105AC0008D8129960FB6F894DEBF0FBECDBFCF9162
:105AD000DF910895DF93CF9300D00F92CDB7DEB75B
