:100000000C942A000C94510E0C94840E0C94B70E90
:100010000C9447000C9447000C94151D0C94CD1CB7
:100020000C94851C0C94371C0C94A91D0C945D1D1C
:100030000C9447000C9447000C9447000C94470024
:100040000C9447000C9447000C9447000C94470014
:100050000C94470011241FBECFE5D8E0DEBFCDBF12
:1000600011E0A0E6B0E0E0E3FDE302C005900D92F0
:10007000AA37B107D9F711E0AAE7B1E001C01D9294
:10008000AD39B107E1F70E94F11D0C94961E0C9456
:100090000000EF92FF920F931F937B018C0120E0F1
:1000A00030E040E05FE40E94F50388238CF0C80153
:1000B000B70120E030E040E05FE40E94C1010E940F
:1000C00055049B01AC01205030404040504806C0D0
:1000D000C801B7010E9455049B01AC01B901CA01D6
:1000E0001F910F91FF90EF900895A0E0B0E0EBE733
:1000F000F0E00C945F1EDC012B01FA019C91923020
:1001000008F439C1EB018881823008F433C194309E
:1001100069F4843009F02FC111969C91119789815F
:10012000981709F428C1A1E7B0E025C1843009F48B
:1001300021C18230A9F4923009F01DC19A01AD01AC
:1001400088E0EA010990AE01E90109929E0181501F
:10015000C1F7E201898111969C918923818308C1AD
:10016000923009F407C112962D903C901397EB0141
:100170008A819B811496AD90BD90CD90DC901797AD
:10018000EC80FD800E811F819101281B390BB90184
:1001900037FF04C066277727621B730B6032710537
:1001A0000CF061C0121613066CF537014801062EDB
:1001B00004C096948794779467940A94D2F721E0C8
:1001C00030E040E050E004C0220F331F441F551FB1
:1001D0006A95D2F721503040404050402E213F21B7
:1001E00040235123211531054105510521F021E01E
:1001F00030E040E050E079018A01E628F72808293C
:1002000019293CC0232BD1F1260E371E350146019A
:10021000062E04C096948794779467940A94D2F734
:1002200021E030E040E050E004C0220F331F441FC3
:10023000551F6A95D2F721503040404050402A2146
:100240003B214C215D21211531054105510521F04E
:1002500021E030E040E050E059016A01A628B728CB
:10026000C828D9280BC0821593052CF01C01AA249C
:10027000BB24650103C0EE24FF24870111969C91E5
:10028000D20111968C91981709F445C0992339F041
:10029000A80197012A193B094C095D0906C0A6016E
:1002A00095012E193F09400B510B57FD08C01182D3
:1002B0003382228224833583468357831DC081E0A5
:1002C00081833382228288279927DC01821B930B4A
:1002D000A40BB50B84839583A683B7830DC0220F2F
:1002E000331F441F551F24833583468357838281E0
:1002F000938101979383828324813581468157813D
:10030000DA01C9010197A109B1098F5F9F4FAF4F72
:10031000BF4328F30BC0918333822282EA0CFB1C7B
:100320000C1D1D1DE482F5820683178383E0808304
:10033000248135814681578157FF1AC0C901AA27F8
:1003400097FDA095BA2F81709070A070B0705695EF
:10035000479537952795822B932BA42BB52B848318
:100360009583A683B7838281938101969383828349
:10037000DF0101C0D201CD01CDB7DEB7E2E10C94BF
:100380007B1EA0E2B0E0E7ECF1E00C946B1E698309
:100390007A838B839C832D833E834F835887E9E048
:1003A000EE2EF12CEC0EFD1ECE010196B7010E943F
:1003B00046068E010F5E1F4FCE010596B8010E94C2
:1003C00046068A8991E089278A8BC701B801AE0168
:1003D000475E5F4F0E9475000E947105A096E6E09F
:1003E0000C94871EA0E2B0E0E8EFF1E00C946B1EE5
:1003F00069837A838B839C832D833E834F835887C5
:10040000F9E0EF2EF12CEC0EFD1ECE010196B701A6
:100410000E9446068E010F5E1F4FCE010596B80161
:100420000E944606C701B801AE01475E5F4F0E94B9
:1004300075000E947105A096E6E00C94871EA0E26C
:10044000B0E0E5E2F2E00C945F1E69837A838B836F
:100450009C832D833E834F835887CE010196BE0136
:10046000675F7F4F0E944606CE010596BE016F5E14
:100470007F4F0E9446069985923088F089898230A4
:10048000C8F0943019F4823051F404C0843029F457
:10049000923081F481E790E0C6C0923049F420E0C8
:1004A0009A858A89981321E02A87CE010996BBC0D4
:1004B000823049F420E09A858A89981321E02A8BBA
:1004C000CE014196B0C02D843E844F8458886D88FB
:1004D0007E888F88988CEE24FF248701AA24BB2471
:1004E000650140E050E060E070E0E0E0F0E0C10174
:1004F00081709070892BE9F0E60CF71C081D191D1E
:100500009A01AB012A0D3B1D4C1D5D1D80E090E062
:10051000A0E0B0E0E614F7040805190520F481E036
:1005200090E0A0E0B0E0BA01A901480F591F6A1F8E
:100530007B1FAA0CBB1CCC1CDD1C97FE08C081E0F5
:1005400090E0A0E0B0E0A82AB92ACA2ADB2A3196B6
:10055000E032F10549F0660C771C881C991C569412
:10056000479437942794C3CFFA85EA892B893C892D
:100570008B859C85280F391F2E5F3F4F17C0CA01FE
:1005800081709070892B61F016950795F794E79428
:1005900080E090E0A0E0B0E8E82AF92A0A2B1B2BC3
:1005A00076956795579547952F5F3F4F77FDE7CF36
:1005B0000CC0440F551F661F771F17FD4160EE0CDE
:1005C000FF1C001F111F21503040403090E05907A0
:1005D00090E0690790E4790760F32B8F3C8FDB0193
:1005E000CA018F779070A070B07080349105A1051A
:1005F000B10561F447FD0AC0E114F10401051105DC
:1006000029F0405C5F4F6F4F7F4F40781A8EFE1786
:1006100011F081E08A8F4D8F5E8F6F8F78A383E01A
:10062000898FCE0149960E947105A096E2E10C9453
:100630007B1EA8E1B0E0EFE1F3E00C94671E698354
:100640007A838B839C832D833E834F835887B9E0C5
:10065000EB2EF12CEC0EFD1ECE010196B7010E948F
:1006600046068E010F5E1F4FCE010596B8010E940F
:1006700046062985223008F47EC03989323010F4CC
:10068000B8017CC08A859A8989278A87243011F02D
:10069000223031F4231709F06EC061E770E06EC0BC
:1006A000343039F41D861E861F86188A1C861B86E8
:1006B00004C0323021F484E08987B7015FC02B8504
:1006C0003C858B899C89281B390B3C872B87ED84C3
:1006D000FE840F851889AD88BE88CF88D88CEA142F
:1006E000FB040C051D0540F4EE0CFF1C001F111F40
:1006F000215030403C872B8720E030E040E050E044
:1007000080E090E0A0E0B0E460E070E0EA14FB0478
:100710000C051D0540F0282B392B4A2B5B2BEA18C2
:10072000FB080C091D09B695A79597958795EE0CC2
:10073000FF1C001F111F6F5F7F4F6F31710531F775
:10074000DA01C9018F779070A070B0708034910584
:10075000A105B10561F427FD0AC0E114F10401050A
:10076000110529F0205C3F4F4F4F5F4F20782D87B8
:100770003E874F87588BBE01675F7F4FCB010E943A
:1007800071056896EAE00C94831EA8E1B0E0EBECFA
:10079000F3E00C946B1E69837A838B839C832D8397
:1007A0003E834F83588789E0E82EF12CEC0EFD1E26
:1007B000CE010196B7010E9446068E010F5E1F4FC3
:1007C000CE010596B8010E9446068985823040F028
:1007D0008989823028F0C701B8010E94BE0601C095
:1007E0008FEF6896E6E00C94871EA8E1B0E0EBEF8F
:1007F000F3E00C946B1E69837A838B839C832D8337
:100800003E834F83588789E0E82EF12CEC0EFD1EC5
:10081000CE010196B7010E9446068E010F5E1F4F62
:10082000CE010596B8010E9446068985823040F0C7
:100830008989823028F0C701B8010E94BE0601C034
:100840008FEF6896E6E00C94871EA8E1B0E0EBE23B
:10085000F4E00C946B1E69837A838B839C832D83D5
:100860003E834F83588789E0E82EF12CEC0EFD1E65
:10087000CE010196B7010E9446068E010F5E1F4F02
:10088000CE010596B8010E9446068985823040F067
:100890008989823028F0C701B8010E94BE0601C0D4
:1008A00081E06896E6E00C94871EACE0B0E0EBE5F2
:1008B000F4E00C946F1E69837A838B839C83CE0152
:1008C0000196BE016B5F7F4F0E9446068D8182308C
:1008D00061F1823050F1843021F48E81882351F10E
:1008E0002EC02F81388537FD20C06E812F31310514
:1008F0001CF06623F9F023C08EE190E0821B930B7D
:1009000029853A854B855C8504C056954795379572
:1009100027958A95D2F76623B1F05095409530958A
:1009200021953F4F4F4F5F4F0EC020E030E040E039
:1009300050E009C02FEF3FEF4FEF5FE704C020E02A
:1009400030E040E050E8B901CA012C96E2E00C9496
:100950008B1EA8E0B0E0EFEAF4E00C94671E7B0188
:100960008C01611571058105910519F482E0898377
:1009700060C083E089838EE1C82ED12CDC82CB82DB
:10098000ED82FE820F831887C801B7010E942205FD
:10099000FC013197F7FF3BC0222733272E1B3F0B6B
:1009A00057016801022E04C0D694C794B794A79447
:1009B0000A94D2F740E050E060E070E081E090E01F
:1009C000A0E0B0E004C0880F991FAA1FBB1F2A95A2
:1009D000D2F70197A109B1098E219F21A023B1234C
:1009E0000097A105B10521F041E050E060E070E022
:1009F0004A295B296C297D294D835E836F83788723
:100A00008EE190E08E1B9F0B9C838B8312C03097EE
:100A100081F00E2E04C0EE0CFF1C001F111F0A9463
:100A2000D2F7ED82FE820F831887CE1ADF0ADC82AE
:100A3000CB821A82CE0101960E9471052896EAE0C7
:100A40000C94831EEF92FF920F931F937B018C01F6
:100A500080E0E81680E0F80681E0080780E01807EB
:100A600088F48FEFE816F1040105110531F028F044
:100A700088E090E0A0E0B0E017C080E090E0A0E067
:100A8000B0E012C080E0E81680E0F80680E00807D9
:100A900081E0180728F088E190E0A0E0B0E004C011
:100AA00080E190E0A0E0B0E020E230E040E050E003
:100AB000281B390B4A0B5B0B04C016950795F7945E
:100AC000E7948A95D2F7F701E758FF4F8081281BFA
:100AD000310941095109C9011F910F91FF90EF9010
:100AE0000895DF92EF92FF920F931F93FC01E48031
:100AF000F58006811781D1808081823048F480E0C2
:100B000090E0A0E1B0E0E82AF92A0A2B1B2BA5C04F
:100B1000843009F49FC0823021F4EE24FF24870141
:100B200005C0E114F1040105110519F4E0E0F0E05D
:100B300096C0628173819FEF623879070CF05BC0C9
:100B400022E83FEF261B370B2A3131052CF020E03D
:100B500030E040E050E02AC0B801A701022E04C0F6
:100B600076956795579547950A94D2F781E090E07E
:100B7000A0E0B0E004C0880F991FAA1FBB1F2A95F0
:100B8000D2F70197A109B1098E219F21A023B1239A
:100B90000097A105B10521F081E090E0A0E0B0E070
:100BA0009A01AB01282B392B4A2B5B2BDA01C901A7
:100BB0008F779070A070B07080349105A105B10559
:100BC00039F427FF09C0205C3F4F4F4F5F4F04C0EF
:100BD000215C3F4F4F4F5F4FE0E0F0E02030A0E05E
:100BE0003A07A0E04A07A0E45A0710F0E1E0F0E07D
:100BF00079018A0127C06038710564F5FB01E1586D
:100C0000FF4FD801C7018F779070A070B07080340B
:100C10009105A105B10539F4E7FE0DC080E490E02F
:100C2000A0E0B0E004C08FE390E0A0E0B0E0E80E08
:100C3000F91E0A1F1B1F17FF05C016950795F7948D
:100C4000E794319687E016950795F794E7948A958F
:100C5000D1F705C0EE24FF248701EFEFF0E06E2FFF
:100C6000679566276795902F9F77D794DD24D79453
:100C70008E2F8695492F462B582F5D29B701CA0123
:100C80001F910F91FF90EF90DF900895FC01DB0121
:100C9000408151812281622F6F7770E0221F2227CD
:100CA000221F9381892F880F822B282F30E0991FD4
:100CB0009927991F11969C93119721153105A9F534
:100CC000411551056105710511F482E037C082E8D4
:100CD0009FEF13969C938E9312979A01AB0167E056
:100CE000220F331F441F551F6A95D1F783E08C9361
:100CF0000DC0220F331F441F551F12968D919C91DA
:100D00001397019713969C938E931297203080E04F
:100D1000380780E0480780E4580758F314962D936D
:100D20003D934D935C93179708952F3F310579F4C8
:100D3000411551056105710519F484E08C930895FE
:100D400064FF03C081E08C9312C01C9210C02F5727
:100D5000304013963C932E93129783E08C9387E058
:100D6000440F551F661F771F8A95D1F7706414963C
:100D70004D935D936D937C93179708951F93DC01BA
:100D8000FB019C91923008F447C08081823008F4C6
:100D900043C0943051F411961C91843099F58181AF
:100DA000682F70E0611B71093FC0843021F09230E0
:100DB00031F48230B9F18181882389F12DC01196F7
:100DC0001C9111978230F1F081811817D9F4129695
:100DD0002D913C911397828193818217930794F010
:100DE00028173907BCF014968D919D910D90BC91F8
:100DF000A02D2481358146815781281739074A075C
:100E00005B0718F4112341F00AC082179307A40767
:100E1000B50740F4112319F061E070E005C06FEFF1
:100E20007FEF02C060E070E0CB011F910895DF9377
:100E3000CF93CDB7DEB7EAE3F0E087E08083E7E366
:100E4000F0E088E08083E4E3F0E08FEF8083E1E38B
:100E5000F0E01082EBE3F0E01082E8E3F0E01082D3
:100E6000E5E3F0E01082E2E3F0E01082CF91DF9161
:100E70000895DF93CF93CDB7DEB72E970FB6F894D2
:100E8000DEBF0FBECDBF8A836B834C8381E0898335
:100E90008A81843008F00DC18B81883008F009C147
:100EA0008C81882321F08C81813009F002C18A81F4
:100EB000282F30E03E872D878D859E8581309105D6
:100EC00009F44FC02D853E85223031052CF48D85E7
:100ED0009E85009771F0EEC02D853E85223031054C
:100EE00009F477C08D859E858330910509F4A9C0EA
:100EF000E1C08B81282F30E03C872B878B859C8538
:100F0000009731F02B853C8521303105B1F0D2C0FE
:100F1000AAE3B0E0EAE3F0E08081482F8B81282F3C
:100F200030E081E090E0022E02C0880F991F0A9401
:100F3000E2F7809584238C93BDC0AAE3B0E0EAE396
:100F4000F0E08081482F8B81282F30E081E090E015
:100F5000022E02C0880F991F0A94E2F7842B8C930B
:100F6000A9C08B81282F30E03A87298789859A8507
:100F7000009731F029853A8521303105B1F09AC0CA
:100F8000A7E3B0E0E7E3F0E08081482F8B81282FD2
:100F900030E081E090E0022E02C0880F991F0A9491
:100FA000E2F7809584238C9385C0A7E3B0E0E7E364
:100FB000F0E08081482F8B81282F30E081E090E0A5
:100FC000022E02C0880F991F0A94E2F7842B8C939B
:100FD00071C08B81282F30E038872F838F819885CF
:100FE000009731F02F81388521303105B1F062C092
:100FF000A4E3B0E0E4E3F0E08081482F8B81282F68
:1010000030E081E090E0022E02C0880F991F0A9420
:10101000E2F7809584238C934DC0A4E3B0E0E4E331
:10102000F0E08081482F8B81282F30E081E090E034
:10103000022E02C0880F991F0A94E2F7842B8C932A
:1010400039C08B81282F30E03E832D838D819E8196
:10105000009731F02D813E8121303105B1F02AC059
:10106000A1E3B0E0E1E3F0E08081482F8B81282FFD
:1010700030E081E090E0022E02C0880F991F0A94B0
:10108000E2F7809584238C9315C0A1E3B0E0E1E3FF
:10109000F0E08081482F8B81282F30E081E090E0C4
:1010A000022E02C0880F991F0A94E2F7842B8C93BA
:1010B00001C0198289812E960FB6F894DEBF0FBE4B
:1010C000CDBFCF91DF910895DF93CF93CDB7DEB73A
:1010D0002E970FB6F894DEBF0FBECDBF8A836B8309
:1010E0004C8381E089838B81883008F00CC18A8130
:1010F000282F30E03E872D878D859E858130910594
:1011000009F451C02D853E85223031052CF48D85A2
:101110009E85009771F0F5C02D853E852230310502
:1011200009F47BC08D859E858330910509F4AFC09D
:10113000E8C08C81282F30E03C872B878B859C85ED
:10114000009731F02B853C8521303105B1F029C065
:10115000ABE3B0E0EBE3F0E08081482F8B81282FF8
:1011600030E081E090E0022E02C0880F991F0A94BF
:10117000E2F7809584238C93C7C0ABE3B0E0EBE348
:10118000F0E08081482F8B81282F30E081E090E0D3
:10119000022E02C0880F991F0A94E2F7842B8C93C9
:1011A000B3C01982B1C08C81282F30E03A872987DB
:1011B00089859A85009731F029853A852130310556
:1011C000B1F029C0A8E3B0E0E8E3F0E08081482F67
:1011D0008B81282F30E081E090E0022E02C0880F42
:1011E000991F0A94E2F7809584238C938DC0A8E31D
:1011F000B0E0E8E3F0E08081482F8B81282F30E0D9
:1012000081E090E0022E02C0880F991F0A94E2F755
:10121000842B8C9379C0198277C08C81282F30E081
:1012200038872F838F819885009731F02F813885FB
:1012300021303105B1F029C0A5E3B0E0E5E3F0E0ED
:101240008081482F8B81282F30E081E090E0022EB2
:1012500002C0880F991F0A94E2F7809584238C932B
:1012600053C0A5E3B0E0E5E3F0E08081482F8B8137
:10127000282F30E081E090E0022E02C0880F991FF5
:101280000A94E2F7842B8C933FC019823DC08C8175
:10129000282F30E03E832D838D819E81009731F091
:1012A0002D813E8121303105B1F029C0A2E3B0E0AB
:1012B000E2E3F0E08081482F8B81282F30E081E04D
:1012C00090E0022E02C0880F991F0A94E2F78095E1
:1012D00084238C9319C0A2E3B0E0E2E3F0E08081C4
:1012E000482F8B81282F30E081E090E0022E02C051
:1012F000880F991F0A94E2F7842B8C9305C01982FA
:1013000003C0198201C0198289812E960FB6F89404
:10131000DEBF0FBECDBFCF91DF910895DF93CF9396
:10132000CDB7DEB728970FB6F894DEBF0FBECDBF9E
:101330008B836C835E834D8381E08A838B818430D1
:1013400008F0A1C08C81883008F09DC08D819E81FD
:10135000009709F498C08B81282F30E038872F83BD
:101360004F81588541305105A9F18F819885823090
:10137000910534F42F8138852115310571F081C034
:101380004F8158854230510509F441C08F819885BD
:101390008330910509F458C074C0E9E3F0E080811E
:1013A000282F30E08C81882F90E0A90102C055954C
:1013B00047958A95E2F7CA018170898389818823DC
:1013C00021F4ED81FE8110825FC0ED81FE8181E01C
:1013D00080835AC0E6E3F0E08081282F30E08C81E2
:1013E000882F90E0A90102C0559547958A95E2F7AC
:1013F000CA01817089838981882321F4ED81FE816E
:10140000108242C0ED81FE8181E080833DC0E3E334
:10141000F0E08081282F30E08C81882F90E0A901B6
:1014200002C0559547958A95E2F7CA018170898374
:101430008981882321F4ED81FE81108225C0ED8110
:10144000FE8181E0808320C0E0E3F0E08081282FEE
:1014500030E08C81882F90E0A90102C05595479516
:101460008A95E2F7CA01817089838981882321F4F2
:10147000ED81FE81108208C0ED81FE8181E08083D4
:1014800003C01A8201C01A828A8128960FB6F89486
:10149000DEBF0FBECDBFCF91DF910895DF93CF9315
:1014A000CDB7DEB72D970FB6F894DEBF0FBECDBF18
:1014B0008A836B8381E089838B81882321F08B81F0
:1014C000813009F082C08A81282F30E03D872C8747
:1014D0008C859D858130910571F12C853D8522306B
:1014E00031052CF48C859D85009769F06CC02C85A6
:1014F0003D8522303105B9F18C859D85833091057C
:1015000009F449C060C08B81282F30E03B872A87CF
:101510008A859B85009731F02A853B8521303105EE
:1015200029F054C0EAE3F0E0108250C0EAE3F0E0B2
:101530008FEF80834BC08B81282F30E0398728873D
:1015400088859985009731F02885398521303105C6
:1015500029F03CC0E7E3F0E0108238C0E7E3F0E0B8
:101560008FEF808333C08B81282F30E03F832E8321
:101570008E819F81009731F02E813F81213031058E
:1015800029F024C0E4E3F0E0108220C0E4E3F0E0BE
:101590008FEF80831BC08B81282F30E03D832C830D
:1015A0008C819D81009731F02C813D812130310566
:1015B00029F00CC0E1E3F0E0108208C0E1E3F0E0C4
:1015C0008FEF808303C0198201C0198289812D9613
:1015D0000FB6F894DEBF0FBECDBFCF91DF91089557
:1015E000DF93CF9300D000D00F92CDB7DEB78A83C0
:1015F0006B8381E089838A81282F30E03D832C83AF
:101600008C819D8181309105D1F02C813D812230EA
:1016100031052CF48C819D81009761F01FC02C81D5
:101620003D812230310581F08C819D81833091058F
:1016300081F014C0EBE3F0E08B81808310C0E8E31D
:10164000F0E08B8180830BC0E5E3F0E08B81808349
:1016500006C0E2E3F0E08B81808301C019828981BA
:101660000F900F900F900F900F90CF91DF910895F2
:10167000DF93CF9300D000D000D0CDB7DEB78A8300
:101680007C836B8381E089838B819C810097E9F166
:101690008A81282F30E03E832D838D819E81813089
:1016A0009105E1F02D813E81223031052CF48D81B0
:1016B0009E81009761F027C02D813E812230310547
:1016C000A1F08D819E8183309105B1F01CC0E9E3CA
:1016D000F0E08081EB81FC81808318C0E6E3F0E0DC
:1016E0008081EB81FC81808311C0E3E3F0E08081A5
:1016F000EB81FC8180830AC0E0E3F0E08081EB8134
:10170000FC81808303C0198201C0198289812696D9
:101710000FB6F894DEBF0FBECDBFCF91DF91089515
:10172000DF93CF93CDB7DEB72B970FB6F894DEBF1C
:101730000FBECDBF8A836B8381E089838A81282F86
:1017400030E03B872A878A859B858130910509F4A3
:1017500085C02A853B852230310509F4F9C08A8588
:101760009B85009709F023C18B81282F30E03987B2
:101770002887888599858130910561F1288539858B
:10178000223031052CF488859985009769F064C072
:10179000288539852230310599F1888599858330EE
:1017A000910509F443C058C0A5E5B0E0E5E5F0E0D7
:1017B000808182608C93A5E5B0E0E5E5F0E0808172
:1017C00081608C93ABE5B0E0EBE5F0E08081806474
:1017D0008C93EEC0A5E5B0E0E5E5F0E080818260A5
:1017E0008C93A5E5B0E0E5E5F0E080818E7F8C93F9
:1017F000ABE5B0E0EBE5F0E0808180648C93D8C08D
:10180000A5E5B0E0E5E5F0E080818D7F8C93A5E56E
:10181000B0E0E5E5F0E0808181608C93ABE5B0E07D
:10182000EBE5F0E0808180648C93C2C0A5E5B0E078
:10183000E5E5F0E080818D7F8C93A5E5B0E0E5E5FE
:10184000F0E080818E7F8C93ABE5B0E0EBE5F0E0DB
:10185000808180648C93ACC01982AAC08B81282FB0
:1018600030E03F832E838E819F818130910561F12D
:101870002E813F81223031052CF48E819F8100978B
:1018800069F064C02E813F812230310599F18E814B
:101890009F818330910509F443C058C0A5E5B0E0AD
:1018A000E5E5F0E0808188608C93A5E5B0E0E5E5B2
:1018B000F0E0808184608C93ABE5B0E0EBE5F0E094
:1018C000808180688C9374C0A5E5B0E0E5E5F0E028
:1018D000808188608C93A5E5B0E0E5E5F0E080814B
:1018E0008B7F8C93ABE5B0E0EBE5F0E08081806826
:1018F0008C935EC0A5E5B0E0E5E5F0E08081877FF0
:101900008C93A5E5B0E0E5E5F0E0808184608C9300
:10191000ABE5B0E0EBE5F0E0808180688C9348C0F7
:10192000A5E5B0E0E5E5F0E08081877F8C93A5E553
:10193000B0E0E5E5F0E080818B7F8C93ABE5B0E033
:10194000EBE5F0E0808180688C9332C0198230C072
:101950008B81282F30E03D832C838C819D810097E3
:1019600031F02C813D812130310581F01EC0A4E58C
:10197000B0E0E4E5F0E0808180648C93ABE5B0E01A
:10198000EBE5F0E0808180628C9312C0A4E5B0E0CA
:10199000E4E5F0E080818F7B8C93ABE5B0E0EBE594
:1019A000F0E0808180628C9303C0198201C01982AB
:1019B00089812B960FB6F894DEBF0FBECDBFCF91B5
:1019C000DF910895DF93CF9300D000D0CDB7DEB77D
:1019D0008A8381E089838A81282F30E03C832B83AE
:1019E0008B819C818130910589F02B813C81223053
:1019F0003105A1F08B819C810097C1F4ABE5B0E08B
:101A0000EBE5F0E080818F7B8C9311C0ABE5B0E01B
:101A1000EBE5F0E080818F778C9309C0ABE5B0E017
:101A2000EBE5F0E080818F7D8C9301C01982898184
:101A30000F900F900F900F90CF91DF910895DF934B
:101A4000CF93CDB7DEB72B970FB6F894DEBF0FBE9E
:101A5000CDBF8A836B8381E089838A81282F30E020
:101A60003B872A878A859B858130910509F468C068
:101A70002A853B852230310509F4BFC08A859B85C4
:101A8000009709F0DBC08B81282F30E03987288749
:101A9000888599858130910521F128853985223005
:101AA00031052CF488859985009761F047C0288519
:101AB00039852230310521F188859985833091055A
:101AC00071F13CC0A5E5B0E0E5E5F0E08081826021
:101AD0008C93A5E5B0E0E5E5F0E0808181608C9332
:101AE000AEC0A5E5B0E0E5E5F0E0808182608C93D2
:101AF000A5E5B0E0E5E5F0E080818E7F8C939FC0A6
:101B0000A5E5B0E0E5E5F0E080818D7F8C93A5E56B
:101B1000B0E0E5E5F0E0808181608C9390C0A5E5C0
:101B2000B0E0E5E5F0E080818D7F8C93A5E5B0E045
:101B3000E5E5F0E080818E7F8C9381C019827FC0C3
:101B40008B81282F30E03F832E838E819F818130CF
:101B5000910521F12E813F81223031052CF48E81B7
:101B60009F81009761F047C02E813F81223031056F
:101B700021F18E819F818330910571F13CC0A5E5F3
:101B8000B0E0E5E5F0E0808188608C93A5E5B0E009
:101B9000E5E5F0E0808184608C9351C0A5E5B0E07C
:101BA000E5E5F0E0808188608C93A5E5B0E0E5E5AF
:101BB000F0E080818B7F8C9342C0A5E5B0E0E5E545
:101BC000F0E08081877F8C93A5E5B0E0E5E5F0E06B
:101BD000808184608C9333C0A5E5B0E0E5E5F0E05A
:101BE0008081877F8C93A5E5B0E0E5E5F0E080811A
:101BF0008B7F8C9324C0198222C08B81282F30E0E8
:101C00003D832C838C819D81009731F02C813D8117
:101C10002130310549F010C0A4E5B0E0E4E5F0E082
:101C2000808180648C930BC0A4E5B0E0E4E5F0E033
:101C300080818F7B8C9303C0198201C019828981B6
:101C40002B960FB6F894DEBF0FBECDBFCF91DF91BC
:101C50000895DF93CF9300D000D0CDB7DEB78A834D
:101C60007C836B8381E089838A81833088F48B81D4
:101C70009C81009769F08A81882F90E0880F991FD6
:101C8000FC01E658FE4F8B819C819183808301C0CB
:101C9000198289810F900F900F900F90CF91DF9153
:101CA00008951F920F920FB60F9211242F933F9316
:101CB0004F935F936F937F938F939F93AF93BF9354
:101CC000EF93FF93DF93CF93CDB7DEB780917A0187
:101CD00090917B01009729F0E0917A01F0917B01CE
:101CE0000995CF91DF91FF91EF91BF91AF919F91B6
:101CF0008F917F916F915F914F913F912F910F90B5
:101D00000FBE0F901F9018951F920F920FB60F9253
:101D100011242F933F934F935F936F937F938F93F0
:101D20009F93AF93BF93EF93FF93DF93CF93CDB781
:101D3000DEB780917C0190917D01009729F0E091C0
:101D40007C01F0917D010995CF91DF91FF91EF9199
:101D5000BF91AF919F918F917F916F915F914F91C3
:101D60003F912F910F900FBE0F901F9018951F92CB
:101D70000F920FB60F9211242F933F934F935F93BF
:101D80006F937F938F939F93AF93BF93EF93FF9343
:101D9000DF93CF93CDB7DEB780917E0190917F0125
:101DA000009729F0E0917E01F0917F010995CF9194
:101DB000DF91FF91EF91BF91AF919F918F917F91B3
:101DC0006F915F914F913F912F910F900FBE0F90A8
:101DD0001F901895DF93CF93CDB7DEB7AFE5B0E096
:101DE000EFE5F0E0808180688C93CF91DF910895DA
:101DF000DF93CF93CDB7DEB7AFE5B0E0EFE5F0E02E
:101E000080818F778C93CF91DF9108950F931F93EB
:101E1000DF93CF93CDB7DEB7CC54D0400FB6F89454
:101E2000DEBF0FBECDBFFE01E75BFF4F80E090E05D
:101E3000ACE0B2E480839183A283B3838E010B5B19
:101E40001F4FFE01E75BFF4F6081718182819381AB
:101E500020E030E04AEF54E40E941F02DC01CB0195
:101E6000F80180839183A283B383FE01EB5BFF4F74
:101E7000608171818281938120E030E040E85FE3FE
:101E80000E942504882344F4FE01ED5BFF4F81E0AE
:101E900090E09183808364C0FE01EB5BFF4F608123
:101EA00071818281938120E03FEF4FE757E40E94E8
:101EB000C50318160CF043C0FE01E75BFF4F6081BD
:101EC00071818281938120E030E040E251E40E9400
:101ED0001F02DC01CB018E010D5B1F4FBC01CD0148
:101EE0000E944900DC01CB01F801918380831FC06F
:101EF000FE01EF5BFF4F88EC90E091838083FE0151
:101F0000EF5BFF4F808191810197F1F7FE01EF5B5D
:101F1000FF4F91838083DE01AD5BBF4FFE01ED5B20
:101F2000FF4F80819181019711969C938E93FE01C2
:101F3000ED5BFF4F808191810097D1F624C08E0127
:101F40000D5B1F4FFE01EB5BFF4F60817181828152
:101F500093810E944900DC01CB01F80191838083C9
:101F6000FE01ED5BFF4F80819181FE01FF96918321
:101F70008083FE01FF96808191810197F1F7FE0138
:101F8000FF969183808388E30E94C91180E090E0EE
:101F9000A0E2B2E48BAF9CAFADAFBEAF6BAD7CAD9A
:101FA0008DAD9EAD2BEA3AEA4AE250E40E941F0250
:101FB000DC01CB018FAB98AFA9AFBAAF6FA978ADF9
:101FC00089AD9AAD20E030E040E85FE30E9425044F
:101FD00088231CF481E08EAB91C06FA978AD89ADE8
:101FE0009AAD20E030E04FE753E40E94C503181695
:101FF0000CF07BC06BAD7CAD8DAD9EAD20E030E0D4
:102000004AE754E40E941903DC01CB018AAB9BAB85
:10201000ACABBDAB6AA97BA98CA99DA920E030E03F
:102020004AEF54E40E941F02DC01CB018EA79FA758
:10203000A8ABB9AB6EA57FA588A999A920E030E02F
:1020400040E85FE30E94250488232CF481E090E0BF
:102050009DA78CA73FC06EA57FA588A999A920E060
:102060003FEF4FE757E40E94C50318164CF56AA9E5
:102070007BA98CA99DA920E030E040E251E40E94B8
:102080001F02DC01CB01BC01CD010E944900DC0133
:10209000CB019DA78CA70FC088EC90E09BA78AA7D7
:1020A0008AA59BA50197F1F79BA78AA78CA59DA55B
:1020B00001979DA78CA78CA59DA5009769F724C0C3
:1020C0006EA57FA588A999A90E944900DC01CB01D2
:1020D0009DA78CA78CA59DA599A788A788A599A53C
:1020E0000197F1F799A788A70FC06FA978AD89ADBF
:1020F0009AAD0E944900DC01CB018EAB8EA98FA363
:102100008FA18A95F1F78FA38EE00E94C91180E01C
:1021100090E0A0E2B2E48BA39CA3ADA3BEA36BA10D
:102120007CA18DA19EA12BEA3AEA4AE250E40E94EA
:102130001F02DC01CB018F8F98A3A9A3BAA36F8DD7
:1021400078A189A19AA120E030E040E85FE30E94F5
:10215000250488231CF481E08E8F91C06F8D78A1B7
:1021600089A19AA120E030E04FE753E40E94C50323
:1021700018160CF07BC06BA17CA18DA19EA120E064
:1021800030E04AE754E40E941903DC01CB018A8F56
:102190009B8FAC8FBD8F6A8D7B8D8C8D9D8D20E04C
:1021A00030E04AEF54E40E941F02DC01CB018E8B29
:1021B0009F8BA88FB98F6E897F89888D998D20E03C
:1021C00030E040E85FE30E94250488232CF481E09E
:1021D00090E09D8B8C8B3FC06E897F89888D998D17
:1021E00020E03FEF4FE757E40E94C50318164CF577
:1021F0006A8D7B8D8C8D9D8D20E030E040E251E436
:102200000E941F02DC01CB01BC01CD010E944900EC
:10221000DC01CB019D8B8C8B0FC088EC90E09B8BFD
:102220008A8B8A899B890197F1F79B8B8A8B8C8992
:102230009D8901979D8B8C8B8C899D89009769F76F
:1022400024C06E897F89888D998D0E944900DC01A8
:10225000CB019D8B8C8B8C899D89998B888B8889F0
:1022600099890197F1F7998B888B0FC06F8D78A1B1
:1022700089A19AA10E944900DC01CB018E8F8E8D2D
:102280008F878F858A95F1F78F8781E00E94C9112A
:1022900080E090E0A0E0B0E48B879C87AD87BE87AC
:1022A0006B857C858D859E8520E030E04AEF54E487
:1022B0000E941F02DC01CB018F839887A987BA8710
:1022C0006F81788589859A8520E030E040E85FE37A
:1022D0000E94250488232CF481E090E09E838D8366
:1022E0003FC06F81788589859A8520E03FEF4FE771
:1022F00057E40E94C50318164CF56B857C858D85C7
:102300009E8520E030E040E251E40E941F02DC01A3
:10231000CB01BC01CD010E944900DC01CB019E83B1
:102320008D830FC088EC90E09C838B838B819C8194
:102330000197F1F79C838B838D819E8101979E830A
:102340008D838D819E81009769F714C06F81788598
:1023500089859A850E944900DC01CB019E838D838B
:102360008D819E819A83898389819A810197F1F772
:102370009A83898386E00E94C911C45BDF4F0FB640
:10238000F894DEBF0FBECDBFCF91DF911F910F91AB
:102390000895DF93CF93CDB7DEB7E1970FB6F894EA
:1023A000DEBF0FBECDBF89AB80E060E040E00E94A1
:1023B000640880E061E040E00E94640882E069A96E
:1023C0000E94F00A80E062E041E00E94640880E040
:1023D00090E0A0E8BFE38DA79EA7AFA7B8AB6DA51F
:1023E0007EA58FA598A92BEA3AEA4AE250E40E941A
:1023F0001F02DC01CB0189A79AA7ABA7BCA769A5DF
:102400007AA58BA59CA520E030E040E85FE30E9420
:10241000250488231CF481E088A791C069A57AA5CA
:102420008BA59CA520E030E04FE753E40E94C50354
:1024300018160CF07BC06DA57EA58FA598A920E08D
:1024400030E04AE754E40E941903DC01CB018CA37D
:102450009DA3AEA3BFA36CA17DA18EA19FA120E0EF
:1024600030E04AEF54E40E941F02DC01CB0188A354
:1024700099A3AAA3BBA368A179A18AA19BA120E0EB
:1024800030E040E85FE30E94250488232CF481E0DB
:1024900090E09F8F8E8F3FC068A179A18AA19BA1F8
:1024A00020E03FEF4FE757E40E94C50318164CF5B4
:1024B0006CA17DA18EA19FA120E030E040E251E41B
:1024C0000E941F02DC01CB01BC01CD010E9449002A
:1024D000DC01CB019F8F8E8F0FC088EC90E09D8F29
:1024E0008C8F8C8D9D8D0197F1F79D8F8C8F8E8DAC
:1024F0009F8D01979F8F8E8F8E8D9F8D009769F78F
:1025000024C068A179A18AA19BA10E944900DC0195
:10251000CB019F8F8E8F8E8D9F8D9B8F8A8F8A8D03
:102520009B8D0197F1F79B8F8A8F0FC069A57AA5C4
:102530008BA59CA50E944900DC01CB0188A788A53A
:10254000898F898D8A95F1F7898F80E062E040E07C
:102550000E94640880E090E0A0E8BFE38D8B9E8B32
:10256000AF8BB88F6D897E898F89988D2BEA3AEA77
:102570004AE250E40E941F02DC01CB01898B9A8B56
:10258000AB8BBC8B69897A898B899C8920E030E090
:1025900040E85FE30E94250488231CF481E0888BD7
:1025A00091C069897A898B899C8920E030E04FE766
:1025B00053E40E94C50318160CF07BC06D897E8918
:1025C0008F89988D20E030E04AE754E40E94190397
:1025D000DC01CB018C879D87AE87BF876C857D85AD
:1025E0008E859F8520E030E04AEF54E40E941F0270
:1025F000DC01CB0188879987AA87BB8768857985A5
:102600008A859B8520E030E040E85FE30E94250456
:1026100088232CF481E090E09F838E833FC06885FF
:1026200079858A859B8520E03FEF4FE757E40E943C
:10263000C50318164CF56C857D858E859F8520E039
:1026400030E040E251E40E941F02DC01CB01BC01FA
:10265000CD010E944900DC01CB019F838E830FC016
:1026600088EC90E09D838C838C819D810197F1F7AC
:102670009D838C838E819F8101979F838E838E8122
:102680009F81009769F724C0688579858A859B8535
:102690000E944900DC01CB019F838E838E819F8144
:1026A0009B838A838A819B810197F1F79B838A832D
:1026B0000FC069897A898B899C890E944900DC0155
:1026C000CB01888B8889898389818A95F1F78983F1
:1026D000E1960FB6F894DEBF0FBECDBFCF91DF916C
:1026E0000895DF93CF93CDB7DEB7E1970FB6F89497
:1026F000DEBF0FBECDBF89AB80E060E041E00E944D
:10270000640880E061E040E00E94640882E069A91A
:102710000E94F00A80E062E041E00E94640880E0EC
:1027200090E0A0E8BFE38DA79EA7AFA7B8AB6DA5CB
:102730007EA58FA598A92BEA3AEA4AE250E40E94C6
:102740001F02DC01CB0189A79AA7ABA7BCA769A58B
:102750007AA58BA59CA520E030E040E85FE30E94CD
:10276000250488231CF481E088A791C069A57AA577
:102770008BA59CA520E030E04FE753E40E94C50301
:1027800018160CF07BC06DA57EA58FA598A920E03A
:1027900030E04AE754E40E941903DC01CB018CA32A
:1027A0009DA3AEA3BFA36CA17DA18EA19FA120E09C
:1027B00030E04AEF54E40E941F02DC01CB0188A301
:1027C00099A3AAA3BBA368A179A18AA19BA120E098
:1027D00030E040E85FE30E94250488232CF481E088
:1027E00090E09F8F8E8F3FC068A179A18AA19BA1A5
:1027F00020E03FEF4FE757E40E94C50318164CF561
:102800006CA17DA18EA19FA120E030E040E251E4C7
:102810000E941F02DC01CB01BC01CD010E944900D6
:10282000DC01CB019F8F8E8F0FC088EC90E09D8FD5
:102830008C8F8C8D9D8D0197F1F79D8F8C8F8E8D58
:102840009F8D01979F8F8E8F8E8D9F8D009769F73B
:1028500024C068A179A18AA19BA10E944900DC0142
:10286000CB019F8F8E8F8E8D9F8D9B8F8A8F8A8DB0
:102870009B8D0197F1F79B8F8A8F0FC069A57AA571
:102880008BA59CA50E944900DC01CB0188A788A5E7
:10289000898F898D8A95F1F7898F80E062E040E029
:1028A0000E94640880E090E0A0E8BFE38D8B9E8BDF
:1028B000AF8BB88F6D897E898F89988D2BEA3AEA24
:1028C0004AE250E40E941F02DC01CB01898B9A8B03
:1028D000AB8BBC8B69897A898B899C8920E030E03D
:1028E00040E85FE30E94250488231CF481E0888B84
:1028F00091C069897A898B899C8920E030E04FE713
:1029000053E40E94C50318160CF07BC06D897E89C4
:102910008F89988D20E030E04AE754E40E94190343
:10292000DC01CB018C879D87AE87BF876C857D8559
:102930008E859F8520E030E04AEF54E40E941F021C
:10294000DC01CB0188879987AA87BB876885798551
:102950008A859B8520E030E040E85FE30E94250403
:1029600088232CF481E090E09F838E833FC06885AC
:1029700079858A859B8520E03FEF4FE757E40E94E9
:10298000C50318164CF56C857D858E859F8520E0E6
:1029900030E040E251E40E941F02DC01CB01BC01A7
:1029A000CD010E944900DC01CB019F838E830FC0C3
:1029B00088EC90E09D838C838C819D810197F1F759
:1029C0009D838C838E819F8101979F838E838E81CF
:1029D0009F81009769F724C0688579858A859B85E2
:1029E0000E944900DC01CB019F838E838E819F81F1
:1029F0009B838A838A819B810197F1F79B838A83DA
:102A00000FC069897A898B899C890E944900DC0101
:102A1000CB01888B8889898389818A95F1F789839D
:102A2000E1960FB6F894DEBF0FBECDBFCF91DF9118
:102A30000895DF93CF9300D0CDB7DEB79A83898313
:102A40000AC0E981FA8180810E94711389819A818B
:102A500001969A838983E981FA818081882389F7A5
:102A60000F900F90CF91DF9108950F931F93DF93F5
:102A7000CF93CDB7DEB765970FB6F894DEBF0FBE24
:102A8000CDBF6A8B7B8B8C8B9D8B8FEF8A838A89E2
:102A90009B89AC89BD890097A105B10599F580E3B3
:102AA0000E9471134EC08A818F5F8A838A81082FAA
:102AB000112707FD10958A899B89AC89BD892AE079
:102AC00030E040E050E0BC01CD010E943D1EDC0141
:102AD000CB01282FCE010396FC01E00FF11F2083CC
:102AE0008A899B89AC89BD892AE030E040E050E0CA
:102AF000BC01CD010E943D1EDA01C9018A8B9B8B6E
:102B0000AC8BBD8B8A899B89AC89BD890097A10557
:102B1000B10549F68A81898311C08981282F33271D
:102B200027FD3095CE010396FC01E20FF31F808153
:102B3000805D0E94711389818150898389818823F6
:102B400064F765960FB6F894DEBF0FBECDBFCF9188
:102B5000DF911F910F910895DF93CF9300D000D0A4
:102B60000F92CDB7DEB78A836B8381E089838B8137
:102B70008832D8F48A81282F30E03D832C838C81E1
:102B80009D818130910531F02C813D8122303105CC
:102B900031F00AC08B8180580E94C91106C08B8118
:102BA00080540E94C91101C0198289810F900F9031
:102BB0000F900F900F90CF91DF910895DF93CF93F7
:102BC000CDB7DEB72E970FB6F894DEBF0FBECDBFE0
:102BD00081E00E94C91180E090E0A0EAB1E48B8717
:102BE0009C87AD87BE876B857C858D859E8520E023
:102BF00030E04AEF54E40E941F02DC01CB018F83D6
:102C00009887A987BA876F81788589859A8520E01A
:102C100030E040E85FE30E94250488232CF481E043
:102C200090E09E838D833FC06F81788589859A85EA
:102C300020E03FEF4FE757E40E94C50318164CF51C
:102C40006B857C858D859E8520E030E040E251E4F7
:102C50000E941F02DC01CB01BC01CD010E94490092
:102C6000DC01CB019E838D830FC088EC90E09C83B8
:102C70008B838B819C810197F1F79C838B838D8162
:102C80009E8101979E838D838D819E81009769F738
:102C900014C06F81788589859A850E944900DC017E
:102CA000CB019E838D838D819E819A8389838981C7
:102CB0009A810197F1F79A8389832E960FB6F8943B
:102CC000DEBF0FBECDBFCF91DF910895DF93CF93CD
:102CD000CDB7DEB72A970FB6F894DEBF0FBECDBFD3
:102CE0008C837E836D834F83288781E08B8388E08C
:102CF0008A838C81282F30E03A87298789859A85B5
:102D00008330910509F48CC029853A85243031053A
:102D10008CF489859A858130910509F443C0298511
:102D20003A85223031050CF05CC089859A85009780
:102D3000D1F011C129853A852530310509F4AEC09D
:102D400089859A85853091050CF489C029853A8555
:102D50002630310509F4C1C089859A8587309105EF
:102D600009F4DAC0F8C080E40E94C91119820EC0CB
:102D70008981282F30E08D819E81FC01E20FF31FB5
:102D800080810E94711389818F5F898399818A81F3
:102D9000981770F38F8168850E94AC158C810E9412
:102DA0007113DAC088E40E94C91119820EC08981AA
:102DB000282F30E08D819E81FC01E20FF31F80817E
:102DC0000E94711389818F5F898399818A81981705
:102DD00070F38F8168850E94AC158C810E947113FD
:102DE000BBC080E50E94C91119820EC08981282FBD
:102DF00030E08D819E81FC01E20FF31F80810E94F3
:102E0000711389818F5F898399818A81981770F303
:102E10008F8168850E94AC158C810E9471139CC0C3
:102E200088E50E94C91119820EC08981282F30E0DF
:102E30008D819E81FC01E20FF31F80810E9471133E
:102E400089818F5F898399818A81981770F38F8137
:102E500068850E94AC158C810E9471137DC080E64C
:102E60000E94C91119820EC08981282F30E08D81FE
:102E70009E81FC01E20FF31F80810E947113898102
:102E80008F5F898399818A81981770F38F81688514
:102E90000E94AC158C810E9471135EC088E60E946E
:102EA000C91119820EC08981282F30E08D819E8141
:102EB000FC01E20FF31F80810E94711389818F5FF3
:102EC000898399818A81981770F38F8168850E9420
:102ED000AC158C810E9471133FC080E70E94C9111C
:102EE00019820EC08981282F30E08D819E81FC01DE
:102EF000E20FF31F80810E94711389818F5F8983A4
:102F000099818A81981770F38F8168850E94AC152A
:102F10008C810E94711320C088E70E94C911198218
:102F20000EC08981282F30E08D819E81FC01E20F47
:102F3000F31F80810E94711389818F5F898399813A
:102F40008A81981770F38F8168850E94AC158C81F7
:102F50000E94711301C01B828B812A960FB6F894D0
:102F6000DEBF0FBECDBFCF91DF910895DF93CF932A
:102F7000CDB7DEB7E1970FB6F894DEBF0FBECDBF79
:102F800089AB80E060E040E00E94640880E061E09E
:102F900040E00E94640889A9982F9295907F82E072
:102FA000692F0E94F00A80E062E041E00E9464081C
:102FB00080E090E0A0E8BFE38DA79EA7AFA7B8ABE5
:102FC0006DA57EA58FA598A92BEA3AEA4AE250E4BE
:102FD0000E941F02DC01CB0189A79AA7ABA7BCA75F
:102FE00069A57AA58BA59CA520E030E040E85FE3C9
:102FF0000E94250488231CF481E088A791C069A55C
:103000007AA58BA59CA520E030E04FE753E40E9411
:10301000C50318160CF07BC06DA57EA58FA598A9D9
:1030200020E030E04AE754E40E941903DC01CB01C0
:103030008CA39DA3AEA3BFA36CA17DA18EA19FA1D4
:1030400020E030E04AEF54E40E941F02DC01CB0193
:1030500088A399A3AAA3BBA368A179A18AA19BA1D4
:1030600020E030E040E85FE30E94250488232CF450
:1030700081E090E09F8F8E8F3FC068A179A18AA1E7
:103080009BA120E03FEF4FE757E40E94C5031816CD
:103090004CF56CA17DA18EA19FA120E030E040E223
:1030A00051E40E941F02DC01CB01BC01CD010E9452
:1030B0004900DC01CB019F8F8E8F0FC088EC90E020
:1030C0009D8F8C8F8C8D9D8D0197F1F79D8F8C8FAF
:1030D0008E8D9F8D01979F8F8E8F8E8D9F8D0097E8
:1030E00069F724C068A179A18AA19BA10E94490027
:1030F000DC01CB019F8F8E8F8E8D9F8D9B8F8A8F52
:103100008A8D9B8D0197F1F79B8F8A8F0FC069A5E0
:103110007AA58BA59CA50E944900DC01CB0188A75C
:1031200088A5898F898D8A95F1F7898F80E062E083
:1031300040E00E94640880E090E0A0E8BFE38D8B4F
:103140009E8BAF8BB88F6D897E898F89988D2BEA86
:103150003AEA4AE250E40E941F02DC01CB01898B6B
:103160009A8BAB8BBC8B69897A898B899C8920E08F
:1031700030E040E85FE30E94250488231CF481E0EE
:10318000888B91C069897A898B899C8920E030E09D
:103190004FE753E40E94C50318160CF07BC06D89FD
:1031A0007E898F89988D20E030E04AE754E40E94C0
:1031B0001903DC01CB018C879D87AE87BF876C85A7
:1031C0007D858E859F8520E030E04AEF54E40E94A3
:1031D0001F02DC01CB0188879987AA87BB87688596
:1031E00079858A859B8520E030E040E85FE30E9496
:1031F000250488232CF481E090E09F838E833FC0D8
:10320000688579858A859B8520E03FEF4FE757E405
:103210000E94C50318164CF56C857D858E859F85AB
:1032200020E030E040E251E40E941F02DC01CB01CB
:10323000BC01CD010E944900DC01CB019F838E833C
:103240000FC088EC90E09D838C838C819D810197D9
:10325000F1F79D838C838E819F8101979F838E835D
:103260008E819F81009769F724C0688579858A855A
:103270009B850E944900DC01CB019F838E838E8158
:103280009F819B838A838A819B810197F1F79B832E
:103290008A830FC069897A898B899C890E94490039
:1032A000DC01CB01888B8889898389818A95F1F734
:1032B0008983E1960FB6F894DEBF0FBECDBFCF91E4
:1032C000DF910895DF93CF93CDB7DEB72FE03AE1DA
:1032D00080E0B9010E94290E80E060E00E94900B1E
:1032E000CF91DF910895DF93CF93CDB7DEB780E024
:1032F0000E94E20CCF91DF910895DF93CF9300D02D
:103300000F92CDB7DEB79B838A8319828A819B8116
:10331000009779F08091800190918101CC01A0E02B
:10332000B0E0EA81FB8180839183A283B38381E053
:10333000898389810F900F900F90CF91DF9108952D
:10334000EF92FF920F931F93DF93CF9300D00F92D2
:10335000CDB7DEB79B838A8319828A819B810097D0
:10336000A9F18091820190918301CC01A0E0B0E0AD
:10337000BC01CD010E94A9047B018C0180918001D8
:1033800090918101CC01A0E0B0E0BC01CD010E9490
:10339000A9049B01AC01C801B7010E941903DC011B
:1033A000CB01BC01CD0120E030E048EC52E40E94AA
:1033B0001F02DC01CB01BC01CD010E944900DC01F0
:1033C000CB01EA81FB81808381E0898389810F9031
:1033D0000F900F90CF91DF911F910F91FF90EF9081
:1033E0000895DF93CF9300D00F92CDB7DEB79B83C4
:1033F0008A8319828A819B81009751F08091820192
:1034000090918301EA81FB819183808381E08983AC
:1034100089810F900F900F90CF91DF910895DF93E6
:10342000CF93CDB7DEB7809184018F5F8093840105
:1034300080918401813029F480E090E00E94771B24
:103440002BC080918401823049F480E891E00E9491
:10345000581B80E061E00E941F0D1EC08091840116
:103460008330D1F482E891E00E94581B20918201C0
:10347000309183018091800190918101A901481BC5
:10348000590BCA01909383018093820110928401A9
:1034900080E060E00E941F0DCF91DF910895DF93DF
:1034A000CF93CDB7DEB7A3E5B0E0E3E5F0E08081F0
:1034B00080648C93A3E5B0E0E3E5F0E08081886070
:1034C0008C93ECE5F0E088EC8083A3E5B0E0E3E5E5
:1034D000F0E0808180628C93A3E5B0E0E3E5F0E06A
:1034E00080818F7E8C93A3E5B0E0E3E5F0E08081FE
:1034F0008B7F8C93A3E5B0E0E3E5F0E080818D7FE6
:103500008C93A3E5B0E0E3E5F0E0808181608C93EB
:10351000CF91DF910895DF93CF93CDB7DEB7AFE4BE
:10352000B0E0EFE4F0E080818E7F8C93AFE4B0E018
:10353000EFE4F0E080818D7F8C93AEE4B0E0EEE4C8
:10354000F0E08081877F8C93AEE4B0E0EEE4F0E0C1
:1035500080818F7E8C93A9E5B0E0E9E5F0E0808181
:1035600084608C93ECE4F0E011821082EAE4F0E0F5
:1035700087EE93E091838083AEE4B0E0EEE4F0E088
:10358000808180648C93AFE4B0E0EFE4F0E0808170
:103590008F7B8C93AFE4B0E0EFE4F0E080818F7735
:1035A0008C93AFE4B0E0EFE4F0E080818F7E8C9309
:1035B000AFE4B0E0EFE4F0E080818F7D8C93AEE487
:1035C000B0E0EEE4F0E080818B7F8C93AEE4B0E07D
:1035D000EEE4F0E080818D7F8C93AEE4B0E0EEE429
:1035E000F0E0808181608C93CF91DF910895DF932B
:1035F000CF9300D0CDB7DEB79A838983EAE4F0E0B9
:1036000089819A81918380830F900F90CF91DF9170
:103610000895DF93CF9300D0CDB7DEB79A83898327
:10362000E8E4F0E089819A81918380830F900F9084
:10363000CF91DF910895DF93CF9300D00F92CDB754
:10364000DEB79B838A8381E089838A819B8100978F
:1036500039F0E2E5F0E08081EA81FB81808301C0FE
:10366000198289810F900F900F90CF91DF9108956B
:10367000DF93CF930F92CDB7DEB78983ECE5F0E00F
:10368000898180830F90CF91DF910895DF93CF934D
:1036900000D0CDB7DEB79A838983E6E4F0E0898174
:1036A0009A81918380830F900F90CF91DF9108953D
:1036B000DF93CF9300D00F92CDB7DEB79B838A8381
:1036C00081E089838A819B81009749F0ECE4F0E0F6
:1036D00080819181EA81FB819183808301C019827D
:1036E00089810F900F900F90CF91DF910895DF9314
:1036F000CF9300D0CDB7DEB79A838983ECE4F0E0B6
:1037000089819A81918380830F900F90CF91DF916F
:103710000895DF93CF9300D00F92CDB7DEB79B8390
:103720008A8381E089838A819B81009739F08A812D
:103730009B81909386018093850101C019828981C4
:103740000F900F900F90CF91DF910895DF93CF935B
:1037500000D00F92CDB7DEB79B838A8381E0898347
:103760008A819B81009739F08A819B81909388019F
:103770008093870101C0198289810F900F900F906B
:10378000CF91DF910895DF93CF9300D00F92CDB703
:10379000DEB79B838A8381E089838A819B8100973E
:1037A00039F08A819B8190938A018093890101C0BD
:1037B000198289810F900F900F90CF91DF9108951A
:1037C000DF93CF9300D00F92CDB7DEB79B838A8370
:1037D00081E089838A819B81009739F08A819B816E
:1037E00090938C0180938B0101C0198289810F9085
:1037F0000F900F90CF91DF910895DF93CF9300D07A
:103800000F92CDB7DEB79B838A8381E089838A815B
:103810009B81009739F08A819B81909390018093DE
:103820008F0101C0198289810F900F900F90CF9165
:10383000DF910895DF93CF9300D00F92CDB7DEB71D
:103840009B838A8381E089838A819B81009739F0F9
:103850008A819B8190938E0180938D0101C0198292
:1038600089810F900F900F90CF91DF9108951F9253
:103870000F920FB60F9211242F933F934F935F93A4
:103880006F937F938F939F93AF93BF93EF93FF9328
:10389000DF93CF93CDB7DEB78091910190919201E4
:1038A0000196909392018093910180919101909162
:1038B00092012FE083349207A9F4ECE4F0E080EC6D
:1038C00090E09183808310929201109291018091F7
:1038D000890190918A01009729F0E0918901F09186
:1038E0008A010995CF91DF91FF91EF91BF91AF913F
:1038F0009F918F917F916F915F914F913F912F9108
:103900000F900FBE0F901F9018951F920F920FB639
:103910000F9211242F933F934F935F936F937F9355
:103920008F939F93AF93BF93EF93FF93DF93CF93C7
:10393000CDB7DEB780919301909194010196909359
:10394000940180939301809193019091940127E2D7
:103950008031920779F41092940110929301809132
:103960008F0190919001009729F0E0918F01F091E3
:1039700090010995CF91DF91FF91EF91BF91AF91A8
:103980009F918F917F916F915F914F913F912F9177
:103990000F900FBE0F901F9018951F920F920FB6A9
:1039A0000F9211242F933F934F935F936F937F93C5
:1039B0008F939F93AF93BF93EF93FF93DF93CF9337
:1039C000CDB7DEB7809195019091960101969093C5
:1039D000960180939501809195019091960127E23F
:1039E0008031920779F4109296011092950180919E
:1039F0008B0190918C01009729F0E0918B01F0915F
:103A00008C010995CF91DF91FF91EF91BF91AF911B
:103A10009F918F917F916F915F914F913F912F91E6
:103A20000F900FBE0F901F9018951F920F920FB618
:103A30000F9211242F933F934F935F936F937F9334
:103A40008F939F93AF93BF93EF93FF93DF93CF93A6
:103A5000CDB7DEB780919701909198010196909330
:103A6000980180939701809197019091980127E2A6
:103A70008031920779F41092980110929701809109
:103A80008D0190918E01009729F0E0918D01F091C8
:103A90008E010995CF91DF91FF91EF91BF91AF9189
:103AA0009F918F917F916F915F914F913F912F9156
:103AB0000F900FBE0F901F9018951F920F920FB688
:103AC0000F9211242F933F934F935F936F937F93A4
:103AD0008F939F93AF93BF93EF93FF93DF93CF9316
:103AE000CDB7DEB78091990190919A01019690939C
:103AF0009A01809399018091990190919A012FE008
:103B00008334920799F4E2E5F0E080EC8083109230
:103B10009A011092990180918501909186010097F8
:103B200029F0E0918501F09186010995CF91DF910F
:103B3000FF91EF91BF91AF919F918F917F916F9185
:103B40005F914F913F912F910F900FBE0F901F905B
:103B500018951F920F920FB60F9211242F933F9337
:103B60004F935F936F937F938F939F93AF93BF9385
:103B7000EF93FF93DF93CF93CDB7DEB780919B0197
:103B800090919C01019690939C0180939B01809160
:103B90009B0190919C0127E28031920779F4109269
:103BA0009C0110929B018091870190918801009760
:103BB00029F0E0918701F09188010995CF91DF917B
:103BC000FF91EF91BF91AF919F918F917F916F91F5
:103BD0005F914F913F912F910F900FBE0F901F90CB
:103BE0001895DF93CF9300D000D00F92CDB7DEB7FA
:103BF0000E9417070E94060F0E948B1A0E94EA0E6D
:103C00000E944F1A0E946219CE0101960E947D19EE
:103C1000CE0105960E94A01989819A81AB81BC8151
:103C20000097A105B10581F38D81882369F381E0B7
:103C300060E00E94AC1580E690E00E9419158D812D
:103C4000882F90E0A0E0B0E0BC01CD010E943515C6
:103C500088E690E00E94191582E060E00E94AC15B1
:103C60008AE690E00E94191589819A81AB81BC8116
:103C7000BC01CD010E943515FFCFA1E21A2EAA1B6F
:103C8000BB1BFD010DC0AA1FBB1FEE1FFF1FA2170C
:103C9000B307E407F50720F0A21BB30BE40BF50B09
:103CA000661F771F881F991F1A9469F76095709592
:103CB000809590959B01AC01BD01CF0108952F9295
:103CC0003F924F925F926F927F928F929F92AF92AC
:103CD000BF92CF92DF92EF92FF920F931F93CF93F9
:103CE000DF93CDB7DEB7CA1BDB0B0FB6F894DEBF90
:103CF0000FBECDBF09942A88398848885F846E84B6
:103D00007D848C849B84AA84B984C884DF80EE80FF
:103D1000FD800C811B81AA81B981CE0FD11D0FB608
:103D2000F894DEBF0FBECDBFED010895F894FFCF2C
:103D300044757479203D20002500542050203D20FA
:103D40000000000000000000000001020203030365
:103D5000030404040404040404050505050505051D
:103D600005050505050505050506060606060606FC
:103D700006060606060606060606060606060606E3
:103D800006060606060606060607070707070707CC
:103D900007070707070707070707070707070707B3
:103DA00007070707070707070707070707070707A3
:103DB0000707070707070707070707070707070793
:103DC000070707070707070707080808080808087C
:103DD0000808080808080808080808080808080863
:103DE0000808080808080808080808080808080853
:103DF0000808080808080808080808080808080843
:103E00000808080808080808080808080808080832
:103E10000808080808080808080808080808080822
:103E20000808080808080808080808080808080812
:103E30000808080808080808080808080808080802
:0A3E40000808080808080808080030
:00000001FF
